:020000041000EA
:1000000000B5324B212058609868022188439860DF
:10001000D860186158612E4B002199600221596106
:100020000121F02299502B49196001219960352056
:1000300000F044F80222904214D00621196600F024
:1000400034F8196E01211966002018661A6600F04E
:100050002CF8196E196E196E052000F02FF8012189
:100060000842F9D1002199601B49196000215960AB
:100070001A491B48016001219960EB211966A021F2
:10008000196600F012F800219960164914480160C1
:100090000121996001BC002800D000471248134993
:1000A000086003C880F30888084703B5996A0420EC
:1000B0000142FBD001200142F8D103BD02B5186610
:1000C0001866FFF7F2FF186E186E02BD00000240BE
:1000D000000000180000070000035F00212200005C
:1000E000F4000018222000A00001001008ED00E03C
:1000F00000000000000000000000000074B24E7A12
:1001000000200420F7010010C3010010C5010010F9
:10011000C1010010C1010010C1010010C101001097
:10012000C1010010C1010010C1010010C701001081
:10013000C1010010C1010010C9010010CB01001065
:10014000CD010010CD010010CD010010CD01001037
:10015000CD010010CD010010CD010010CD01001027
:10016000CD010010CD010010CD010010CD01001017
:10017000CD010010CD010010CD010010CD01001007
:10018000CD010010CD010010CD010010CD010010F7
:10019000CD010010CD010010CD010010CD010010E7
:1001A000CD010010CD010010CD010010CD010010D7
:1001B000CD010010CD010010CD010010CD010010C7
:1001C00000BE00BE00BE00BE00BE00BE00F04BF888
:1001D000103800BEF2EB88711880001044800010C7
:1001E0003402001090A31AE700202149086006C8D5
:1001F00081F3088810471F48006800282FD10DA4FC
:100200000ECC002902D000F012F8F9E71A491B4A77
:10021000002000E001C19142FCD1194988471949E9
:1002200088471949884700BEFDE701C901C29A42C3
:10023000FBD3704744800010C00000203804002029
:10024000BC8300100000042000000420BC830010C8
:1002500000100420001004200000000070470B482C
:1002600003F0DAFE0047EFF30580C0B270470000EC
:1002700008ED00E0000000D0380400200C1300203E
:10028000E920001045090010D52100105756000044
:1002900006005250ABB36053187D00100600525058
:1002A000861C0302287D0010060052505422A29D95
:1002B000347D001005005250DE65F468BC830010E8
:1002C000F8B5C0460448054B10B5834203D0044B33
:1002D000002B00D0984710BD3804002038040020BF
:1002E0000000000006480749091A8B10C90FC918F9
:1002F00010B5491003D0044B002B00D0984710BD17
:1003000038040020380400200000000010B5074C1D
:100310002378002B09D1FFF7D5FF054B002B02D026
:10032000044800E000BF0123237010BD40050020F9
:100330000000000080790010054B10B5002B03D0A1
:100340000449054800E000BFFFF7CCFF10BDC046E0
:10035000000000004405002080790010F0B585B051
:100360006B46D0258026D91D8823124F2D06B60254
:1003700002AC0B7001223800AE6107F0F1FA2200E6
:1003800006230021380007F0BBFA6E6162782378FB
:1003900012021343084A1380E278A378120213432F
:1003A000064A13806279237912021343044A1380A8
:1003B00005B0F0BD00C00340381000203A10002006
:1003C0003C100020F0B5DE4657464E4645460F2409
:1003D0000823E0B585B06C44994623709626002327
:1003E0000027FE4D9846B6002200009327210133D6
:1003F000280007F025F93000390001F005FA0C2338
:100400009B46237043462200009327210133280096
:1004100007F016F93000390001F0F6F94B46237069
:1004200043462200009327210133280007F008F9F2
:100430003000390001F0E8F938239A46237043462A
:100440002200009327210133280007F0F9F830003B
:10045000390001F0D9F942463C23272123702800B6
:1004600000923B3B220007F0EBF83000390001F02E
:10047000CBF95246227042460123009227212200E6
:10048000280007F0DDF83000390001F0BDF94A46D8
:10049000227042460123009227212200280007F003
:1004A000CFF83000390001F0AFF95A4622704246C9
:1004B0000123009227212200280007F0C1F8300014
:1004C000390001F0A1F94A46227042460123009208
:1004D00027212200280007F0B3F83000390001F08E
:1004E00093F95246227042460123009227212200AE
:1004F000280007F0A5F83000390001F085F94246E0
:100500003C2327212370280000923B3B220007F068
:1005100097F83000390001F077F9524622704246D0
:100520000123009227212200280007F089F83000DB
:10053000390001F069F94A462270424601230092CF
:1005400027212200280007F07BF83000390001F055
:100550005BF95A462270424601230092272122006D
:10056000280007F06DF83000390001F04DF94A46D7
:10057000227042460123009227212200280007F022
:100580005FF83000390001F03FF9524622704246D0
:100590000123009227212200280007F051F83000A3
:1005A000390001F031F93C232370434622000093C7
:1005B00027210133280007F043F83000390001F00B
:1005C00023F9534623704346220000932721013329
:1005D000280007F035F83000390001F015F94B46D6
:1005E000237043462200009327210133280007F09F
:1005F00027F83000390001F007F95B4623704346C5
:100600002200009327210133280007F019F8300059
:10061000390001F0F9F84B4623704346220000935D
:1006200027210133280007F00BF83000390001F0D2
:10063000EBF828239A462370434622000093272193
:100640000133280006F0FCFF3000390001F0DCF82F
:1006500042462C2327212370280000922B3B2200A6
:1006600006F0EEFF3000390001F0CEF8524622705D
:1006700042460123009227212200280006F0E0FFD5
:100680003000390001F0C0F84A462270424601238A
:10069000009227212200280006F0D2FF3000390006
:1006A00001F0B2F85A4622704246012300922721F7
:1006B0002200280006F0C4FF3000390001F0A4F841
:1006C0004A46227042460123009227212200280038
:1006D00006F0B6FF3000390001F096F84146682276
:1006E00001232270280022000091273106F0A8FF84
:1006F0003000390001F088F841466C232200237055
:10070000280000916B3B273106F09AFF300039003A
:1007100001F07AF8682222704246012300922721D4
:100720002200280006F08CFF3000390001F06CF840
:1007300052462270424601230092272122002800BF
:1007400006F07EFF3000390001F05EF82C232370A4
:1007500043462200009327210133280006F070FF52
:100760003000390001F050F8534623704346220010
:10077000009327210133280006F062FF3000390082
:1007800001F042F8882323709A46434622000093E2
:1007900027210133280006F053FF3000390001F013
:1007A00033F88C2323704346220000932721013322
:1007B000280006F045FF3000390001F025F85346C7
:1007C000237043462200009327210133280006F0BE
:1007D00037FF3000390001F017F801E0F003002086
:1007E0004B46237043462200009327210133280003
:1007F00006F026FF3000390001F006F85B46237052
:1008000043462200009327210133280006F018FFF9
:100810003000390000F0F8FF4B46237043462200B9
:10082000009327210133280006F00AFF3000390029
:1008300000F0EAFFC82323709A4643462200009343
:1008400027210133280006F0FBFE3000390000F0BC
:10085000DBFFCC2323704346220000932721013382
:10086000280006F0EDFE3000390000F0CDFF5346C1
:10087000237043462200009327210133280006F00D
:10088000DFFE3000390000F0BFFF4B4623704346C7
:100890002200009327210133280006F0D1FE30000A
:1008A000390000F0B1FF5B462370434622000093FD
:1008B00027210133280006F0C3FE3000390000F084
:1008C000A3FF4B46237043462200009327210133A8
:1008D000280006F0B5FE3000390000F095FF18231F
:1008E00023709946434622000093272101332800B4
:1008F00006F0A6FE3000390000F086FF1C232370AE
:1009000043462200009327210133280006F098FE79
:100910003000390000F078FF4B4623704346220038
:10092000009327210133280006F08AFE30003900A9
:1009300000F06AFF05B03CBC90469946A246AB4623
:10094000F0BDC046F0B5DE46574645464E46D0247B
:10095000E0B58025A1B004F0ADFCD449D44806F040
:100960000DFF0121102000F0BFFA0121122000F03C
:10097000BBFA0121132000F0B7FA2406AD021120C2
:1009800000F0E2FA65626561FFF7E8FCC94B0AA96D
:1009900002220B80C648A56106F0E2FFC64BC7499C
:1009A000180065619B4606F0F7FD03210C2000F05E
:1009B0009BFA03210D2000F097FA002201210C2060
:1009C00000F0AAFA002201210D2000F0A5FABC488F
:1009D00004F0B4FBFFF7F6FC06AB0F279C46674418
:1009E000FA2306A98C46D024802506AA9373EC3BF3
:1009F00063442406AD021900A5610122AC4806F04B
:100A0000AFFF032300210BAAA94806F079FF656117
:100A100006AB06AA1B7D527D1B031201134306AAD7
:100A2000917DA84A0909128819431B09C9109B1A0C
:100A30005200881AA44A5B430021525EA3494243F4
:100A40000020095E1B134B43D2129B13D31898004E
:100A50009F4AC01880301360001203F007FE002286
:100A60009C4B03F08AFD04000D0002000B009A4825
:100A700004F014FC2900200003F040FE04F0D4F937
:100A800004000D0002000B000FA8944903F080FA47
:100A900006F0E6FE924B92491A787F231A400A70BC
:100AA0004A78904813404B703F238A781A408A70E6
:100AB0000722C9780A408A49CA700A7913401F225E
:100AC0000B7149790A4086494A71897904F0E6FB3D
:100AD000834B834A82491B7889785278824804F094
:100AE000DDFB7F4B814ADB78013B9B00D05804F053
:100AF00025FB7B4B7A4A5B7892787D490CA803F002
:100B000047FA7749764B0979754A5B79927915A846
:100B10000091784903F03CFA0A2004F001FB15A883
:100B200004F0BCFB0A2004F0FBFA0CA804F0B6FBAE
:100B30000A2004F0F5FA704A704B2000290003F0F7
:100B400025FD22002B0003F021FD6D4A0290039148
:100B50006C4B2000290003F019FD02000B000298E5
:100B6000039903F0F8FC0022674B03F0FDFC03F04F
:100B7000C5FD04F059F90B000200644912A803F006
:100B800007FA634B0B201893624B1993624B1A932D
:100B900012AB1B93614B1C930CAB1D93604B1E93CC
:100BA00015AB1F9318AB069300239A460793069B39
:100BB000029300230593029B40081B689846082374
:100BC000181A0400059BC034002B01D180300400AA
:100BD00025000F239D43FF2308221B0124011C40F5
:100BE00053461543EDB2272114433D703A0000935C
:100BF0005846012306F024FD96200021800000F0D5
:100C000003FE04262B0033433B7053463A00272152
:100C100000935846012306F013FD96200021800022
:100C200000F0F2FD53463A0027213D7058460093EC
:100C3000012306F005FD96200021800000F0E4FD70
:100C40005346E4B23A003C702721009358460123F2
:100C500006F0F6FC96200021800000F0D5FD5346FA
:100C600026433A003E70272100935846012306F0A0
:100C7000E7FC96200021800000F0C6FD53463C7042
:100C80003A00272100935846012306F0D9FC96200C
:100C90000021800000F0B8FD43461C780923464639
:100CA0009946002C00D1A4E03CE0C04620A10700FA
:100CB00000C0034074270000F0030020A08601005C
:100CC00080790010381000203A1000203C100020DD
:100CD00040100020000059409C790010AC790010B1
:100CE000F8030020B0790010C4790010000400203F
:100CF000D8790010E4790010D044D8F0F44AA93F24
:100D00004DF38E537424F53F00603940F87900109C
:100D1000007A00100C7A0010207A00102C7A001053
:100D20003C7A001025000F239D434B4624011D43B0
:100D30001C435346EDB23A0027213D7058460093BC
:100D4000012306F07DFC96200021800000F05CFD70
:100D50000423984643462B433B7053463A002721D1
:100D600000935846012306F06BFC9620002180007A
:100D700000F04AFD53463A0027213D705846009343
:100D8000012306F05DFC96200021800000F03CFD70
:100D90005346E4B23A003C702721009358460123A1
:100DA00006F04EFC96200021800000F02DFD434609
:100DB00023433B7053463A002721009358460123B2
:100DC00006F03EFC96200021800000F01DFD5346F9
:100DD0003C703A00272100935846012306F030FC6E
:100DE000962000210136800000F00EFD3478002CA2
:100DF00098D1029B04330293059B012B08D0029BE0
:100E00001B681800059306F045FD01230593D2E603
:100E1000344800F041FD082453463A003C70272135
:100E200000935846012306F00BFC96200021800019
:100E300000F0EAFC0C233B7053463A002721009354
:100E40005846012306F0FCFB96200021800000F0AC
:100E5000DBFC53463A003C7027210093584601239F
:100E600006F0EEFB96200021800000F0CDFC5346FA
:100E700010343A0027213C7058460093012306F0B5
:100E8000DFFB96200021800000F0BEFC1C233B709D
:100E900053463A00272100935846012306F0D0FB21
:100EA00096200021800000F0AFFC53463A00272135
:100EB0003C7058460093012306F0C2FB96200021A7
:100EC000800000F0A1FC079B069A023308320793CA
:100ED0000692082B00D183E513681800029306F0F0
:100EE000D9FC64E688130000094A83009446402236
:100EF000634410B51C68C0006240C02414408022C6
:100F0000520113431C60034B9C466044416010BD7A
:100F100004C00140004001400A4B80009C4604236D
:100F20006044002901D00C230821002A00D10B00C5
:100F3000026853400C221A4080235B011843026070
:100F40007047C04604C001400123D02283401206EE
:100F500093629361094A830094464022634419686E
:100F6000C0004A40C0211140802252011343196041
:100F7000034B9C46052360444360704704C0014016
:100F800000400140F8B5CE464746914680B5EFF3A4
:100F9000108772B6124E3368002BFCD0BFF35F8F00
:100FA000CB08C55C0724C218280001230C409446D6
:100FB000E0401A000240904603420DD1A340624631
:100FC0002B431370BFF35F8F4346336087F3108862
:100FD0000CBC90469946F8BD484601F0FDF8C04665
:100FE0002C0100D0F8B54746CE46884680B5EFF3D1
:100FF000108C72B6214D2C68002CFCD0BFF35F8F93
:101000009A422DD8D408055D071907242E001440F4
:10101000E640F1071ED507218946063908E0D408C5
:10102000055D07194C462E001440E640314211D0B0
:1010300001329342F3D201204042BFF35F8F00227E
:101040000E4B1A608CF31088002811DB0CBC904604
:101050009946F8BD0123A3401D4310003D70ECE705
:10106000BFF35F8F00232B608CF310880120404278
:101070004346002BEAD0089801F0AEF82C0100D0CE
:101080000021044B044ABFF35F8F02C39342FAD19D
:101090007047C046000100D0800100D0044A10789B
:1010A000431CDBB2172B00D9102313707047C046C6
:1010B0000803002000B5054B83B0010000931822FF
:1010C0001F230348FFF78EFF03B000BD547A0010C2
:1010D000DC080020024B18688007C00F7047C0462C
:1010E00000C00640F8B5040006200D0001F002FA29
:1010F000002845D02B4B2C49E3185A4253418022FB
:10110000D20394465B421340284A63441360284A42
:10111000136018008A689043FBD1224B8021E318AA
:101120005A425341234A5B0049000620995201F07C
:10113000E1F92900C00002F0C9FFC30921D140270D
:101140000122260080256262A36200232C36AD01B5
:1011500035432B60062001F0CDF93900800002F004
:10116000B5FF6023E26A53406E221A4080235B0180
:1011700033431A60104B236310232B600D3BA36491
:10118000F8BD0E4A934203D900230D4F0D4AD8E70C
:101190007F221040013040089F011A003F180300D1
:1011A000CFE7C0460080FCBF00C0004000E0004028
:1011B00000F000404410002001030000FEFF00008A
:1011C000C0FF3F00FFFF000083680B4810B5844656
:1011D00061446244090112019A18591854684B6815
:1011E00001209C4201D802D00020C0B210BD12687C
:1011F0000B689A42F9D8F7E7FFFFFF0F40BF0020C6
:1012000000217047F8B557464E464546DE46E0B5E4
:10121000434D81468A466A68EFF3108872B61368B8
:10122000002BFCD0BFF35F8F2E68B47B002C3ED028
:10123000670033683F19033FDA195378B373002B03
:1012400000D1F3730023937053701370A968354A6B
:101250008C464946A2181201624411605146516001
:101260003149D36091603268D21993705370137012
:10127000737B9B46002B35D022001900B068736841
:1012800098473268002820D05B4658465B005B4494
:10129000D719033BB870D118D35C002B00D07B70FA
:1012A0005B460C7073735C451DD0002626E06B68AE
:1012B000BFF35F8F1C6088F31088012040423CBC64
:1012C00090469946A246AB46F8BD5B465B005B4440
:1012D000033BD3189C70D119D25D002A00D05A70FC
:1012E0005B460B7074734A465346287D00F056FCEB
:1012F000061EDAD02100286800F0B8FEEB686A68A4
:101300001B19013B1B78BFF35F8F0021116088F32D
:1013100010880020002ED2D118022043CFE7C0460B
:101320000C030020FFFFFF0FFD110010F8B557461A
:1013300045464E46DE46E0B599460CAB19780DABF6
:101340001B78050090469A460768002912D1BE7B9B
:10135000002E45D074003B68A419033C1B195A7831
:101360003100BA73002A00D1FA7300229A705A70C1
:101370001A7003E00E004C006418033C2C4B002252
:101380009C46AB6861449C464346090161440B603E
:101390004B464B600A9B8B600B9BCB603B681B19D9
:1013A0009A705A701A707B7B9B46002B2CD03200AF
:1013B0005946B8687B6898473A68002817D05B465A
:1013C00058465B005B441419033BA070D118D35CF2
:1013D000002B00D063705B460E707B73B34514D056
:1013E00030003CBC90469946A246AB46F8BD5B46F1
:1013F0005B005B44033BD3189E701119125D002AF9
:1014000000D05A705B460B707E7342464B46287D77
:1014100000F0C4FB041E06D05346002B03D131005C
:10142000286800F023FE0E9B002BD9D01C70D7E754
:10143000FFFFFF0FF0B5DE464E46574645460023F8
:10144000E0B58DB00A936B4B8200D3580B90994650
:1014500000239B464B46079300F040FB079C060089
:101460000F006268EFF3108572B61368002BFCD092
:1014700022000794BFF35F8F2468637B9946002B9B
:1014800067D092685C4B90464B441B01984443469E
:101490001A685B6810001900801BB94100295FDDE4
:1014A0000B9800F07BFB00230026984600279A4605
:1014B000079C6368BFF35F8F5A461A6085F31088F4
:1014C0005346002B08D10028C6D10DB03CBC904635
:1014D0009946A246AB46F0BD0A9B414618024B46D0
:1014E0001843D047089009916268EFF3108572B6EF
:1014F0001368002BFCD00794BFF35F8F0899099AFB
:10150000002A48DB114303D0079B1B69002B5DD1E8
:10151000079B1B68DA7B002A07D051008A181968DC
:101520008C4649466244033A51704A46DA734B4648
:10153000079A013BD168CA5C0132CA545B46079ADC
:1015400013615368BFF35F8F5A461A6085F31088A2
:1015500082E700230026984600279A460020A7E746
:10156000002901D100289BD10021200000F0E0FCDF
:1015700043461E685F689B68079A9A464346DB6845
:101580009846D3684B44013B1B780A931B020343E4
:10159000136100208CE72369002BB9D033003C0095
:1015A0005B1A94411A002300A74219D89F421BD00E
:1015B0005946049101210391494602914146019106
:1015C000514607980091FFF7B1FEB7E700F086FAA1
:1015D000089A099B06000F0092197B419942E5D9B0
:1015E00001225242D317E3E79642E1D90122524247
:1015F000D317DDE704100020FFFFFF0F10B5104CDC
:101600006368002B00D010BD23000E4A1021206813
:1016100000F0ACFB032000F055FA032000F030FB93
:101620000320094900F074FAFFF738FD074B9C4688
:10163000032360442375064B80006060DC60E2E7B2
:101640000C030020C91100103514001040000034B4
:1016500004100020004870470C030020F0B55746E6
:101660004546DE464E46E0B585B0019310AB1B788B
:1016700000270393002380469A46009243465A6807
:10168000EFF3108972B61368002BFCD0BFF35F8FA5
:1016900043461D68AC7B002C4FD066002B68361982
:1016A000033E9B195A78AA73002A00D1EA73424676
:1016B0009F705F701F709268524B94460099019A18
:1016C000E3181B01634419605A600E9A9A600F9ADE
:1016D000DA602B689B199F705F701F706B7B9B4655
:1016E000002B46D022001900A8686B6898472A682A
:1016F000002831D05B4658465B005B449619033B9B
:10170000B070D118D35C002B00D073705B460C70A6
:101710006B735C452ED04346DB681B19013B187880
:1017200043465B68BFF35F8F1F6089F310885346A1
:10173000002B2ED10002204307E05B68BFF35F8FD0
:101740001C6089F310880120404205B03CBC9046E3
:101750009946A246AB46F0BD5B465B005B44033B4B
:10176000D3189C709119925D002A00D05A705B4684
:101770000B706C734346187D009A019B00F00EFAC3
:1017800082460028C7D043462100186800F06EFC4E
:10179000C1E7039B002B32D00E9B00200F99984786
:1017A000030004000D000B4329D000290DDA009836
:1017B000019902000B00121BAB41994215D81AD0B7
:1017C00000920193039B9A4658E700F087F90200C4
:1017D0000B00A4185D412000290000900191AB424C
:1017E00003D8EFD100998A42ECD901235B42DC1780
:1017F00000930194E6E700999142E1D9F5E70020D2
:10180000A3E7C046FFFFFF0FF8B504000D0000F08E
:1018100065F902000B00A4185D41A9422DD82AD019
:1018200006267642F71736196F41AF422CD90026AB
:10183000002700F053F932003B00121A8B41002BB5
:1018400007DC04D02900200000F052F9F8BD002A7E
:10185000F8D030003900FFF7D5FC0028F2DB380063
:101860000C4A536A984204D8916A8E42EAD9984247
:10187000E8D120BFF5E7A042D2D901246442E517A0
:1018800007267642F717D4E7AF42D2D1A642CED888
:10189000CFE7C04600400540F8B5040000F01EF94F
:1018A000FA2206000F00200000230021920003F01E
:1018B000A1FA8019794104000D008F422DD82AD059
:1018C00006267642F71736196F41AF422CD900260B
:1018D000002700F003F932003B00121A8B41002B65
:1018E00007DC04D02900200000F002F9F8BD002A2E
:1018F000F8D030003900FFF785FC0028F2DB380013
:101900000C4A536A984204D8916A8E42EAD99842A6
:10191000E8D120BFF5E78642D2D901246442E51719
:1019200007267642F717D4E7AF42D2D1A642CED8E7
:10193000CFE7C04600400540F8B5CE46474680B5E3
:1019400006000C00FFF75EFC00280CDC2D4B00208D
:10195000596A8C4203D89B6A0130B34245D30CBC10
:1019600090469946F8BD20BF274D6A68EFF310876F
:1019700072B61368002BFCD0BFF35F8F2B68C1B227
:101980009C465B7B8B4235D0FF2303405A00914637
:1019900062461268994490464A464244033A927815
:1019A000002A1DD0EA68000A90464344013B1B7898
:1019B000C0B2834221D06B68BFF35F8F00221A60F0
:1019C00087F310880F4A0020536A9C42C7D8926A56
:1019D0000130B242C3D2E41A601E8441E0B2BEE7D5
:1019E0002B699842E7D12A61E5E7641A601E8441B9
:1019F000E0B2B4E7FF230340D4E7604600F036FBD3
:101A0000D9E7C046004005400C030020F0B5D6469B
:101A10004F464646C0B5EFF305833F2213401800FA
:101A20001038EFF3108C72B6204D2A68002AFCD0D3
:101A3000BFF35F8F0122110081401D4C8846616316
:101A40001C4917000E788A463100C1400F400A42F7
:101A500015D019498200646A51588C4219D3174B2A
:101A6000D25843469E4353461E70BFF35F8F0023F8
:101A70002B608CF31088002A06D0904704E0BFF357
:101A80005F8F2F608CF310881CBC90469946A2464D
:101A9000F0BD0B4A9B00904643441A681A60BFF39E
:101AA0005F8F00232B608CF31088EDE7280100D0B6
:101AB00000400540361000201C100020CC080020FB
:101AC000D03F054010B50100024A0348FFF75AFA1B
:101AD00010BDC046707A001033100020034B596AC5
:101AE0000A00986A596A8A42FAD170470040054054
:101AF000064A536A9942FCD807D1044B02E05A6A5D
:101B0000914202D19A6A8242F9D37047004005405F
:101B100070B504000D00EFF3108672B61A4A136810
:101B2000002BFCD0BFF35F8F002D1BD0200000F0F6
:101B300093FD164981420AD0200000F095FD012155
:101B4000200000F06FFD0123A340114A1360114BE8
:101B5000A400E550BFF35F8F00220B4B1A6086F3A1
:101B6000108870BD0B4BA200D5500122A2400A493B
:101B700020000B7893430B70044900F09FFD002177
:101B8000200000F04FFDE5E7280100D00D1A0010FD
:101B900038600540CC08002036100020F0B54F46D4
:101BA000D6464646C0B50700304C616A0D00A66AAD
:101BB000616AA942FAD18B4208D805D001201CBC29
:101BC00090469946A246F0BDB242F7D9EFF310898C
:101BD00072B6274801680029FCD0BFF35F8F01254A
:101BE0002449BD408C460978204C0E002E4388467F
:101BF000F1B28A46614650460870391D1E48890078
:101C000065630A51B9000B50216A0020294219D09E
:101C1000616A0800A66A616A8142FAD18B4219D8CA
:101C200001D1B24216D8C2451DD0104B1F201D62F3
:101C30005D6301230740BB40104A1E3813606346B2
:101C400042461A70BFF35F8F0022094B1A6089F376
:101C50001088B4E70020BFF35F8F0022044B1A60A6
:101C600089F31088ABE70120ECE7C046004005404F
:101C7000280100D0361000201C10002080E200E077
:101C800010B5EFF3108472B60A490B68002BFCD034
:101C9000BFF35F8F01238340074A0848136202782D
:101CA0009A430270BFF35F8F00230B6084F31088A8
:101CB00010BDC046280100D000400540361000206D
:101CC000024B9C466144890001607047400000342B
:101CD00010B50400FFF7E2F901002000FFF7F0FF64
:101CE000FF232371BFF35F8F10BDC04610B5040002
:101CF0000120FFF7DFF901002000FFF7E1FFBFF34C
:101D00005F8F10BD70B505000E001400002924D0AF
:101D1000002A24D080686B689847296800280ED074
:101D200063001B197200033B9219CB18033A9E7093
:101D300088188A5C002A14D1047030000EE0730009
:101D40009B196200033B1219CB18033A9C70881848
:101D50008A5C002A00D05A700670200070BD08000E
:101D6000FCE75A7004703000F8E7C04630B5836075
:101D70000023CCB243730133047342608373C47392
:101D80000D000068012C06D9421C0133DBB2137030
:101D900003329C42F9D1FF2129404B0059180023FE
:101DA00040180338437030BDF8B5CE4647460600AC
:101DB0000C0080B5002907D04D0003686D18033D65
:101DC0005A195778002F04D120000CBC9046994630
:101DD000F8BD7900C91903398846434459788946C2
:101DE00000215970517073683A002100806898474B
:101DF0003368002814D042469A18947059195B5DD4
:101E0000002B00D053700F70270049463000FFF7B9
:101E1000CBFF390002003000FFF774FF0400D3E766
:101E2000424641465D19AF709A185B5C002B00D0AA
:101E30006B701470E9E7C046F0B557464546DE467C
:101E40004E46E0B50D006B0001685B19DF1E040013
:101E5000C85D83B00192CA1900284CD043001B18FA
:101E6000033BCB185E78B446002E16D1019E002E9F
:101E70003ED0E67B002E04D073009B19CB18033BA9
:101E80005D70E57300282FD10023537003B03CBC74
:101E900090469946A246AB46F0BD72006244033AB2
:101EA00089184A78904600224A7091465A7001007B
:101EB00032002000FFF726FF43468246002B07D062
:101EC0005B0021684344033BCB185A78002A16D1A3
:101ED000424651462000FFF715FF2168019BCA19B1
:101EE000002BC6D10028CFD043001B18033BCB18D2
:101EF00000219970C8E7019B002BBAD1C4E75000BC
:101F00008018033809184878834648464870587046
:101F100041462000FFF7F6FE594680462000FFF7B5
:101F200043FF414602002000FFF7ECFE8046CFE76A
:101F3000F0B54E464546DE465746E0B5467B0400C2
:101F400075000068AD19033D83B00191415D4219F0
:101F500000294ED04B005B18033BC3185F78BC468A
:101F6000002F18D1019D002D40D0E57B002D04D01D
:101F70006B005B19C318033B5E70E673002931D117
:101F8000002330005370617303B03CBC9046994607
:101F9000A246AB46F0BD7A006244033A801842780C
:101FA00093460022427091465A7020003A00FFF793
:101FB000A9FE5B468046002B07D05B0021685B448E
:101FC000033BCB185A78002A17D15A4641462000C5
:101FD000FFF798FE019B010020684219002BC4D135
:101FE0000029CDD04B005B18033BC318002098702C
:101FF000C6E7019B002BB8D1C2E750008018033818
:10200000091848788246484648705870594620005A
:10201000FFF778FE53468346002B07D05B0021680C
:102020005344033BCB185A78002A06D159465246EE
:102030002000FFF767FE8346C7E75000801803388B
:10204000091848464F784870587051462000FFF7ED
:1020500059FE390081462000FFF7A6FE49460200DE
:102060002000FFF74FFE8246E0E7C04670B504004F
:1020700000292CD0437B8B422ED0056848004018A5
:10208000033828188278002A21D053009B18033B7C
:10209000EA5CEE188A4202D11BE0002A08D0530005
:1020A0009B18033BEB185A788A42F6D142785A7053
:1020B00000230122837043702000FFF7BDFE617B87
:1020C00002002000FFF71EFE6073012000E00020E8
:1020D00070BD43783370EBE701221900FFF7ACFEC7
:1020E00060730120F4E7C0462B4B2C4A70B51A6090
:1020F0002B4A2C4B2C491A6010008B689843FBD15B
:102100002A4C2B4B9C4209D2013B1D1BAD080135CB
:10211000AD002D1908CC9847AC42FBD100F07AF8FD
:10212000244A204B1A60204A9368DB018033FBD19C
:102130004022214B214C9A675A671A67DA66204B76
:102140009C420BD2013B1D1BED080135ED002D1902
:1021500020000834FFF7BCFDAC42F9D1194C1A4DF0
:10216000A168C022280002F0D7FEA560FEF788FF14
:1021700000F0DCFBFFF742FA144C154B9C4209D2ED
:10218000013B1D1BAD080135AD002D1908CC98474A
:10219000A542FBD170BDC04600E00040BFCDFFFFAF
:1021A000FE7F3C0000F0004000C0004024040020FE
:1021B00034040020FFFFFF0100F001401C04002058
:1021C0002404002000ED00E0000000203404002082
:1021D0003804002000BEFDE70FB400B5084883B006
:1021E00002F0ACFF049B002B07D005A91800019159
:1021F00001F0F2FE034802F0A1FF00BEFDE7C04679
:10220000947A0010A47A001010B50148FFF7E4FF9B
:10221000A87A001030B50C2083B000F071F9FEF7F9
:1022200059FF00280ED09A4B9A4A1A605A609A6059
:10223000DA601A615A619A61DA611A62964A5A62E0
:1022400003B030BD954CA06700F0AEF90122944B6D
:102250001A60636C012BFCD10322924B1A608F4AE7
:10226000936B012BFCD1C0228F4B92011A608F4BD4
:102270008F491A6010008B689843031EFAD102241C
:1022800001218C4A8C480633009400F0A1F9052303
:102290008A4A01218A48009400F09AF9894B5A68C9
:1022A000FF2A02D8802252005A608022784C7D4B4F
:1022B00021691201834D1A60002905D0606901F07F
:1022C00005FF01300138FDD1E0217E4B02201A6864
:1022D0001140802252012A431160196848400321AD
:1022E0000140116004219A681142FCD080228021B3
:1022F00092012A4309011160802252005A60724BF8
:102300002361724B5968FF2900D85A6003226F4835
:10231000634B01211A60020093681942FCD0E0254A
:1023200013681D4080235B0103431D6012684A400F
:102330000321114019600221644A93681942FCD0BC
:10234000802380219B010343090119608021604B98
:102350004900516063615F4B5A68FF2A00D8596099
:1023600080225D4BE16912015A4D1A60002905D0A7
:10237000606901F0ABFE01300138FDD1E022554922
:102380000B681A4080235B012B431A608023802254
:102390009B012B4312011A6080223E4B52004A607F
:1023A000E3614E4B5968FF2900D85A6080224C4B9C
:1023B000216A1201494D1A60002905D0606901F0B7
:1023C00085FE01300138FDD1E02244490B681A40F6
:1023D00080235B012B431A60802380229B012B43C7
:1023E00012011A60802380225B004B60294BD202CD
:1023F00023623C4B5968914200D25A6080223A4B8A
:10240000616A1201374D1A60002905D0606901F038
:102410005DFE01300138FDD1E02232490B681A40DF
:1024200080235B012B431A60802380229B012B4376
:1024300012011A608023DB024B60174B63622B4B47
:102440005A68FF2A02D8802252005A608022284B04
:10245000A1691201254D1A60002905D0606901F0BB
:1024600035FE01300138FDD1E02220490B681A40C9
:1024700080235B012B431A60802380229B012B4326
:1024800012011A6080235B004B60114BA361D7E6F9
:10249000E0080020006CDC021BB700000080004058
:1024A0003CB0004030B0004000E0004000F0004090
:1024B00000C00040002F68590080024000389C1C7A
:1024C00000C0024030800040001BB7003C8000404C
:1024D000405973075480004054B000406080004071
:1024E00060B000406C8000406CB00040488000400C
:1024F00048B00040014B8000C0587047E008002001
:102500008023024A9B000343D3627047008005404A
:1025100010B5140080221A4BD2051A6000282CD066
:102520000123184A1843184BDA61184A42401A62CC
:10253000596298628022124BD2051A601449154ADA
:102540001160E022D2041A60002C12D080236201B4
:10255000121B9200121912015B049A4200D30E4A18
:102560000E4B1A60084B5A6080220D4BD2051A6040
:1025700010BD0C4A094B1A60F4E7034BD861D9E748
:1025800000B00540D3C007B0008005402D3FF84F94
:10259000FCFF010008200140FFFFFF00FC0F0020AE
:1025A00000A00540A0860100AA23064A1B01136073
:1025B0002F230549D360054B19605368002BFCDAC3
:1025C0007047C0460040024000B0FA000060024080
:1025D000F8B51E0001235B424360002304008360C2
:1025E00001600C20170001F071FD4101091A8D01F5
:1025F000691AC90009188901380001F067FDC02176
:10260000231D890119432123A0600B602268002A41
:10261000FCDA069B36041B031E430823E6600B60AE
:10262000F8BDC04601238340002904D0034A13604B
:10263000034A13607047034A1360FBE780E200E03F
:1026400000E100E080E100E001238340014A1360E3
:102650007047C04600E200E0024B10309B688000EB
:10266000C058704700ED00E070B50D00EFF3108624
:1026700072B60F4A1368002BFCD0BFF35F8F0D4B6F
:1026800010309B6884001B590B4A934203D09D4233
:1026900001D0FFF7B9FD074B9B681D51BFF35F8F5A
:1026A000BFF35F8F0022024B1A6086F3108870BD63
:1026B000240100D000ED00E0CD010010F0B5DE46B1
:1026C00057464E464546E0B50C0083B0EFF3108AFE
:1026D00072B65B4A1368002BFCD0BFF35F8F1022E9
:1026E000914681444A46574B96009B689D59564BEC
:1026F00098469D4205D0A54216D0544FEB1B2F2B78
:1027000014D9504B9B689D51BFF35F8FBFF35F8F10
:1027100000224B4B1A608AF3108803B03CBC9046F1
:102720009946A246AB46F0BD1D00EAE7012383406F
:102730009B465A46464B1B681A4000925A46454BE8
:102740001A60BFF35F8FFDF78EFD0190002803D064
:10275000814501D0FFF758FD01232A009A43130059
:10276000DB1B5B4142495943090D93689C4208D1E8
:102770005BE043001B189B00FB189868A04211D037
:102780001A00062010560028F3DA009B002B05D013
:102790005A46314B1A602E4B1A60B2E75A462D4BFF
:1027A0001A60AEE706201856002822DB42001118F6
:1027B00089007C188846A1689960E179D971062161
:1027C00061569971A1797F291FD8A488F91A6405E7
:1027D000241544440919E0240905490D2402214324
:1027E000998012181D4B9200BF181A781870BA7190
:1027F000CBE7019800280BD1FF30907118489080EA
:10280000164A107811709871BFE7BD210902E7E7F9
:10281000144A1549D21A083A5002400D01439980D2
:10282000124952080A43DA80AFE706201056130017
:102830000028BBDA019A002AEAD14546E0E7C04603
:10284000240100D000ED00E0CD0100103403002091
:1028500000E100E080E100E080E200E034100020D0
:1028600000BDFFFF6E03002000F0FFFF00F8FFFF38
:10287000AAAA0000F8B5012504000543FDF7F3FC02
:102880000200EFF3108672B621490B68002BFCD0D2
:10289000BFF35F8F1F492000401A4041224B434342
:1028A0001B0D1D48920087685BB2BF58AF421CD019
:1028B00006228A569A421CD012228A569A4222D066
:1028C0001E228A569A4220D02A228A5603209A42F1
:1028D00010D0124A11781370A171BFF35F8F0022DC
:1028E0000B4B1A6086F31088F8BD81680C4888503D
:1028F000EFE700204200121892008918FF228A7127
:10290000084A8A80E5E70120F4E70220F2E7C046A2
:10291000240100D03403002000ED00E0341000203A
:10292000CD01001000BDFFFFAAAA0000F0B50022F3
:102930000324FF27802620003D00094B11009C4600
:102940001040C0008540A14361440B680132AB4395
:10295000350085402B430B60202AECD1F0BDC046EA
:1029600000E400E09A4200D2885470477047C046A5
:10297000F8B557464E46DE464546E0B51F000A9B71
:1029800005009B460D9B0E00914692469B0718D171
:102990000B9B0C9A934214D213000B9AB8469B1AC5
:1029A0004B444C460F0006001D00220043460134F4
:1029B00039002020B047AC42F7D1AA4635003E008E
:1029C00047460B9B002B38D09A441C00D0465346F8
:1029D0001A1B5B46013C185D31003B00A847002CE8
:1029E000F5D10D9B9B0721D543464A469C1A0C9B6B
:1029F000A3421BD93A009A464F469146E2194B46EC
:102A0000310020200134A8475445F7D343460C99A0
:102A1000DB1B0133B9460022994203D343464A1EC9
:102A20004A44D21A434690460133984440463CBC3F
:102A300090469946A246AB46F8BDD046D1E7C0467F
:102A4000F0B54F464646D646C0B584B098460EAB64
:102A50001B78129F994694460D9C109B119EBA07B5
:102A600025D4002E69D19C4200D3C2E001223A4015
:102A700092461F2C00D9BBE00C9A551E302201E073
:102A8000202C03D001342A55A342F9D85246002AFB
:102A90000DD0B4420BD21F2C62D80C9A551E302296
:102AA00001E0202C5CD001342A55B442F9D1FA0659
:102AB00035D57A055DD4002C57D10F9B102B00D152
:102AC0007CE00F9B022B00D18DE030230C9A012477
:102AD00013704B46002B27D02D230C9A135501342D
:102AE0000C9B624600930397434602960194FFF7BE
:102AF0003FFF04B01CBC90469946A246F0BDBB0601
:102B000063D4202CECD00C9B1A1901347823137059
:102B1000202CE5D030220C9B1B191A700134202C7C
:102B2000DED04B46002BD7D17B0735D43B07D7D51A
:102B300020230C9A13550134D2E7012215003D40A1
:102B4000AA463A4220D04A46002A2AD10C323A42BA
:102B500027D19C429DD21F2C00D88DE7202E19D959
:102B60002024FA06BCD57A0503D4A3421BD0A64282
:102B700019D00F9B102BC2D0022BC9D1202CAFD063
:102B80000C9B1B19013440E09C4200D38FE71F2CA3
:102B900000D871E720248AE72B230C9A13550134BF
:102BA0009EE7013ED5E7631E012C00D185E70F9A11
:102BB000102A20D0022A25D01C00ABE7BB060DD47A
:102BC00078230C9A01241370A4E7202C00D187E706
:102BD00058220C9B1B191A70013499E758230C9A40
:102BE0000124137096E70C9A60330124137091E767
:102BF000202400265BE7023CBA06E9D40C9A12199D
:102C00001C0083E70C9A9246534462221A707FE7B5
:102C100010B5002800D110BD02F082FAFBE7C046D3
:102C20000B0010B5002802D049681B68984710BDFA
:102C3000F0B5DE46574645464E46E0B59BB09B464E
:102C4000249B0A909846259B0B910C924046424645
:102C500019009A4601F0F7FC002800D0E8E00122B4
:102C6000404651467F4B524201F0E8FC002800D01C
:102C7000DEE00122404651467B4B524201F0C8FC47
:102C8000002800D0D4E0002200234046514601F045
:102C9000BFFC002800D0CAE15346C14609938023F7
:102CA000289ADB001A400E92289A1A4201D1062374
:102CB00026934C46099B234300D0D9E0289B00264D
:102CC00000271B0500D4AEE100230D93269B1900BD
:102CD0000D9B994200DCB0E1C81A431E2693802365
:102CE000289ADB001A430023002528920D93279B86
:102CF0000024AB4200D95C1B0223289A1A400E9292
:102D0000289A134203D06B426B415B421C400D9BDF
:102D1000002B07D04846099932003B0001F02DFCFA
:102D200081460991002200234046514601F070FC83
:102D3000002805D080200006844609996144099145
:102D4000289A4A4B0A9E13404A460493269B0B99A5
:102D50000293099B03940092019330005B460C9A06
:102D6000884600F0A1F90400002D72D0289B2200B3
:102D700098061F23C017984341465B466530B0470D
:102D80000D9B671CDA179C18DB0F98466B1E994643
:102D90000025544001E0202D13D00AAA94461F2399
:102DA000200063440A2101355E1901F08FF93031AA
:102DB000317020000A2101F089F926000400092E53
:102DC000E9D8052306934B460593002304930A3361
:102DD000039343463A000A9E0B9F029312AB009363
:102DE00039005B4630000195FFF72AFE0E9B040078
:102DF000002B2ED00C9B279AC51AAA4229D93C0039
:102E0000814698461700434621005A1920205B4608
:102E10000135B047AF42F6D84C460C992798631A53
:102E200001330022984200D30AE10134141910E062
:102E3000289B42460493279B0B990393269B0A9851
:102E400002935346009201935B460C9A00F02CF9D2
:102E5000040020001BB03CBC90469946A246AB46FD
:102E6000F0BDC046FFFFEF7FFFFFEFFFFFF7FFFF63
:102E7000764B099D9C466800400D604401F0F6FBCE
:102E8000734A744B01F082FB734A744B01F06CFB84
:102E90002B03734A1B0B1A4306000F00714B1100E2
:102EA00048460022099501F056FB6F4A6F4B01F02E
:102EB0006DFB02000B003000390001F055FB01F002
:102EC000EDFB0D9001F0D2FB694A6A4B04000D0046
:102ED00001F05CFB0022684B01F046FB01F0DEFBD9
:102EE000664A0600664B2000290001F04FFB0400F3
:102EF00030000D000F9601F0B9FB624A624B01F001
:102F000045FB02000B002000290001F024FB020019
:102F10000B0006000F0001F039FB320004000D0029
:102F20003B003000390001F01FFB0022109011918E
:102F3000564B2000290001F020FB0022544B01F0E9
:102F400013FB02000B002000290001F016FB0022F9
:102F5000504B01F009FB02000B002000290001F09A
:102F60000CFB0D00802132003B000400C90500204D
:102F700001F0F1FA02000B002000290001F0F4FA40
:102F800002000B001098119901F0F7FA0022344B5F
:102F900001F0EAFA404A0F9B9446634400221B0565
:102FA00001F0F4FA06000F0002000B0048460999F0
:102FB00001F02EFB00280AD00D9B3000013B3900A8
:102FC0000D930022324B01F0D8FA06000F00C625FF
:102FD0000D99330063318D42AD4128996D4204351E
:102FE000090500D483E63B4300D16FE6099C4846BF
:102FF00021002A4A2A4B01F019FB002808D00022A0
:1030000048462100274B01F003FB002800D05DE675
:10301000269B002B00D16AE60E9B5A1E9341269AEE
:10302000D31A269363E6002304250D935FE68023DD
:103030001B065344C146099331E6002326934EE60E
:103040000A008446013A6244121BEEE601FCFFFFCF
:10305000FB799F501344D33FB3C8608B288AC63F87
:103060000000F03F0000F83F61436F63A787D23F45
:1030700071A379094F930A400000E03F1655B5BB94
:10308000B16B0240EF39FAFE422EE63F00002C40C1
:103090000000244000001840FF0300002D431CEBFB
:1030A000E2361A3F80842E41F0B54E46DE46574642
:1030B0004546E0B597B09946209E219F229B8346C6
:1030C000984607910C923B0032003000390001F025
:1030D000BAFA002800D0C1E1012230003900CA4B01
:1030E000524201F095FA002800D0E0E001223000C1
:1030F0003900C64B524201F0A1FA002800D0B6E0D8
:10310000002230003900C24B01F098FA002800D0AC
:1031100098E0002230003900BE4B01F079FA002817
:1031200000D08FE0002200233000390001F070FA57
:10313000002800D0B0E000230D93249B5B0501D450
:103140000623984608AB9C461722002430234146AC
:10315000624404E0013413550139202C01D00929BF
:10316000F8D888463000390001F098FA4346DA0072
:10317000A94B05009B181A685B680892099301F037
:1031800075FA02000B003000390001F0E4F9089AEA
:10319000099B01F0FBF90A900B9101F0A3FA82461A
:1031A00001F060FA02000B000A980B9901F0D3F9C4
:1031B00000229A4B0A900B9101F040FA002800D1AE
:1031C000C0E001239C46E244504601F04BFA020065
:1031D0000B000898099901F021FA002802D0002379
:1031E0009A4601354346002B69D008AB17269C460A
:1031F00008956644554614E001235B4243440A2186
:1032000028009A4600F062FF0134303137193970D6
:1032100028000A2100F05AFF092D00D8D5E0D04639
:103220000500202CE8D10323249A1340012B00D160
:1032300000E10EAB9846249B01940393239B0293D9
:1032400043461EE0249B58460493239B0096019717
:10325000039343460C9A029307994B46FFF7E8FC09
:1032600017B03CBC90469946A246AB46F0BD249BA5
:103270005B070ED403226A4B249901920391239990
:103280000291009358464B460C9A0799FFF770FB42
:10329000E6E70422634BEFE73B0032000020002109
:1032A00001F059F9012306000F000D9345E7249B17
:1032B0000393239B0293042301935B4BE1E72800D4
:1032C00001F0D4F902000B003000390001F043F99D
:1032D000524B002206000F0001F09AF90EAB9846FF
:1032E00000280AD10022300039004C4B01F0A6F929
:1032F000002802D1EB0700D50135202C32D008AAD6
:1033000094461723280063440A2101341E1900F053
:10331000B1FE3031280031700A2100F0ABFE051EED
:10332000EBD10323249A1340012B00D191E01F2CF1
:1033300000D980E70D9B002B3BD02D23424613552F
:10334000013478E700220A980B99344B01F060F9B8
:10335000002800D046E75346002B67D101239C4646
:10336000E2443FE70323249A1340012B00D062E795
:10337000239B002B00D15EE70D9B002B03D1249AE9
:103380000C33134202D0239B013B2393239B9C428B
:10339000CDD208AB9C461722302362441F2C06D89E
:1033A0002399013413558C42C1D0202CF8D120240C
:1033B00041E7249B5B0721D4249B1B0700D43AE7F9
:1033C000202342461355013435E75746089D202CEB
:1033D00037D0220030214046002F08D00132B154AE
:1033E000202A43D0D3431B191B18002BF6D10EAB58
:1033F00098462E234146541C8B547EE72B2342468D
:103400001355013417E7C046FFFFEFFFFFFFEF7FC3
:1034100065CDCD4165CDCDC1B07C00100000E03F51
:10342000B47A0010B87A0010C47A0010DB0700D418
:10343000D8E693E7239B002B00D1FAE60EAB984623
:103440009AE70323249A1340012B00D0F1E60EAB38
:103450009846239B002B00D169E78DE7249B0393BB
:10346000239B029303230193064B0AE70323249A29
:1034700020241340012B00D0DBE6239B2024002BCB
:10348000DCD1D6E6C07A0010F0B5DE464E4657468F
:103490004546E0B59FB01C00289B93460993CF4A50
:1034A000CF4B894608901A60002900D116E200230C
:1034B00020789A46002800D118E226001D004C46CC
:1034C0000AE02A006F1C5B46089D2100A8473D00CA
:1034D0000136307800287AD02528F2D110239A4678
:1034E000083B9946043B9846023B00219C46721CCF
:1034F000107816000300203BDBB2102B03D8B94F25
:103500009B00FB589F460300303B092B3CD900230E
:103510000A932A2800D171E0002398462E2847D02C
:103520000300683BDBB2122B1FD8AF4A9B00D35875
:103530009F46012301321943DAE7634601321943FA
:10354000D6E7434601321943D2E7534601321943C5
:10355000CEE74B4601321943CAE770786C2800D198
:10356000BFE280235B00194301360300253BDBB239
:10357000532BA6D89D4A9B00D3589F4680235B00BF
:10358000707819430136F0E700270300B800C0192E
:1035900001364000C018337830381A00303A07003E
:1035A000092AF3D90A901800002398462E28B7D18B
:1035B00080237078DB0019430300303B721C092B19
:1035C00000D895E12A2800D1A6E11600A8E7A14677
:1035D000AA462C00D34503D801235B425B449A469C
:1035E0005B46524649460020089DA84720001FB070
:1035F0003CBC90469946A246AB46F0BD099B40CBE9
:103600000A96002E03DB50780993561C84E728386D
:10361000014370420A9009935078561C7CE7782841
:1036200000D1D4E1582800D168E26F2800D152E3DC
:10363000622800D1D8E110230A009A430B9269282E
:1036400001D000F0A2FC0A230C934B0500D4D5E175
:1036500001230B9A9A430B92692800D1CEE164288A
:1036600000D1CBE10B9A802311009B0019408A46C0
:103670001A4200D032E3802311005B0019408946D2
:103680001A4201D000F002FC13005B0600D510E3E3
:103690000B9B1B0601D400F06EFC099B04CB1204AB
:1036A000120C924609935346002B00D064E30B9A08
:1036B0001033110099430B91520500D45CE30023B1
:1036C00099460B9B06930A9B0593434604930C9BD8
:1036D00003930023DEE27078682800D107E280239C
:1036E0000136194341E780239B0070781943013666
:1036F0003BE7462800D174E10722099B0491073378
:1037000093430A9A19000392424602920CC9089800
:103710000092019309912A005B462100FFF7C4FC47
:1037200001360500D5E6099B1A0008CA9146002B10
:1037300000D105E1212211438A460EA884461F21AB
:103740006144099500220F27A4460D0002E0202ABB
:103750000CD00B003C001C4020003730092C00D856
:1037600007380132A85419090F2BF0D86446099D77
:10377000F0E08B0700D4D1E1099B2A0099466B1C2D
:1037800098464B4601CB21009946089F5B46C0B244
:10379000B8470A9B9C466544012B00D890E2B2468C
:1037A0005E464746A846089D3A003300013721008F
:1037B0002020A8474745F7D1B3464B4656463D0023
:1037C0000993013685E62A006F1C5B46089D21009F
:1037D0002520A84701363D007BE6C046893400100D
:1037E000F80F0020CC7A0010107B00105C7B0010DA
:1037F000099B04CB994643460992002B00D097E0E1
:1038000013789C46002B00D1B3E302235B425A1C81
:10381000099B924618000A9F0B92504402E0834293
:1038200000D169E15A780133002AF8D1099A0A9740
:103830009B1A0B9380230A00DB001A400C9219425A
:1038400004D00B9B434501D943460B9302231A0036
:103850000A400D920B4200D184E16046002823D03B
:103860000C9B002B00D124E1A844C246099B57467B
:103870005B1B9846089BB2462A0026005C469B4686
:1038800009E023003100551CD8474346585D002805
:1038900000D13FE12A009742F3D1A3463D00340016
:1038A00056460D9B002B69D00B9B0A99A84699425E
:1038B00064D98C466544ED1A089B47469A46B04643
:1038C00026005C463A002300013731002020D04713
:1038D000AF42F7D1A346340046464FE0D24B2078A2
:1038E000089300239A46002800D0E6E5002471E6FC
:1038F000434606000A9F9800C01801324000801914
:103900001678030030003038303B0928F3D93000F6
:10391000984616000A9703E6099B023604CB9046A8
:10392000D2434046D2171040804609933078F7E5DD
:1039300013789C46002B00D11AE34346013B66E70F
:10394000102208009043113210438246002249059C
:1039500000D4F2E6534606930823059343460493A6
:10396000102303930023029316AB019200932A00C5
:103970005B4621000898FFF763F805004B460136C7
:103980000993A6E5202302009A43472A04D1802305
:103990001B01194302239843452801D120231943D1
:1039A0000722099B0491073393430A9A1900039253
:1039B000424602920CC908980092019309912A008C
:1039C0005B462100FFF734F90136050081E510233D
:1039D0000C930C230A009A430B924B0500D43BE650
:1039E00036E62023194387E602230C930B910B99AB
:1039F0006428EED10B9B5B0500D529E60B9A80234A
:103A000011009B0019408A461A4200D0CEE0802364
:103A100011005B00194089461A4200D0DBE1130017
:103A20005B0600D51DE10B9B09991B0600D499E2AA
:103A300008C91BB2D8171A18424092B2099192468F
:103A4000DA0F1292002B09D1802310220B99DB0090
:103A50000B4091430B91002B00D012E10B9A612394
:103A6000920600D541230EA91F228C46DBB2624488
:103A70000A3B57461395A2464D460C9CB1460D9302
:103A800016000AE03033DBB201357355A74200D28D
:103A90001CE1202D00D119E107002100380000F0C1
:103AA00015FBCBB20929EDD90D9A94466344DBB2DC
:103AB000EAE7099B5F465B1B98460A9BB3469A461A
:103AC0002600089C2A003B003100A04743460135F0
:103AD000585D0028F6D1534634000A935E46BB4633
:103AE000DFE6C0239B00B078194302363DE5C023D2
:103AF000B0781943023638E50A979BE60C230A0092
:103B00009A4314331A4310230B920C934B0500D4A1
:103B1000A8E59DE5A34634005646C2E60A9A012A66
:103B200000D82EE26B1E9F18089BB04699462600CF
:103B30005C462A002300013531002020C847BD42E1
:103B4000F7D1A34634004646099B3A0001CB210039
:103B500098467D1C5B46089FC0B2B8474346013675
:103B60000993B6E40B9A0A98531C904200D80AE2D3
:103B700043199B1A1F00089BB24626005C469B46D1
:103B80002A002300013531002020D847BD42F7D15B
:103B90000A9BA34601330B93099B34001B785646BE
:103BA0009C466046002800D05AE6E7E60722099BBB
:103BB00007339343013294469C4462465F680992FE
:103BC0001A68FB1710931193109811990300534032
:103BD0000E930B007B400F9394460E9A0F9B121A84
:103BE0008B410E920F93FB0F6246129300233A43D0
:103BF0009A463DD00B9A6123920600D541230022BC
:103C0000DBB20EA90A3B8C4691460D9343461F3208
:103C10006244139515964D460E9E0F9FA146904601
:103C20000C9C14930FE0C0466D2900103032D2B2C4
:103C3000434601355A55BA4500D17CE1202D00D1CB
:103C40007CE106000F00220000233000390000F064
:103C500083FAD2B2092AE9D90D9B9C466244D2B2BA
:103C6000E6E7FF23099904C913401A000991E6E623
:103C70000B9A1033110099430B915205BAD50023CA
:103C800099460B9B06930A9B0593434604930C9B12
:103C90000393129B02934B46019316AB2A000093A9
:103CA00021005B460898FEF7CBFE01360500FFF7C2
:103CB00010FCFF22099B02CB11408A460993F2E4D3
:103CC0004B46454609930136FFF703FC4E465446E2
:103CD000A946139DD5E708230C9387E60722099B85
:103CE00007339343013294469C44624609921A6812
:103CF0005B6810009A4613005246134307D10B9A93
:103D00001033110099430B91520500D5D7E40B9A5B
:103D10006123920600D541230022DBB20EA90A3BA3
:103D20008C4691460D9343461F3262445746129586
:103D3000A2464D460400B14690460C9E13930DE0FA
:103D40003032D2B2434601355A550023BB4200D12E
:103D5000FDE0202D00D1FDE004000F003200002323
:103D60002000390000F0F8F9D2B2092AE8D90D9BF9
:103D70009C466244D2B2E5E70B9A6123920600D5D5
:103D80004123DBB20EA90A3B1F228C460D93230070
:103D900062445446129517004D469A46B1460C9E11
:103DA00008E03033DBB201357B55B4420ED3202D11
:103DB0000CD004003100200000F088F9CBB20929B2
:103DC000EFD90D9A94466344DBB2ECE74E46544675
:103DD000A946129D75E4099B1A0008CAD9171392C7
:103DE0005A184A409146DA0F1292002B08D18023CC
:103DF00010220B99DB000B4091430B91002B2BD130
:103E00000B9A6123920600D541230EAA1F279446E0
:103E1000DBB20A3B0D95674455460993A2464C46D2
:103E2000B1460C9E08E03033DBB201357B55B4421D
:103E30000ED3202D0CD004003100200000F046F9F4
:103E4000CBB20929EFD9099A94466344DBB2ECE777
:103E50004E465446AA460D9D0B9B2A0006930A9B8C
:103E600021000593434604930C9B08980393129BEF
:103E7000013602935346019316AB00935B46FEF75F
:103E8000DFFD139B05000993FFF723FB099B04CB80
:103E900091461293002A08D1802310220B99DB004F
:103EA0000B4091430B91002B2BD10B9A612392066F
:103EB00000D541230EAA1F279446DBB20A3B0D957D
:103EC000674455460993A2464C46B1460C9E08E00D
:103ED0003033DBB201357B55B4420ED3202D0CD0EC
:103EE00004003100200000F0F1F8CBB20929EFD92D
:103EF000099A94466344DBB2ECE74E465446AA4620
:103F00000D9D0B9B2A0006930A9B210005934346B7
:103F100004930C9B08980393002302935346019348
:103F200016AB00935B46FEF78BFD129B05000993D1
:103F30000136FFF7CEFAB44200D87FE6149B4C4618
:103F40000E960F97A9469846159E139D99E6A64290
:103F500000D8FEE6139B4E469846A9465446129D4D
:103F6000FFF7AFFB08C9D8171A184240099166E558
:103F700000230B935EE4099B04CB92460993FFF761
:103F800092FB2F00E0E50B930BE6063B0C932EE52E
:103F90000EB4012210B585B007AC08CC0100009426
:103FA000524204480394FFF76FFA05B010BC08BCF6
:103FB00003B018476529001000B585B003910121B1
:103FC00002900093034813004A4202A9FFF75CFAEB
:103FD00005B000BD212C001010B5094A030014687B
:103FE00084B0002C08D0012200910648524203A957
:103FF000A047012004B010BD01F0A0F80020F9E7AF
:10400000F80F0020112C001001480421014B184723
:104010008003002039400010142310B501001888D7
:1040200004331B88984710BD162310B5010018886B
:1040300002331B88984710BDF0B5C64600B500296D
:1040400016D0142304000125984618278900461825
:104050004346216818883B88984701C4431E98410D
:1040600040420540A642F3D1280004BC9046F0BD72
:104070000125F9E7144A936F9B0815D29066D16623
:10408000002905D0FFE7FFE7FFE7516F106F70478A
:1040900004B580210906C2175140002800D0C8434A
:1040A00003F046FC002104BD936F5B08FDD3F0B51F
:1040B000946ED56E576F166FFFF7E0FF9466D56666
:1040C00057671667F0BD0000000000D0134A936FD9
:1040D0009B0813D210665166002905D0FFE7FFE761
:1040E000FFE7516F106F704704B5002801D0002022
:1040F000C04303F01DFC002104BDC046936F5B0864
:10410000FDD3F0B5946ED56E576F166FFFF7E2FFD3
:104110009466D56657671667F0BD0000000000D0B2
:1041200094464E4A926F9208624601D230E0C046F1
:10413000F0B54A4EB56F6D08FCD3346E756E776F6F
:10414000366F00F025F89446444A14665566576762
:1041500016676246F0BDC0469446404A926F920888
:10416000624601D258E0C046F0B53C4EB56F6D08CE
:10417000FCD3346E756E776F366F00F04DF8944651
:10418000364A14665566576716676246F0BDC046E4
:10419000002B24DB11D000293EDA00B5C943404290
:1041A00000D1013100F038F8C943404200D101315B
:1041B000DB43524200D1013300BD002AEBD100287D
:1041C00001D1002905D00020C90FC90701D1C04382
:1041D000410800B503F0A4FB0022002300BD00B598
:1041E00000290ADBDB43524200D1013300F014F80E
:1041F000C943404200D1013100BDC943404200D112
:104200000131DB43524200D1013300F005F8DB43BA
:10421000524200D1013300BD002923D1002B18D117
:10422000002A0CD0BC460D4F38667A660021002368
:10423000FFE7FFE7FFE77A6F386F674670470028B0
:1042400001D00748010000B503F06AFB00220023FB
:1042500000BD02000B00002000217047000000D0CC
:10426000FFFFFFFF002B00D0BDE0130C26D1002A7A
:10427000E7D080B4104F39667A66FFE7FFE730B4C5
:10428000040C7B6F396F1B0423433B66FFE7FFE79A
:10429000FFE7C04684B27B6F3D6F1B0423433B6640
:1042A000FFE7FFE7C04600232C042D0C7A6F386F20
:1042B00000196941B0BC7047000000D0F0B59446C9
:1042C0000025140E01D112020835140F01D112017C
:1042D0000435940F01D192000235D40F01D1520060
:1042E0000135D40B0134254F7C66254C3C660E0C01
:1042F00093B2FFE7FFE7FFE73C6F6643360C7703B7
:10430000BE467343DF0B5B04C01AB941130C734301
:10431000DB18C91ACE086643360CB64493B2734311
:104320001F0F1B01C01AB941130C73431F0B1B0550
:10433000C01AB941860D8F023E436643360C092DE3
:1043400024DB520A7243801A7703460A6643360C0E
:1043500016235B1BDE40DF40BF1964466643821BA9
:104360007046043506330100D940A840C01900D377
:104370000131A24206D20023F0BD0000000000D0AF
:10438000FFFFFFFF121B0130F3D3F1E709277F1B6B
:10439000FE406446A2B27243801A00D20139220C58
:1043A0007243130C1204821A99410B0070460435B3
:1043B00013370100F940A840801900D30131002BC8
:1043C00002D1A2420AD2F0BD013000D30131121B4A
:1043D000FAD2013BF8D1A24200D2F0BD013000D3A5
:1043E0000131121BF7E7F0B51C0C00D080E00CB4D3
:1043F00000251C0A04D11B02160E33431202083595
:104400001C0B04D11B01160F3343120104359C0B06
:1044100004D19B00960F334392000235DC0B02D18E
:1044200092185B4101351C00971864410134464FD6
:104430007C66464C3C660E0CFFE7FFE7FFE7C04694
:104440003C6F6643360C7703BE4697B27743C01B7A
:1044500000D20139C01B00D201399FB27743C91B7A
:10446000C91B170C77437E04FF0B801BB941CE0894
:104470006643360C0C2D33DBB644120B1F053A4352
:104480001B0B97B27743C01B00D201399FB2774311
:10449000C91B170C77433E043F0C801BB941860DA6
:1044A0008F023E43664329277F1BFE400C3D774623
:1044B000AF40BF1930BCA2B2ABB272437343801A93
:1044C0009941220C7243130C1204801A9941020084
:1044D0000B000137001BA941F9D2781E0021F0BD65
:1044E0000C277F1BFE4077467F0BAF40FF19E0E7AC
:1044F00000245D1C07D0144F7D663966FFE7FFE797
:10450000FFE7FFE73C6F95B29EB265436643401BF1
:10451000B141150C1E0C6543664336042F0C3E4317
:104520002D04401BB141994204D202000B0020002F
:104530000021F0BD01D19042F7D3801A9941013496
:104540009942F2D3F6E70000000000D0FFFFFFFF22
:1045500048404140484018B4114B5B68FC46019309
:1045600008BD04DFF347001018B40D4B1B68FC4670
:10457000019308BD00DFFD47001018B4084BDB684D
:10458000FC46019308BD0CDFB54A001018B4044B7B
:104590009B68FC46019308BD08DF594900100000E4
:1045A00048100020FFB550404240504059404B4019
:1045B000594000E0FFB5154F4C00640D03D0BC42DC
:1045C00004D10C0314D80020090D09055C00640D0A
:1045D00003D0BC4204D11C030AD800221B0D1B05CA
:1045E00001264B4009D44B4003D58B4200D1824277
:1045F000FFBD9942FCD19042FFBD0B43DB18034342
:104600001343F5D0C9434918FFBD0000FF07000060
:1046100000B5FFF7CFFF804100BDC04600B5FFF7F2
:10462000C9FF01D9002000BD012000BD00B5FFF782
:10463000B9FF01D9002000BD012000BD00B5FFF782
:10464000B1FF804100BD012040054A00121804D886
:104650005A00121801D8002070470120704700202E
:10466000704700000021002805D17047C11748405D
:10467000401AFAD0C90713B5064B1B6898470CBC03
:10468000441CA2401005120B0349091B09051943DC
:10469000114310BD481200201F04000010B54C004B
:1046A000620D8023D218DB00D21A5B057E2A10DD52
:1046B0009E3A13DACC170903490819435242D140F4
:1046C000640001341532202A05DAD04008436043E3
:1046D00010BD002010BD0846604310BDC80FC018B3
:1046E000013810BD18B4044B5B6AFC46019308BD49
:1046F00024DFE14C001000004810002018B4044BE7
:10470000DB6FFC46019308BD7CDF5D4D00100000AF
:1047100048100020132370B51D78012D10D00BDD3B
:104720002448FFF781FC244C01008022200000F087
:10473000F3FB022D01D070BD1F4C204AA264FAE7A2
:104740002E001D4C1D4AA3085B421E401D422FD067
:10475000330022602020B1006118801B0A604A608B
:104760008A60CA600A614A618A61CA610A624A62F1
:104770008A62CA620A634A638A63CA630A644A64D1
:104780008A64CA640A654A658A65CA650A664A66B1
:104790008A66CA660A674A674008102803D18A6792
:1047A000CA67A264C7E71E339B00E250A264C2E757
:1047B0000023CFE75344000048100020C1470010F9
:1047C00007B5604601880A0A0230DF2AFAD1C9B269
:1047D000820804D3028840880004104300E0006887
:1047E000014A5050039007BD481000200FB403BC8D
:1047F0000CBCF0B50124E407634000E0F0B50C0DFB
:10480000CF0F661E3605891B640503D3C94340429A
:1048100000D30131640D03D0661CF60A07D0E41BF7
:1048200000207F00791C89078912803C24031D0D1C
:10483000DF0F6E1E36059B1B6D0503D3DB43524213
:1048400000D301336D0D03D06E1CF60A07D0ED1BAB
:1048500000227F007B1C9B079B12803D2D032F1B9A
:10486000661B58D4A446202E46DA20371400BC40DC
:104870001D00BD40F24033412A4380185941CB0FFF
:1048800005D0C943C04300226442504151416246B1
:104890004D0D28D10D0D07D100281FD024194041FE
:1048A0004941013A0D0DF9D0640006D3013000D31F
:1048B0000131002C01D140084000013A0BD4941C76
:1048C000E40A04D112051144DB071944F0BDD907ED
:1048D000204B194300E0D9070020F0BD0029DDD1AD
:1048E000002CDBD1F0BD0132C6074008CD072843BC
:1048F0004908002EE1D0D9E73C2E29DA203E403786
:104900001400BC4000D00124F24014431A00BB4004
:104910001C43D317ACE7AC46202F08DA203604003E
:10492000B4400D00B540F84039412843A5E73C2F7D
:104930000CDA203F40360400B44000D00124F84097
:1049400004430800B1400C43C117EAE71000190006
:10495000002494E70000F07FF0B50C0D661E3605CC
:10496000891BE60A6405640D02D0651CED0A04D0BB
:10497000002001210905803C2403A4461C0D671E6C
:104980003F05DB1BE70A6405640D02D0651CED0AD8
:1049900004D0002201231B05803C2403774064449B
:1049A00097B484B296B27443070C7E43150C6F43E0
:1049B00080B26843361802D3012000043F18300447
:1049C000350C00197D41844688B29AB250430C0CD4
:1049D00062431F0C7C438EB27E43921902D30126A0
:1049E0003604A4191604170C3618674101BC81B2AD
:1049F0009AB25143040C62431B0C5C4380B258438F
:104A0000121802D30120000424181004130C4018BB
:104A100063412D185E410020474106BC88B293B225
:104A200058430C0C6343120C544389B251435B1836
:104A300002D301210904641819041A0C09186241EF
:104A40006D1856410020474118BCF902720D114300
:104A5000F0026A0D1043ED020A0D03D16D194041B9
:104A60004941013B124E9B1B7600B3420ED26D00B2
:104A700007D30130002671416646354301D1400815
:104A800040001B05C918E4072144F0BD0BDA0133CF
:104A900006D1013004D101314F0D01D04908F2E7B0
:104AA000E1070020F0BD013631050020EBE70000F2
:104AB000FF030000F0B51C0D671E3F05DB1BE70A76
:104AC0006405640D02D0661CF60A04D0002201239E
:104AD0001B05803C2403D0252D060026F6432E66B8
:104AE0001E096E66CE0FF619B44649004F0D02D06E
:104AF0007E1CF60A03D000200021403F3F033E1BEE
:104B0000B600B444013F7F05C91B49082E6F01362A
:104B100076089C02950D25437543ED137543AD133F
:104B200001356D10F603761B0CB4CC02450D2C43F9
:104B3000A2B2B3B25A43270C7B43350C6F43A4B2E5
:104B40006C431B1902D3012424043F191C041D0CBF
:104B5000A4187D4124196D41009A91B2ACB2614311
:104B6000170C7C432B0C5F4392B25A43A41802D318
:104B700001221204BF182204230C52187B41019C0D
:104B80006C431B19520ED9010A434401A01A81B289
:104B9000B2B2514303145A43360C734387B277437E
:104BA000D617D21900277E4136049B191704160C1C
:104BB0007F185E417316ED18F301002680337541AE
:104BC000A90F06D16400690AE8055B0A184309D2F7
:104BD0002FE00422944480337541A90AA8059B0A5A
:104BE000184326D3404149412404009A019B0D00FB
:104BF0005543641B4343E41A95B286B27543170CC0
:104C00007E43030C5F4392B25A43B61802D301228B
:104C10001204BF183204330C52197B4152429C419A
:104C2000002C02D40022013051414008CA07104331
:104C3000490802B06246D7079210084BD218084BB9
:104C40009A4203D212058918C919F0BD0020002A22
:104C500001DC3900F0BD01331905F5E7FD03000063
:104C6000FE070000624618CA944600291ADAC018E6
:104C700061415B463B415C46B4405246FA402243A8
:104C800044464D4662416B41904699462B46B3409F
:104C90003D41FC401C4352465B46A241AB4192461B
:104CA0009B467047C01AA1414B463B414C46B4401D
:104CB0004246FA40224354465D4662416B41924669
:104CC0009B462B46B3403D41FC401C4342464B466D
:104CD000A241AB41904699467047002000217047A1
:104CE000002200B5203200F004F8080000BD0000EA
:104CF00000220B15F1D410B5944600F05DF81414A1
:104D0000013400DA0021CB17134C20476244343AB7
:104D10000CD40C2A07DA0400914090405242203211
:104D2000D440214310BDD843D94310BD203207D40D
:104D30000C469440524220321141D040204310BDD5
:104D40000800C917203203D452422032104110BD4E
:104D50001800190010BD00000D4D00104A00520D42
:104D6000144BD21A13DDFF2A1EDAD205CB0FDB0754
:104D70001A43C300400F0903490A084310435B006C
:104D800001D301D0013070474308FBD2704702D0F5
:104D9000C80FC00770470A0312130132F8D1420F3F
:104DA000072AF5D1012200E0FF22C80F0002801877
:104DB000C0057047800300000A0DCC0F531E1B0571
:104DC000C91A520503D3C943404200D30131520DE1
:104DD00003D0531CDB0A07D0121B00206400611CA7
:104DE00089078912803A1203014BD21A70470000DA
:104DF000FF03000051434343C9188C46110C83B292
:104E00004B4310B4040C614392B280B250436243EE
:104E10001C041B0C001910BC59411304120CC018BF
:104E20005141614470470000034BDB6FFC4618475B
:104E30007CDFCD4E0010000048110020132310B578
:104E400012481C78FFF7F0F80100012C0AD003DDAE
:104E500080220F4800F060F80E48FFF7DDF80E4B97
:104E6000186010BD0A4C5422200000F055F80B4B7E
:104E70006365A365E36523666366A366E3662367EC
:104E80006367A367E3672362E361E5E753460000D6
:104E9000481100204C33000048120020A14E0010A1
:104EA00007B5604601880A0A0230DF2AFAD1C9B282
:104EB000820804D3028840880004104300E00068A0
:104EC000014A5050039007BD48110020C30FDB0773
:104ED00041000A0E07D0FF2A08D00909054A89189F
:104EE0001943400770471900002070470249C9184C
:104EF000FAE70000000000380000F07F01480421BC
:104F0000014B18479003002039400010014B1B68EB
:104F10001847000090030020014B5B681847000011
:104F200090030020F8B54746CE460D0080B5160028
:104F30000700002A20DD4B1E98461A4B0024002053
:104F40009946002C2BD043461B5D0D3B5A425341E2
:104F5000DBB22A5D0A2A13D00134A642F1DC864274
:104F600003DD311A3B6828189847AD19013D2B78AD
:104F70000D3B5A4253413B740CBC90469946F8BDD8
:104F8000002BE9D1A04203DA211A3B682818984780
:104F9000484602213B68013498472000DDE73B7C0E
:104FA000D7E7C046647D0010F8B54746CE460C00F2
:104FB000096880B50700802907D04B1C236064185E
:104FC00027710CBC90469946F8BD134B1D68002D07
:104FD0001BD0124B9846231D994602E0ED68002D28
:104FE00013D02E68002EF9D043461B68002B01D049
:104FF0009D42F3D16B7C2268002B09D028004946E2
:10500000FFF790FFED68002DEBD101230021D5E7DC
:1050100011004846B047E1E77009002074090020FC
:10502000F0B557464546DE464E46D023E0B51B0652
:105030001C68374B83B007000D00180001A990468B
:105040009A4602F07DFC8146002807D1019B9C42D4
:1050500004D0504602F08CFC012399466B1C03D10E
:10506000380002F017FC05002A4B1C68002C2FD0DA
:105070000A23294E9B4602E0E468002C28D02268CF
:10508000002AF9D03368002B01D0A342F4D1637C0D
:10509000002B2AD02A0039002000FFF743FF4346A7
:1050A000002BE9D06B465A461A71637C002B20D046
:1050B000237C002B26D00121236801A898476B464A
:1050C0001B790D3B5A4253412374E468002CD6D11E
:1050D0004B46002B12D1681E8541E8B203B03CBCA0
:1050E00090469946A246AB46F0BD2900380090474D
:1050F000D5E70121236801A89847BDE7504602F093
:1051000007FCE8E70221054823689847D7E7C0462F
:105110001C0400207009002074090020647D001028
:1051200010B582B06B4604000022D81D0121047026
:10513000FFF776FF200002B010BDC04670B5040036
:1051400002F0A8FB0122010005002000FFF768FF24
:10515000084B1C68002C06D06368002B05D09847CC
:10516000E468002CF8D1280070BDE468002CF3D16D
:10517000F9E7C046700900200D4A1368002B13D0D0
:10518000834202D109E0984208D01A00DB68002B64
:10519000F9D1002900D0D06070471A000029FBD156
:1051A000DB68D360C160F7E70029F5D01060F3E752
:1051B00070090020F0B54646D6464F46D023C0B50C
:1051C0001B061F68314BA2B004000D00180001A996
:1051D000984602F0B5FB061E06D1019B9F4203D004
:1051E000404602F0C5FB01368422002101A8FFF7EA
:1051F0008DFE2B002200264801A9FEF7DDFE019B53
:105200000700002B15D1234B1C68002C06D06368C7
:10521000002B0CD09847E468002CF8D1002E2FD139
:10522000380022B01CBC90469946A246F0BDE46806
:10523000EBE7184B1D689A46002D25D0164B994672
:1052400002E0ED68002D13D02C68002CF9D04B46FD
:105250001B68002B01D09D42F3D16B7C019A002B7F
:105260000AD0280002A9FFF75DFEED68002DEBD102
:10527000534601951C68C8E7110002A8A047E0E763
:10528000404602F045FBCBE70195C7E71C04002030
:10529000A94F001070090020740900200FB400B558
:1052A00083B004A901C90191FFF784FF03B008BCD2
:1052B00004B0184710B500F045F800F099F910BD9A
:1052C000F0B50D1E15DD0E4B0D271A680D4B451957
:1052D000D31859424B410C495B005E5E2021047893
:1052E000A64207D093691942FCD101301460A8424C
:1052F000F5D1F0BD93691942FCD11760F2E7C046C1
:105300002C1000200080FCBF4410002030B50500A8
:10531000002912DD00201024094B013D1A68936911
:105320001C4208D1013093691C42FCD113682B54F4
:105330008142F4D130BD0028FCD103204042F9E77E
:105340002C100020E12110B50B4B0C481B780C4BA6
:1053500049021B780B4B1860FBF7C4FE02210020AA
:10536000FBF7C2FD02210120FBF7BEFD012106482B
:10537000FFF702FF10BDC046388000100040034018
:105380003C8000102C100020A00300207047C04675
:105390000022014B1A707047351000204B79002015
:1053A000FF2B0BD18B79002B08D1CB79012B05D1A9
:1053B000082A03D98A78024B09301A707047C04610
:1053C00035100020012070470120704770B5144A45
:1053D0004B79087912781B02034300209A4200D0CF
:1053E00070BD4B78012B08D0022BF9D1002064222C
:1053F0000021FDF78DF80120F2E7CA788C781202BF
:1054000005001443D20502D5620A93401D000548E9
:10541000FEF702FE7F210300214028009847C04686
:1054200035100020554200000123037000487047EA
:10543000A87D00104A780B7812021A438B7810B5B9
:105440001B041A43CB781B0613439622D2009342C7
:1054500000D010BD0348FEF7DFFD00210300080067
:105460009847C0465542000070B5184C82B00600FF
:105470000D00200001A902F063FA002808D1D02312
:105480001B061B68019A9A421CD0200002F070FA99
:10549000002001F09DFB002807D103256D4220006C
:1054A00002F036FA280002B070BD002001F0AAFB1D
:1054B0000028F2D02A003100002001F0B3FB051EC5
:1054C000EBD0ECE703256D42ECE7C046141000205A
:1054D000F0B54F46D6464646C0B5354B82B00700BC
:1054E0000D00180001A9994602F02AFA002808D1F7
:1054F000D0231B061B68019A9A4252D0484602F0FC
:1055000037FA002001F064FB002842D00024002D6F
:1055100044DD284B9A46984611E03919002001F0E5
:105520000DFC060000F0C8FC002001F0B5FBFCF704
:10553000D5FA434618605960A419AC422EDA00200F
:1055400001F018FC2E1B0200B04200DD3200002AE0
:10555000E3D100F0B1FC002001F09EFB002001F03F
:1055600037FB00281AD0002001F004FC0028E4D109
:10557000FCF7B4FA53460E001A685B6800218446B3
:105580000D4812184B419E4208D8D6D19445D4D923
:1055900004E000200021074B18605960484602F0E3
:1055A000B7F902B01CBC90469946A246F0BDC04671
:1055B000141000203805002020A107001F2010B57E
:1055C000FDF742F8FA200021800010BD10B5074C0D
:1055D0000021200002F0B4F9002800D110BD00F035
:1055E0006BFC200002F094F9F8E7C046141000208C
:1055F00070B51E4B84B01B7801F0C0FD1F201C4904
:10560000FDF732F801211F20FDF70CF81948FCF7CF
:105610005FFBFCF71FF80600FCF760FAFA220400B3
:105620000D000023920012196B41994214D811D039
:1056300001210291002101910F4930000091FCF7F6
:105640000DF80400631E9C41E4B2002808D120003C
:1056500004B070BD9042EBD901225242D317E7E764
:1056600001210648FFF788FDF1E7C04640800010A1
:10567000CD55001014100020BD550010B4030020BB
:1056800000487047747E001000487047207E00106C
:1056900010B5002806D1124B12484380063BFF3B51
:1056A000038010BD052818D80F4B8000C4580D4842
:1056B0000023811C04E001330A800231132B09D03E
:1056C000E25C002AF7D1C02201335B009200134351
:1056D0009BB2E5E7CA239B00E2E70020E1E7C04672
:1056E0000904000048090020887E0010F0B59823C6
:1056F00057464546DE464E46414AE0B5D7588024D7
:105700003D0085B06402883B25400393274214D0B6
:105710000121392000223B4B250019545971473192
:105720005A541A7500200132374901F03BF88022A3
:10573000364B92021A65364B0393FB060CD480233A
:105740005B011F423AD1BD4254D105B03CBC9046EA
:105750009946A246AB46F0BD294B9A6D002A28D047
:105760009A462A4BB946002601259B46170003E0BE
:105770006D000136202E1BD02F42F9D05346DB6D31
:105780005B46682401229D6573085C433423904680
:10579000B2435343E4181B4B9C466444200000F082
:1057A0003DFA00281AD1AF4301366D00002FE1D138
:1057B0004F4680235B01039D1F42C4D00022154940
:1057C00000200A700E491D430A600132012100F0D9
:1057D00079FF80220D4B12031A65B4E74346E26954
:1057E000217900200093002301F004F8200000F04C
:1057F000E1F9D8E7290008487940FCF7EDFCC046FC
:1058000000001150780900200000105000301150A5
:105810001000010032100020A07E001010B5012100
:105820000520FCF7FFFE10BD094B10B501221970D1
:10583000392100230748425442714732835403758B
:10584000002200213430013300F06EFA10BDC04652
:1058500032100020780900208022024B5202DA64C4
:105860007047C0460020115070B5050000F07AF96D
:1058700005201F49FCF7F8FED0221E4C0021200015
:10588000D200FFF743FB00231B4A1C4913701C4A3C
:1058900040201160802252006280A280D03AA3543E
:1058A000184A6370E062E260352613600122A25557
:1058B0004C36FF36268700262066243026541249AF
:1058C0001248A36021612270E38620640360E363D1
:1058D0003433E2540E4B61641A6480229205DA6418
:1058E00090220C4928009950FFF7B6FF70BDC046C2
:1058F000ED56001078090020321000208001105071
:105900000010002084001050000110508000105042
:1059100000001150101001000B785B0602D14B788B
:10592000052B09D0012139200022064B5971195449
:1059300047311A755A547047034B1A78034B1A6053
:10594000F0E7C04678090020321000200000115016
:105950000A00F8B507234746CE465479107923400C
:10596000D4781B02A40703437F20A20F682480B5CC
:10597000897894460840914644433422A046CE0993
:1059800072433D4D4244AA184FB21171F943C90FF9
:10599000D170414241415670907051716246012A66
:1059A0005CD0402B5ED834226821724341435218A8
:1059B000AA181100644630310C70D362C100002F68
:1059C0003CDB2E4C0027A4466144D1600F600028C8
:1059D0003CD02B4CC100A446614491606824342221
:1059E0004443A4467243274F62443968AA181161A0
:1059F000402B00D240233F22CB18134201D09343C7
:105A000040333B60204B682259404B469C06342370
:105A10000C43A021734342439B18EB189B68090673
:105A20000C431C6034235E4334335843673B3018C7
:105A30002B5401200CBC90469946F8BD134C00270E
:105A4000A4466144D1600F6000280FD134230022A6
:105A50007343EB189A600E4A1A61E3E78022D20082
:105A60009342A0D319000B48FCF7B6FB064CC100CB
:105A7000A44661449160B1E7780900208400105089
:105A80000400105000100020000010508000105042
:105A900000011050B47E001010B50C00342011002D
:105AA0001A00E30958437F23234068245C43044BD6
:105AB0000019C018012300F037F9012010BDC046BD
:105AC0007809002070B57F25342068230D40CC096B
:105AD0006B4360430C4EC01830188378002B05D1FF
