:020000041000EA
:1000000000B5324B212058609868022188439860DF
:10001000D860186158612E4B002199600221596106
:100020000121F02299502B49196001219960352056
:1000300000F044F80222904214D00621196600F024
:1000400034F8196E01211966002018661A6600F04E
:100050002CF8196E196E196E052000F02FF8012189
:100060000842F9D1002199601B49196000215960AB
:100070001A491B48016001219960EB211966A021F2
:10008000196600F012F800219960164914480160C1
:100090000121996001BC002800D000471248134993
:1000A000086003C880F30888084703B5996A0420EC
:1000B0000142FBD001200142F8D103BD02B5186610
:1000C0001866FFF7F2FF186E186E02BD00000240BE
:1000D000000000180000070000035F00212200005C
:1000E000F4000018222000A00001001008ED00E03C
:1000F00000000000000000000000000074B24E7A12
:1001000000200420F7010010C3010010C5010010F9
:10011000C1010010C1010010C1010010C101001097
:10012000C1010010C1010010C1010010C701001081
:10013000C1010010C1010010C9010010CB01001065
:10014000CD010010CD010010CD010010CD01001037
:10015000CD010010CD010010CD010010CD01001027
:10016000CD010010CD010010CD010010CD01001017
:10017000CD010010CD010010CD010010CD01001007
:10018000CD010010CD010010CD010010CD010010F7
:10019000CD010010CD010010CD010010CD010010E7
:1001A000CD010010CD010010CD010010CD010010D7
:1001B000CD010010CD010010CD010010CD010010C7
:1001C00000BE00BE00BE00BE00BE00BE00F04BF888
:1001D000103800BEF2EB8871184D0010404D001031
:1001E0003402001090A31AE700202149086006C8D5
:1001F00081F3088810471F48006800282FD10DA4FC
:100200000ECC002902D000F012F8F9E71A491B4A77
:10021000002000E001C19142FCD1194988471949E9
:1002200088471949884700BEFDE701C901C29A42C3
:10023000FBD37047404D0010C00000204C0300204D
:10024000CC4F00100000042000000420CC4F001010
:1002500000100420001004200000000070470B482C
:1002600001F038FE0047EFF30580C0B27047000090
:1002700008ED00E0000000D0500300202012002014
:10028000091600105D030010F51600105756000007
:1002900006005250ABB36053244A0010060052507F
:1002A000861C0302344A0010060052505422A29DBC
:1002B000444A001005005250DE65F468CC4F00102F
:1002C000F8B5C0460448054B10B5834203D0044B33
:1002D000002B00D0984710BD4C0300204C03002099
:1002E0000000000006480749091A8B10C90FC918F9
:1002F00010B5491003D0044B002B00D0984710BD17
:100300004C0300204C0300200000000010B5074CF7
:100310002378002B09D1FFF7D5FF054B002B02D026
:10032000044800E000BF0123237010BD58040020E2
:100330000000000080490010054B10B5002B03D0D1
:100340000449054800E000BFFFF7CCFF10BDC046E0
:10035000000000005C0400208049001070B586B0E9
:1003600002F03EF85249534804F0ACF90621060069
:10037000102000F0B1F80123002110224D48009315
:1003800004F012FA80235B020293F31CF2011B03B8
:100390001343494A052013400393484B0593484BA8
:1003A000049301F037FB01F085FE464901F079FE28
:1003B000051C01F0A7FE84B20023002C0DD0200004
:1003C00001F078FE011C281C01F065FE8721C9059B
:1003D00001F06AFE01F096FEC3B2364D24041B0202
:1003E000234332000293002102AB280004F020FADC
:1003F000012280242B68344E13432B6064023000AA
:1004000001F0B2FF6B682342FCD1FF23FA201B04EA
:100410002B61400000F0D0FC6B682342FCD1FF232D
:10042000FA201B062B61400000F0C6FC6B682342DB
:10043000FCD1FF23FA201B022B61400000F0BCFC22
:100440006B682342FCD1FA20204B40002B6100F066
:10045000B3FC6B682342FCD1FA201D4B40002B619A
:1004600000F0AAFC6B682342FCD1FA20194B400033
:100470002B6100F0A1FC6B681A0022402342FAD1E4
:10048000FA202A61400000F097FCFA20800000F07A
:1004900093FC3D216B681A0022402342FAD10139B6
:1004A0002A610029F6D1FA20800000F085FCA6E739
:1004B0009C49001000002050FFFFFF9F00400020DB
:1004C000000006400024F44A804900100000FFFFAD
:1004D00000FF00FF00FFFFFF094A8300944640220F
:1004E000634410B51C68C0006240C02414408022E0
:1004F000520113431C60034B9C466044416010BD95
:1005000004C0014000400140EFF3108072B6034A7E
:100510001368002BFCD0BFF35F8F70472C0100D015
:10052000BFF35F8F0022024B1A6080F31088704780
:100530002C0100D0F8B5CE464746914680B5EFF382
:10054000108772B6124E3368002BFCD0BFF35F8F5A
:10055000CB08C55C0724C218280001230C40944630
:10056000E0401A000240904603420DD1A34062468B
:100570002B431370BFF35F8F4346336087F31088BC
:100580000CBC90469946F8BD484601F0B5F8C04607
:100590002C0100D0F8B54746CE46884680B5EFF32B
:1005A000108C72B6214D2C68002CFCD0BFF35F8FED
:1005B0009A422DD8D408055D071907242E0014404F
:1005C000E640F1071ED507218946063908E0D40820
:1005D000055D07194C462E001440E640314211D00B
:1005E00001329342F3D201204042BFF35F8F0022D9
:1005F0000E4B1A608CF31088002811DB0CBC90465F
:100600009946F8BD0123A3401D4310003D70ECE75F
:10061000BFF35F8F00232B608CF3108801204042D2
:100620004346002BEAD0089801F066F82C0100D070
:100630000021044B044ABFF35F8F02C39342FAD1F7
:100640007047C046000100D0800100D0044A1078F5
:10065000431CDBB2172B00D9102313707047C04620
:100660004802002000B5054B83B00100009318221A
:100670001F230348FFF78EFF03B000BDAC490010F5
:10068000FC070020024B18688007C00F7047C04667
:1006900000C00640F8B5040006200D0001F0BAF9CC
:1006A000002845D02B4B2C49E3185A425341802255
:1006B000D20394465B421340284A63441360284A9D
:1006C000136018008A689043FBD1224B8021E31805
:1006D0005A425341234A5B0049000620995201F0D7
:1006E00099F92900C00001F023FCC30921D140275A
:1006F0000122260080256262A36200232C36AD0110
:1007000035432B60062001F085F93900800001F0A7
:100710000FFC6023E26A53406E221A4080235B0183
:1007200033431A60104B236310232B600D3BA364EB
:10073000F8BD0E4A934203D900230D4F0D4AD8E766
:100740007F221040013040089F011A003F1803002B
:10075000CFE7C0460080FCBF00C0004000E0004082
:1007600000F00040580F002001030000FEFF0000D1
:10077000C0FF3F00FFFF000083680B4810B58446B0
:1007800061446244090112019A18591854684B686F
:1007900001209C4201D802D00020C0B210BD1268D6
:1007A0000B689A42F9D8F7E7FFFFFF0F40BF002020
:1007B00000217047F8B557464E464546DE46E0B53F
:1007C000434D81468A466A68EFF3108872B6136813
:1007D000002BFCD0BFF35F8F2E68B47B002C3ED083
:1007E000670033683F19033FDA195378B373002B5E
:1007F00000D1F3730023937053701370A968354AC6
:100800008C464946A218120162441160514651605B
:100810003149D36091603268D2199370537013706C
:10082000737B9B46002B35D022001900B06873689B
:1008300098473268002820D05B4658465B005B44EE
:10084000D719033BB870D118D35C002B00D07B7054
:100850005B460C7073735C451DD0002626E06B6808
:10086000BFF35F8F1C6088F31088012040423CBCBE
:1008700090469946A246AB46F8BD5B465B005B449A
:10088000033BD3189C70D119D25D002A00D05A7056
:100890005B460B7074734A465346287D00F00EFC8D
:1008A000061EDAD02100286800F070FEEB686A6846
:1008B0001B19013B1B78BFF35F8F0021116088F388
:1008C00010880020002ED2D118022043CFE7C04666
:1008D0004C020020FFFFFF0FAD070010F8B5574690
:1008E00045464E46DE46E0B599460CAB19780DAB51
:1008F0001B78050090469A460768002912D1BE7BF6
:10090000002E45D074003B68A419033C1B195A788B
:100910003100BA73002A00D1FA7300229A705A701B
:100920001A7003E00E004C006418033C2C4B0022AC
:100930009C46AB6861449C464346090161440B6098
:100940004B464B600A9B8B600B9BCB603B681B1933
:100950009A705A701A707B7B9B46002B2CD0320009
:100960005946B8687B6898473A68002817D05B46B4
:1009700058465B005B441419033BA070D118D35C4C
:10098000002B00D063705B460E707B73B34514D0B0
:1009900030003CBC90469946A246AB46F8BD5B464B
:1009A0005B005B44033BD3189E701119125D002A53
:1009B00000D05A705B460B707E7342464B46287DD2
:1009C00000F07CFB041E06D05346002B03D13100FF
:1009D000286800F0DBFD0E9B002BD9D01C70D7E7F8
:1009E000FFFFFF0FF0B5DE464E4657464546002353
:1009F000E0B58DB00A936B4B8200D3580B909946AB
:100A000000239B464B46079300F0F8FA079C06002C
:100A10000F006268EFF3108572B61368002BFCD0EC
:100A200022000794BFF35F8F2468637B9946002BF5
:100A300067D092685C4B90464B441B0198444346F8
:100A40001A685B6810001900801BB94100295FDD3E
:100A50000B9800F033FB00230026984600279A46A7
:100A6000079C6368BFF35F8F5A461A6085F310884E
:100A70005346002B08D10028C6D10DB03CBC90468F
:100A80009946A246AB46F0BD0A9B414618024B462A
:100A90001843D047089009916268EFF3108572B649
:100AA0001368002BFCD00794BFF35F8F0899099A55
:100AB000002A48DB114303D0079B1B69002B5DD143
:100AC000079B1B68DA7B002A07D051008A18196837
:100AD0008C4649466244033A51704A46DA734B46A3
:100AE000079A013BD168CA5C0132CA545B46079A37
:100AF00013615368BFF35F8F5A461A6085F31088FD
:100B000082E700230026984600279A460020A7E7A0
:100B1000002901D100289BD10021200000F098FC81
:100B200043461E685F689B68079A9A464346DB689F
:100B30009846D3684B44013B1B780A931B0203433E
:100B4000136100208CE72369002BB9D033003C00EF
:100B50005B1A94411A002300A74219D89F421BD068
:100B60005946049101210391494602914146019160
:100B7000514607980091FFF7B1FEB7E700F03EFA43
:100B8000089A099B06000F0092197B419942E5D90A
:100B900001225242D317E3E79642E1D901225242A1
:100BA000D317DDE7240F0020FFFFFF0F10B5104C17
:100BB0006368002B00D010BD23000E4A102120686E
:100BC00000F064FB032000F00DFA032000F0E8FAC7
:100BD0000320094900F02CFAFFF738FD074B9C462B
:100BE000032360442375064B80006060DC60E2E70D
:100BF0004C02002079070010E50900104000003485
:100C0000240F0020004870474C020020F0B55746E2
:100C10004546DE464E46E0B585B0019310AB1B78E5
:100C200000270393002380469A46009243465A6861
:100C3000EFF3108972B61368002BFCD0BFF35F8FFF
:100C400043461D68AC7B002C4FD066002B683619DC
:100C5000033E9B195A78AA73002A00D1EA734246D0
:100C60009F705F701F709268524B94460099019A72
:100C7000E3181B01634419605A600E9A9A600F9A38
:100C8000DA602B689B199F705F701F706B7B9B46AF
:100C9000002B46D022001900A8686B6898472A6884
:100CA000002831D05B4658465B005B449619033BF5
:100CB000B070D118D35C002B00D073705B460C7001
:100CC0006B735C452ED04346DB681B19013B1878DB
:100CD00043465B68BFF35F8F1F6089F310885346FC
:100CE000002B2ED10002204307E05B68BFF35F8F2B
:100CF0001C6089F310880120404205B03CBC90463E
:100D00009946A246AB46F0BD5B465B005B44033BA5
:100D1000D3189C709119925D002A00D05A705B46DE
:100D20000B706C734346187D009A019B00F0C6F966
:100D300082460028C7D043462100186800F026FCF0
:100D4000C1E7039B002B32D00E9B00200F999847E0
:100D5000030004000D000B4329D000290DDA009890
:100D6000019902000B00121BAB41994215D81AD011
:100D700000920193039B9A4658E700F03FF9020066
:100D80000B00A4185D412000290000900191AB42A6
:100D900003D8EFD100998A42ECD901235B42DC17DA
:100DA00000930194E6E700999142E1D9F5E700202C
:100DB000A3E7C046FFFFFF0FF8B5040000F01EF9DF
:100DC000FA2206000F00200000230021920001F00B
:100DD00045F98019794104000D008F422DD82AD0A1
:100DE00006267642F71736196F41AF422CD90026F6
:100DF000002700F003F932003B00121A8B41002B50
:100E000007DC04D02900200000F002F9F8BD002A18
:100E1000F8D030003900FFF7CDFC0028F2DB3800B5
:100E20000C4A536A984204D8916A8E42EAD9984291
:100E3000E8D120BFF5E78642D2D901246442E51704
:100E400007267642F717D4E7AF42D2D1A642CED8D2
:100E5000CFE7C04600400540F8B5CE46474680B5CE
:100E600006000C00FFF7A6FC00280CDC2D4B002030
:100E7000596A8C4203D89B6A0130B34245D30CBCFB
:100E800090469946F8BD20BF274D6A68EFF310875A
:100E900072B61368002BFCD0BFF35F8F2B68C1B212
:100EA0009C465B7B8B4235D0FF2303405A00914622
:100EB00062461268994490464A464244033A927800
:100EC000002A1DD0EA68000A90464344013B1B7883
:100ED000C0B2834221D06B68BFF35F8F00221A60DB
:100EE00087F310880F4A0020536A9C42C7D8926A41
:100EF0000130B242C3D2E41A601E8441E0B2BEE7C0
:100F00002B699842E7D12A61E5E7641A601E8441A3
:100F1000E0B2B4E7FF230340D4E7604600F036FBBD
:100F2000D9E7C046004005404C020020F0B5D64647
:100F30004F464646C0B5EFF305833F2213401800E5
:100F40001038EFF3108C72B6204D2A68002AFCD0BE
:100F5000BFF35F8F0122110081401D4C8846616301
:100F60001C4917000E788A463100C1400F400A42E2
:100F700015D019498200646A51588C4219D3174B15
:100F8000D25843469E4353461E70BFF35F8F0023E3
:100F90002B608CF31088002A06D0904704E0BFF342
:100FA0005F8F2F608CF310881CBC90469946A24638
:100FB000F0BD0B4A9B00904643441A681A60BFF389
:100FC0005F8F00232B608CF31088EDE7280100D0A1
:100FD00000400540560F00203C0F0020EC07002089
:100FE000D03F054010B50100024A0348FFF7A2FABE
:100FF00010BDC046C8490010530F0020034B596A6A
:101000000A00986A596A8A42FAD17047004005403E
:10101000064A536A9942FCD807D1044B02E05A6A47
:10102000914202D19A6A8242F9D37047004005404A
:1010300070B504000D00EFF3108672B61A4A1368FB
:10104000002BFCD0BFF35F8F002D1BD0200000F0E1
:1010500093FD164981420AD0200000F095FD012140
:10106000200000F06FFD0123A340114A1360114BD3
:10107000A400E550BFF35F8F00220B4B1A6086F38C
:10108000108870BD0B4BA200D5500122A2400A4926
:1010900020000B7893430B70044900F09FFD002162
:1010A000200000F04FFDE5E7280100D02D0F0010D3
:1010B00038600540EC070020560F0020F0B54F4681
:1010C000D6464646C0B50700304C616A0D00A66A98
:1010D000616AA942FAD18B4208D805D001201CBC14
:1010E00090469946A246F0BDB242F7D9EFF3108977
:1010F00072B6274801680029FCD0BFF35F8F012535
:101100002449BD408C460978204C0E002E43884669
:10111000F1B28A46614650460870391D1E48890062
:1011200065630A51B9000B50216A0020294219D089
:10113000616A0800A66A616A8142FAD18B4219D8B5
:1011400001D1B24216D8C2451DD0104B1F201D62DE
:101150005D6301230740BB40104A1E38136063469D
:1011600042461A70BFF35F8F0022094B1A6089F361
:101170001088B4E70020BFF35F8F0022044B1A6091
:1011800089F31088ABE70120ECE7C046004005403A
:10119000280100D0560F00203C0F002080E200E024
:1011A00010B5EFF3108472B60A490B68002BFCD01F
:1011B000BFF35F8F01238340074A08481362027818
:1011C0009A430270BFF35F8F00230B6084F3108893
:1011D00010BDC046280100D000400540560F002039
:1011E000024B9C4661448900016070474000003416
:1011F00010B50400FFF72AFA01002000FFF7F0FF06
:10120000FF232371BFF35F8F10BDC04610B50400EC
:101210000120FFF727FA01002000FFF7E1FFBFF3ED
:101220005F8F10BD70B505000E001400002924D09A
:10123000002A24D080686B689847296800280ED05F
:1012400063001B197200033B9219CB18033A9E707E
:1012500088188A5C002A14D1047030000EE07300F4
:101260009B196200033B1219CB18033A9C70881833
:101270008A5C002A00D05A700670200070BD0800F9
:10128000FCE75A7004703000F8E7C04630B5836060
:101290000023CCB243730133047342608373C4737D
:1012A0000D000068012C06D9421C0133DBB213701B
:1012B00003329C42F9D1FF2129404B0059180023E9
:1012C00040180338437030BDF8B5CE464746060097
:1012D0000C0080B5002907D04D0003686D18033D50
:1012E0005A195778002F04D120000CBC904699461B
:1012F000F8BD7900C91903398846434459788946AD
:1013000000215970517073683A0021008068984735
:101310003368002814D042469A18947059195B5DBE
:10132000002B00D053700F70270049463000FFF7A4
:10133000CBFF390002003000FFF774FF0400D3E751
:10134000424641465D19AF709A185B5C002B00D095
:101350006B701470E9E7C046F0B557464546DE4667
:101360004E46E0B50D006B0001685B19DF1E0400FE
:10137000C85D83B00192CA1900284CD043001B18E5
:10138000033BCB185E78B446002E16D1019E002E8A
:101390003ED0E67B002E04D073009B19CB18033B94
:1013A0005D70E57300282FD10023537003B03CBC5F
:1013B00090469946A246AB46F0BD72006244033A9D
:1013C00089184A78904600224A7091465A70010066
:1013D00032002000FFF726FF43468246002B07D04D
:1013E0005B0021684344033BCB185A78002A16D18E
:1013F000424651462000FFF715FF2168019BCA199C
:10140000002BC6D10028CFD043001B18033BCB18BC
:1014100000219970C8E7019B002BBAD1C4E75000A6
:101420008018033809184878834648464870587031
:1014300041462000FFF7F6FE594680462000FFF7A0
:1014400043FF414602002000FFF7ECFE8046CFE755
:10145000F0B54E464546DE465746E0B5467B0400AD
:1014600075000068AD19033D83B00191415D4219DB
:1014700000294ED04B005B18033BC3185F78BC4675
:10148000002F18D1019D002D40D0E57B002D04D008
:101490006B005B19C318033B5E70E673002931D102
:1014A000002330005370617303B03CBC90469946F2
:1014B000A246AB46F0BD7A006244033A80184278F7
:1014C00093460022427091465A7020003A00FFF77E
:1014D000A9FE5B468046002B07D05B0021685B4479
:1014E000033BCB185A78002A17D15A4641462000B0
:1014F000FFF798FE019B010020684219002BC4D120
:101500000029CDD04B005B18033BC3180020987016
:10151000C6E7019B002BB8D1C2E750008018033802
:101520000918487882464846487058705946200045
:10153000FFF778FE53468346002B07D05B002168F7
:101540005344033BCB185A78002A06D159465246D9
:101550002000FFF767FE8346C7E750008018033876
:10156000091848464F784870587051462000FFF7D8
:1015700059FE390081462000FFF7A6FE49460200C9
:101580002000FFF74FFE8246E0E7C04670B504003A
:1015900000292CD0437B8B422ED005684800401890
:1015A000033828188278002A21D053009B18033B67
:1015B000EA5CEE188A4202D11BE0002A08D05300F0
:1015C0009B18033BEB185A788A42F6D142785A703E
:1015D00000230122837043702000FFF7BDFE617B72
:1015E00002002000FFF71EFE6073012000E00020D3
:1015F00070BD43783370EBE701221900FFF7ACFEB2
:1016000060730120F4E7C0462B4B2C4A70B51A607A
:101610002B4A2C4B2C491A6010008B689843FBD145
:101620002A4C2B4B9C4209D2013B1D1BAD080135B6
:10163000AD002D1908CC9847AC42FBD100F07AF8E8
:10164000244A204B1A60204A9368DB018033FBD187
:101650004022214B214C9A675A671A67DA66204B61
:101660009C420BD2013B1D1BED080135ED002D19ED
:1016700020000834FFF7BCFDAC42F9D1194C1A4DDB
:10168000A168C022280000F099FDA560FEF7D0FFF8
:1016900000F0DCFBFFF78AFA144C154B9C4209D290
:1016A000013B1D1BAD080135AD002D1908CC984735
:1016B000A542FBD170BDC04600E00040BFCDFFFF9A
:1016C000FE7F3C0000F0004000C0004038030020D6
:1016D00048030020FFFFFF0100F00140300300201D
:1016E0003803002000ED00E0000000204803002047
:1016F0004C03002000BEFDE70FB400B5084883B0DE
:1017000000F032FE049B002B07D005A918000191C0
:1017100000F0C0FB034800F027FE00BEFDE7C04616
:10172000EC490010FC49001010B50148FFF7E4FF38
:10173000004A001030B50C2083B000F071F9FEF7BC
:10174000A1FF00280ED09A4B9A4A1A605A609A60FC
:10175000DA601A615A619A61DA611A62964A5A62CB
:1017600003B030BD954CA06700F0AEF90122944B58
:101770001A60636C012BFCD10322924B1A608F4AD2
:10178000936B012BFCD1C0228F4B92011A608F4BBF
:101790008F491A6010008B689843031EFAD1022407
:1017A00001218C4A8C480633009400F0A1F90523EE
:1017B0008A4A01218A48009400F09AF9894B5A68B4
:1017C000FF2A02D8802252005A608022784C7D4B3A
:1017D00021691201834D1A60002905D0606900F06B
:1017E000A7FB01300138FDD1E0217E4B02201A68B1
:1017F0001140802252012A43116019684840032198
:101800000140116004219A681142FCD0802280219D
:1018100092012A4309011160802252005A60724BE2
:101820002361724B5968FF2900D85A6003226F4820
:10183000634B01211A60020093681942FCD0E02535
:1018400013681D4080235B0103431D6012684A40FA
:101850000321114019600221644A93681942FCD0A7
:10186000802380219B010343090119608021604B83
:101870004900516063615F4B5A68FF2A00D8596084
:1018800080225D4BE16912015A4D1A60002905D092
:10189000606900F04DFB01300138FDD1E02255496F
:1018A0000B681A4080235B012B431A60802380223F
:1018B0009B012B4312011A6080223E4B52004A606A
:1018C000E3614E4B5968FF2900D85A6080224C4B87
:1018D000216A1201494D1A60002905D0606900F0A3
:1018E00027FB01300138FDD1E02244490B681A4042
:1018F00080235B012B431A60802380229B012B43B2
:1019000012011A60802380225B004B60294BD202B7
:1019100023623C4B5968914200D25A6080223A4B74
:10192000616A1201374D1A60002905D0606900F024
:10193000FFFA01300138FDD1E02232490B681A402C
:1019400080235B012B431A60802380229B012B4361
:1019500012011A608023DB024B60174B63622B4B32
:101960005A68FF2A02D8802252005A608022284BEF
:10197000A1691201254D1A60002905D0606900F0A7
:10198000D7FA01300138FDD1E02220490B681A4016
:1019900080235B012B431A60802380229B012B4311
:1019A00012011A6080235B004B60114BA361D7E6E4
:1019B00000080020006CDC021BB700000080004023
:1019C0003CB0004030B0004000E0004000F000407B
:1019D00000C00040002F68590080024000389C1C65
:1019E00000C0024030800040001BB7003C80004037
:1019F000405973075480004054B00040608000405C
:101A000060B000406C8000406CB0004048800040F6
:101A100048B00040014B8000C058704700080020CB
:101A20008023024A9B000343D36270470080054035
:101A300010B5140080221A4BD2051A6000282CD051
:101A40000123184A1843184BDA61184A42401A62B7
:101A5000596298628022124BD2051A601449154AC5
:101A60001160E022D2041A60002C12D0802362019F
:101A7000121B9200121912015B049A4200D30E4A03
:101A80000E4B1A60084B5A6080220D4BD2051A602B
:101A900010BD0C4A094B1A60F4E7034BD861D9E733
:101AA00000B00540D3C007B0008005402D3FF84F7F
:101AB000FCFF010008200140FFFFFF001C0F002079
:101AC00000A00540A0860100AA23064A1B0113605E
:101AD0002F230549D360054B19605368002BFCDAAE
:101AE0007047C0460040024000B0FA00006002406B
:101AF000F8B51E0001235B424360002304008360AD
:101B000001600C20170000F013FA4101091A8D0141
:101B1000691AC90009188901380000F009FAC021C2
:101B2000231D890119432123A0600B602268002A2C
:101B3000FCDA069B36041B031E430823E6600B6099
:101B4000F8BDC04601238340002904D0034A136036
:101B5000034A13607047034A1360FBE780E200E02A
:101B600000E100E080E100E001238340014A1360CE
:101B70007047C04600E200E0024B10309B688000D6
:101B8000C058704700ED00E070B50D00EFF310860F
:101B900072B60F4A1368002BFCD0BFF35F8F0D4B5A
:101BA00010309B6884001B590B4A934203D09D421E
:101BB00001D0FFF7B9FD074B9B681D51BFF35F8F45
:101BC000BFF35F8F0022024B1A6086F3108870BD4E
:101BD000240100D000ED00E0CD010010F0B5DE469C
:101BE00057464E464546E0B50C0083B0EFF3108AE9
:101BF00072B65B4A1368002BFCD0BFF35F8F1022D4
:101C0000914681444A46574B96009B689D59564BD6
:101C100098469D4205D0A54216D0544FEB1B2F2B62
:101C200014D9504B9B689D51BFF35F8FBFF35F8FFB
:101C300000224B4B1A608AF3108803B03CBC9046DC
:101C40009946A246AB46F0BD1D00EAE7012383405A
:101C50009B465A46464B1B681A4000925A46454BD3
:101C60001A60BFF35F8FFEF7FEFA0190002803D0E1
:101C7000814501D0FFF758FD01232A009A43130044
:101C8000DB1B5B4142495943090D93689C4208D1D3
:101C90005BE043001B189B00FB189868A04211D022
:101CA0001A00062010560028F3DA009B002B05D0FE
:101CB0005A46314B1A602E4B1A60B2E75A462D4BEA
:101CC0001A60AEE706201856002822DB42001118E1
:101CD00089007C188846A1689960E179D97106214C
:101CE00061569971A1797F291FD8A488F91A6405D2
:101CF000241544440919E0240905490D240221430F
:101D0000998012181D4B9200BF181A781870BA717A
:101D1000CBE7019800280BD1FF30907118489080D4
:101D2000164A107811709871BFE7BD210902E7E7E4
:101D3000144A1549D21A083A5002400D01439980BD
:101D4000124952080A43DA80AFE706201056130002
:101D50000028BBDA019A002AEAD14546E0E7C046EE
:101D6000240100D000ED00E0CD010010740200203D
:101D700000E100E080E100E080E200E0540F00209C
:101D800000BDFFFFAE02002000F0FFFF00F8FFFFE4
:101D9000AAAA0000F8B5012504000543FEF763FA7E
:101DA0000200EFF3108672B621490B68002BFCD0BD
:101DB000BFF35F8F1F492000401A4041224B43432D
:101DC0001B0D1D48920087685BB2BF58AF421CD004
:101DD00006228A569A421CD012228A569A4222D051
:101DE0001E228A569A4220D02A228A5603209A42DC
:101DF00010D0124A11781370A171BFF35F8F0022C7
:101E00000B4B1A6086F31088F8BD81680C48885027
:101E1000EFE700204200121892008918FF228A7111
:101E2000084A8A80E5E70120F4E70220F2E7C0468D
:101E3000240100D07402002000ED00E0540F0020C7
:101E4000CD01001000BDFFFFAAAA0000F0B50022DE
:101E50000324FF27802620003D00094B11009C46EB
:101E60001040C0008540A14361440B680132AB4380
:101E7000350085402B430B60202AECD1F0BDC046D5
:101E800000E400E010B5002800D110BD00F05EFABB
:101E9000FBE7C04610B5094A0300146884B0002C63
:101EA00008D0012200910648524203A9A047012010
:101EB00004B010BD00F058FA0020F9E7180F002018
:101EC000851E001001480421014B1847C002002064
:101ED000F51E0010142310B50100188804331B8868
:101EE000984710BD162310B50100188802331B88CF
:101EF000984710BDF0B5C64600B5002916D014238A
:101F00000400012598461827890046184346216891
:101F100018883B88984701C4431E984140420540B9
:101F2000A642F3D1280004BC9046F0BD0125F9E794
:101F3000134A936F9B0813D210665166002905D08F
:101F4000FFE7FFE7FFE7516F106F704704B5002808
:101F500001D00020C04302F0F3FC002104BDC046C4
:101F6000936F5B08FDD3F0B5946ED56E576F166F07
:101F7000FFF7E2FF9466D56657671667F0BD00006D
:101F8000000000D0132370B51D78012D10D00BDD9B
:101F90002448FFF7A7FF244C01008022200000F016
:101FA0000DF9022D01D070BD1F4C204AA264FAE742
:101FB0002E001D4C1D4AA3085B421E401D422FD01F
:101FC000330022602020B1006118801B0A604A6043
:101FD0008A60CA600A614A618A61CA610A624A62A9
:101FE0008A62CA620A634A638A63CA630A644A6489
:101FF0008A64CA640A654A658A65CA650A664A6669
:102000008A66CA660A674A674008102803D18A6749
:10201000CA67A264C7E71E339B00E250A264C2E70E
:102020000023CFE7534400005C0F00203120001054
:1020300007B5604601880A0A0230DF2AFAD1C9B220
:10204000820804D3028840880004104300E000683E
:10205000014A5050039007BD5C0F00205143434399
:10206000C9188C46110C83B24B4310B4040C614365
:1020700092B280B2504362431C041B0C001910BC86
:1020800059411304120CC0185141614470470000BB
:10209000484041404840064B5B681847044B1B686A
:1020A0001847034BDB681847014B9B681847000033
:1020B0005C100020491A002808D10846704700002B
:1020C000C10FC90700D54042002817D0F44603B419
:1020D0000B4B1B68984706BC81409E3840428031BC
:1020E00007D20B0607D04900490AC0051043084330
:1020F00060470130F8E7490A8902F5E770470000B8
:102100005C110020014B5B6A184700005C10002046
:10211000132310B512481C78FFF7E4FE0100012CD0
:102120000AD003DD80220F4800F048F80E48FFF780
:10213000D1FE0E4B186010BD0A4C5422200000F056
:102140003DF80B4B6365A365E36523666366A36691
:10215000E36623676367A367E3672362E361E5E7F9
:10216000534600005C1000204C3300005C1100203E
:102170007521001007B5604601880A0A0230DF2A7F
:10218000FAD1C9B2820804D30288408800041043FF
:1021900000E00068014A5050039007BD5C10002029
:1021A00001480421014B1847D0020020F51E001001
:1021B000014B1B6818470000D0020020014B5B68F0
:1021C00018470000D0020020F8B54746CE460D0063
:1021D00080B516000700002A20DD4B1E98461A4BDA
:1021E000002400209946002C2BD043461B5D0D3B5C
:1021F0005A425341DBB22A5D0A2A13D00134A64267
:10220000F1DC864203DD311A3B6828189847AD1986
:10221000013D2B780D3B5A4253413B740CBC904618
:102220009946F8BD002BE9D1A04203DA211A3B6898
:1022300028189847484602213B68013498472000F7
:10224000DDE73B7CD7E7C046744A0010F0B557463F
:102250004546DE464E46D023E0B51B061C68374B8C
:1022600083B007000D00180001A990469A4602F0BD
:102270006FFB8146002807D1019B9C4204D0504649
:1022800002F076FB012399466B1C03D1380002F063
:1022900017FB05002A4B1C68002C2FD00A23294E5F
:1022A0009B4602E0E468002C28D02268002AF9D07E
:1022B0003368002B01D0A342F4D1637C002B2AD0D9
:1022C0002A0039002000FFF77FFF4346002BE9D0AA
:1022D0006B465A461A71637C002B20D0237C002B5E
:1022E00026D00121236801A898476B461B790D3B36
:1022F0005A4253412374E468002CD6D14B46002B3C
:1023000012D1681E8541E8B203B03CBC90469946A4
:10231000A246AB46F0BD290038009047D5E7012121
:10232000236801A89847BDE7504602F001FBE8E7A3
:102330000221054823689847D7E7C04630030020AC
:102340009008002094080020744A001010B582B054
:102350006B4604000022D81D01210470FFF776FFB0
:10236000200002B010BDC04670B5040002F0A8FA0B
:102370000122010005002000FFF768FF084B1C68E0
:10238000002C06D06368002B05D09847E468002C29
:10239000F8D1280070BDE468002CF3D1F9E7C046FD
:1023A000900800200D4A1368002B13D0834202D1FD
:1023B00009E0984208D01A00DB68002BF9D1002907
:1023C00000D0D06070471A000029FBD1DB68D360D1
:1023D000C160F7E70029F5D01060F3E7900800200E
:1023E00010B500F045F800F099F910BDF0B50D1EDC
:1023F00015DD0E4B0D271A680D4B4519D3185942A0
:102400004B410C495B005E5E20210478A64207D058
:1024100093691942FCD101301460A842F5D1F0BD96
:1024200093691942FCD11760F2E7C0464C0F0020B7
:102430000080FCBF580F002030B50500002912DDD8
:1024400000201024094B013D1A6893691C4208D1F1
:10245000013093691C42FCD113682B548142F4D1A2
:1024600030BD0028FCD103204042F9E74C0F00208A
:10247000E12110B50B4B0C481B780C4B49021B7823
:102480000B4B1860FEF706F902210020FEF724F836
:1024900002210120FEF720F801210648FFF782FF04
:1024A00010BDC046344D001000400340384D0010B0
:1024B0004C0F0020E00200207047C0460022014B74
:1024C0001A707047550F00204B790020FF2B0BD15D
:1024D0008B79002B08D1CB79012B05D1082A03D9A0
:1024E0008A78024B09301A707047C046550F002099
:1024F000012070470120704770B5144A4B79087964
:1025000012781B02034300209A4200D070BD4B7822
:10251000012B08D0022BF9D1002064220021FFF703
:1025200087FA0120F2E7CA788C781202050014437A
:10253000D20502D5620A93401D000548FFF7CAFC88
:102540007F210300214028009847C046550F0020F6
:10255000554200000123037000487047B84A00103C
:102560004A780B7812021A438B7810B51B041A4371
:10257000CB781B0613439622D200934200D010BDA5
:102580000348FFF7A7FC0021030008009847C04656
:102590005542000070B5184C82B006000D002000B6
:1025A00001A902F0D5F9002808D1D0231B061B6829
:1025B000019A9A421CD0200002F0DAF9002001F0C2
:1025C0009DFB002807D103256D42200002F0B0F9E1
:1025D000280002B070BD002001F0AAFB0028F2D054
:1025E0002A003100002001F0B3FB051EEBD0ECE720
:1025F00003256D42ECE7C046340F0020F0B54F468E
:10260000D6464646C0B5354B82B007000D001800CF
:1026100001A9994602F09CF9002808D1D0231B0695
:102620001B68019A9A4252D0484602F0A1F9002054
:1026300001F064FB002842D00024002D44DD284B2B
:102640009A46984611E03919002001F00DFC060069
:1026500000F0C8FC002001F0B5FBFEF7CFFC4346BC
:1026600018605960A419AC422EDA002001F018FC61
:102670002E1B0200B04200DD3200002AE3D100F040
:10268000B1FC002001F09EFB002001F037FB002888
:102690001AD0002001F004FC0028E4D1FEF7AEFCC3
:1026A00053460E001A685B68002184460D481218D4
:1026B0004B419E4208D8D6D19445D4D904E000209D
:1026C0000021074B18605960484602F031F902B00A
:1026D0001CBC90469946A246F0BDC046340F00206F
:1026E0005004002020A107001F2010B5FFF73CFA7E
:1026F000FA200021800010BD10B5074C00212000F9
:1027000002F026F9002800D110BD00F06BFC20007B
:1027100002F00EF9F8E7C046340F002070B51E4BEA
:1027200084B01B7801F0C0FD1F201C49FFF72CFA74
:1027300001211F20FFF706FA1948FEF759FDFEF7A1
:1027400061FA0600FEF75AFCFA2204000D0000238D
:10275000920012196B41994214D811D001210291B3
:10276000002101910F4930000091FEF74FFA04005B
:10277000631E9C41E4B2002808D1200004B070BD63
:102780009042EBD901225242D317E7E701210648D4
:10279000FFF708FEF1E7C0463C4D0010F926001097
:1027A000340F0020E9260010F40200200048704792
:1027B000844B001000487047304B001010B50028C3
:1027C00006D1124B12484380063BFF3B038010BDED
:1027D000052818D80F4B8000C4580D480023811CD1
:1027E00004E001330A800231132B09D0E25C002A95
:1027F000F7D1C02201335B00920013439BB2E5E79F
:10280000CA239B00E2E70020E1E7C046090400007C
:1028100068080020984B0010F0B5982357464546AD
:10282000DE464E46414AE0B5D75880243D0085B08B
:102830006402883B25400393274214D001213920AC
:1028400000223B4B25001954597147315A541A75CF
:1028500000200132374901F03BF88022364B9202CA
:102860001A65364B0393FB060CD480235B011F4291
:102870003AD1BD4254D105B03CBC90469946A246DF
:10288000AB46F0BD294B9A6D002A28D09A462A4BB8
:10289000B946002601259B46170003E06D0001366E
:1028A000202E1BD02F42F9D05346DB6D5B466824A7
:1028B00001229D6573085C4334239046B243534321
:1028C000E4181B4B9C466444200000F03DFA0028AD
:1028D0001AD1AF4301366D00002FE1D14F4680235E
:1028E0005B01039D1F42C4D00022154900200A70DD
:1028F0000E491D430A600132012100F079FF802258
:102900000D4B12031A65B4E74346E26921790020B2
:102910000093002301F004F8200000F0E1F9D8E76B
:10292000290008487940FEF7E7FEC0460000115034
:1029300098080020000010500030115010000100D5
:10294000520F0020B04B001010B501210520FFF7F9
:10295000F9F810BD094B10B5012219703921002377
:1029600007484254427147328354037500220021C4
:102970003430013300F06EFA10BDC046520F002013
:10298000980800208022024B5202DA647047C04649
:102990000020115070B5050000F07AF905201F499C
:1029A000FFF7F2F8D0221E4C00212000D200FFF7E2
:1029B000FFFB00231B4A1C4913701C4A4020116076
:1029C000802252006280A280D03AA354184A6370D9
:1029D000E062E260352613600122A2554C36FF36D4
:1029E0002687002620662430265412491248A36008
:1029F00021612270E38620640360E3633433E25490
:102A00000E4B61641A6480229205DA6490220C49AC
:102A100028009950FFF7B6FF70BDC0461928001076
:102A200098080020520F002080011050200F002035
:102A30008400105000011050800010500000115010
:102A4000101001000B785B0602D14B78052B09D0E2
:102A5000012139200022064B5971195447311A754A
:102A60005A547047034B1A78034B1A60F0E7C0467C
:102A700098080020520F0020000011500A00F8B5FD
:102A800007234746CE46547910792340D4781B0259
:102A9000A40703437F20A20F682480B58978944659
:102AA0000840914644433422A046CE0972433D4D2E
:102AB0004244AA184FB21171F943C90FD170414273
:102AC00041415670907051716246012A5CD0402B92
:102AD0005ED834226821724341435218AA1811006B
:102AE000644630310C70D362C100002F3CDB2E4CA9
:102AF0000027A4466144D1600F6000283CD02B4CD5
:102B0000C100A44661449160682434224443A44631
:102B10007243274F62443968AA181161402B00D2D2
:102B200040233F22CB18134201D0934340333B60F4
:102B3000204B682259404B469C0634230C43A0216D
:102B4000734342439B18EB189B6809060C431C60B7
:102B500034235E4334335843673B30182B540120F1
:102B60000CBC90469946F8BD134C0027A44661441E
:102B7000D1600F6000280FD1342300227343EB187B
:102B80009A600E4A1A61E3E78022D2009342A0D3F2
:102B900019000B48FEF7B0FD064CC100A446614485
:102BA0009160B1E798080020840010500400105094
:102BB000200F002000001050800010500001105025
:102BC000C44B001010B50C00342011001A00E309AA
:102BD00058437F23234068245C43044B0019C018EA
:102BE000012300F037F9012010BDC04698080020ED
:102BF00070B57F25342068230D40CC096B436043BA
:102C00000C4EC01830188378002B05D143785A42F7
:102C10005341094A0133936680220849120100F0AA
:102C200069F8342101234C4334314D43641934197C
:102C3000237570BD9808002000201150FFF7FFFF9A
:102C400070B57F25342068230D40CC096B43604369
:102C50000C4EC01830188378002B05D143785A42A7
:102C60005341094A013393660022084900F042F8B3
:102C7000342100234C4334314D43641934192375F6
:102C800070BDC0469808002000301150FFF7FFFFCC
:102C900080220E4B520410B51A600D4B0D491A607C
:102CA00010008B689843FBD10B4C9C220021200024
:102CB000FFF77EFA8022002152010848FFF778FAD8
:102CC000092363670333A36710BDC04600E00040DB
:102CD00000F0004000C00040000011500000105003
:102CE000002300213222838281548361C361036205
:102CF0008362704710B5C368002901D01C68214069
:102D0000002A11D08024E400114322420CD01A681A
:102D100022420BD1094A0A401A60FFE7FFE7FFE7AA
:102D2000FFE7FFE7FFE7C368196010BD4378044A77
:102D30009B0081789A580348FEF7DEFCFFFBFFFFFB
:102D400008030020EC4B0010F8B5467D0400002E6F
:102D500000D168E0C368C0781D68AD05AD0D0028DE
:102D600043D1E369E918E161A269551A402D2ED8D3
:102D70006B189B1A5F427B412427DBB22562E35527
:102D80008A424DD34AD0002823D08022D2002A4341
:102D90006179002902D08020800102430120414056
:102DA0006171002B02D08023DB011A43E1680B68BC
:102DB0005B053DD4224B13400B60FFE7FFE7FFE7C5
:102DC000FFE7FFE7FFE70020E3681A60F8BD402552
:102DD000CEE7A36A2A009C4620696144FFF7EEF91A
:102DE00084221202E35D2A43D2E7E269A36A944691
:102DF0006344180021692A00FFF7E0F9E369E078ED
:102E0000E918E1610028AFD0236A9D42ACD20023CB
:102E1000012223622433A161E254D7E73000D5E7D1
:102E20000848FEF769FC8178074A0848FEF764FC09
:102E30006378054A9B00A1789A580548FEF75CFC28
:102E4000FFFBFFFF384C0010080300200C4C001063
:102E5000EC4B001070B50400002B49D0437D002BD3
:102E600003D000230375322023540023A261E361C1
:102E7000151C402A31D80123ADB2521B6375534251
:102E80005341242625220020DBB22562A162A355EE
:102E9000A054E278002A22D08022D2002A4361790D
:102EA000002902D08020800102430120414061714D
:102EB000002B02D08023DB011A43E1680B685B051D
:102EC00019D4114B13400B60FFE7FFE7FFE7FFE763
:102ED000FFE7FFE7E3681A6070BD4025CBE72A00F3
:102EE0002069FFF76BF984221202A35D2A43D6E71B
:102EF000FFF72AFFF0E76378044A9B00A1789A580D
:102F00000348FEF7F9FBC046FFFBFFFF0803002064
:102F1000EC4B0010024B5878431E9841C0B27047EA
:102F2000A4070020024B18784007C00F7047C04626
:102F3000A4070020F8B5372200212148FFF738F90F
:102F4000204C2000FEF754F91F4B1C601F4C200042
:102F50001830FEF75BF9200001F09EFB1C4B1D4E64
:102F60001D4D1C60002E04D02800FFF7F3FA1B4B08
:102F7000186000242B78002E19D0194E174F9C4250
:102F80000FD319D13300984701342B78E4B2A34210
:102F9000F5D20020FFF7FEFC0020FFF7D5FC012052
:102FA000F8BDE3003A681B1B9B009B58EBE700F061
:102FB00087FF2B78002BECD000231B68FFDEC04678
:102FC000A40700205C070020DC070020100300207D
:102FD000E007002055250010500F00207404002049
:102FE000C13E0010F0B5DE4657464E464546E0B5B8
:102FF0008BB001F069F9002800D122E1B24B07AD96
:103000009A46B24B9B4653461E68B269EFF3108353
:1030100072B611680029FCD0BFF35F8FF3612900FD
:10302000300001F0ADF9B2690400F369BFF35F8FBE
:103030000021116083F31088002800D101E16B7832
:10304000082BE0D85A469B00D3589F466B68002B4C
:10305000D9D0A8689847D6E77F2229799C4B0A40A7
:103060005400C8091B191B18180001262030447988
:10307000B443447144790336B4434471002A00D107
:10308000E6E0944ADB7C002A06D0934A1278934209
:1030900000D26DE19B1ADBB2002B00D0D1E08F4C47
:1030A0006A792878AB68A047ADE7894B0127984635
:1030B00042461B7800203B4313702B78994600F062
:1030C00095FD60232E793340602B0DD0402B00D12D
:1030D000DAE0F606F60E012E00D154E1022E00D100
:1030E00010E1002E00D1E1E028780021FFF780FDFB
:1030F00080212878FFF77CFD85E7794B002B82D073
:1031000000E000BF7FE7774B002B00D17BE7704BDF
:1031100018780007C00F00E000BF74E76E4E6D4ADC
:1031200000243378002A00D198E06F4FA34208D8DA
:10313000A34200D095E00134E4B2A34200D262E79A
:10314000F6D93968E2008C46121B920062449269FB
:10315000002AF0D02878904701343378E4B2A342B3
:10316000E4D250E73722002159482F78FFF720F8A2
:103170001022FF215D48FFF71BF855481222FF215E
:103180001330FFF715F800F027FD534E514A002485
:103190003378002A00D170E0554A9046524A914651
:1031A000A34245D866D14346380098470134337866
:1031B000E4B2A342F4D24F4B002B00D123E700E04E
:1031C00000BF20E7424B37229846002118002F7895
:1031D000FEF7EEFF43461022D81CFF21FEF7E8FF62
:1031E00040461222FF211330FEF7E2FF00F0F4FC0C
:1031F000394E384A00243378002A35D03A4A91466D
:103200009C420CD336D13A4B38009847013433787E
:10321000E4B2A342F4D242462B799370F3E64A46D5
:103220001268E30094461B1B9B0063445B68EBE75A
:103230004A461268E30094461B1B9B0063445B688C
:10324000B2E70BB03CBC90469946A246AB46F0BDF7
:103250006A792878AB6800F0DDFCD4E6002B00D159
:10326000D1E600239B69FFDE380000F065FE33786D
:10327000002BD0D000235B68FFDE380000F05CFE3E
:103280003378002B97D0F5E71B4B002B00D12BE7B1
:103290001A48002801D000F0A9FC484608A900E01F
:1032A00000BF0400002C00D0ADE61DE7202B00D1AC
:1032B0009AE0002B00D017E76B79092B00D913E7B0
:1032C0000F4A9B00D3589F46E00700205C4C00103B
:1032D000A407002055250010500F0020F5400010D5
:1032E000000000000000000074040020A707002078
:1032F000393F001000000000000000000000000046
:10330000804C00107F22297A0A400292082A00D9B4
:10331000EAE6C8090190002B00D182E000245300A6
:103320000293019A029B94464344C74A6344DB7C60
:10333000002A06D0C54A1278934200D23BE19B1A7C
:10334000DBB2002B00D02DE1C148C24E00F04EFC94
:103350004846F36808A99847002800D122E1602276
:103360002B791A4200D04EE6002000F03FFC4AE6DE
:10337000DA00D31AB84A9B001268D318002B00D188
:103380005FE75C698CE62B7A0F2B00D9ACE6AE4A7E
:103390004344DB78002A05D0AC4A127893425ED3CE
:1033A0009B1ADBB2002B00D09EE6A948A94C00F086
:1033B0001DFC4846E36808A99847002800D022E68B
:1033C000602211002B7919401A4200D08CE66B79EB
:1033D0000A2B00D088E606AB9A1C117001234846E0
:1033E00008A900F09DFB0EE62B7A0F2B00D97BE697
:1033F000954A4344DB78002A06D0944A12789342D7
:1034000000D202E19B1ADBB2002B00D06CE69048A0
:10341000904C00F0EBFBE368484608A9984704008D
:1034200040E76B790393012B00D1D8E0032B00D147
:10343000CBE0002B00D057E65300019A029394464C
:103440004344634420335B7906AA9B07DB0F0232B7
:1034500013804846022308A900F062FB61E77E4A18
:10346000DC00E31A14689B00E418002C00D13BE652
:1034700020699CE7EB88012B00D035E64346082203
:103480001B7893434246484608A9137000F030FB6E
:10349000B9E543460220197806AB9A1C8B068908C9
:1034A0000140DB0F0B4313804846022308A900F0BC
:1034B00037FBA8E54346AA7903925B78002B02D13B
:1034C000002A00D0D0E04346039A484608A95A7023
:1034D00000F00EFB97E5434606AA5B7802321370B4
:1034E0004846012308A900F01BFB8CE5EB88A8796E
:1034F0001B0A0F2B00D9F7E5584A9B00D3589F466B
:1035000008A800F079FB4846A979FFF723FA43465B
:1035100002221B7813434246137074E5EB88012B9B
:1035200000D0E1E5434608221B781343AAE74C4B41
:10353000002B00D1D8E500E000BF040006AB9E1CC4
:103540000222A11C3000FEF739FE220048463388D3
:1035500008A900F0E5FA002800D054E5C4E5414B85
:10356000002B00D1C0E500E000BF021E00D1BBE58A
:103570004846137808A900F0D3FAECE72989FFF749
:103580001DF9021EF4D1AFE5FFF714F9041ED5D1E1
:10359000AAE5FFF70BF91223020008A9484600F03C
:1035A000BFFAD8E760222B791A4200D07AE60020D1
:1035B00000F01CFB76E6284ADE00F31A16689B0032
:1035C000F618002EEED03069C0E6EB88002B27D02D
:1035D00053000293484608A900F08AFAA1E6EB8856
:1035E000002BF5D14846FFF72BFB019A029B94462E
:1035F0005B0002934344634420335A790399B243F6
:103600005A715A798A435A71E4E7134ADC00E31A83
:1036100014689B00E418002C00D165E52069F8E6E9
:103620004846FFF7E5FA019A02219446029B5B00A7
:1036300002934344634420335A790A435A715A79B6
:1036400017435F71C6E7C04655250010500F002094
:1036500049400010E84C001074040020A84C0010F1
:103660000000000000000000501EC0B2FFF7A2F8EA
:10367000002800D138E54378022B00D034E5012141
:10368000C2790600931152110B400A4012015B01EE
:103690001343424612782F318A4313434246137034
:1036A000C37882781B021343C31809360493049B22
:1036B000B34200D888E00023727802930B2A04D129
:1036C00033780296F3181E005A78042A00D00BE5CE
:1036D000049B424A9B1B9BB20193414B00241B78E5
:1036E000002A10D11CE09C4226D13E4B31004846B6
:1036F000019A9847002822D1394B01341B78E4B253
:10370000A34200D2F0E49C42EDD2374B1B680593F4
:10371000059AE30094461B1B9B0063449B68E5E706
:1037200031004846019A00F019FC071E53D12C4B7A
:103730001B78002B00D1D7E400239B68FFDE070035
:10374000082F00D8D0E4019BBB4200D2CCE4424613
:10375000B378D218D178FF2900D0C5E4D470029A8A
:10376000002A15D091781000994200D0BCE412795B
:1037700073799A4200D0B7E4C278012A08D9023A94
:1037800004314144D2B2080001322100FEF710FD9D
:103790007F21320000238C465178052907D16146EC
:1037A00090780140490041441331C0090C5411780C
:1037B0005B189BB25218BB42EED3094BF6191B782B
:1037C000A34200D373E78FE4084B002B00D17AE6C5
:1037D00000E000BF77E6014CB2E7C0465525001077
:1037E000500F00205D3F0010740400200000000016
:1037F00030B585B005000C000C22002101A8FEF7B1
:10380000D7FC6B461D715C71042C4BD005D8022C83
:1038100030D0032C24D105B030BD052C20D12A4B4B
:103820001A78D207F7D504211A788A431A70274BE1
:103830001C68A269EFF3108172B61368002BFCD0EC
:10384000BFF35F8FE161200001A900F065FEA2696E
:10385000E369BFF35F8F0021116083F31088DAE71B
:103860001A4B1C68A269EFF3108172B61368002B23
:10387000E6D1FBE70121144B1A788A431A701A78B3
:103880000331A2431A7000225A701A788A431A70C0
:103890000E4B1C68A269EFF3108172B61368002BFF
:1038A000CED1FBE7084B1A78D207B4D504211A7899
:1038B0000A431A70054B1C68A269EFF3108172B6B7
:1038C0001368002BBCD1FBE7A4070020E007002011
:1038D000002330B585B001AD6B8028700633082217
:1038E00002A86B70FEF76AFC0C4B1C68A269EFF330
:1038F000108372B611680029FCD0BFF35F8FE361BB
:103900002900200000F008FEA269E369BFF35F8F81
:103910000021116083F3108805B030BDE00700205E
:10392000F0B5C646804600B584B001AC0F00160065
:103930000021082220001D00FEF73AFC43462370B8
:10394000072363700F4B65711D682771A660AA6914
:10395000EFF3108372B611680029FCD0BFF35F8FBC
:10396000EB612100280000F0D7FDAA69EB69BFF3E5
:103970005F8F0021116083F3108804B004BC90466F
:10398000F0BDC046E0070020F8B54746D64680B5F2
:103990009846089B06000C00171E9A4621D0002569
:1039A00006E05246137023780135E418BD4218DA58
:1039B0006378052B17D1E1788907890F414512D12A
:1039C00021003000FFF75AF800280CD0A378DA095C
:1039D000012AE6D1099A013513702378E418BD4213
:1039E000E6DB012000E000200CBC90469A46F8BDC2
:1039F00010B5FFF743F810BD70B57F240C4063008D
:103A0000144CC909E418641820346379DB07DD0F0E
:103A1000002B18D163795B0701D5280070BD012107
:103A20000D4E4942306800F09BFF6379DB07DD0FE4
:103A3000002B0AD163795B0708D40422637901253E
:103A40001343637102E00025E7E70025306800F0CA
:103A50006FFFE2E7A4070020DC07002070B50C0030
:103A600001210F4D4942286800F07AFF7F21214053
:103A70004B000C49E409C918091920314B7900247D
:103A8000DB0708D44B795B07DC0F002B03DA042239
:103A90004B7993434B71286800F04AFF200070BDBA
:103AA000DC070020A407002070B57F240C406500CF
:103AB0000E4C06006419C8092418203465790020CA
:103AC000ED0700D570BD0125607928436071300095
:103AD000FFF778F80028F5D10122637993436371E9
:103AE0006379033293436371ECE7C046A407002077
:103AF00070B50A4E0500082230000C00FEF75EFB90
:103B0000002161560023C943C90F2800F360002239
:103B1000C901B360FFF756F870BDC04648070020E2
:103B2000F8B5CE4647469046294E80B581460822D4
:103B300030000D001F00FEF741FB4346B360002339
:103B4000F381EC79AB7924021C43231CBC4200D9DD
:103B50003B1C9FB2B381002C12D0002F1ED04346D5
:103B6000002B32D03B1C402F1ED89FB233787F2BC6
:103B70001FD80021174A3B004846FFF723F809E009
:103B8000002169560023C943C90F00224846C901D4
:103B9000FFF718F80CBC90469946F8BD33787F2B98
:103BA00010D980210022E6E740239FB233787F2B93
:103BB000DFD9084C3A0041462000FEF7FFFA802189
:103BC0002200D8E700210022D5E70020E2E7C04626
:103BD000480700206407002010B514220021024885
:103BE000FEF7E6FA10BDC04648070020014B1861F9
:103BF0007047C0464807002010B5054C0100082258
:103C00002000FEF7DBFA0023A360E36010BDC0468E
:103C100048070020F8B5364D1C002B780600DA095D
:103C2000C9098A420CD00027002C01D03800F8BD09
:103C3000304B0137002BF9D02900FEF703FFF5E7E1
:103C40007F2B06D8A868002837D022002A49FEF723
:103C5000B5FAAB68EA8919191219EB8892B2EA81B0
:103C6000A960934215D03F2C13D9AC89A01A071C28
:103C700080B240282DD82B78BFB27F2B2BD80021C3
:103C8000A24233D01C4A3B003000FEF79BFF0700E6
:103C9000CCE72B69002B04D029003000984700287E
:103CA0000DD0002169560023C943C90F00223000FE
:103CB000C901FEF787FF0700B8E70027B6E7002134
:103CC0003000FEF795FF80213000FEF791FF0127BD
:103CD000ACE74027CFE7A24207D0074C3A002000CC
:103CE000FEF76CFA80212200CDE780210022CAE78E
:103CF00048070020452A00106407002010B5040082
:103D0000FFF708F9002801D1002010BDFFF70AF9DC
:103D10000028F9D160000419230104481C1B240168
:103D20000419012023791840EFE7C04678040020E9
:103D300003004000C01810B50301181A0001034B1E
:103D40001030C01800F002FB10BDC04678040020FF
:103D5000F0B5440020180401241A24012600C646A8
:103D6000174F1036F61900B5300092B200F05CFB28
:103D70000500300000F0F6FA3F2803D8280004BC04
:103D80009046F0BD3B190020D9789846FFF734FEE5
:103D90000028F3D0300000F0E5FA3F280AD9942338
:103DA0009B00E2184346D219D97800204023FFF740
:103DB0007BFEE3E743460020D978FFF74FFEDDE7BF
:103DC00078040020F8B54746CE4680B547003B183A
:103DD0001C01E41A2401234B260098462836464449
:103DE0000500300000F0B2FA002804D100200CBC1D
:103DF00090469946F8BDA146C1444B4600209978AB
:103E0000FFF7FAFD0028F1D0A4239B009C466444F0
:103E1000444430004022210000F006FB061E16D06C
:103E2000FFF778F8002812D0FFF77CF800280ED1B1
:103E30004B461B79DB070AD54B46220099780020B8
:103E40003300FFF731FE0028D0D03000CFE77D19D6
:103E50002B015D1B2D014544A9780020FFF7FEFDD5
:103E6000C4E7C0467804002043001B1870B51C014D
:103E7000E41A2401094B2834E418050092B220000A
:103E800000F08CFB0600200000F060FA3F2801D80B
:103E9000300070BD2800FFF795FFF9E77804002097
:103EA00003004000C01810B50301181A0001034BAD
:103EB0002830C01800F056FA10BDC0467804002023
:103EC000B42270B51A4C82B0002120009200FEF797
:103ED0006FF9FF236371174B8026E38001230025D0
:103EE000210020002381760007336581237332008F
:103EF00000954031073B103000F0ECF92100200024
:103F000041313200FF3100950123283000F0E2F901
:103F100090239B00E5182800FDF76AF992239B0087
:103F20006562E5182800FDF763F9E56302B070BD2E
:103F30007804002000C2FFFF10B5074C05220021C5
:103F40002000FEF735F92000103000F0A5FB20001E
:103F5000283000F0A1FB10BD78040020F0B54B79AB
:103F6000060083B0022B02D18B79022B03D00025EF
:103F7000280003B0F0BDCB79062BF8D82F4FBB78C3
:103F8000002BF4D18B7809253B700C780C196378E1
:103F9000242B0BD1082A02D80FE0AA420DD3237894
:103FA000E418ED186378ADB2242BF6D0052B20D0A1
:103FB000042B02D163790A2B2ED0214C200000F073
:103FC000D1F93F28D4D92600103E0020F178FFF720
:103FD00013FD0028CCD0200000F0C4F93F2816D9EA
:103FE00090239B00E218F17840230020FFF75CFD4E
:103FF000BEE721003000FFF7FBFC0028B7D0A37814
:104000007B702378ED18E4186378ADB2D0E7F178CF
:104010000020FFF723FDABE70A4B2778019301331C
:104020000093022202233000E119FFF7ADFC0028C3
:104030009DD00E35ED19ADB2BFE7C0467804002023
:10404000880400207A04002060230A7870B51340A9
:104050000024202B0BD10B4A4B790D7910781B02D1
:104060002B43984203D14B780134202B01D0200000
:1040700070BD054B002BFAD00020911DFEF770FAA1
:10408000F5E7C046780400206125001060230A7817
:1040900070B513400024202B11D1144A4B790E79AE
:1040A00015781B0233439D4209D14B78212B08D848
:1040B0001F2B04D907230632FFF732FD012420000D
:1040C00070BD222BFBD1CD788B782D021D4315714D
:1040D000FFF70EFD064B0124002BF0D029006A08E3
:1040E00000202240214000E000BFE8E778040020E3
:1040F00000000000F8B54E464546DE465746E0B59E
:104100001E00644B80469946DB780D008B4200D040
:1041100072E04F461037002E19D094245E4BA40055
:104120004C44002B00D194E04F46A3199B46CA464D
:1041300010372100380000F0EFF953465B79FF2B70
:1041400002D0217899425DD00134A345F1D1534B7F
:10415000002B05D0380000F0F9F8002800D084E0EA
:10416000380000F0FFF83F282FD8103FBB789D4261
:1041700007D0012420003CBC90469946A246AB469D
:10418000F8BD474B002B02D0002000E000BF454C9B
:10419000200000F0DBF8002838D1200000F0D6F82D
:1041A0000028E6D1002EE4D0B306E2D1283CA17865
:1041B0004046FFF721FC2500041EDAD00023002230
:1041C0004046A978FFF770FCD4E73C00103C002083
:1041D000E178FFF711FC002839D0380000F0C2F870
:1041E0003F2830D990239B00FA1800204023E17823
:1041F000FFF75AFCA378BAE74B469B788B42C0D0B6
:104200000024B7E7002000E000BF9DE72500283D1F
:104210000020A978FFF7F0FB0028BED09A239B006E
:10422000E71840223900200000F0FEF882460028FE
:1042300003D0FEF76FFE00281BD14B460020997873
:10424000FFF70CFCA9E70020E178FFF707FCA37853
:104250008DE74F46A3199A461037210038000134E4
:1042600000F05AF9A245F8D171E7002000E000BF44
:1042700076E7FEF757FE0028DFD12B79DB07DCD588
:1042800053463A000020A978FFF70EFC002800D022
:104290006FE782E7780400200000000000000000C3
:1042A00000000000A004002070B5064D2C78002C02
:1042B00001D0200070BDFEF73DFE0028F9D001239B
:1042C0002B70F6E7510F0020014B18787047C0465D
:1042D000510F0020F0B5C64600B5140006AA1E0016
:1042E0001378802205000F009846120294422BD8C2
:1042F000406900281AD00121494200F031FB4346B1
:10430000AC806400A4B22B72631EAB810023686989
:104310006442EB812F60EE806C812B82002811D0EB
:1043200000F006FB012004BC9046F0BDAC806400A8
:10433000A4B22B72631E6442E8812960EE80AB81D7
:104340006C8128820120EEE70020ECE710B5C489DB
:10435000018A0200601A80B28C4202D25389C01ACC
:1043600080B210BD10B5C489018A8388621A92B2E6
:104370008C4202D24089121A92B2981A80B210BDB1
:10438000F8B5040040690E00002803D0012149421D
:1043900000F0E6FAE589208AA9B22A1A83B292B21D
:1043A000854202D26089121A92B2A088A7899042EF
:1043B00005D20A1ABA422BDC92B222820200002AEB
:1043C0002ED0BB4206D961895B189BB2984203D8B4
:1043D0001B1A9BB29842FBD9E288216853433000F4
:1043E000C918FDF7EBFE012501200122A789218ACA
:1043F0008BB20918B94210DD61895B18D3189BB2E2
:1044000060692382002801D000F092FA2800F8BDEC
:10441000628982188A1A92B2CFE79B189BB2EFE7A3
:1044200000200025E3E7C046F0B5C6460400406919
:104430008846170000B5002803D00121494200F04A
:104440008FFAE089218A82B2451A8BB2ADB28842D6
:1044500002D261896D1AADB2A688A089AE4207D298
:10446000931B834236DC9BB235002382238A9BB2A6
:10447000002D39D03A1CAF4231D895B2834205D9CC
:1044800061895B189BB201E09B1B9BB29E42FBD9EA
:104490005A192F00E188B24228DC0A0059432368E8
:1044A00040469C466A436144FDF788FEA089228A03
:1044B000D71993B2874214DD62899B18EB189BB21F
:1044C00060692382002801D000F032FA280004BC81
:1044D0009046F0BD6389F318D31A9BB2C4E72A1C37
:1044E000CBE75B199BB2EBE70027E0E7F61AB6B221
:1044F00032004A435943236840469C466144FDF7D5
:104500005DFEE388AA1B180070435A4321684044AB
:10451000FDF754FEA089CAE7F8B5040040690E0013
:10452000002803D00121494200F01AFAE289218AC9
:1045300095B2531A9BB2914202D962899B1A9BB2DF
:10454000A2889A4226D0A1892B00A94206D263896B
:10455000EB189BB29A4203D89B1A9BB29A42FBD9A2
:10456000E28821685343C8183100FDF727FEA3896C
:10457000AB420AD90135ADB260690127E581002857
:1045800001D000F0D5F93800F8BD6389ED18013588
:10459000ADB2F1E7277A002FD5D1F4E7F8B5474659
:1045A000CE46040080B515000F00002A52D04069A5
:1045B000002803D00121494200F0D2F9E689237A8C
:1045C000208AA188B6B280B2002B38D1331A9BB2B0
:1045D000864202D262899B1A9BB2CB1A1A1C9BB2EA
:1045E000AB4252D893B298461D00E288A0893300AE
:1045F000B04205D26389F3189BB201E05B1A9BB20B
:104600008B42FBD2581988422ADC534321686A4303
:10461000C8183900FDF7D2FDA38975199D421CDD2C
:104620006389F6184644B6B26069E681002801D075
:1046300000F07EF940460CBC90469946F8BDA8466D
:10464000E288A942D2D26D1A554388467F19E0818B
:104650000D00CBE700239846ECE74644B6B2E3E70B
:10466000C91A89B2894653432168C8184B46390094
:104670005A43FDF7A3FD4B46E188EA1A4A435943E2
:1046800020687918FDF79AFDC6E72A1C93B2984670
:104690001D00E288AAE7C04610B504004069002862
:1046A0000DD00121494200F05BF900236069E381EC
:1046B0002382002801D000F03BF9012010BDE081E9
:1046C0002082FAE7F0B5DE46454657464E46E0B54D
:1046D000060083B00D00FBF717FF304B2F79F11860
:1046E0004B4259412E4B052498468B009B4643462E
:1046F0005A469B5820229C460123BB4001902C57D0
:10470000013BD21B002C32DB944243DCA3406246C7
:104710001A423FD19946002F18D06B782A781B0295
:104720001A43AB781B041343EA7812061A439246E5
:10473000002351465A008D5A6A0B00D12D191A19BF
:1047400012329200013395519F42F2D863464A4695
:1047500059461343424601985350FBF7E1FE2000AF
:1047600003B03CBC90469946A246AB46F0BD002A39
:1047700010DB19006046914014008946014207D1C0
:10478000C9E7180061469040140081460842C2D033
:10479000013AF6D20348FCF7AFFFC0460000D0AFA5
:1047A000E4070020044D0010F0B54E464546DE46B5
:1047B00057468B464900E0B50D0080465D44ED004C
:1047C0004544280009AC2678DC30741EA641894691
:1047D000016874428C4615491F268A462640564475
:1047E000052B0ED9A02149058A461F27D8355146E9
:1047F00054010C430532053B04603A402E60052B02
:10480000F5D859464944C90041449B0652011A4310
:104810000B000800DC331A606246D83006601A606C
:104820003CBC90469946A246AB46F0BD80E00000F5
:10483000F0B501258D400468AC434D0004606C1850
:10484000E40004192600C836002B2AD01F68DC3487
:1048500037605F6877609F68DB68B76023606B18BC
:10486000DB001D008024D035451964012C438025D0
:104870002D0625602560114C0D1D8C40846001249F
:104880002700AF403D0008318C401F2106680A40D8
:104890003543056005682C430460C018D8300260B9
:1048A000F0BD80277F023760F8277F027760C0273E
:1048B000DC343F03B7602360D1E7C046010101014A
:1048C00010B5830727D00378002B26D003000321DF
:1048D00002E01A78002A1CD001330B42F9D1196882
:1048E0000F4A104C8A188A4322420FD104331968A8
:1048F0000B4A8A188A43224208D104331968084AAD
:104900008A188A432242F1D000E001331A78002A43
:10491000FBD1181A10BD0300E1E70020FAE7C046FA
:10492000FFFEFEFE80808080F8B5C04600000000DB
:1049300001B40248844601BC604700BFED0100207D
:1049400001B40248844601BC604700BF1502002044
:1049500001B40248844601BC604700BF0D0100203D
:1049600001B40248844601BC604700BF55010020E5
:1049700001B40248844601BC604700BFC10000206A
:1049800048656C6C6F2052474220616E64206F74E2
:1049900068657220636F6C6F72732100A449001008
:1049A00004FF000021622311001442A44E6F207303
:1049B00070696E6C6F636B732061726520617661E4
:1049C000696C61626C650000486172647761726550
:1049D00020616C61726D20256420616C7265616478
:1049E0007920636C61696D65640000000A2A2A2AD7
:1049F0002050414E4943202A2A2A0A000A0000007A
:104A000048617264206173736572740052656C65ED
:104A100061736500626F6F74325F77323571303861
:104A200030000000312E312E320000007069636FBB
:104A3000000000007069636F2D6E656F70697865A6
:104A40006C00000041707220323920323032310067
:104A500006005250BBFF3CB62C4A001006005250D4
:104A6000E182887F144A001006005250D3F075424C
:104A70000C4A00100D0A0000554152542073746412
:104A8000696E000055415254207374646F75740050
:104A90005541525420737464696E202F20737464DE
:104AA0006F7574000600525053B4F4A1904A001080
:104AB0000800525092000000B9240010BD240010DC
:104AC000C9240010F9240010F1240010F52400106E
:104AD0000000000055534220737464696E202F203B
:104AE0007374646F757400000600525053B4F4A1DF
:104AF000D44A0010526173706265727279205069F5
:104B0000000000005069636F00000000303030305A
:104B1000303030303030303000000000426F617291
:104B20006420434443000000526573657400000034
:104B300009025400030100807D080B0002020200FC
:104B40000009040000010202000405240020010500
:104B50002401000104240202052406000107058146
:104B60000308001009040100020A00000007050202
:104B70000240000007058202400000090402000014
:104B8000FF00010512010002EF0201408A2E0A0017
:104B9000000101020301000000000000F44A0010BF
:104BA000044B00100C4B00101C4B0010284B001045
:104BB000556E68616E646C6564204952512030788E
:104BC00025780A0049736F6368726F6E6F75732082
:104BD000774D61785061636B657453697A65202500
:104BE0006420746F6F206C617267650065702025AA
:104BF000642025732077617320616C72656164792C
:104C000020617661696C61626C65000043616E27AA
:104C10007420636F6E74696E7565207866657220A6
:104C20006F6E20696E6163746976652065702025FA
:104C300064202573000000005472616E7366657213
:104C4000726564206D6F72652064617461207468A0
:104C5000616E2065787065637465640006300010CD
:104C6000C4310010643100101C31001006310010F6
:104C7000FA300010AA300010583000104C300010EC
:104C80009234001074340010E83000101C3500100D
:104C9000E830001000350010EC340010E83000104F
:104CA000D6340010B4340010E830001092350010F3
:104CB000883500107C350010E8300010E830001016
:104CC0005E350010E8300010E8300010E8300010C9
:104CD000E8300010E8300010E8300010E830001034
:104CE000E83000102E350010C13E0010393F001092
:104CF0005D3F00108D40001049400010F54000104D
:104D0000000000004E6F2070726F6772616D20733B
:084D1000706163650000000002
:104D1800B4020010A80200109C020010504A0010B3
:104D2800900200105C4A0010684A0010A44A001063
:084D3800B04A0010E84A001027
:104D400010B502680024EFF3108172B61368002BCF
:104D5000FCD0BFF35F8F03797F2B0BD80368BFF3C1
:104D60005F8F1C6081F3108820BF0268EFF3108111
:104D700072B6EBE7D0231B061B6803710368BFF311
:104D80005F8F00221A6081F3108810BD030010B5F8
:104D90000068EFF3108472B60268002AFCD0BFF3FB
:104DA0005F8F04229A56002A0BDB00290FD00020C7
:104DB0000A601B68BFF35F8F00221A6084F31088BB
:104DC00010BDD0221206126801201A71F1E70020EE
:104DD000EFE7C046F0B5C64600B50C00804600F0CF
:104DE0006BF8FA2206000F00200000230021920039
:104DF00000F05AF88019794104000D008F4230D834
:104E00002DD0002643461A68EFF3108372B611685E
:104E10000029FCD0BFF35F8F424612797F2A0ED85B
:104E200042461268BFF35F8F166083F3108820003C
:104E3000290000F031F80028E4D000200CE0D02256
:104E40004146120612680A710A68BFF35F8F00219B
:104E5000116083F31088012004BC9046F0BD8642A7
:104E6000CFD901246442E517CBE7C0460268EFF3CF
:104E7000108172B61368002BFCD0BFF35F8FFF2345
:104E8000037140BF0368BFF35F8F00221A6081F394
:104E9000108870477047C04601B40248844601BC80
:104EA000604700BF590E001001B40248844601BC9F
:104EB000604700BF5D20001001B40248844601BC79
:104EC000604700BFFD0F00101000000064020020CA
:104ED000000000005003002028080020000000000F
:104EE0000000000038080020000000000000000062
:104EF00010000000000000000000010000000000A1
:104F0000000000000000020000000000000000009F
:104F10000000030000000000000000000000FF008F
:104F20000000000000B5486801318E460047704619
:104F300009380149884700BD951D00100000000098
:104F4000503300004C330000543300005233000053
:104F50004D5300004D430000533400004334000023
:104F6000ED230010000000003924001000000000B4
:104F700000010000FD250010000000009525001034
:104F80000000000000010000A04A0010804A00104C
:104F90006011002010000C00000000000000000064
:104FA0000000000000000000000000000000000001
:104FB0000000000000000000A1210010C51E00102C
:0C4FC000851F00101121001039030010A3
:04000005100001E9FD
:00000001FF
