:020000041000EA
:1000000000B5324B212058609868022188439860DF
:10001000D860186158612E4B002199600221596106
:100020000121F02299502B49196001219960352056
:1000300000F044F80222904214D00621196600F024
:1000400034F8196E01211966002018661A6600F04E
:100050002CF8196E196E196E052000F02FF8012189
:100060000842F9D1002199601B49196000215960AB
:100070001A491B48016001219960EB211966A021F2
:10008000196600F012F800219960164914480160C1
:100090000121996001BC002800D000471248134993
:1000A000086003C880F30888084703B5996A0420EC
:1000B0000142FBD001200142F8D103BD02B5186610
:1000C0001866FFF7F2FF186E186E02BD00000240BE
:1000D000000000180000070000035F00212200005C
:1000E000F4000018222000A00001001008ED00E03C
:1000F00000000000000000000000000074B24E7A12
:1001000000200420F7010010C3010010C5010010F9
:10011000C1010010C1010010C1010010C101001097
:10012000C1010010C1010010C1010010C701001081
:10013000C1010010C1010010C9010010CB01001065
:10014000CD010010CD010010CD010010CD01001037
:10015000CD010010CD010010CD010010CD01001027
:10016000CD010010CD010010CD010010CD01001017
:10017000CD010010CD010010CD010010CD01001007
:10018000CD010010CD010010CD010010CD010010F7
:10019000CD010010CD010010CD010010CD010010E7
:1001A000CD010010CD010010CD010010CD010010D7
:1001B000CD010010CD010010CD010010CD010010C7
:1001C00000BE00BE00BE00BE00BE00BE00F04BF888
:1001D000103800BEF2EB88712C260010502600105B
:1001E0003402001090A31AE700202149086006C8D5
:1001F00081F3088810471F48006800282FD10DA4FC
:100200000ECC002902D000F012F8F9E71A491B4A77
:10021000002000E001C19142FCD1194988471949E9
:1002200088471949884700BEFDE701C901C29A42C3
:10023000FBD3704750260010C00000208406002029
:10024000142C00100000042000000420142C0010C6
:1002500000100420001004200000000070470B482C
:1002600001F0BEFC0047EFF30580C0B2704700000C
:1002700008ED00E0000000D088060020600A0020A1
:10028000BD13001095040010A9140010575600006B
:1002900006005250ABB36053882500100600525040
:1002A000861C030298250010060052505422A29D7D
:1002B000A425001005005250DE65F468142C0010CF
:1002C000F8B5C0460448054B10B5834203D0044B33
:1002D000002B00D0984710BD840600208406002023
:1002E0000000000006480749091A8B10C90FC918F9
:1002F00010B5491003D0044B002B00D0984710BD17
:1003000084060020840600200000000010B5074C81
:100310002378002B09D1FFF7D5FF054B002B02D026
:10032000044800E000BF0123237010BD88070020AF
:1003300000000000A8240010054B10B5002B03D0CE
:100340000449054800E000BFFFF7CCFF10BDC046E0
:10035000000000008C070020A8240010F0B5C6465D
:1003600000B5002820D0FF242406A446FF248023C3
:10037000FF2624023F25A0464908174A08185B02B9
:1003800036042C000C40092C11D927000F3F092FEF
:100390001CD91E3C092C12D854681C42FCD144467E
:1003A000013114618842ECD104BC9046F0BD546820
:1003B0001C42FCD1166101318842E2D1F4E7546855
:1003C00027001F401C42FAD11761F4E754681C4211
:1003D000FCD164461461EEE70000205070B50500C2
:1003E0000800642101F02AFC002D16D08020002690
:1003F0000A4A40020C02641824026418240253685A
:100400000342FCD1013114610136642903D1B542A4
:1004100003D00021EEE7AE42ECD170BD00002050C9
:10042000F8B507004B070FD100280DD08025002616
:10043000064C6D0201F0C6FF000263682B42FCD13E
:1004400001362061B742F5D1F8BDC046000020500A
:10045000F0B5C646070000B54B0716D1002814D0EA
:100460000F23802500269846094C6D0201F0AAFF53
:1004700043461840424242415242120263682B42B4
:10048000FCD101362261B742F0D104BC9046F0BDE8
:1004900000002050F0B5DE464E4645465746E0B5D2
:1004A00087B001F01DFE464801F0DEFD4549464893
:1004B00001F080FE06210500102000F095F80123D0
:1004C000002110224048009301F0E6FE80235B02E9
:1004D0000293EB1CEA011B0313433C4A0520134023
:1004E00003933B4B05933B4B049301F06DF901F0F3
:1004F00067FC394901F05BFC061C01F089FC84B201
:100500000023002C0DD0200001F05AFC011C301CEF
:1005100001F047FC8721C90501F04CFC01F078FC93
:10052000C3B224041B022343274C2A000293002158
:1005300002AB200001F0F4FE012223681343236084
:1005400000239846254B994603239B468023DB05D1
:100550009A4601F037FF5C46044001F033FF5346F2
:10056000E400184222D04B4601261B19586801F0BE
:100570007BFD1B4801F078FD4B461F59FA24454688
:10058000A40029009620B847013C0A2000F064FB33
:10059000AD19002CF5D143469A19F3009B1B1B01A2
:1005A0009B1BDE009E19B0469044D2E74B460126C5
:1005B0001B19586801F058FD76420A48DAE7C04630
:1005C000C02400101C25001000002050FFFFFF9FDA
:1005D00000400020000006400024F44AFC240010E3
:1005E000A8240010B4240010094A83009446402235
:1005F000634410B51C68C0006240C02414408022CF
:10060000520113431C60034B9C466044416010BD83
:1006100004C0014000400140EFF3108072B6034A6D
:100620001368002BFCD0BFF35F8F70472C0100D004
:10063000BFF35F8F0022024B1A6080F3108870476F
:100640002C0100D0F8B5CE464746914680B5EFF371
:10065000108772B6124E3368002BFCD0BFF35F8F49
:10066000CB08C55C0724C218280001230C4094461F
:10067000E0401A000240904603420DD1A34062467A
:100680002B431370BFF35F8F4346336087F31088AB
:100690000CBC90469946F8BD484600F007FFC0469E
:1006A0002C0100D00021044B044ABFF35F8F02C32A
:1006B0009342FAD17047C046000100D0800100D0BB
:1006C000044A1078431CDBB2172B00D91023137097
:1006D0007047C04680010020024B18688007C00F99
:1006E0007047C04600C00640F8B5040006200D0063
:1006F00001F06AF8002845D02B4B2C49E3185A42E8
:1007000053418022D20394465B421340284A6344FB
:100710001360284A136018008A689043FBD1224B6B
:100720008021E3185A425341234A5B0049000620C6
:10073000995201F049F82900C00001F07FFAC3097D
:1007400021D140270122260080256262A362002376
:100750002C36AD0135432B60062001F035F8390009
:10076000800001F06BFA6023E26A53406E221A4067
:1007700080235B0133431A60104B236310232B60EB
:100780000D3BA364F8BD0E4A934203D900230D4FDD
:100790000D4AD8E77F221040013040089F011A001F
:1007A0003F180300CFE7C0460080FCBF00C00040F8
:1007B00000E0004000F00040580800200103000065
:1007C000FEFF0000C0FF3F00FFFF000083680B48F2
:1007D00010B5844661446244090112019A185918FF
:1007E00054684B6801209C4201D802D00020C0B25E
:1007F00010BD12680B689A42F9D8F7E7FFFFFF0FA8
:1008000040BF002000217047F8B557464E46454688
:10081000DE46E0B5434D81468A466A68EFF31088AC
:1008200072B61368002BFCD0BFF35F8F2E68B47BC9
:10083000002C3ED0670033683F19033FDA19537824
:10084000B373002B00D1F3730023937053701370B4
:10085000A968354A8C464946A218120162441160C3
:10086000514651603149D36091603268D21993701A
:1008700053701370737B9B46002B35D022001900F8
:10088000B068736898473268002820D05B465846A5
:100890005B005B44D719033BB870D118D35C002BC5
:1008A00000D07B705B460C7073735C451DD00026D6
:1008B00026E06B68BFF35F8F1C6088F3108801200F
:1008C00040423CBC90469946A246AB46F8BD5B46CA
:1008D0005B005B44033BD3189C70D119D25D002AA6
:1008E00000D05A705B460B7074734A465346287D9D
:1008F00000F0CAFA061EDAD02100286800F020FDB8
:10090000EB686A681B19013B1B78BFF35F8F0021FE
:10091000116088F310880020002ED2D118022043E5
:10092000CFE7C04684010020FFFFFF0F0108001041
:10093000F8B5574645464E46DE46E0B599460CABFF
:1009400019780DAB1B78050090469A460768002978
:1009500012D1BE7B002E45D074003B68A419033C25
:100960001B195A783100BA73002A00D1FA73002299
:100970009A705A701A7003E00E004C006418033C21
:100980002C4B00229C46AB6861449C4643460901BF
:1009900061440B604B464B600A9B8B600B9BCB60AA
:1009A0003B681B199A705A701A707B7B9B46002B10
:1009B0002CD032005946B8687B6898473A680028BE
:1009C00017D05B4658465B005B441419033BA0708C
:1009D000D118D35C002B00D063705B460E707B7324
:1009E000B34514D030003CBC90469946A246AB4675
:1009F000F8BD5B465B005B44033BD3189E70111946
:100A0000125D002A00D05A705B460B707E7342461E
:100A10004B46287D00F038FA041E06D05346002BC2
:100A200003D13100286800F08BFC0E9B002BD9D03D
:100A30001C70D7E7FFFFFF0FF0B5DE464E46574666
:100A400045460023E0B58DB00A936B4B8200D35826
:100A50000B90994600239B464B46079300F0B4F950
:100A6000079C06000F006268EFF3108572B61368EA
:100A7000002BFCD022000794BFF35F8F2468637BB8
:100A80009946002B67D092685C4B90464B441B0103
:100A9000984443461A685B6810001900801BB941EE
:100AA00000295FDD0B9800F0EFF90023002698463F
:100AB00000279A46079C6368BFF35F8F5A461A6007
:100AC00085F310885346002B08D10028C6D10DB0FD
:100AD0003CBC90469946A246AB46F0BD0A9B4146B7
:100AE00018024B461843D047089009916268EFF30B
:100AF000108572B61368002BFCD00794BFF35F8F8C
:100B00000899099A002A48DB114303D0079B1B6907
:100B1000002B5DD1079B1B68DA7B002A07D05100B0
:100B20008A1819688C4649466244033A51704A460D
:100B3000DA734B46079A013BD168CA5C0132CA544A
:100B40005B46079A13615368BFF35F8F5A461A607A
:100B500085F3108882E700230026984600279A46EE
:100B60000020A7E7002901D100289BD10021200007
:100B700000F048FB43461E685F689B68079A9A46E8
:100B80004346DB689846D3684B44013B1B780A9385
:100B90001B020343136100208CE72369002BB9D0AB
:100BA00033003C005B1A94411A002300A74219D875
:100BB0009F421BD05946049101210391494602915D
:100BC00041460191514607980091FFF7B1FEB7E702
:100BD00000F0FAF8089A099B06000F0092197B4171
:100BE0009942E5D901225242D317E3E79642E1D96F
:100BF00001225242D317DDE730080020FFFFFF0F2C
:100C000010B5104C6368002B00D010BD23000E4AB5
:100C10001021206800F014FA032000F0C9F8032026
:100C200000F0A4F90320094900F0E8F8FFF748FDB7
:100C3000074B9C46032360442375064B800060608D
:100C4000DC60E2E784010020CD070010390A0010C3
:100C50004000003430080020F8B5040000F0B4F87B
:100C6000FA2206000F00200000230021920001F06C
:100C70007BF88019794104000D008F422DD82AD0CD
:100C800006267642F71736196F41AF422CD9002657
:100C9000002700F099F832003B00121A8B41002B1C
:100CA00007DC04D02900200000F098F8F8BD002AE5
:100CB000F8D030003900FFF7A7FD0028F2DB38003C
:100CC0000C4A536A984204D8916A8E42EAD99842F3
:100CD000E8D120BFF5E78642D2D901246442E51766
:100CE00007267642F717D4E7AF42D2D1A642CED834
:100CF000CFE7C04600400540F0B5D6464F464646D1
:100D0000C0B5EFF305833F22134018001038EFF30E
:100D1000108C72B6204D2A68002AFCD0BFF35F8F7A
:100D20000122110081401D4C884661631C49170057
:100D30000E788A463100C1400F400A4215D0194949
:100D40008200646A51588C4219D3174BD2584346DB
:100D50009E4353461E70BFF35F8F00232B608CF3BE
:100D60001088002A06D0904704E0BFF35F8F2F6001
:100D70008CF310881CBC90469946A246F0BD0B4AE5
:100D80009B00904643441A681A60BFF35F8F0023AC
:100D90002B608CF31088EDE7280100D0004005405F
:100DA0005608002040080020AC070020D03F054036
:100DB00010B50100024A0348FFF744FC10BDC046CD
:100DC0002C25001054080020034B596A0A00986A29
:100DD000596A8A42FAD1704700400540064A536A70
:100DE0009942FCD807D1044B02E05A6A914202D1E1
:100DF0009A6A8242F9D370470040054070B50400FA
:100E00000D00EFF3108672B61A4A1368002BFCD05F
:100E1000BFF35F8F002D1BD0200000F033FD16497B
:100E200081420AD0200000F035FD0121200000F0B1
:100E300017FD0123A340114A1360114BA400E55094
:100E4000BFF35F8F00220B4B1A6086F3108870BDD2
:100E50000B4BA200D5500122A2400A4920000B787A
:100E600093430B70044900F03FFD0021200000F087
:100E7000F7FCE5E7280100D0F90C001038600540C8
:100E8000AC07002056080020F0B54F46D64646462F
:100E9000C0B50700304C616A0D00A66A616AA942BC
:100EA000FAD18B4208D805D001201CBC9046994647
:100EB000A246F0BDB242F7D9EFF3108972B62748C7
:100EC00001680029FCD0BFF35F8F01252449BD4094
:100ED0008C460978204C0E002E438846F1B28A4693
:100EE000614650460870391D1E48890065630A51E5
:100EF000B9000B50216A0020294219D0616A08000C
:100F0000A66A616A8142FAD18B4219D801D1B242F4
:100F100016D8C2451DD0104B1F201D625D630123F2
:100F20000740BB40104A1E381360634642461A70A1
:100F3000BFF35F8F0022094B1A6089F31088B4E772
:100F40000020BFF35F8F0022044B1A6089F31088E2
:100F5000ABE70120ECE7C04600400540280100D087
:100F6000560800204008002080E200E010B5EFF3B2
:100F7000108472B60A490B68002BFCD0BFF35F8F58
:100F800001238340074A0848136202789A4302709B
:100F9000BFF35F8F00230B6084F3108810BDC04641
:100FA000280100D00040054056080020024B9C4616
:100FB00061448900016070474000003410B50400AE
:100FC000FFF77EFB01002000FFF7F0FFFF232371F6
:100FD000BFF35F8F10BDC04670B505000E00140052
:100FE000002924D0002A24D080686B68984729689B
:100FF00000280ED063001B197200033B9219CB1816
:10100000033A9E7088188A5C002A14D1047030005C
:101010000EE073009B196200033B1219CB18033AD0
:101020009C7088188A5C002A00D05A7006702000D4
:1010300070BD0800FCE75A7004703000F8E7C04645
:1010400030B583600023CCB2437301330473426034
:101050008373C4730D000068012C06D9421C013350
:10106000DBB2137003329C42F9D1FF2129404B00BF
:101070005918002340180338437030BDF8B5CE46E8
:10108000474606000C0080B5002907D04D000368D4
:101090006D18033D5A195778002F04D120000CBC5D
:1010A00090469946F8BD7900C919033988464344EA
:1010B0005978894600215970517073683A002100AF
:1010C000806898473368002814D042469A18947074
:1010D00059195B5D002B00D053700F7027004946F3
:1010E0003000FFF7CBFF390002003000FFF774FF3C
:1010F0000400D3E7424641465D19AF709A185B5C25
:10110000002B00D06B701470E9E7C046F0B557466D
:101110004546DE464E46E0B50D006B0001685B19A2
:10112000DF1E0400C85D83B00192CA1900284CD0AC
:1011300043001B18033BCB185E78B446002E16D133
:10114000019E002E3ED0E67B002E04D073009B193A
:10115000CB18033B5D70E57300282FD1002353703B
:1011600003B03CBC90469946A246AB46F0BD720027
:101170006244033A89184A78904600224A709146A0
:101180005A70010032002000FFF726FF43468246D6
:10119000002B07D05B0021684344033BCB185A78EF
:1011A000002A16D1424651462000FFF715FF21685C
:1011B000019BCA19002BC6D10028CFD043001B18B1
:1011C000033BCB1800219970C8E7019B002BBAD1D3
:1011D000C4E7500080180338091848788346484609
:1011E0004870587041462000FFF7F6FE5946804689
:1011F0002000FFF743FF414602002000FFF7ECFE0E
:101200008046CFE7F0B54E464546DE465746E0B548
:10121000467B040075000068AD19033D83B0019161
:10122000415D421900294ED04B005B18033BC318A7
:101230005F78BC46002F18D1019D002D40D0E57B82
:10124000002D04D06B005B19C318033B5E70E6737E
:10125000002931D1002330005370617303B03CBCCE
:1012600090469946A246AB46F0BD7A006244033AE6
:101270008018427893460022427091465A702000AE
:101280003A00FFF7A9FE5B468046002B07D05B00C3
:1012900021685B44033BCB185A78002A17D15A4681
:1012A00041462000FFF798FE019B0100206842198B
:1012B000002BC4D10029CDD04B005B18033BC318D1
:1012C00000209870C6E7019B002BB8D1C2E7500000
:1012D0008018033809184878824648464870587084
:1012E00059462000FFF778FE53468346002B07D06F
:1012F0005B0021685344033BCB185A78002A06D17F
:10130000594652462000FFF767FE8346C7E7500064
:1013100080180338091848464F784870587051466D
:101320002000FFF759FE390081462000FFF7A6FE96
:10133000494602002000FFF74FFE8246E0E7C04624
:1013400070B5040000292CD0437B8B422ED0056859
:1013500048004018033828188278002A21D053000A
:101360009B18033BEA5CEE188A4202D11BE0002A7C
:1013700008D053009B18033BEB185A788A42F6D1E9
:1013800042785A7000230122837043702000FFF7D7
:10139000BDFE617B02002000FFF71EFE607301208E
:1013A00000E0002070BD43783370EBE701221900A4
:1013B000FFF7ACFE60730120F4E7C0462B4B2C4ACC
:1013C00070B51A602B4A2C4B2C491A6010008B68A0
:1013D0009843FBD12A4C2B4B9C4209D2013B1D1B4D
:1013E000AD080135AD002D1908CC9847AC42FBD1B2
:1013F00000F07AF8244A204B1A60204A9368DB01F7
:101400008033FBD14022214B214C9A675A671A67DF
:10141000DA66204B9C420BD2013B1D1BED080135C7
:10142000ED002D1920000834FFF7C8FDAC42F9D1BA
:10143000194C1A4DA168C022280000F03FFDA5609C
:10144000FFF730F900F088FBFFF7DAFB144C154B7F
:101450009C4209D2013B1D1BAD080135AD002D1981
:1014600008CC9847A542FBD170BDC04600E00040C3
:10147000BFCDFFFFFE7F3C0000F0004000C00040F9
:101480007006002080060020FFFFFF0100F00140F1
:10149000680600207006002000ED00E0000000203B
:1014A000800600208406002000BEFDE70FB400B5D2
:1014B000084883B000F0D8FD049B002B07D005A995
:1014C0001800019100F06CFB034800F0CDFD00BE58
:1014D000FDE7C046502500106025001010B50148FA
:1014E000FFF7E4FF6425001030B50C2083B000F056
:1014F00071F9FFF7F1F800280ED09A4B9A4A1A605A
:101500005A609A60DA601A615A619A61DA611A6205
:10151000964A5A6203B030BD954CA06700F062F95C
:101520000122944B1A60636C012BFCD10322924B75
:101530001A608F4A936B012BFCD1C0228F4B920112
:101540001A608F4B8F491A6010008B689843031EF6
:10155000FAD1022401218C4A8C480633009400F011
:1015600055F905238A4A01218A48009400F04EF972
:10157000894B5A68FF2A02D8802252005A60802282
:10158000784C7D4B21691201834D1A60002905D0EA
:10159000606900F053FB01300138FDD1E0217E4B42
:1015A00002201A681140802252012A4311601968F2
:1015B000484003210140116004219A681142FCD087
:1015C0008022802192012A43090111608022520069
:1015D0005A60724B2361724B5968FF2900D85A60D8
:1015E00003226F48634B01211A600200936819427D
:1015F000FCD0E02513681D4080235B0103431D6080
:1016000012684A400321114019600221644A93681C
:101610001942FCD0802380219B01034309011960FA
:101620008021604B4900516063615F4B5A68FF2A1B
:1016300000D8596080225D4BE16912015A4D1A6051
:10164000002905D0606900F0F9FA01300138FDD1B8
:10165000E02255490B681A4080235B012B431A6036
:10166000802380229B012B4312011A6080223E4B73
:1016700052004A60E3614E4B5968FF2900D85A6016
:1016800080224C4B216A1201494D1A60002905D075
:10169000606900F0D3FA01300138FDD1E0224449FD
:1016A0000B681A4080235B012B431A608023802241
:1016B0009B012B4312011A60802380225B004B6048
:1016C000294BD20223623C4B5968914200D25A60A6
:1016D00080223A4B616A1201374D1A60002905D009
:1016E000606900F0ABFA01300138FDD1E0223249E7
:1016F0000B681A4080235B012B431A6080238022F1
:101700009B012B4312011A608023DB024B60174BB5
:1017100063622B4B5A68FF2A02D8802252005A601B
:101720008022284BA1691201254D1A60002905D09D
:10173000606900F083FA01300138FDD1E0222049D0
:101740000B681A4080235B012B431A6080238022A0
:101750009B012B4312011A6080235B004B60114BED
:10176000A361D7E6BC070020006CDC021BB70000B9
:10177000008000403CB0004030B0004000E000403D
:1017800000F0004000C00040002F68590080024077
:1017900000389C1C00C0024030800040001BB70095
:1017A0003C800040405973075480004054B00040D2
:1017B0006080004060B000406C8000406CB0004031
:1017C0004880004048B00040014B8000C05870473E
:1017D000BC0700208023024A9B000343D36270476A
:1017E00000800540AA23064A1B0113602F230549E8
:1017F000D360054B19605368002BFCDA7047C04674
:101800000040024000B0FA0000600240F8B51E003F
:1018100001235B42436000230400836001600C20CD
:10182000170000F00BFA4101091A8D01691AC9006D
:1018300009188901380000F001FAC021231D89012F
:1018400019432123A0600B602268002AFCDA069B62
:1018500036041B031E430823E6600B60F8BDC04638
:1018600001238340002904D0034A1360034A136014
:101870007047034A1360FBE780E200E000E100E00C
:1018800080E100E0024B10309B688000C058704738
:1018900000ED00E070B50D00EFF3108672B60F4A50
:1018A0001368002BFCD0BFF35F8F0D4B10309B688B
:1018B00084001B590B4A934203D09D4201D0FFF78D
:1018C0000DFE074B9B681D51BFF35F8FBFF35F8F0A
:1018D0000022024B1A6086F3108870BD240100D0EC
:1018E00000ED00E0CD010010F0B5DE4657464E4653
:1018F0004546E0B50C0083B0EFF3108A72B65B4A40
:101900001368002BFCD0BFF35F8F102291468144F7
:101910004A46574B96009B689D59564B98469D42A8
:1019200005D0A54216D0544FEB1B2F2B14D9504B8A
:101930009B689D51BFF35F8FBFF35F8F00224B4BBE
:101940001A608AF3108803B03CBC90469946A246C0
:10195000AB46F0BD1D00EAE7012383409B465A4693
:10196000464B1B681A4000925A46454B1A60BFF31B
:101970005F8FFEF778FC0190002803D0814501D0ED
:10198000FFF7ACFD01232A009A431300DB1B5B41E8
:1019900042495943090D93689C4208D15BE04300DA
:1019A0001B189B00FB189868A04211D01A00062053
:1019B00010560028F3DA009B002B05D05A46314B15
:1019C0001A602E4B1A60B2E75A462D4B1A60AEE7EA
:1019D00006201856002822DB4200111889007C18C6
:1019E0008846A1689960E179D9710621615699719B
:1019F000A1797F291FD8A488F91A640524154444C5
:101A00000919E0240905490D24022143998012187F
:101A10001D4B9200BF181A781870BA71CBE7019865
:101A200000280BD1FF30907118489080164A10782A
:101A300011709871BFE7BD210902E7E7144A154903
:101A4000D21A083A5002400D0143998012495208B7
:101A50000A43DA80AFE70620105613000028BBDAED
:101A6000019A002AEAD14546E0E7C046240100D0A9
:101A700000ED00E0CD010010AC01002000E100E02D
:101A800080E100E080E200E05508002000BDFFFF9B
:101A9000E601002000F0FFFF00F8FFFFAAAA000007
:101AA000F8B5012504000543FEF7DDFB0200EFF366
:101AB000108672B621490B68002BFCD0BFF35F8FF4
:101AC0001F492000401A4041224B43431B0D1D4833
:101AD000920087685BB2BF58AF421CD006228A567C
:101AE0009A421CD012228A569A4222D01E228A562C
:101AF0009A4220D02A228A5603209A4210D0124AB3
:101B000011781370A171BFF35F8F00220B4B1A6025
:101B100086F31088F8BD81680C488850EFE70020F4
:101B20004200121892008918FF228A71084A8A809E
:101B3000E5E70120F4E70220F2E7C046240100D0E7
:101B4000AC01002000ED00E055080020CD010010A0
:101B500000BDFFFFAAAA0000F0B500220324FF2762
:101B6000802620003D00094B11009C461040C0001B
:101B70008540A14361440B680132AB433500854089
:101B80002B430B60202AECD1F0BDC04600E400E0FE
:101B900010B5002800D110BD00F058FAFBE7C04690
:101BA00010B5094A0300146884B0002C08D0012243
:101BB00000910648524203A9A047012004B010BD7D
:101BC00000F052FA0020F9E72C080020911B0010C9
:101BD00001480421014B184700020020011C00109D
:101BE000142310B50100188804331B88984710BDD2
:101BF000162310B50100188802331B88984710BDC2
:101C0000F0B5C64600B5002916D0142304000125FE
:101C100098461827890046184346216818883B884B
:101C2000984701C4431E984140420540A642F3D163
:101C3000280004BC9046F0BD0125F9E7134A936FD4
:101C40009B0813D210665166002905D0FFE7FFE715
:101C5000FFE7516F106F704704B5002801D00020D6
:101C6000C04300F009FC002104BDC046936F5B082F
:101C7000FDD3F0B5946ED56E576F166FFFF7E2FF88
:101C80009466D56657671667F0BD0000000000D067
:101C9000132370B51D78012D10D00BDD2448FFF7FC
:101CA000A7FF244C01008022200000F007F9022D3C
:101CB00001D070BD1F4C204AA264FAE72E001D4CD3
:101CC0001D4AA3085B421E401D422FD033002260F4
:101CD0002020B1006118801B0A604A608A60CA60D7
:101CE0000A614A618A61CA610A624A628A62CA6298
:101CF0000A634A638A63CA630A644A648A64CA6478
:101D00000A654A658A65CA650A664A668A66CA6657
:101D10000A674A674008102803D18A67CA67A26425
:101D2000C7E71E339B00E250A264C2E70023CFE75F
:101D3000534400005C0800203D1D001007B56046BC
:101D400001880A0A0230DF2AFAD1C9B2820804D314
:101D5000028840880004104300E00068014A5050A7
:101D6000039007BD5C08002051434343C9188C46CB
:101D7000110C83B24B4310B4040C614392B280B295
:101D8000504362431C041B0C001910BC594113043E
:101D9000120CC01851416144704700004840414056
:101DA0004840064B5B681847044B1B681847034BB9
:101DB000DB681847014B9B68184700005C0900204E
:101DC000491A002808D1084670470000C10FC9070A
:101DD00000D54042002817D0F44603B40B4B1B68D3
:101DE000984706BC81409E384042803107D20B069E
:101DF00007D04900490AC005104308436047013035
:101E0000F8E7490A8902F5E7704700005C0A0020FC
:101E1000014B5B6A184700005C090020132310B5D2
:101E200012481C78FFF7E4FE0100012C0AD003DD04
:101E300080220F4800F042F80E48FFF7D1FE0E4B0B
:101E4000186010BD0A4C5422200000F037F80B4BEC
:101E50006365A365E36523666366A366E36623673C
:101E60006367A367E3672362E361E5E75346000026
:101E70005C0900204C3300005C0A0020811E001029
:101E800007B5604601880A0A0230DF2AFAD1C9B2D2
:101E9000820804D3028840880004104300E00068F0
:101EA000014A5050039007BD5C09002001480421FD
:101EB000014B184710020020011C0010014B5B6809
:101EC0001847000010020020F8B54746CE460D0026
:101ED00080B516000700002A20DD4B1E98461A4BDD
:101EE000002400209946002C2BD043461B5D0D3B5F
:101EF0005A425341DBB22A5D0A2A13D00134A6426A
:101F0000F1DC864203DD311A3B6828189847AD1989
:101F1000013D2B780D3B5A4253413B740CBC90461B
:101F20009946F8BD002BE9D1A04203DA211A3B689B
:101F300028189847484602213B68013498472000FA
:101F4000DDE73B7CD7E7C046D4250010F0B5574607
:101F50004546DE464E46D023E0B51B061C68374B8F
:101F600083B007000D00180001A990469A4600F0C2
:101F70008BFA8146002807D1019B9C4204D0504631
:101F800000F08AFA012399466B1C03D1380000F057
:101F900033FA05002A4B1C68002C2FD00A23294E47
:101FA0009B4602E0E468002C28D02268002AF9D081
:101FB0003368002B01D0A342F4D1637C002B2AD0DC
:101FC0002A0039002000FFF77FFF4346002BE9D0AD
:101FD0006B465A461A71637C002B20D0237C002B61
:101FE00026D00121236801A898476B461B790D3B39
:101FF0005A4253412374E468002CD6D14B46002B3F
:1020000012D1681E8541E8B203B03CBC90469946A7
:10201000A246AB46F0BD290038009047D5E7012124
:10202000236801A89847BDE7504600F01DFAE8E78D
:102030000221054823689847D7E7C0466806002074
:102040002408002028080020D425001010B582B0F4
:102050006B4604000022D81D01210470FFF776FFB3
:10206000200002B010BDC04670B5040000F0C4F9F5
:102070000122010005002000FFF768FF084B1C68E3
:10208000002C06D06368002B05D09847E468002C2C
:10209000F8D1280070BDE468002CF3D1F9E7C04600
:1020A000240800200D4A1368002B13D0834202D16C
:1020B00009E0984208D01A00DB68002BF9D100290A
:1020C00000D0D06070471A000029FBD1DB68D360D4
:1020D000C160F7E70029F5D01060F3E7240800207D
:1020E00010B500F043F810BDF0B50D1E15DD0E4B18
:1020F0000D271A680D4B4519D31859424B410C490D
:102100005B005E5E20210478A64207D093691942E5
:10211000FCD101301460A842F5D1F0BD9369194299
:10212000FCD11760F2E7C046500800200080FCBFD9
:102130005808002030B50500002912DD00201024C9
:10214000094B013D1A6893691C4208D1013093691B
:102150001C42FCD113682B548142F4D130BD0028BD
:10216000FCD103204042F9E750080020E12110B5DE
:102170000B4B0C481B780C4B49021B780B4B18601F
:10218000FEF7B2FA02210020FEF72EFA022101200A
:10219000FEF72AFA01210648FFF784FF10BDC0466A
:1021A00048260010004003404C2600105008002034
:1021B00020020020F0B5DE46454657464E46E0B5C3
:1021C000060083B00D00FEF727FA304B2F79F11887
:1021D0004B4259412E4B052498468B009B46434663
:1021E0005A469B5820229C460123BB4001902C5705
:1021F000013BD21B002C32DB944243DCA3406246FD
:102200001A423FD19946002F18D06B782A781B02CA
:102210001A43AB781B041343EA7812061A4392461A
:10222000002351465A008D5A6A0B00D12D191A19F4
:1022300012329200013395519F42F2D863464A46CA
:1022400059461343424601985350FEF7F1F92000D6
:1022500003B03CBC90469946A246AB46F0BD002A6E
:1022600010DB19006046914014008946014207D1F5
:10227000C9E7180061469040140081460842C2D068
:10228000013AF6D20348FFF711F9C0460000D0AF7B
:10229000A407002018260010F0B54E464546DE463D
:1022A00057468B464900E0B50D0080465D44ED0081
:1022B0004544280009AC2678DC30741EA6418946C6
:1022C000016874428C4615491F268A4626405644AA
:1022D000052B0ED9A02149058A461F27D83551461E
:1022E00054010C430532053B04603A402E60052B37
:1022F000F5D859464944C90041449B0652011A4346
:102300000B000800DC331A606246D83006601A60A1
:102310003CBC90469946A246AB46F0BD80E000002A
:10232000F0B501258D400468AC434D0004606C1885
:10233000E40004192600C836002B2AD01F68DC34BC
:1023400037605F6877609F68DB68B76023606B18F1
:10235000DB001D008024D035451964012C43802505
:102360002D0625602560114C0D1D8C4084600124D4
:102370002700AF403D0008318C401F2106680A400D
:102380003543056005682C430460C018D8300260EE
:10239000F0BD80277F023760F8277F027760C02773
:1023A000DC343F03B7602360D1E7C046010101017F
:1023B0000022034B1B68A83318605A607047C04660
:1023C00038020020094B10B51C68094AA83420685F
:1023D0006168084BFFF7C8FC0122002380185941AF
:1023E000206061604800400810BDC04638020020EF
:1023F0002D7F954C2DF4515810B5830727D00378C5
:10240000002B26D00300032102E01A78002A1CD0FA
:1024100001330B42F9D119680F4A104C8A188A43CC
:1024200022420FD1043319680B4A8A188A43224288
:1024300008D104331968084A8A188A432242F1D025
:1024400000E001331A78002AFBD1181A10BD0300EE
:10245000E1E70020FAE7C046FFFEFEFE80808080B4
:10246000F8B5C0460000000001B40248844601BC33
:10247000604700BF5501002001B40248844601BCFA
:10248000604700BF7D01002001B40248844601BCC2
:10249000604700BF0D01002001B40248844601BC22
:0824A000604700BFC1000020ED
:1024A80028666F7277617264290000002862616390
:1024B8006B776172642900005753323831322053E8
:1024C8006D6F6B652054657374000000536E616B0B
:1024D8006573210052616E646F6D206461746100E0
:1024E800537061726B6C6573000000004772657908
:1024F800730000005D030010D424001021040010B4
:10250800DC24001051040010E8240010DD03001042
:10251800F42400102425001004FF00002162231178
:10252800001442A4486172647761726520616C612D
:10253800726D20256420616C726561647920636C1A
:1025480061696D65640000000A2A2A2A2050414EFC
:102558004943202A2A2A0A000A00000048617264B6
:10256800206173736572740052656C6561736500F0
:10257800626F6F74325F7732357130383000000027
:10258800312E312E320000007069636F00000000A8
:1025980070696F5F77733238313200004170722092
:1025A800323920323032310006005250BBFF3CB67F
:1025B8009025001006005250E182887F782500108F
:1025C80006005250D3F07542702500100D0A000025
:1025D8005541525420737464696E00005541525439
:1025E800207374646F757400554152542073746479
:1025F800696E202F207374646F7574000600525042
:1026080053B4F4A1F02500100800525092000000C5
:102618004E6F2070726F6772616D207370616365B1
:0426280000000000AE
:10262C00B4020010A80200109C020010B02500108B
:10263C0090020010BC250010C825001004260010C4
:04264C001026001044
:1026500010B502680024EFF3108172B61368002BE6
:10266000FCD0BFF35F8F03797F2B0BD80368BFF3D8
:102670005F8F1C6081F3108820BF0268EFF3108128
:1026800072B6EBE7D0231B061B6803710368BFF328
:102690005F8F00221A6081F3108810BD030010B50F
:1026A0000068EFF3108472B60268002AFCD0BFF312
:1026B0005F8F04229A56002A0BDB00290FD00020DE
:1026C0000A601B68BFF35F8F00221A6084F31088D2
:1026D00010BDD0221206126801201A71F1E7002005
:1026E000EFE7C0460268EFF3108172B61368002B63
:1026F000FCD0BFF35F8FFF23037140BF0368BFF3BC
:102700005F8F00221A6081F3108870477047C046BF
:10271000100000009C01002000000000880600203E
:10272000E40700200000000000000000F407002083
:102730000000000000000000100000000000000089
:102740000000010000000000000000000000020086
:102750000000000000000000000003000000000076
:10276000000000000000FF000000000000B5486805
:1027700001318E460047704609380149884700BD3F
:10278000A11A00100000000000000000000000007E
:10279000503300004C33000054330000523300002B
:1027A0004D5300004D4300005334000043340000FB
:1027B000E92000100000000035210010000000009A
:1027C00000010000000000004002002000000000A6
:1027D000000000002C05002094050020FC050020CE
:1027E00000000000000000000000000000000000E9
:1027F00000000000000000000000000000000000D9
:1028000000000000000000000000000000000000C8
:1028100000000000000000000000000000000000B8
:1028200000000000000000000000000000000000A8
:102830000000000000000000000000000000000098
:102840000000000000000000000000000000000088
:102850000000000000000000000000000000000078
:102860000000000000000000000000000000000068
:102870000000000000000000010000000000000057
:102880000E33CDAB34126DE6ECDE05000B0000001C
:102890000000000000000000000000000000000038
:1028A0000000000000000000000000000000000028
:1028B0000000000000000000000000000000000018
:1028C0000000000000000000000000000000000008
:102C0000AD1E0010D11B0010911C00101D1E0010E5
:042C10003903001074
:04000005100001E9FD
:00000001FF
