:020000041000EA
:1000000000B5324B212058609868022188439860DF
:10001000D860186158612E4B002199600221596106
:100020000121F02299502B49196001219960352056
:1000300000F044F80222904214D00621196600F024
:1000400034F8196E01211966002018661A6600F04E
:100050002CF8196E196E196E052000F02FF8012189
:100060000842F9D1002199601B49196000215960AB
:100070001A491B48016001219960EB211966A021F2
:10008000196600F012F800219960164914480160C1
:100090000121996001BC002800D000471248134993
:1000A000086003C880F30888084703B5996A0420EC
:1000B0000142FBD001200142F8D103BD02B5186610
:1000C0001866FFF7F2FF186E186E02BD00000240BE
:1000D000000000180000070000035F00212200005C
:1000E000F4000018222000A00001001008ED00E03C
:1000F00000000000000000000000000074B24E7A12
:1001000000200420F7010010C3010010C5010010F9
:10011000C1010010C1010010C1010010C101001097
:10012000C1010010C1010010C1010010C701001081
:10013000C1010010C1010010C9010010CB01001065
:10014000CD010010CD010010CD010010CD01001037
:10015000CD010010CD010010CD010010CD01001027
:10016000CD010010CD010010CD010010CD01001017
:10017000CD010010CD010010CD010010CD01001007
:10018000CD010010CD010010CD010010CD010010F7
:10019000CD010010CD010010CD010010CD010010E7
:1001A000CD010010CD010010CD010010CD010010D7
:1001B000CD010010CD010010CD010010CD010010C7
:1001C00000BE00BE00BE00BE00BE00BE00F04BF888
:1001D000103800BEF2EB8871304900105049001011
:1001E0003402001090A31AE700202149086006C8D5
:1001F00081F3088810471F48006800282FD10DA4FC
:100200000ECC002902D000F012F8F9E71A491B4A77
:10021000002000E001C19142FCD1194988471949E9
:1002200088471949884700BEFDE701C901C29A42C3
:10023000FBD3704750490010C0000020081A00206E
:100240009862001000000420000004209862001052
:1002500000100420001004200000000070470B482C
:1002600001F082FD0047EFF30580C0B27047000047
:1002700008ED00E0000000D0081A00202C1E00202D
:100280000D1500105D0300103116001057560000C8
:1002900006005250ABB36053484400100600525061
:1002A000861C030258440010060052505422A29D9E
:1002B0006444001005005250DE65F4689862001036
:1002C000F8B5C0460448054B10B5834203D0044B33
:1002D000002B00D0984710BD081A0020081A0020F3
:1002E0000000000006480749091A8B10C90FC918F9
:1002F00010B5491003D0044B002B00D0984710BD17
:10030000081A0020081A00200000000010B5074C51
:100310002378002B09D1FFF7D5FF054B002B02D026
:10032000044800E000BF0123237010BD081B00201B
:100330000000000020410010054B10B5002B03D039
:100340000449054800E000BFFFF7CCFF10BDC046E0
:10035000000000000C1B002020410010F0B5CE462C
:10036000474680B5C9B00AAB99464A46354B13CBD0
:1003700013C213CB13C213CB13C21B68002013602C
:1003800003F0C6FC03F036FB002302930D33019308
:10039000013B02222721009314A8043300F054F8F3
:1003A00014A800F0A7F90023984603F02DFB0A21BA
:1003B00001F008FD4B4689005D58682214A92EA85B
:1003C00001F048FE280003F06FFC04002EA800F0A6
:1003D000D9F90700844228DB00260134241A002FB3
:1003E0002DDD002304AAA81904E0013311700132A5
:1003F0009F4221D0C15C0029F7D104AA94466344EE
:10040000424600211A702EA8002200F015F904A916
:100410002EA800F02BF9C820400000F0C5FC0136E2
:100420002EA800F003F9B442D9D114A800F0FEF8C8
:10043000C82000F0B9FCB8E704ABDB19E0E704AB77
:10044000DEE7C046B4430010F0B5CE468C46994670
:1004500010238362C3656346474603604B46110021
:10046000202280B504240825012702268360079BEB
:10047000C262C360089B20320361099B0263403261
:100480008761C66145628763C66307644664056524
:1004900085650566046242638464C4644465446699
:1004A000416043610CBC90469946F0BD0B00016E63
:1004B000F0B5C6460A4351B21F000F220F2500B502
:1004C0001B0197430F4319434BB2984684B04369CD
:1004D0007FB26D44CEB2040001782F70012B00D1A1
:1004E0006FE000232A0000934E48013301F0FEFE26
:1004F00096200021800000F00FFC636E21783B43C2
:100500002B706369012B00D183E000232A00009344
:100510004448013301F0EAFE96200021800000F0FB
:10052000FBFB636E21789F4363692F70012B68D0BA
:1005300000232A0000933B48013301F0D7FE9620A8
:100540000021800000F0E8FB636921782E70012B08
:100550004FD000232A0000933248013301F0C6FE39
:1005600096200021800000F0D7FB4346626E217880
:1005700013432B706369012B33D000232A000093AF
:100580002848013301F0B2FE96200021800000F0DF
:10059000C3FB4346626E217893432B706369012B42
:1005A00017D000232A0000931E48013301F09EFE5D
:1005B00096200021800000F0AFFB04B004BC904600
:1005C000F0BD00232A0000931748013301F08EFE8E
:1005D0008EE700232A0000931348013301F086FEC2
:1005E000E6E700232A0000930F48013301F07EFE66
:1005F000CAE700232A0000930B48013301F076FE7E
:10060000AEE700232A0000930748013301F06EFE95
:1006100095E700232A0000930348013301F066FEAA
:100620007AE7C046901100209811002010B50022F2
:10063000017EFFF73BFF10BD10B5002905D0012951
:100640000AD002290ED0032909D0803211000022DD
:10065000C9B2FFF72BFF10BDC0321100F7E7D4324B
:100660001100F4E794321100F1E7C04670B50C00B8
:1006700009780500002907D0012228000134FFF77E
:1006800015FF21780029F7D170BDC04610B50400D0
:1006900000220321FFF70AFF200000220321FFF7B9
:1006A00005FF200000220321FFF700FF20000022A9
:1006B0000221FFF7FBFEE36B216A200019430022B1
:1006C000C9B2FFF7F3FEA36DE16A200019430022CF
:1006D000C9B2FFF7EBFEA36C616A20001943002248
:1006E000C9B2FFF7E3FE00222000217EFFF7DEFE05
:1006F00010BDC046436970B51D490400012B1ED0D2
:100700001C4801F09FFD0321E06800F03DF8032143
:10071000206900F039F800220121E06800F04CF86F
:1007200000220121206900F047F8134D2B78BFF318
:100730005B8FDB0707D52000FFF7A8FF70BD0F48D0
:1007400001F080FDDFE7280001F020FE0028F2D054
:100750002269E3685104DB010B43120313431A229D
:100760001343074A2800536001F02CFEE3E7C0461C
:10077000A086010090110020581B00209811002035
:10078000E810002080687047094A830094464022A0
:10079000634410B51C68C0006240C024144080222D
:1007A000520113431C60034B9C466044416010BDE2
:1007B00004C00140004001400A4B80009C460423D5
:1007C0006044002901D00C230821002A00D10B002D
:1007D000026853400C221A4080235B0118430260D8
:1007E0007047C04604C00140F8B5CE464746914622
:1007F00080B5EFF3108772B6124E3368002BFCD031
:10080000BFF35F8FCB08C55C0724C2182800012303
:100810000C409446E0401A000240904603420DD13D
:10082000A34062462B431370BFF35F8F4346336090
:1008300087F310880CBC90469946F8BD484600F0F6
:10084000F9FEC0462C0100D00021044B044ABFF33E
:100850005F8F02C39342FAD17047C046000100D0B7
:10086000800100D0044A1078431CDBB2172B00D95A
:10087000102313707047C046F0100020024B186818
:100880008007C00F7047C04600C0064083680B4811
:1008900010B5844661446244090112019A1859183E
:1008A00054684B6801209C4201D802D00020C0B29D
:1008B00010BD12680B689A42F9D8F7E7FFFFFF0FE7
:1008C00040BF002000217047F8B557464E464546C8
:1008D000DE46E0B5434D81468A466A68EFF31088EC
:1008E00072B61368002BFCD0BFF35F8F2E68B47B09
:1008F000002C3ED0670033683F19033FDA19537864
:10090000B373002B00D1F3730023937053701370F3
:10091000A968354A8C464946A21812016244116002
:10092000514651603149D36091603268D219937059
:1009300053701370737B9B46002B35D02200190037
:10094000B068736898473268002820D05B465846E4
:100950005B005B44D719033BB870D118D35C002B04
:1009600000D07B705B460C7073735C451DD0002615
:1009700026E06B68BFF35F8F1C6088F3108801204E
:1009800040423CBC90469946A246AB46F8BD5B4609
:100990005B005B44033BD3189C70D119D25D002AE5
:1009A00000D05A705B460B7074734A465346287DDC
:1009B00000F012FB061EDAD02100286800F068FD66
:1009C000EB686A681B19013B1B78BFF35F8F00213E
:1009D000116088F310880020002ED2D11802204325
:1009E000CFE7C046F4100020FFFFFF0FC108001042
:1009F000F8B5574645464E46DE46E0B599460CAB3F
:100A000019780DAB1B78050090469A4607680029B7
:100A100012D1BE7B002E45D074003B68A419033C64
:100A20001B195A783100BA73002A00D1FA730022D8
:100A30009A705A701A7003E00E004C006418033C60
:100A40002C4B00229C46AB6861449C4643460901FE
:100A500061440B604B464B600A9B8B600B9BCB60E9
:100A60003B681B199A705A701A707B7B9B46002B4F
:100A70002CD032005946B8687B6898473A680028FD
:100A800017D05B4658465B005B441419033BA070CB
:100A9000D118D35C002B00D063705B460E707B7363
:100AA000B34514D030003CBC90469946A246AB46B4
:100AB000F8BD5B465B005B44033BD3189E70111985
:100AC000125D002A00D05A705B460B707E7342465E
:100AD0004B46287D00F080FA041E06D05346002BBA
:100AE00003D13100286800F0D3FC0E9B002BD9D035
:100AF0001C70D7E7FFFFFF0FF0B5DE464E465746A6
:100B000045460023E0B58DB00A936B4B8200D35865
:100B10000B90994600239B464B46079300F0FCF947
:100B2000079C06000F006268EFF3108572B6136829
:100B3000002BFCD022000794BFF35F8F2468637BF7
:100B40009946002B67D092685C4B90464B441B0142
:100B5000984443461A685B6810001900801BB9412D
:100B600000295FDD0B9800F037FA00230026984635
:100B700000279A46079C6368BFF35F8F5A461A6046
:100B800085F310885346002B08D10028C6D10DB03C
:100B90003CBC90469946A246AB46F0BD0A9B4146F6
:100BA00018024B461843D047089009916268EFF34A
:100BB000108572B61368002BFCD00794BFF35F8FCB
:100BC0000899099A002A48DB114303D0079B1B6947
:100BD000002B5DD1079B1B68DA7B002A07D05100F0
:100BE0008A1819688C4649466244033A51704A464D
:100BF000DA734B46079A013BD168CA5C0132CA548A
:100C00005B46079A13615368BFF35F8F5A461A60B9
:100C100085F3108882E700230026984600279A462D
:100C20000020A7E7002901D100289BD10021200046
:100C300000F090FB43461E685F689B68079A9A46DF
:100C40004346DB689846D3684B44013B1B780A93C4
:100C50001B020343136100208CE72369002BB9D0EA
:100C600033003C005B1A94411A002300A74219D8B4
:100C70009F421BD05946049101210391494602919C
:100C800041460191514607980091FFF7B1FEB7E741
:100C900000F042F9089A099B06000F0092197B4167
:100CA0009942E5D901225242D317E3E79642E1D9AE
:100CB00001225242D317DDE7001C0020FFFFFF0F87
:100CC00010B5104C6368002B00D010BD23000E4AF5
:100CD0001021206800F05CFA032000F011F90320D5
:100CE00000F0ECF90320094900F030F9FFF7BAFDF4
:100CF000074B9C46032360442375064B80006060CD
:100D0000DC60E2E7F41000208D080010F90A001002
:100D100040000034001C0020F8B504000D0000F075
:100D2000FBF802000B00A4185D41A9422DD82AD07F
:100D300006267642F71736196F41AF422CD90026A6
:100D4000002700F0E9F832003B00121A8B41002B1B
:100D500007DC04D02900200000F0E8F8F8BD002AE4
:100D6000F8D030003900FFF7AFFD0028F2DB380083
:100D70000C4A536A984204D8916A8E42EAD9984242
:100D8000E8D120BFF5E7A042D2D901246442E5179B
:100D900007267642F717D4E7AF42D2D1A642CED883
:100DA000CFE7C04600400540F8B5040000F0B4F8B5
:100DB000FA2206000F00200000230021920001F01B
:100DC000C3F88019794104000D008F422DD82AD034
:100DD00006267642F71736196F41AF422CD9002606
:100DE000002700F099F832003B00121A8B41002BCB
:100DF00007DC04D02900200000F098F8F8BD002A94
:100E0000F8D030003900FFF75FFD0028F2DB380032
:100E10000C4A536A984204D8916A8E42EAD99842A1
:100E2000E8D120BFF5E78642D2D901246442E51714
:100E300007267642F717D4E7AF42D2D1A642CED8E2
:100E4000CFE7C04600400540F0B5D6464F4646467F
:100E5000C0B5EFF305833F22134018001038EFF3BD
:100E6000108C72B6204D2A68002AFCD0BFF35F8F29
:100E70000122110081401D4C884661631C49170006
:100E80000E788A463100C1400F400A4215D01949F8
:100E90008200646A51588C4219D3174BD25843468A
:100EA0009E4353461E70BFF35F8F00232B608CF36D
:100EB0001088002A06D0904704E0BFF35F8F2F60B0
:100EC0008CF310881CBC90469946A246F0BD0B4A94
:100ED0009B00904643441A681A60BFF35F8F00235B
:100EE0002B608CF31088EDE7280100D0004005400E
:100EF000221C0020101C0020781B0020D03F054041
:100F000010B50100024A0348FFF76EFC10BDC04651
:100F1000DC430010201C0020034B596A0A00986A29
:100F2000596A8A42FAD1704700400540064A536A1E
:100F30009942FCD807D1044B02E05A6A914202D18F
:100F40009A6A8242F9D370470040054070B50400A8
:100F50000D00EFF3108672B61A4A1368002BFCD00E
:100F6000BFF35F8F002D1BD0200000F04FFD16490E
:100F700081420AD0200000F051FD0121200000F044
:100F800033FD0123A340114A1360114BA400E55027
:100F9000BFF35F8F00220B4B1A6086F3108870BD81
:100FA0000B4BA200D5500122A2400A4920000B7829
:100FB00093430B70044900F05BFD0021200000F01A
:100FC00013FDE5E7280100D0490E00103860054008
:100FD000781B0020221C0020F0B54F46D64646461E
:100FE000C0B50700304C616A0D00A66A616AA9426B
:100FF000FAD18B4208D805D001201CBC90469946F6
:10100000A246F0BDB242F7D9EFF3108972B6274875
:1010100001680029FCD0BFF35F8F01252449BD4042
:101020008C460978204C0E002E438846F1B28A4641
:10103000614650460870391D1E48890065630A5193
:10104000B9000B50216A0020294219D0616A0800BA
:10105000A66A616A8142FAD18B4219D801D1B242A3
:1010600016D8C2451DD0104B1F201D625D630123A1
:101070000740BB40104A1E381360634642461A7050
:10108000BFF35F8F0022094B1A6089F31088B4E721
:101090000020BFF35F8F0022044B1A6089F3108891
:1010A000ABE70120ECE7C04600400540280100D036
:1010B000221C0020101C002080E200E010B5EFF39D
:1010C000108472B60A490B68002BFCD0BFF35F8F07
:1010D00001238340074A0848136202789A4302704A
:1010E000BFF35F8F00230B6084F3108810BDC046F0
:1010F000280100D000400540221C0020024B9C46E5
:1011000061448900016070474000003410B504005C
:10111000FFF7A8FB01002000FFF7F0FFFF2323717A
:10112000BFF35F8F10BDC04670B505000E00140000
:10113000002924D0002A24D080686B689847296849
:1011400000280ED063001B197200033B9219CB18C4
:10115000033A9E7088188A5C002A14D1047030000B
:101160000EE073009B196200033B1219CB18033A7F
:101170009C7088188A5C002A00D05A700670200083
:1011800070BD0800FCE75A7004703000F8E7C046F4
:1011900030B583600023CCB24373013304734260E3
:1011A0008373C4730D000068012C06D9421C0133FF
:1011B000DBB2137003329C42F9D1FF2129404B006E
:1011C0005918002340180338437030BDF8B5CE4697
:1011D000474606000C0080B5002907D04D00036883
:1011E0006D18033D5A195778002F04D120000CBC0C
:1011F00090469946F8BD7900C91903398846434499
:101200005978894600215970517073683A0021005D
:10121000806898473368002814D042469A18947022
:1012200059195B5D002B00D053700F7027004946A1
:101230003000FFF7CBFF390002003000FFF774FFEA
:101240000400D3E7424641465D19AF709A185B5CD3
:10125000002B00D06B701470E9E7C046F0B557461C
:101260004546DE464E46E0B50D006B0001685B1951
:10127000DF1E0400C85D83B00192CA1900284CD05B
:1012800043001B18033BCB185E78B446002E16D1E2
:10129000019E002E3ED0E67B002E04D073009B19E9
:1012A000CB18033B5D70E57300282FD100235370EA
:1012B00003B03CBC90469946A246AB46F0BD7200D6
:1012C0006244033A89184A78904600224A7091464F
:1012D0005A70010032002000FFF726FF4346824685
:1012E000002B07D05B0021684344033BCB185A789E
:1012F000002A16D1424651462000FFF715FF21680B
:10130000019BCA19002BC6D10028CFD043001B185F
:10131000033BCB1800219970C8E7019B002BBAD181
:10132000C4E75000801803380918487883464846B7
:101330004870587041462000FFF7F6FE5946804637
:101340002000FFF743FF414602002000FFF7ECFEBC
:101350008046CFE7F0B54E464546DE465746E0B5F7
:10136000467B040075000068AD19033D83B0019110
:10137000415D421900294ED04B005B18033BC31856
:101380005F78BC46002F18D1019D002D40D0E57B31
:10139000002D04D06B005B19C318033B5E70E6732D
:1013A000002931D1002330005370617303B03CBC7D
:1013B00090469946A246AB46F0BD7A006244033A95
:1013C0008018427893460022427091465A7020005D
:1013D0003A00FFF7A9FE5B468046002B07D05B0072
:1013E00021685B44033BCB185A78002A17D15A4630
:1013F00041462000FFF798FE019B0100206842193A
:10140000002BC4D10029CDD04B005B18033BC3187F
:1014100000209870C6E7019B002BB8D1C2E75000AE
:101420008018033809184878824648464870587032
:1014300059462000FFF778FE53468346002B07D01D
:101440005B0021685344033BCB185A78002A06D12D
:10145000594652462000FFF767FE8346C7E7500013
:1014600080180338091848464F784870587051461C
:101470002000FFF759FE390081462000FFF7A6FE45
:10148000494602002000FFF74FFE8246E0E7C046D3
:1014900070B5040000292CD0437B8B422ED0056808
:1014A00048004018033828188278002A21D05300B9
:1014B0009B18033BEA5CEE188A4202D11BE0002A2B
:1014C00008D053009B18033BEB185A788A42F6D198
:1014D00042785A7000230122837043702000FFF786
:1014E000BDFE617B02002000FFF71EFE607301203D
:1014F00000E0002070BD43783370EBE70122190053
:10150000FFF7ACFE60730120F4E7C0462B4B2C4A7A
:1015100070B51A602B4A2C4B2C491A6010008B684E
:101520009843FBD12A4C2B4B9C4209D2013B1D1BFB
:10153000AD080135AD002D1908CC9847AC42FBD160
:1015400000F096F8244A204B1A60204A9368DB0189
:101550008033FBD14022214B214C9A675A671A678E
:10156000DA66204B9C420BD2013B1D1BED08013576
:10157000ED002D1920000834FFF7C8FDAC42F9D169
:10158000194C1A4DA168C022280000F063FDA56027
:10159000FFF75AF900F0A4FBFFF792FB144C154B30
:1015A0009C4209D2013B1D1BAD080135AD002D1930
:1015B00008CC9847A542FBD170BDC04600E0004072
:1015C000BFCDFFFFFE7F3C0000F0004000C00040A8
:1015D000F0190020001A0020FFFFFF0100F0014079
:1015E000E8190020F019002000ED00E000000020C4
:1015F000001A0020081A002000BEFDE7094A030077
:101600001068002805D00849C3188B4207D813601A
:10161000704706480449C31810608B42F7D901206F
:101620004042F5E7F81B0020000004202C1E00209B
:1016300000BEFDE70FB400B5084883B000F0E4FD3C
:10164000049B002B07D005A91800019100F06CFB4A
:10165000034800F0D9FD00BEFDE7C046004400107D
:101660001044001010B50148FFF7E4FF14440010C7
:1016700030B50C2083B000F071F9FFF7FFF80028B7
:101680000ED09A4B9A4A1A605A609A60DA601A61D0
:101690005A619A61DA611A62964A5A6203B030BDA1
:1016A000954CA06700F062F90122944B1A60636CBC
:1016B000012BFCD10322924B1A608F4A936B012BB2
:1016C000FCD1C0228F4B92011A608F4B8F491A6058
:1016D00010008B689843031EFAD1022401218C4A22
:1016E0008C480633009400F055F905238A4A0121FD
:1016F0008A48009400F04EF9894B5A68FF2A02D8B4
:10170000802252005A608022784C7D4B2169120160
:10171000834D1A60002905D0606900F07FFB01301D
:101720000138FDD1E0217E4B02201A681140802251
:1017300052012A4311601968484003210140116099
:1017400004219A681142FCD08022802192012A4310
:1017500009011160802252005A60724B2361724B62
:101760005968FF2900D85A6003226F48634B012152
:101770001A60020093681942FCD0E02513681D40EE
:1017800080235B0103431D6012684A40032111401E
:1017900019600221644A93681942FCD08023802199
:1017A0009B010343090119608021604B490051608E
:1017B00063615F4B5A68FF2A00D8596080225D4BF5
:1017C000E16912015A4D1A60002905D0606900F0E4
:1017D00025FB01300138FDD1E02255490B681A4044
:1017E00080235B012B431A60802380229B012B43C3
:1017F00012011A6080223E4B52004A60E3614E4B58
:101800005968FF2900D85A6080224C4B216A120186
:10181000494D1A60002905D0606900F0FFFA0130D7
:101820000138FDD1E02244490B681A4080235B0156
:101830002B431A60802380229B012B4312011A60E4
:10184000802380225B004B60294BD20223623C4BF9
:101850005968914200D25A6080223A4B616A120163
:10186000374D1A60002905D0606900F0D7FA0130C1
:101870000138FDD1E02232490B681A4080235B0118
:101880002B431A60802380229B012B4312011A6094
:101890008023DB024B60174B63622B4B5A68FF2A95
:1018A00002D8802252005A608022284BA16912017E
:1018B000254D1A60002905D0606900F0AFFA0130AB
:1018C0000138FDD1E02220490B681A4080235B01DA
:1018D0002B431A60802380229B012B4312011A6044
:1018E00080235B004B60114BA361D7E6881B00206F
:1018F000006CDC021BB70000008000403CB00040E0
:1019000030B0004000E0004000F0004000C0004067
:10191000002F68590080024000389C1C00C0024023
:1019200030800040001BB7003C80004040597307E6
:101930005480004054B000406080004060B00040DF
:101940006C8000406CB000404880004048B00040CF
:10195000014B8000C0587047881B00208023024A3A
:101960009B000343D362704700800540AA23064AC8
:101970001B0113602F230549D360054B1960536881
:10198000002BFCDA7047C0460040024000B0FA006D
:1019900000600240F8B51E0001235B424360002353
:1019A0000400836001600C20170000F037FA410149
:1019B000091A8D01691AC90009188901380000F057
:1019C0002DFAC021231D890119432123A0600B603A
:1019D0002268002AFCDA069B36041B031E430823F8
:1019E000E6600B60F8BDC04601238340002904D0A7
:1019F000034A1360034A13607047034A1360FBE70E
:101A000080E200E000E100E080E100E0024B103005
:101A10009B688000C058704700ED00E070B50D0075
:101A2000EFF3108672B60F4A1368002BFCD0BFF399
:101A30005F8F0D4B10309B6884001B590B4A9342FB
:101A400003D09D4201D0FFF70DFE074B9B681D514F
:101A5000BFF35F8FBFF35F8F0022024B1A6086F3E4
:101A6000108870BD240100D000ED00E0CD01001011
:101A7000F0B5DE4657464E464546E0B50C0083B00D
:101A8000EFF3108A72B65B4A1368002BFCD0BFF3E9
:101A90005F8F1022914681444A46574B96009B68BF
:101AA0009D59564B98469D4205D0A54216D0544F9D
:101AB000EB1B2F2B14D9504B9B689D51BFF35F8FAD
:101AC000BFF35F8F00224B4B1A608AF3108803B07C
:101AD0003CBC90469946A246AB46F0BD1D00EAE7E5
:101AE000012383409B465A46464B1B681A4000928E
:101AF0005A46454B1A60BFF35F8FFEF7B4FB019067
:101B0000002803D0814501D0FFF7ACFD01232A0056
:101B10009A431300DB1B5B4142495943090D93680B
:101B20009C4208D15BE043001B189B00FB1898689F
:101B3000A04211D01A00062010560028F3DA009BAC
:101B4000002B05D05A46314B1A602E4B1A60B2E773
:101B50005A462D4B1A60AEE706201856002822DBA5
:101B60004200111889007C188846A1689960E179C3
:101B7000D971062161569971A1797F291FD8A4884E
:101B8000F91A6405241544440919E0240905490D8E
:101B900024022143998012181D4B9200BF181A7815
:101BA0001870BA71CBE7019800280BD1FF30907103
:101BB00018489080164A107811709871BFE7BD21BF
:101BC0000902E7E7144A1549D21A083A5002400DB3
:101BD00001439980124952080A43DA80AFE7062090
:101BE000105613000028BBDA019A002AEAD14546B4
:101BF000E0E7C046240100D000ED00E0CD01001078
:101C00001C11002000E100E080E100E080E200E043
:101C1000211C002000BDFFFF5611002000F0FFFF37
:101C200000F8FFFFAAAA0000F8B50125040005434B
:101C3000FEF719FB0200EFF3108672B621490B681C
:101C4000002BFCD0BFF35F8F1F492000401A40419A
:101C5000224B43431B0D1D48920087685BB2BF585F
:101C6000AF421CD006228A569A421CD012228A56B3
:101C70009A4222D01E228A569A4220D02A228A567E
:101C800003209A4210D0124A11781370A171BFF349
:101C90005F8F00220B4B1A6086F31088F8BD8168B5
:101CA0000C488850EFE70020420012189200891873
:101CB000FF228A71084A8A80E5E70120F4E70220C2
:101CC000F2E7C046240100D01C11002000ED00E026
:101CD000211C0020CD01001000BDFFFFAAAA0000BA
:101CE000F0B500220324FF27802620003D00094B89
:101CF00011009C461040C0008540A14361440B6820
:101D00000132AB43350085402B430B60202AECD1D8
:101D1000F0BDC04600E400E010B5002800D110BDC1
:101D200000F064FAFBE7C04610B5094A03001468E6
:101D300084B0002C08D0012200910648524203A929
:101D4000A047012004B010BD00F05EFA0020F9E7C2
:101D5000FC1B0020191D001001480421014B1847ED
:101D600070110020891D0010142310B5010018887F
:101D700004331B88984710BD162310B5010018883E
:101D800002331B88984710BDF0B5C64600B5002940
:101D900016D01423040001259846182789004618F8
:101DA0004346216818883B88984701C4431E9841E0
:101DB00040420540A642F3D1280004BC9046F0BD45
:101DC0000125F9E7144A936F9B0815D29066D166F6
:101DD000002905D0FFE7FFE7FFE7516F106F70475D
:101DE00004B580210906C2175140002800D0C8431D
:101DF00002F046F9002104BD936F5B08FDD3F0B5F6
:101E0000946ED56E576F166FFFF7E0FF9466D56638
:101E100057671667F0BD0000000000D0134A936FAB
:101E20009B0813D210665166002905D0FFE7FFE733
:101E3000FFE7516F106F704704B5002801D00020F4
:101E4000C04302F01DF9002104BDC046936F5B083A
:101E5000FDD3F0B5946ED56E576F166FFFF7E2FFA6
:101E60009466D56657671667F0BD0000000000D085
:101E7000132370B51D78012D10D00BDD2448FFF71A
:101E80007BFF244C01008022200000F0E3F8022DAB
:101E900001D070BD1F4C204AA264FAE72E001D4CF1
:101EA0001D4AA3085B421E401D422FD03300226012
:101EB0002020B1006118801B0A604A608A60CA60F5
:101EC0000A614A618A61CA610A624A628A62CA62B6
:101ED0000A634A638A63CA630A644A648A64CA6496
:101EE0000A654A658A65CA650A664A668A66CA6676
:101EF0000A674A674008102803D18A67CA67A26444
:101F0000C7E71E339B00E250A264C2E70023CFE77D
:101F100053440000241C00201D1F001007B560461C
:101F200001880A0A0230DF2AFAD1C9B2820804D332
:101F3000028840880004104300E00068014A5050C5
:101F4000039007BD241C002051434343C9188C460D
:101F5000110C83B24B4310B4040C614392B280B2B3
:101F6000504362431C041B0C001910BC594113045C
:101F7000120CC0185141614470470000132310B582
:101F800012481C78FFF7F8FE0100012C0AD003DD8F
:101F900080220F4800F05EF80E48FFF7E5FE0E4B7A
:101FA000186010BD0A4C5422200000F053F80B4B6F
:101FB0006365A365E36523666366A366E3662367DB
:101FC0006367A367E3672362E361E5E753460000C5
:101FD000241D00204C330000241E0020E11F0010AF
:101FE00007B5604601880A0A0230DF2AFAD1C9B271
:101FF000820804D3028840880004104300E000688F
:10200000014A5050039007BD241D002010B5040064
:1020100001F012FA002804D0034B04199C4200D8A6
:1020200010BD0248FFF706FB00000420204400100A
:1020300010B501F00BFA10BD01480421014B1847FF
:1020400080110020891D0010014B1B6818470000FB
:1020500080110020014B5B681847000080110020B0
:1020600010B5FFF7E5FF10BDF8B54746CE460D00A9
:1020700080B516000700002A20DD4B1E98461A4B3B
:10208000002400209946002C2BD043461B5D0D3BBD
:102090005A425341DBB22A5D0A2A13D00134A642C8
:1020A000F1DC864203DD311A3B6828189847AD19E8
:1020B000013D2B780D3B5A4253413B740CBC90467A
:1020C0009946F8BD002BE9D1A04203DA211A3B68FA
:1020D00028189847484602213B6801349847200059
:1020E000DDE73B7CD7E7C04694440010F0B5574687
:1020F0004546DE464E46D023E0B51B061C68374BEE
:1021000083B007000D00180001A990469A4601F01F
:10211000C7FF8146002807D1019B9C4204D050464E
:1021200001F0EEFF012399466B1C03D1380001F04A
:10213000BBFD05002A4B1C68002C2FD00A23294E1A
:102140009B4602E0E468002C28D02268002AF9D0DF
:102150003368002B01D0A342F4D1637C002B2AD03A
:102160002A0039002000FFF77FFF4346002BE9D00B
:102170006B465A461A71637C002B20D0237C002BBF
:1021800026D00121236801A898476B461B790D3B97
:102190005A4253412374E468002CD6D14B46002B9D
:1021A00012D1681E8541E8B203B03CBC9046994606
:1021B000A246AB46F0BD290038009047D5E7012183
:1021C000236801A89847BDE7504601F031FFE8E7D2
:1021D0000221054823689847D7E7C046E819002040
:1021E000F01B0020F41B00209444001010B582B0B6
:1021F0006B4604000022D81D01210470FFF776FF12
:10220000200002B010BDC04670B5040001F04CFDC6
:102210000122010005002000FFF768FF084B1C6841
:10222000002C06D06368002B05D09847E468002C8A
:10223000F8D1280070BDE468002CF3D1F9E7C0465E
:10224000F01B0020F8B5254B0500C31A5A42534134
:1022500007225B429343224A10331360214A0E0047
:10226000214913601C008A689443FBD16522032135
:102270002B682C71DC661A602332DC6305209C63BA
:102280009950FFF765FB070070083100C019FFF790
:10229000C5FD0600400005218019FFF7BFFD04229F
:1022A000331A9C462B68DC6619684A4006211140A7
:1022B000802252011A43116062466146D8611A6257
:1022C00001220F2900D90A09A0215A500122310008
:1022D0003800DA66FFF7A2FDF8BDC0469011002075
:1022E00000E0004000F0004000C00040F0B557465C
:1022F0004546DE464E46E0B5050083B00CA807789B
:1023000000202C68E06661600121E166002B38DD69
:102310000126591E7E40894671020191802188461E
:102320007C398C460021002803D129794E1EB14109
:1023300089020026B24648451CD0165C31435646F9
:102340003143216103E06646216F0E4215D14146BB
:102350006158666D002EF6D0002914D0CB0712D438
:102360000B0710D52F7103B03CBC90469946A2468E
:10237000AB46F0BD019EB246DFE701308342D1D1CA
:10238000F0E70020EEE702204042EBE7012302687D
:1023900010B51A4205D14278002A04D143700120B9
:1023A00010BD0020FCE7042000F0CCF9040000F090
:1023B00029F82000014A024900F08AFACD230010D2
:1023C00098440010012303607047C04610B5040014
:1023D000034B0833036000F0F3F9200010BDC04642
:1023E000C844001010B50400054B0833036000F02A
:1023F000E7F920000421FFF733FE200010BDC0469E
:10240000C8440010014B083303607047C8440010F3
:1024100010B50400034B0833036000F0D3F820002C
:1024200010BDC0461045001010B50400054B083320
:10243000036000F0C7F820000C21FFF711FE200018
:1024400010BDC04610450010F0B583B01E00089BBB
:1024500005000F00140093420AD0A868089A036888
:1024600000921D6A220033003900A84703B0F0BD76
:10247000310000F069F80028EFD00620F6E7C046EA
:10248000F0B5C64600B50D0084B0190006009046B0
:102490001F0000F059F8041E18D10A9B0C9A9342B1
:1024A00031D00D9AB0682900036803920C9A029209
:1024B0000B9A01920A9A0092DC6942463B00A047BF
:1024C0000400200004B004BC9046F0BD0D9B0A9AA5
:1024D0001A6042461A71002D0EDB0A9B00249C46AE
:1024E0000C9B65445D1B69424D4105236D421D40B7
:1024F0000D9B01359D71E4E70024AB1CE1D1012364
:102500000D9A9371DDE730000B9900F01DF800285B
:10251000C7D042460D9B5A71D3E7C046F8B50700B5
:102520000C0015001E0000F089F8002806D1B868DC
:102530002A00036821009F693300B847F8BDC046F0
:102540007047C0460020704710B5814211D04068E6
:1025500003782A2B0BD049680B782A3B5A42534107
:10256000C91801F05DFB43425841C0B210BD0020C4
:10257000FCE70120FAE7C04630B585B0002314001F
:102580006A461371102200930393036802929D69B7
:1025900022686B46A8476B461A7906230020134031
:1025A000062B02D1009B0130236005B030BDC04630
:1025B000009B981A421E90410423404298430630E3
:1025C0007047C04610B50400034B08330360FFF7A3
:1025D000B7FF200010BDC0468445001010B50400B0
:1025E000054B08330360FFF7ABFF20000821FFF71E
:1025F00037FD200010BDC0468445001070B51600A0
:102600001D00069A049B040093420ED0290020006E
:10261000FFF79AFF002806D0079B049A1E711A60E4
:102620000123079A9371002070BD0599FFF78CFF75
:102630000028EBD0079B5E71F5E7C04670B515002A
:102640001C00FFF781FF002804D00823E360023B51
:102650002560237170BDC046F8B505000C00170059
:102660001E00FFF771FF002807D1032E05D823684D
:102670003A00290020005B699847F8BD70B51C4CF2
:1026800008386368002B27D006688519AB4223D829
:102690001DD05A680434002A06D10EE051681C1D72
:1026A00000291FD013000A009542F7D304D12A68ED
:1026B00094466A6866445A6023681A689918884282
:1026C0000DD05B68066043602368586006E01A68B6
:1026D0005B689446664406604360606070BD96190E
:1026E0001E60FBE75B681A6899188842E9D1F6E733
:1026F000681B0020020010B50832083000D3082201
:1027000007230F49073248689A43002813D0043141
:1027100003E0011D406800280DD003689A42F8D8F4
:102720009B1A072B08D984184068236060600868EA
:1027300002600C60083010BD436808300B60FAE797
:10274000681B002070B580300500FFF75FFC041E99
:1027500007D0802200212000FFF776FC2000803087
:1027600070BD2800FFF7C6FF041EF2D100F050F83C
:10277000074A8038936810B5984203D9D2689B18ED
:10278000984202D3FFF754FC10BDFFF777FFFBE739
:10279000681B002070B59E25084C2D012800E560BF
:1027A000FFF734FCA060002804D0002360600560BF
:1027B000436070BDE0606060FBE7C046681B0020BE
:1027C0007047C0467047C04600487047B04500108B
:1027D00000487047C045001010B504000421FFF701
:1027E0003FFC200010BDC04670B5804700F01CFEC5
:1027F00000F044FA00F018FE0D00040000F078FA32
:102800006B1C02D1200000F0B9F900F0B3F8C0460B
:10281000024B10B51868FFF7E7FFC046A41100206F
:1028200010B58047FFF7F4FF024B10B51868FFF7AB
:10283000F7FFC046A0110020014B18687047C04642
:10284000A4110020014B18687047C046A011002059
:1028500010B5012812D80B00283B1A68501E1860CA
:10286000012A00D010BDDB6858310C00002B01D0CC
:10287000080098472000FFF77BFFF3E728394869F5
:10288000FFF7B2FF70B505000026803DEA602E60BC
:10289000A9600400FFF7D6FF2861FFF7CDFF2300F2
:1028A0004722583B68611A7007325A7007329A7093
:1028B00022004323553A13705370183B9370D37022
:1028C000024B513C280026702B6370BD512800102C
:1028D00070B504000D00160000F056FA436832008F
:1028E0000133290043602000FFF7CCFF0123036080
:1028F0002830040001F0FCFB200000F0BFF9FFF7D6
:1029000087FFC04610B500F03FFA43680468013302
:102910004360002C0CD02023E35C472B0AD000231B
:1029200003602034200001F0DBFB200000F0A6F95A
:10293000FFF76EFF263BE35C4E2BF0D12C3BE35CB4
:10294000552BECD1323BE35C432BE8D11F3BE35CDE
:10295000432BE4D11E3BE35C2B2BE0D1053BE35C36
:102960002B2BDCD1043BE35C012BD8D863695B42A1
:102970006361D6E71EB400F09BF81EBC01F088FB33
:10298000F0B5C64600B51E0003780C0082B0472B98
:102990001ED000232C4D01932B6828009B6898477C
:1029A000012700280FD1236829001B6920009846C1
:1029B00001AA0123C047002830D10027380002B007
:1029C00004BC9046F0BD019B01371B680193EAE708
:1029D00043784E2BDDD18378552BDAD1C378432B46
:1029E000D7D10379462B23D00379432BD1D1437917
:1029F0002B2BCED183792B2BCBD1C379012BC8D8EC
:102A00000FD00300203B58301D6801902B68280030
:102A10009B68984701270028C5D0D4E7019B336005
:102A2000CCE7203800680300783B1D680190EDE793
:102A300043794F2BD8D18379522BD5D1C379002B31
:102A4000D2D1024D0193A7E7DC450010D445001018
:102A500010B5040000F098F923002278203B472AA3
:102A600005D08268002A20D18360012010BD6278E1
:102A70004E2AF6D1A278552AF3D1E278432AF0D132
:102A80002279432AEDD162792B2AEAD1A2792B2A25
:102A9000E7D1E279012AE4D8DA690132DA61012A60
:102AA000E3D182689A618360DFE7FFF7B1FEC04639
:102AB00010B500F069F98368002B2ED020229A5CB3
:102AC000472A04D0002282602033180010BD263A25
:102AD0009A5C4E2AF6D12C3A9A5C552AF2D1323AB7
:102AE0009A5C432AEED11F3A9A5C432AEAD11E3AF5
:102AF0009A5C2B2AE6D1053A9A5C2B2AE2D1043A59
:102B00009A5C012ADED8DA69013ADA61002ADBD15F
:102B10009A69826000229A61D6E7FFF779FEC04683
:102B2000027803000020472A00D070475A784E2AC6
:102B3000FBD19A78552AF8D1DA78432AF5D11A7957
:102B4000432AF2D15A792B2AEFD19A792B2AECD148
:102B5000DB792A3A9A424041C0B2E6E710B5041E3A
:102B600006D000F08BF82000FFF7DAFF002801D133
:102B7000FFF74EFE203CE068FFF736FEF0B5DE467C
:102B80004E4657464546E0B585B00600FFF7C8FFFC
:102B9000041E0BD03300203B9A68DC68B36A914670
:102BA0009A460023376B9846756B05E001238146F2
:102BB0009846050007008246300000F05FF8434663
:102BC000002B01D0FFF730FE4846FFF729FE00F04A
:102BD00055F84346002B01D0FFF71AFE00F0D0F85D
:102BE00027230668F25C33007833012A00D133686A
:102BF000BF080293BB000193002399462036CA45C3
:102C000020DD2F68002F00D07F190022390030000E
:102C100002ABFFF7B5FE002801D0FFF773FE3B685B
:102C200003901B6938009B461149012303AAD8472A
:102C3000002800D0804601239C46019BE1449C462D
:102C40006544DCE74346002B08D00420FFF77AFDFB
:102C5000084B094A06490360FFF73AFE2000FFF7D8
:102C6000C3FD00F045F800F043F8FFF783FEC046CF
:102C7000E445001068460010C527001070B5040038
:102C800000F082F8220023780568203A472B04D010
:102C9000002D2BD10260280070BD63784E2BF7D138
:102CA000A378552BF4D1E378432BF1D12379432B2F
:102CB000EED163792B2BEBD1A3792B2BE8D1E379E0
:102CC000012BE5D85369002B0DDB013353614368B9
:102CD000013B4360954201D0156102602000656AA6
:102CE00001F0E6F9D7E70121CB1AEFE7FFF790FDF6
:102CF00010B500F045F80368002B09D020229A5C3B
:102D0000472A06D0002220330260180001F0A8F9FB
:102D100010BD263A9A5C4E2AF4D12C3A9A5C552A78
:102D2000F0D1323A9A5C432AECD11F3A9A5C432A9A
:102D3000E8D11E3A9A5C2B2AE4D1053A9A5C2B2AF8
:102D4000E0D1043A9A5C012ADCD85A69002A08DBEF
:102D5000511E012A0CD04A1C01D05961D8E7FFF757
:102D600057FD511C0132F8D11A6902605961CFE751
:102D70001A6920330260180001F072F9C8E7C046F2
:102D8000004870475C1B0020004870475C1B002017
:102D9000F8B5DE46454657464E468B46E0B505003B
:102DA000502825D00F2028400C2800D976E03C4C34
:102DB0008000205887465078147800022043947889
:102DC00024042043D47824060443101D002C08D08A
:102DD00070262E40102E00D193466DB25C44002D1B
:102DE0000CDB1C603CBC90469946A246AB46F8BD45
:102DF000032103328A43100010C8F2E72468F0E789
:102E00005078147800022043947824042043D47826
:102E10002406044310000830D8E7547810782402C0
:102E20000443901CD2E7547810782402044324040D
:102E30002414901CCAE77F2190460024002789466D
:102E400046463178701C4E460E40BE4034434EB26A
:102E500080460737002EF3DB1F2FB7D84906B5D5BC
:102E60000126BE4076423443B2E7002188467F31D6
:102E70001700002489463E00317801378A464946CA
:102E8000564631404646B1400C4307218C465146D8
:102E90004EB23800E044002EEDDB97E700F0C4FAB4
:102EA00074460010020010B50800FF2A15D07023E8
:102EB0001340302B17D004D8202B07D101F0B0F8E5
:102EC00003E0402B0BD101F0FBF810BD202B02D802
:102ED0006023134201D000F0A7FA0020F5E700209C
:102EE000502BF2D0F7E701F0C3F8EEE7F8B5050094
:102EF0000E0014000020002D02D0280001F0E0F8A0
:102F00002060771C3678FF2E29D160603B78781CD2
:102F10002375FF2B33D01023002500217F26237536
:102F20003200037801301A408A405BB21543073102
:102F3000002BF5DB4519E560002500227F2603788C
:102F400001306375310003780130194091405BB264
:102F50000D430732002BF5DB45192561F8BD29002B
:102F60003000FFF79FFF3A000100231D3000FFF7FC
:102F70000FFF07003B78781C2375FF2BCBD1002374
:102F8000E360D9E7F0B5DE46454657464E46002396
:102F9000E0B593B0089303338B4690460340012B72
:102FA00000D19FE0022B0FD14146584601F050F866
:102FB0000924002800D10824200013B03CBC90460E
:102FC0009946A246AB46F0BD002B00D027E203078E
:102FD000EAD401230CAD02935B460C9300230C2230
:102FE00000214046009501F02BF8404601F090F892
:102FF00003900028D8D02A0003994046FFF776FFB7
:1030000041460600287DFFF74DFF0BABA8600F225D
:1030100000939A4600210023404601F059F801220E
:103020000B9B9343013B99462B699E426BD27F27B2
:103030006C7D00212000FFF735FF3200010009AB55
:103040002000FFF7A5FE6C7D060000212000FFF7A1
:1030500029FF320001000AAB2000FFF799FE6C7DCA
:10306000060000212000FFF71DFF5346010032003B
:103070002000FFF78DFE0024002103003A001B789A
:1030800001301A408A405BB2060014430731002B1E
:10309000F3DB099A2B68944663444B4519D9029B8C
:1030A000DB072AD500230024049353460D22009306
:1030B000002100234046089D01F00AF85B460B9A68
:1030C0009C621A62039A0624DA62049A5D621A63A9
:1030D00072E70A9A944663444B4574D82B6983423D
:1030E000A6D8DCE708231A000240034214D00223CA
:1030F0001A4302920C910CAD70E70823029A134216
:1031000007D0FFF785FB02990A42CBD108230B4277
:10311000F7D15846FFF722FD0CAD0C6A00230D22B3
:1031200000214046009500F0D3FF0C9B9C4202D04A
:103130000223029350E75B460C220C9300210023EC
:103140004046009500F07CFF5B461B6B0493002B10
:10315000DFD05B469C6ADB6A03930BAB9A4603267F
:10316000002C4DDB5B460B9353460022002100935D
:103170004046002300F064FF5346012200210093E3
:10318000404600230B9400F05BFF53460F220021C2
:1031900000934046002300F09BFF01230B9A00217F
:1031A0001340049A404613430B9353460F22009357
:1031B000002300F045FF0724022E00D0FCE658460D
:1031C000FFF746FCF8E60B9B002B00D1ECE66A68A3
:1031D000944663440493002C31D1002B00D1E3E6E4
:1031E000029BDB0700D5DFE60226BBE7079B5446C0
:1031F000AB469846B2464D46029BDB0700D554E7E6
:103200002A0003994046FFF771FE4146287DFFF7EB
:1032100049FEE343E9689B00A860C9180B68002BCE
:1032200005D0002301339A008A58002AFAD15A4661
:10323000936204230326D0621363516392E72B69E0
:10324000661E9C46049B6644002B00D1ACE6002E13
:1032500000D1CEE0029A08231100194006911342D2
:1032600000D1CDE05A463F33137007335370073314
:103270009370123BD37003331371093353710333CB
:1032800093710023D3710023424605937F273300B7
:10329000A9460792002400211A0010783A00024043
:1032A0008A400133144342B21D000731002AF3DB88
:1032B0001F2906D84022024203D03F3A8A40524298
:1032C0001443002600213A001878013302408A4056
:1032D000164342B20731002AF5DB1F2906D84023E6
:1032E000034203D03F3B8B405B421E43002C10D077
:1032F00012DC5B46002B02D0069B002B47D0E34339
:103300000F9A9B009B58002B2BD0002E6BD0AB1933
:10331000C0E701230593F8E74B46187DFF2860D0EE
:1033200007230340022B59D02CD9032B2CD0042B7C
:1033300075D1E20052424B46DB6849469C4689689B
:1033400053466244FFF724FD0B99002909D05B46E0
:10335000002BDAD00022584608ABFFF711FB0028FB
:10336000D3D0079B4D469846029BDB0700D59CE6D1
:10337000069B002B00D1F2E60326002C00DBF1E6D1
:10338000FFF752FA002B4AD1A2005242D3E7089B22
:103390000F9A0B93E34390469B0098444346196869
:1033A000002938D05B465246AB46A2461D00444633
:1033B000B046160004E061680434002900D115E726
:1033C0003300002228006118FFF7DAFA0028F2D053
:1033D0002B00B2465D4646469B4696E76200524247
:1033E000A9E70022A7E7079B9846059B002B00D181
:1033F000DAE5029BDB0700D5D6E500240226B1E61C
:103400005B46DA795833012A01D008933BE7783BD1
:103410001B68089337E7079B4D469846ECE600F09B
:1034200003F8FFF72BFC6CE610B5062000F0B0FBAC
:103430000120FEF7E1F8C04610B5034B0100186803
:1034400000F00EF810BDC046A811002010B5034BC7
:103450000100186800F0C6FC10BDC046A81100208D
:10346000F0B557464546DE464E46E0B50D000B35F5
:1034700083B00700162D22D8102900D9BBE000F038
:10348000B5FA102518230220D14EF3181A005C68F3
:10349000083A944200D1BEE0032362689A431300C5
:1034A000E268A168CA6091600122E3185968380097
:1034B0000A435A6000F09CFA200008309EE007237F
:1034C0009D4300D597E0A94200D994E000F08EFA20
:1034D000F823FF339D4200D8ADE1680A00D194E0A3
:1034E000042800D980E138239846A809804439305F
:1034F000C100B74E71180839CC68A14218D0032317
:1035000062689A431300521B0F2A00DD36E1002A3D
:10351000C6DA03239C4608E06246636893435A1B5D
:103520000F2A00DD2AE1002ABADAE468A142F3D1C9
:10353000320034690832944200D177E00323616895
:10354000994389460B00491B0F2900DD77E1726121
:1035500032610029A8DA9F4A914500D910E1DA08C2
:10356000012391108B40D200716892190B4391682E
:103570007360E260A1609460CC6001218210914090
:10358000994259D80B4205D1032290434900043097
:103590000B42FBD003239846C3009946B144CC4666
:1035A00082466346DC68A44507D129E1002A00DB96
:1035B00032E1E468A44500D122E1424663689343C6
:1035C0005A1B0F2AF2DD0120804661190543656010
:1035D000A068E5680836C560A8604046F160B16043
:1035E00010434860CE608E603800E25000F000FA70
:1035F0002000083002E00C2300203B6003B03CBCFC
:1036000090469946A246AB46F0BD80213F238900F3
:10361000402098466DE7DC680230A34200D03BE7CB
:10362000320034690832944200D087E70121736880
:10363000821091409942A5D90323B46862689A43E5
:103640009046AA4203D3531B0F2B00DD88E02300D2
:103650004344614A0193614B93469A4612681B6842
:10366000EB18013200D139E15D4A944663441B0BEB
:103670001B0300930099380000F0E0F90300814635
:10368000013300D1F6E0019B834200D9F0E05146BE
:103690004968009B8C46514663444B6001991A006F
:1036A000494500D14FE15B461B68013300D154E12D
:1036B0004B4601995B1A9A1853465A6007234A46AB
:1036C0001A40019200D113E108214B4689469B1A0A
:1036D00099440099434B49449B1A5B1A1B051B0DE7
:1036E0000091380019009B4600F0A8F9431C00D156
:1036F0004FE14B46C01A03005B44009353465246C9
:103700005B6801215B4453604A464846B260009AB8
:103710000A434260B44200D123E142460F2A00D856
:1037200021E107200C3A82436068014005201143E3
:103730006160A118486088600F2A00D934E14A46C8
:103740004C4652685146C96A994201D25146CB62F1
:103750005146096B994200D38EE051460B638BE0D2
:103760000122290013431143651961603800B560D7
:103770006B6000F03DF9200008303FE74046D7E697
:103780005A0A042A6ED9142A00D9C1E011005C3209
:103790005B31D20008235B429C46B21894446346D6
:1037A0009A6803239846944500D19AE043465168AD
:1037B0009943494502D992689445F7D1D3689C460C
:1037C00073686146A260E1608C60D460D5E6C04653
:1037D000E0150020FF010000D8150020241B002068
:1037E0000F10000008100000142852D9542800D9E6
:1037F00096E06E239846280B80446F30C10078E62F
:1038000008239B46073BDC449B46DA44434652462A
:10381000134200D0C5E64CE00122E3185968380095
:103820000A435A60E368A268D3609A6000F0E0F847
:1038300020000830E2E62B00E808083324E60123E4
:1038400060191D43656070613061C26082601A005A
:103850004B460A4342603800E15000F0C9F82000AE
:103860000830CBE69A09110039323831D20091E79D
:10387000B44260D0B468626803239A43531BAA42DF
:1038800002D30F2B00DD6BE7380000F0B1F8002009
:10389000B4E65B23984680445C30C10029E60823E7
:1038A0005B429C46E1444B469B6801384B4500D047
:1038B00097E043460342F2D173688B43736049003B
:1038C000994200D9B8E6002904D1B5E6042294460D
:1038D0004900E2440B42F9D050465DE610330093B4
:1038E000C8E68910023B8B4071680B43736068E740
:1038F000009B38004B441B055B421B0D19009B4687
:1039000000F09CF8431C00D0F3E600239B46F5E64C
:10391000542A2AD81A0B11006F326E31D20039E7BF
:10392000AA235B0098422AD8DD3B9846E80B8044E6
:103930007830C100DDE553465B68009A9C465346EB
:1039400062445A60AFE6090500D0ACE6009AB4685C
:10395000424401310A436260F4E65B464A461A601B
:10396000ACE64C46EEE641608EE7AA2149008A4269
:1039700024D8DA0B110078327731D2000AE71A4BDB
:10398000984224D87C239846A80C80447D30C100FE
:10399000AFE5009A019B94464A46083B63449B1A54
:1039A000009300239B46A9E621003800083100F06F
:1039B00019FA5346B4685B686268C3E60A498A42EA
:1039C0000BD89A0C11007D327C31D200E2E6FE2148
:1039D0007E2389007F2098468BE5FE227E2192007F
:1039E000D8E673686BE7C046540500007047C046D0
:1039F0007047C0460022034B1B68A83318605A600A
:103A00007047C046A8110020094B10B51C68094A30
:103A1000A83420686168084BFEF796FA012200235B
:103A200080185941206061604800400810BDC046C0
:103A3000A81100202D7F954C2DF45158002370B50E
:103A4000064C050008002360FDF7D8FD431C00D09C
:103A500070BD2368002BFBD02B60F9E7281E0020E7
:103A600010B580210400FFF7FBFCB7239B00E0505A
:103A7000002807D002000023803208C09042FCD109
:103A8000002010BD01204042FBE7C046B7239B0049
:103A9000C25810B50023002A01D0180010BDFFF74E
:103AA000DFFF0300F9E7C046F8B505000C0016007B
:103AB0001F2909D8B727BF00C359002B09D0A4007C
:103AC0001B1918681E60F8BD1623036001204042D0
:103AD000F9E7FFF7C5FF002801D1EB59EFE7012017
:103AE0004042F0E770B505000C001F2922D8B7232B
:103AF0009B00C358002B0ED08A009B181A68002A1E
:103B000009D0012A14D0511C0ED0002120001960C8
:103B10009047002070BD280000F07EF822000100D0
:103B2000280000F065F8F5E7162303600120F1E7AF
:103B30000020EFE71623036001204042EAE7C04679
:103B400070B505000C001F291FD8B726B600835991
:103B5000002B10D0A2009B181A68002A09D0511C13
:103B600011D0012A0DD000212000196090470020BB
:103B700070BD0120FCE7FFF773FF002805D1AB59AA
:103B8000E8E70320F4E70220F2E701204042EFE7F4
:103B900010B5034B01001868FFF7A4FF10BDC04625
:103BA000A811002010B5044B0A001B680100180082
:103BB000FFF77AFF10BDC046A8110020B722064BC0
:103BC00092001B6810B59A580020002A00D010BD42
:103BD0001800FFF745FFFAE7A811002010B5034BC6
:103BE00001001868FFF7ACFF10BDC046A811002007
:103BF000002370B5074C050008001100236000F099
:103C000003FA431C00D070BD2368002BFBD02B604F
:103C1000F9E7C046281E002010B500F0E5F910BDF8
:103C2000024670B50A4392072AD11E4DEE0104C820
:103C300008C9541B9443344017D0D0B2D9B2401AAB
:103C40002106014310D190B299B2401A21040143D8
:103C50000AD110021902000A090A401A210201437E
:103C600002D1100E190E401A70BD9A42DFD010BA60
:103C700019BA884201D9012070BD0020C04370BD2F
:103C800002780B7801300131002A09D09A4207D11D
:103C900002780B7801300131002A01D09A42EFD02E
:103CA000D01A70BD0101010110B5830727D0037838
:103CB000002B26D00300032102E01A78002A1CD032
:103CC00001330B42F9D119680F4A104C8A188A4304
:103CD00022420FD1043319680B4A8A188A432242C0
:103CE00008D104331968084A8A188A432242F1D05D
:103CF00000E001331A78002AFBD1181A10BD030026
:103D0000E1E70020FAE7C046FFFEFEFE80808080EB
:103D100010B50B4B84B0040000221868694600F00F
:103D20004FF9002807DB00980199002C01D0206092
:103D3000616004B010BD01204042C117F5E7C046E4
:103D4000A8110020F8B50C000600FFF74FFE204F29
:103D5000BB685D6803239D431E4B2C1B9C4664443B
:103D6000240B1D4B013C24039C4207DD0021300045
:103D7000FFF764FEBB685B19984204D03000FFF780
:103D800037FE0020F8BD61423000FFF757FE431CAC
:103D90000DD00122BB682D1B15435D600F4B300019
:103DA0001A68141B1C60FFF723FE0120EAE70021BC
:103DB0003000FFF743FEBA68831A0F2BDEDD084997
:103DC0000968401A0549086001210B435360D5E793
:103DD000E0150020EF0F0000FF0F0000281B00205F
:103DE000D8150020F0B5D6464F4646460500C0B56A
:103DF0000C1E5CD0FFF7FAFD210008394F68012442
:103E00003B000322A343C81846689643B146664E5A
:103E1000B268824200D175E04A46426082189446F8
:103E20003C4229D10F68C91B8A68DB19904662465B
:103E30005768082294462740B444BA46E04556D015
:103E4000CA68944642466746D760624647469760CE
:103E50005246002A13D101224B44CF18BC46846835
:103E6000524F1A43BC4200D17AE0C068E0608460DF
:103E70004A606246136005E057682742EBD01C4356
:103E80004C6003604A4A934216D8DB08FF3A981008
:103E9000FF3A82407068DB00024372609E19B3688B
:103EA000CE608B60B160D9602800FFF7A1FD1CBC1B
:103EB00090469946A246F0BD5C0A042C3AD89C096B
:103EC000200039343830E4003419083CA268032754
:103ED00094423ED05068B843984202D992689442C6
:103EE000F8D1D468CC608A60A160D160DCE7002F93
:103EF00055D1C2684B4480681C43C26090604C60DE
:103F0000CB50D1E74B443C4206D10A68891A8868F5
:103F10009B18CA68C260906001221A434A60254A11
:103F2000B16012689A42BFD8234B28001968FFF786
:103F300009FFB9E7142C07D9542C19D81C0B200001
:103F40006F346E30E400BFE720005C345B30E40087
:103F5000BAE7012380108340706803437360C1E7B0
:103F6000E160A1604A606246CC608C6013609BE7B0
:103F7000AA204000844205D8DC0B2000783477303A
:103F8000E400A1E70D48844205D89C0C20007D3454
:103F90007C30E40098E7FE247E20A40094E71C43D4
:103FA0004C60036080E7C046E0150020E815002063
:103FB000FF010000DC150020241B00205405000038
:103FC000002370B5074C050008001100236000F0C5
:103FD00013F8431C00D070BD2368002BFBD02B606E
:103FE000F9E7C046281E002058220120014B40421C
:103FF0001A607047281E002058220120014B4042C1
:104000001A607047281E002058220120014B4042B0
:104010001A607047281E0020F8B5C0460000000056
:1040200001B40248844601BC604700BF9F100020D5
:1040300001B40248844601BC604700BF550100201E
:1040400001B40248844601BC604700BF7D050020E2
:1040500001B40248844601BC604700BF4D100020F7
:1040600001B40248844601BC604700BF210500201E
:1040700001B40248844601BC604700BF991000208B
:1040800001B40248844601BC604700BF7D010020A6
:1040900001B40248844601BC604700BF490C0020BF
:1040A00001B40248844601BC604700BF0D010020F6
:1040B00001B40248844601BC604700BF1D050020D2
:1040C00001B40248844601BC604700BF791000205B
:1040D00001B40248844601BC604700BF310500209E
:1040E00001B40248844601BC604700BF790C00203F
:1040F00001B40248844601BC604700BF190C00208F
:1041000001B40248844601BC604700BFC1000020E2
:1041100001B40248844601BC604700BF85100020FE
:10412000312E2054686520736563726574206F6654
:104130002067657474696E672061686561642069D1
:10414000732067657474696E672073746172746537
:10415000642E0000322E204F6E6C792073757272BF
:104160006F756E6420796F757273656C6620776900
:1041700074682070656F706C652077686F20776950
:104180006C6C206C69667420796F7520686967684B
:1041900065722E00332E204E6F206F6E652069737E
:1041A000207065726665637420E280932074686194
:1041B00074E2809973207768792070656E63696C0A
:1041C00073206861766520657261736572732E0075
:1041D000342E2046616C6C20736576656E207469A0
:1041E0006D65732C207374616E6420757020656931
:1041F0006768742E00000000352E20596F7520610D
:104200006C776179732070617373206661696C7576
:104210007265206F6E207468652077617920746FF5
:1042200020737563636573732E000000362E20546F
:104230006865206F6E6C79206D616E2077686F20E5
:104240006E65766572206D616B65732061206D69A6
:104250007374616B6520697320746865206D616E8D
:104260002077686F206E6576657220646F657320B5
:10427000616E797468696E672E372E20446F2077DF
:1042800068617420796F752063616E2C2077697482
:1042900068207768617420796F7520686176652C75
:1042A00020776865726520796F75206172652E00D0
:1042B000382E20486176652061206865617274201F
:1042C00074686174206E65766572206861726465D9
:1042D0006E732C20616E6420612074656D70657250
:1042E0002074686174206E657665722074697265E9
:1042F0007320616E64206120746F75636820746838
:104300006174206E657665722068757274732E0014
:10431000392E2057652067726F7720677265617448
:1043200020627920647265616D732E0031302E2019
:104330004974206973206E6F7420776861742068F7
:10434000617070656E7320746F20796F752C2062B8
:10435000757420686F7720796F752072656163745A
:1043600020746F2069742074686174206D617474A6
:104370006572732E0000000031312E204E6F206FC9
:104380006E652063616E206D616B6520796F7520AD
:104390006665656C20696E666572696F7220776903
:1043A00074686F757420796F757220636F6E7365B2
:1043B0006E742E00204100105441001094410010F2
:1043C000D0410010F84100102C420010B042001003
:1043D000104300102C4300107843001048617264B1
:1043E0007761726520616C61726D20256420616C5B
:1043F000726561647920636C61696D6564000000B9
:104400000A2A2A2A2050414E4943202A2A2A0A00F1
:104410000A00000048617264206173736572740061
:104420004F7574206F66206D656D6F7279000000A6
:1044300052656C6561736500626F6F74325F7732CD
:104440003571303830000000312E312E320000003E
:104450007069636F000000006C63645F6932635FC2
:104460006370700041707220323820323032310077
:1044700006005250BBFF3CB650440010060052509C
:10448000E182887F3844001006005250D3F0754214
:10449000304400100D0A000018450010A44400101C
:1044A000F04500104E395F5F676E755F6378783254
:1044B000307265637572736976655F696E69745F82
:1044C0006572726F72450000000000009844001091
:1044D000CD230010E5230010C92700101845001057
:1044E000E8440010544500104E31305F5F63787827
:1044F000616269763132305F5F73695F636C6173EB
:10450000735F747970655F696E666F4500000000C7
:1045100000000000DC4400101124001029240010C9
:10452000452500104525001059260010792500105A
:104530001D25001081240010492400108C45001016
:1045400044450010537439747970655F696E666F05
:104550000000000018450010604500103C450010A8
:104560004E31305F5F637878616269763131375FF1
:104570005F636C6173735F747970655F696E666F9A
:10458000450000000000000054450010C525001043
:10459000DD25001045250010452500105926001086
:1045A000792500103D260010FD250010B1250010D2
:1045B0007374643A3A657863657074696F6E00006D
:1045C0007374643A3A6261645F65786365707469B4
:1045D0006F6E00008C450010F84500108C450010EF
:1045E00018460010184500103C460010F045001019
:1045F0008C450010504600104E31305F5F63787874
:10460000616269763131355F5F666F726365645FE1
:10461000756E77696E6445004E31305F5F63787800
:10462000616269763131395F5F666F726569676EA5
:104630005F657863657074696F6E450053743133DC
:104640006261645F657863657074696F6E00000015
:10465000537439657863657074696F6E000000008B
:1046600000000000E4450010C5270010D927001005
:10467000D1270010B62D00106A2E00101A2E00103F
:10468000B62D0010002E00109C2E00109C2E001045
:104690009C2E00109C2E0010362E0010262E00108E
:0846A000B62D0010002E0010E1
:1046A80080030181B0B0AB1000000000D1E8FF7FAB
:1046B800B0B0AA00FF1019010C020608010C041082
:1046C800051E08000001007F00007D0000000000BA
:1046D8000000000080010181B0B0AB1000000000B4
:1046E8009DE8FF7FF0800401B0B0B0ABFF10190166
:1046F8000F480A520196014AE60100EE0104000043
:10470800010000000000000075E8FF7FB0B0AA00BB
:10471800FFFF0100F0800181B0AB08B1000000008C
:104728005DE8FF7FF0801201B0B0B0ABFF10190157
:104738001028B2070000FC07049E0901C4085A00AB
:10474800000100000000000074B20181B0AB3080AD
:104758000000000080080181B0B0ABF0000000004C
:104768003F020181B0AB308000000000800601816B
:08477800B0B0ABF0000000003E
:104780000CDCFF7FB0B0A8803CDCFF7F01000000A4
:10479000B8DCFF7FB0AB0280E8DCFF7F0CFFFF7F5F
:1047A0007CDDFF7FAB08B18098DDFF7F010000005A
:1047B000C8DDFF7FB0A90480F8DDFF7F01000000A5
:1047C00098DEFF7FAB08B180B4DEFF7F0100000000
:1047D00018E0FF7FE0FEFF7F38E0FF7F0100000070
:1047E00040E0FF7FB0B0A88050E0FF7F01000000F4
:1047F00060E0FF7FB0B0A8808CE0FF7F0100000088
:10480000D0E0FF7FB0B0AA80FCE0FF7FB0B0A8800E
:1048100064E1FF7F0100000068E1FF7FC0FEFF7FD1
:1048200030E2FF7F0100000054E3FF7FBCFEFF7F0A
:104830004CE4FF7FDCFEFF7FB8E4FF7FB0B0A880D0
:1048400040E5FF7F0100000048E5FF7FD0FEFF7FCD
:1048500054E6FF7FB0B0A88094E6FF7FAB08B1803C
:1048600024E7FF7FC4FEFF7FC0EBFF7F0100000055
:10487000C4B9FF0FB0A9028058BAFF0FB0B0A8802A
:10488000ACBAFF0F01000000B8BAFF0FB0B0AA80A9
:10489000ECBAFF0FBCFEFF7FB4BBFF0F01000000AE
:1048A000B0BBFF0FAA3F3980FCBBFF0FB0B0A880A0
:1048B00008BCFF0FB0B0AA8048BCFF0FB0B0A88002
:1048C0005CBCFF0F0100000058BCFF0FB0B0A88017
:1048D00060BCFF0F01000000F0BCFF0FAA0FB28008
:1048E00058BDFF0F78FEFF7F3CC0FF0FB0B0A8801F
:1048F00058C0FF0F74FEFF7FCCC2FF0F0100000005
:104900003CC4FF0F008404804CC4FF0FB0B0A880EB
:104910004CC4FF0F60FEFF7F34C7FF0F008404808C
:1049200058C7FF0FB0B0A88070C7FF0F010000008C
:10493000E8100020B4020010A80200109C02001031
:1049400070440010900200107C4400108844001055
:1049500010B502680024EFF3108172B61368002BC3
:10496000FCD0BFF35F8F03797F2B0BD80368BFF3B5
:104970005F8F1C6081F3108820BF0268EFF3108105
:1049800072B6EBE7D0231B061B6803710368BFF305
:104990005F8F00221A6081F3108810BD030010B5EC
:1049A0000068EFF3108472B60268002AFCD0BFF3EF
:1049B0005F8F04229A56002A0BDB00290FD00020BB
:1049C0000A601B68BFF35F8F00221A6084F31088AF
:1049D00010BDD0221206126801201A71F1E70020E2
:1049E000EFE7C0460268EFF3108172B61368002B40
:1049F000FCD0BFF35F8FFF23037140BF0368BFF399
:104A00005F8F00221A6081F3108870477047C0469C
:104A100003685A0004D5802212061343C018704759
:104A20005B005B08FAE7C046F8B557464546DE46E8
:104A30004E469046E0B50700002924D04B1E9A460A
:104A4000994600239B465B464B44DC0FE4186410F8
:104A5000E5007E193000FFF7DBFFA2450CD0404592
:104A60000CD8280008303818FFF7D2FF013840452D
:104A70000AD2631C9B46E6E7404505D9A34502D010
:104A8000631E9946DFE7002630003CBC90469946FD
:104A9000A246AB46F8BDC0460300012805D0022857
:104AA00007D00020002B02D070470348FCE70348E2
:104AB000FAE70348F8E7C04631090020250900203D
:104AC0003D09002030B5234B050083B08C1E002B20
:104AD00026D0200001A900E000BF00281CD00199C9
:104AE0002200FFF7A1FF041E16D0FFF791FF6368B5
:104AF000A864012B2AD0201D002B23DBFFF788FFA1
:104B00000023E8642B650368002B0FDBFFF780FFB1
:104B10002861002003B030BD002309202B61F9E794
:104B20000D480E49091AC9100191D9E71801000F63
:104B3000FFF7B2FF2861431E984108234042984383
:104B40000930E7E70123E8642B65DCE70023052053
:104B50002B61DFE7000000008047001030490010A3
:104B6000036810B50400DA0705D49B070AD548305E
:104B700000F08AFC23685A070AD51A070FD5DB060E
:104B800015D510BD483000F07BFC23685A07F4D4DB
:104B90002000D03000F07CFC23681A07EFD42000FE
:104BA0005130FF3000F078FC2368DB06E9D42000A8
:104BB000D130FF3000F074FCE3E7C046030000682A
:104BC000002800D0C0187047092070477047C046C1
:104BD00070B504000D002000296CFFF773FF00285A
:104BE00011D12B6C2A0063612100012023699847B1
:104BF0000828F0D0072806D10020296CFFF7E6FF2F
:104C0000281D00F027FC00F09FFEC046F0B5CE4600
:104C1000474680B5C368304C9846A5448369040074
:104C200016000431402205A8994600F085FE0023B5
:104C3000049325E0F022149B5200636104A97CA830
:104C4000039300F079FE2100280023697CAA98478D
:104C50008A9B0500039315934B46019304AB009385
:104C60002200230031000120C047002822D1F02279
:104C70007CA9520004A800F05FFE0026082D22D176
:104C8000149B200019000393FFF71CFF093607004F
:104C9000F5B20028CED0129B1021039315934B46FA
:104CA000019304AB00932200230001202943C04755
:104CB000002800D009273800F5239B009D440CBC38
:104CC00090469946F0BD072DF4D130001499FFF7B6
:104CD0007DFF05A800F0BEFB2CFCFFFF406C704779
:104CE00070B5CB6BFAB00B6405000E0040220431A6
:104CF00003A800F021FE01235B42029306E0290095
:104D00002B6902AA9847040008280AD1129B2800A0
:104D100019000193FFF7D6FE0028F0D009207AB0E1
:104D200070BD02A8FFF71CFF062CF7D13100280048
:104D3000FFF74EFF10B58261DA6BC1601A6419008B
:104D40000022FFF763FF10BD436970B50B64C368B1
:104D500004000D00002B13D10A002369010002207A
:104D60009847072805D008280FD129002000FFF711
:104D70002FFF0020296CFFF729FF281D00F06AFB98
:104D80000122FFF743FF00F0DFFD00F0DDFDC0462C
:104D9000C36810B5002B05D0CB6B00220B64FFF766
:104DA00035FF10BDFFF79CFFFBE7C0467047C046CC
:104DB0008368010010B5002B01D00120984710BD79
:104DC000012915D00AD8002B10D10F2A0ED8920035
:104DD00082185268009B00201A6006E00120033907
:104DE000C9B2884280414042013070470220FCE74E
:104DF0000120FAE700B585B003AB0A00009300215B
:104E00000023FFF7DDFF039805B000BD012915D091
:104E10000AD8002B10D10F2A0ED8009B92001B68D5
:104E200082185360002006E001200339C9B288428D
:104E300080414042013070470220FCE70120FAE740
:104E400000B585B003AB039200930A000023002154
:104E5000FFF7DCFF05B000BD70B51A4CD36BA5445D
:104E6000136405000C0019A8111D402200F064FD18
:104E700001235B42189314E00C2118A802AAFFF743
:104E8000DFFF210018A8A847002812D1069B18AA06
:104E900002A9083001939847060005280AD009287E
:104EA00007D0289B02A819000193FFF70BFE0028EA
:104EB000E2D0092618A8FFF753FE300090239B008C
:104EC0009D4470BDC0FDFFFFF0B5574692460322DA
:104ED00045464E46DE4699461300E0B58846CD6C01
:104EE000494689B00340009308CD0695002900D1BA
:104EF00080E01A0C1B040593022304A90B73FD33F5
:104F000013409B004A73ED18009B022B01D14346CE
:104F10009D6B43461B6DDB070FD5504605A900F07E
:104F200065FB002801D1082000E0092009B03CBC45
:104F300090469946A246AB46F0BD2F68002FECD0B4
:104F400008230340029300230193013354469B46F8
:104F50004646BA464B46022B49D02B886F889A4664
:104F600004355B4638009843B36C0F219846804463
:104F70002000FFF73FFF0023804506D853465A46DE
:104F80009343434498429B415B4202227F00174077
:104F9000594652460A401743012F30D0022F4CD0B9
:104FA000002FC2D1009A002A02D0002B00D09BE033
:104FB00004352B689A46002BCCD1200005A9A246C7
:104FC00000F014FB0028B0D1019B002BABD00F21C7
:104FD0005046FFF70FFF0E2102005046FFF730FF4B
:104FE00050460F21724AFFF72BFF07209EE76F689C
:104FF0000835B6E71B02059304AB9A8184E7009A53
:10500000002A49D1002B16D02B68DF0F6B689A1C41
:1050100000D18AE7320058320492013300D1B6E061
:10502000281DFFF7CBFD3A00010004AB300000F073
:1050300093FC00286CD10835BBE72A68009957001B
:105040007F0800290DD1002B04D0029B002B72D0C9
:10505000002F3CD0002A00DA04350137BF00ED19DB
:10506000A7E7336A0D2120009846FFF7C3FE80456D
:1050700001D02A68EEE7B36A9D42FAD10023F362B9
:10508000043333632B1DB76273632B68002B00DA84
:1050900087E001230193E0E70D212000376AFFF745
:1050A000A9FE8742C7D1B36A9D42C4D1B046A24689
:1050B0002800FFF7ADFC0F2102005046FFF7C0FEAD
:1050C000504642460021FFF7BBFE07202EE7B046C0
:1050D000A2460D215046FFF78DFE4346049A186202
:1050E0005A6206209D6221E72800FFF791FC0435F3
:1050F000A246B5630400300000F036FC002800D161
:1051000013E7504622000F21FFF79AFE07200DE714
:10511000A2460D2104005046FFF76CFEB046330056
:105120003062022C39D1049A2C33F2627362434606
:1051300006209D62FAE62B1D9A46002398465833B6
:105140009C4621004A46B4445446A9468A463D003E
:1051500003924746E0460EE0434620000493FFF7E3
:105160002DFD0022010004AB300000F0F5FB0137FB
:105170000434002804D1AF42EED14D46B046A8E732
:105180002F004D46039B544699462A6862E70D213D
:105190002000FFF72FFEB04630624346049A5A6261
:1051A000C5E7781C8000B046A246281881E7C046B3
:1051B0007D2B001010B50023FFF786FE10BDC04602
:1051C00010B50123FFF780FE10BDC04610B50223C5
:1051D000FFF77AFE10BDC046F0B5CE46474680B513
:1051E000050014001E00C3B0032970D04DD800295B
:1051F00000D174E001296CD1130C14049846240CDE
:10520000012E00D1A8E0052E63D11B19202B60D8F8
:1052100042460F2A00D8C0E0A146002C00D0D1E0C1
:10522000AA6B20AF002C2ED0002399464346DB000A
:10523000FF180023E400D158F95004339C42FAD1FE
:105240004B461219002B10D06F464046102800D252
:1052500010204B46D90000231038C0003818D4580D
:10526000C45004339942FAD15218012E00D1CFE034
:105270004346AA630F2B00D8CCE04B46002B02D04C
:10528000684600F005F9002024E0042921D1002B14
:105290001FD1102A1DD8102203681A4200D0A9E09D
:1052A00020AF380000F0FEF800230120AA6B0100B7
:1052B00099400C4202D040CA99007E500133042B21
:1052C000F5D13800AA6300F0EBF8002002E0032BD0
:1052D0001FD0022043B00CBC90469946F0BD002B75
:1052E000F7D101218846291D00238C461004AA6BA2
:1052F000000C41469940084203D0664680CA990096
:1053000077500133102BF4D10020A304E2D4AA6318
:10531000E0E71404160C240C3319102BD9D80822FA
:1053200003681A426DD120AF380000F0B7F8F600DC
:10533000AB6B002C0AD0F61AE400321F1C19BA1805
:105340001900096804339950A342F9D13800AB63BE
:1053500000F0A2F80020BDE71B19102BB9D8434676
:105360000F2BB6D82B681E4206D003222800934389
:105370002B60483000F086F820AF380000F082F84B
:105380000023AA6B9946002C00D04FE70432380066
:10539000AA6300F075F800209CE7102B45D9102275
:1053A00052429146994401222B681A4207D09343F6
:1053B0000222280013432B60483000F067F84B4668
:1053C000002B35D004222B681A4227D143460F2BDD
:1053D00003D820AF380000F059F86F46380000F0CD
:1053E00059F810244346AA6BE41A002C00DC2CE781
:1053F00020AF1BE793430360D130FF3000F052F839
:105400004EE7934303605130FF3000F047F88AE7DE
:1054100020AFBBE720A800F037F82EE72800934321
:105420002B60D03000F036F8D0E700239946BAE779
:1054300043460F2B00D9F3E620AF380000F026F8E2
:10544000AA6B002C00D0EFE6380000F01DF8002019
:1054500040E7C046011C343138C9043B9C461D60FE
:10546000A646011C20313CC990469946A246AB464F
:10547000011C0831FCC941680068E54600BDC04612
:105480007047C0467047C0467047C0467047C04628
:105490007047C0467047C0467047C0467047C04618
:1054A0007047C0467047C04601B401A801B585B039
:1054B000FFB408A841464A4653465C4665463EC08E
:1054C00001A83EC80F98009000230CB401A9FFF773
:1054D00007FC109B12B0184701B401A801B585B0B4
:1054E000FFB408A841464A4653465C4665463EC05E
:1054F00001A83EC80F98009000230CB401A9FFF743
:1055000023FC109B12B0184701B401A801B585B067
:10551000FFB408A841464A4653465C4665463EC02D
:1055200001A83EC80F98009000230CB401A9FFF712
:105530002FFC109B12B0184701B401A801B585B02B
:10554000FFB408A841464A4653465C4665463EC0FD
:1055500001A83EC80F98009000230CB401ABFFF7E0
:10556000E9FB109B12B0184701B401A801B585B042
:10557000FFB408A841464A4653465C4665463EC0CD
:1055800001A83EC80F98009000230CB401AAFFF7B1
:1055900063FC109B12B01847027A0300002A0BD15B
:1055A000427A002A0FD0013A42724268111D4160CE
:1055B00003211268017202E0013A02720268100EC1
:1055C00012021A607047B020FCE7C04600B585B0F3
:1055D00003AB00930C2200230021FFF7F1FB03989B
:1055E00005B000BD10B5FFF7F1FF10BDF0B54E4698
:1055F00045465746DE460023E0B587B003930F3398
:105600009846083B994680231B0305000E009A46E6
:105610003000FFF7C1FF0400B02800D1C1E003064D
:1056200029D5030042469343DBB2802B53D0902B05
:105630003DD0A02B6BD0B02B00D17EE0C02B00D191
:1056400095E003004A469343DBB2D02B0AD1534680
:10565000024001321A43052301212800FFF7BCFD57
:105660000028D5D00924200007B03CBC90469946BC
:10567000A246AB46F0BDFF23820013401F1D05ABC1
:105680009B4600930D22002300212800FFF798FB82
:10569000630639D4059B9C4667445B460597009397
:1056A00000230D2200212800FFF7B0FBB0E7833B69
:1056B00003400D2BD6D005AF024000230021280067
:1056C0000097FFF77DFB00230D22002128000097A3
:1056D000FFF79CFB9CE704023000FFF75DFF80278B
:1056E00020433F02B842BDD004010005020C002354
:1056F00000212800FFF770FD0028B3D13C4200D103
:1057000086E70123039383E7059BDF1BC5E7FF23A0
:105710004A461B011900824311410A001A4003073F
:1057200002D58023DB011A43002300212800FFF764
:1057300053FD002800D16BE794E7B12845D0B2288B
:1057400000D19FE0B32855D0FC230340B42B00D1F7
:1057500088E74A465346024001321A430121012399
:105760002800FFF739FD002800D151E77AE7C62865
:105770004BD0C7285DD003004A469343DBB2C02B11
:105780006CD0C82871D0C92800D06BE73000FFF773
:1057900003FFF02302031B03134042460240013281
:1057A00058E7039B0024002B00D05CE705AE0E22D7
:1057B000002128000096FFF703FB00230F220021A1
:1057C00028000096FFF722FB4DE73000FFF7E4FECC
:1057D000021E00D146E7030041468B43DBB2002B9B
:1057E00000D03FE700212800FFF7F6FC002800D199
:1057F0000EE737E73000FFF7CFFEF02302031B036D
:105800001340424602400132A7E73000FFF7C4FED2
:10581000F02302031B0313404246024001321A43A5
:10582000032303212800FFF7D7FC002800D1EFE66F
:1058300018E73000FFF7B0FE021E00D112E70300A8
:1058400041468B43DBB2002B00D00BE7042128003C
:10585000FFF7C2FC002800D1DAE603E74346A022A6
:105860001C40013412032243DAE73000FFF794FEB4
:10587000434602009A43D2B210321840120301305C
:105880000243E8E605AB00939B460D22002300216E
:105890002800FFF795FA3000FFF77EFE03061AD5C1
:1058A0007F27B03C059B3840A0409C466044059053
:1058B00030000734FFF770FE0306F3D481217F2305
:1058C00089008C460340A340059A62449B180593C7
:1058D0005B460093E4E60224F0E7C046030000B50F
:1058E000DB6C85B05A680800120201921A00083277
:1058F0006946029203220A73DB794B7301A9FFF711
:1059000075FE05B000BDC04610B5FFF76BFE806C9C
:1059100010BDC04610B5FFF765FEC36CD8790230E4
:105920008000181810BDC04610B500F00DF810B575
:10593000FFF7FAFF0000000001B40248844601BCF2
:10594000604700BF5520001001B40248844601BCE6
:10595000604700BF2934001001B40248844601BCEE
:10596000604700BF8129001001B40248844601BC91
:10597000604700BF512A001008005250000000008C
:10598000100000000C11002000000000081A002088
:10599000B01B00200000000000000000C01B002021
:1059A00000000000000000001000000000000000E7
:1059B00000000100000000000000000000000200E4
:1059C00000000000000000000000030000000000D4
:1059D000000000000000FF000000000000B5486863
:1059E00001318E460047704609380149884700BD9D
:1059F000291C001000000000000000000000000052
:105A0000503300004C330000543300005233000088
:105A10004D5300004D430000533400004334000058
:105A2000004004400000000000800440000000002E
:105A30001128001029340010B011002000000000CF
:105A4000000000009C140020041500206C150020AC
:105A50000000000000000000000000000000000046
:105A60000000000000000000000000000000000036
:105A70000000000000000000000000000000000026
:105A80000000000000000000000000000000000016
:105A90000000000000000000000000000000000006
:105AA00000000000000000000000000000000000F6
:105AB00000000000000000000000000000000000E6
:105AC00000000000000000000000000000000000D6
