:020000041000EA
:1000000000B5324B212058609868022188439860DF
:10001000D860186158612E4B002199600221596106
:100020000121F02299502B49196001219960352056
:1000300000F044F80222904214D00621196600F024
:1000400034F8196E01211966002018661A6600F04E
:100050002CF8196E196E196E052000F02FF8012189
:100060000842F9D1002199601B49196000215960AB
:100070001A491B48016001219960EB211966A021F2
:10008000196600F012F800219960164914480160C1
:100090000121996001BC002800D000471248134993
:1000A000086003C880F30888084703B5996A0420EC
:1000B0000142FBD001200142F8D103BD02B5186610
:1000C0001866FFF7F2FF186E186E02BD00000240BE
:1000D000000000180000070000035F00212200005C
:1000E000F4000018222000A00001001008ED00E03C
:1000F00000000000000000000000000074B24E7A12
:1001000000200420F7010010C3010010C5010010F9
:10011000C1010010C1010010C1010010C101001097
:10012000C1010010C1010010C1010010C701001081
:10013000C1010010C1010010C9010010CB01001065
:10014000CD010010CD010010CD010010CD01001037
:10015000CD010010CD010010CD010010CD01001027
:10016000CD010010CD010010CD010010CD01001017
:10017000CD010010CD010010CD010010CD01001007
:10018000CD010010CD010010CD010010CD010010F7
:10019000CD010010CD010010CD010010CD010010E7
:1001A000CD010010CD010010CD010010CD010010D7
:1001B000CD010010CD010010CD010010CD010010C7
:1001C00000BE00BE00BE00BE00BE00BE00F04BF888
:1001D000103800BEF2EB8871E8F1001014F2001044
:1001E0003402001090A31AE700202149086006C8D5
:1001F00081F3088810471F48006800282FD10DA4FC
:100200000ECC002902D000F012F8F9E71A491B4A77
:10021000002000E001C19142FCD1194988471949E9
:1002200088471949884700BEFDE701C901C29A42C3
:10023000FBD3704714F20010C0000020601D0020A6
:10024000B40E01100000042000000420B40E0110C0
:1002500000100420001004200000000070470B482C
:1002600004F0E2F80047EFF30580C0B270470000E9
:1002700008ED00E0000000D0601D0020A82D002047
:10028000F9280010210A0010012A0010575600001A
:1002900006005250ABB3605348DE001006005250C7
:1002A000861C030258DE0010060052505422A29D04
:1002B00068DE001005005250DE65F468B40E0110CF
:1002C000F8B5C0460448054B10B5834203D0044B33
:1002D000002B00D0984710BD601D0020601D00203D
:1002E0000000000006480749091A8B10C90FC918F9
:1002F00010B5491003D0044B002B00D0984710BD17
:10030000601D0020601D00200000000010B5074C9B
:100310002378002B09D1FFF7D5FF054B002B02D026
:10032000044800E000BF0123237010BD681E0020B8
:100330000000000098CE0010054B10B5002B03D034
:100340000449054800E000BFFFF7CCFF10BDC046E0
:10035000000000006C1E002098CE001070B586B022
:1003600004000D00012806D0002C02D1284B9D422C
:1003700031D006B070BD264B9942F5D1254B0122F4
:100380001A70254A5A6076221A726A3A5A720D21F8
:100390009972002602960191009210230A3A1A31AE
:1003A0001E4800F003FF1E4B1A0008321A605E6000
:1003B0001E721C4B1A0008321A605E601E7205AA7B
:1003C00019491A4808F0E2FB194B1A0008321A6062
:1003D0005E601E72C8E7164B18680833984201D059
:1003E00005F07AF9114B18680833984201D005F0EE
:1003F00073F90C4B18680833984201D005F06CF97A
:10040000074B186808339842B3D005F065F9B0E798
:10041000FFFF0000DC22002070130020382A00209B
:10042000B81E0020E81E002098CE0010D01E00202C
:10043000001F002000B583B0094B019305230093F2
:1004400005220321074800F0FFFD002806D10648D9
:1004500005F044FAC82001F083FEF8E703B000BDC0
:100460000000FA43DC2200209CCE0010F0B5C64606
:1004700000B5D024240680239B04984663610B4F6B
:1004800001252B003A6893406361FA26760030001C
:1004900001F066FE4346A3613B689D40A5613000C4
:1004A00001F05EFE04BC9046F0BDC046581200202C
:1004B000F0B583B006000F0014001D0009F056FCD3
:1004C0000368009309F052FC0023036001A9200097
:1004D000B047061C019BA34211D009F047FC0368FA
:1004E000222B0FD0002D02D0019B1C1B2C6009F089
:1004F0003DFC0368002B08D0301C03B0F0BD380071
:1005000008F01CFA380008F049FA09F02FFC009BAB
:100510000360F1E7F8B5314805F0E0F9304C2168A7
:10052000304805F00BFA304F3968304805F006FACC
:1005300022682F4E2F4C002331002000FFF7B8FF18
:10054000051C3A68002331002000FFF7B1FF061CAC
:1005500001242949281C04F061FF002800D100244F
:1005600001272649301C04F059FF002800D100273C
:100570003C43E4B2002C15D12149281C04F040FF73
:1005800000281BD1FA20800001F0EAFD00243C2C59
:1005900020DC00220021002000F06EFF00F062FF4E
:1005A0000134F4E700220021FF2000F065FF00F095
:1005B00059FFFA20400001F0D3FDE3E7FF220021BC
:1005C000002000F059FF00F04DFFFA20400001F03C
:1005D000C7FDD7E7642001F0C3FDF8BDB4CE00101D
:1005E000B81E0020D0CE0010D01E0020E4CE001097
:1005F000F0CE0010C9B600100000B84100007A44E7
:100600000000A04170B582B005000E1E0DD0941BF5
:1006100001940F2C0ED82868012C14D0002C14D073
:100620002200310005F04AF80FE09142EFD00B486C
:1006300008F06CF9002201A9280008F0C7F9286029
:10064000019BAB60E7E733780370019A6A602B681F
:100650009B1800221A7002B070BDC046F8CE001080
:1006600030B58DB02D4C02220021200000F039FE63
:100670002B49200000F056FE00220121200000F04E
:1006800030FE2849200000F04DFE274801F068FDAB
:10069000200000F020FE00220021200000F021FEBA
:1006A00008AB0693214A911F002306A8FFF7AAFF73
:1006B0001F4B19685A6806A808F03EFA06992000F0
:1006C00000F030FEFA20400001F04AFD0022012136
:1006D000200000F006FE02AD0095164A511F0023CF
:1006E0006846FFF78FFF144B19685A68684608F090
:1006F00023FA0099200000F015FEFA20C00001F056
:100700002FFD0098A84201D004F0E6FF069808AB40
:10071000984201D004F0E0FF0DB030BD382A00202F
:1007200024CF001034CF0010B80B00004ACF0010C7
:10073000B81E002051CF0010D01E002070B596B01A
:1007400000F076FE5B4C22787F231A40227062789C
:1007500013406370A2783F231A40A270E178072209
:100760000A40E27022791340237161791F220A4006
:100770006271A179504805F0E1F8A1786278237898
:100780004E4805F0DBF8E378013B9B004C4A985853
:1007900005F0A4F8A27863784A490DA803F00AFE90
:1007A000A27963792179009147490AA803F002FEF2
:1007B0000DA805F093F80AA805F090F8434D28001D
:1007C00000F089FD00220021280000F08AFD404948
:1007D000280000F0A7FD0DA9280000F0A3FDFA20D5
:1007E000400001F0BDFC00220121280000F079FD4D
:1007F0003849280000F096FD0AA9280000F092FD73
:10080000FA20800001F0ACFCA27963792179A0780C
:1008100064780294019000912F4907A803F0CAFD63
:1008200012AC109407A809F019FF07AB1A1800239F
:1008300007A910A8FFF7E6FE284B18681099A142F7
:1008400020D0264B083398422ED0244B9E68234B51
:100850001960119A05925A60129A9A60002825D060
:100860001090129600231193109A1370109812ABE7
:10087000984201D004F030FF184B186805F02EF8AC
:1008800016B070BD119A002A03D0012A09D004F0D5
:1008900015FF119A114B5A601B689B1800221A70A1
:1008A000E0E70B780370F4E70020D0E712AB109379
:1008B000D8E7C0466412002054CF001068CF001063
:1008C0006C1200207CCF001088CF0010382A002046
:1008D0009CCF0010A4CF0010A8CF0010E81E00206D
:1008E00070B582B005000E1E0DD0941B01940F2C24
:1008F0000ED82868012C14D0002C14D0220031000E
:1009000004F0DCFE0FE09142EFD00B4807F0FEFF51
:10091000002201A9280008F059F82860019BAB606B
:10092000E7E733780370019A6A602B689B1800220E
:100930001A7002B070BDC046F8CE001008B4F0B511
:1009400082B000AF04000D0011001C23FB1804CB83
:10095000C81DC008C0006E46301A85466E467B60D2
:10096000A8473218230008332360002331002000F9
:10097000FFF7B6FF2000BD4602B0F0BC08BC01B0D6
:100980001847000030B58FB0204C200000F08AF9E5
:10099000200000F043F9FE21890504F0EAFC051C63
:1009A000200000F03DF9200000F03CF9281C04F084
:1009B00085FD04000D0002000B00154804F0BEFF89
:1009C00000940195134B3A22134908A8FFF7B6FF8C
:1009D00004AB02930899099A042A00D904228A18C0
:1009E000002302A8FFF70EFE08980AAB984201D038
:1009F00004F072FE02A9094808F006F8029804AB58
:100A0000984201D004F068FE0FB030BDDC22002017
:100A1000C0CF0010D4CF0010DD430010B81E00205E
:100A200070B586B004F096FF192000F05DFD394CDA
:100A3000206800F059FDD0231B06802292045A62E0
:100A400022680126310091405962334804F046FF84
:100A5000FFF7F0FC314800F0A3FC314C3149200095
:100A600007F0A6FD05000621102000F00BFD009602
:100A7000012310220021200007F0B6FD80235B0235
:100A80000293EA1CEB0112031343274A134003931A
:100A9000264B0593264B0493052002F0F1F804F051
:100AA000CEFC244904F06FFC061C04F0EFFC84B279
:100AB000002C2CD0200004F0C2FC011C301C04F0DF
:100AC00058FC8721C90504F063FC04F0DFFCC3B2C5
:100AD0001B02240423430293114C02AB2A00002181
:100AE000200007F0B9FD23680122934313432360DC
:100AF000642001F035FBFFF721FEFFF743FFFFF70E
:100B000009FD0D48FFF7ACFDFFF7B0FCF3E700234C
:100B1000DEE7C04658120020D8CF0010382A002047
:100B200000002050F8CF0010FFFFFF9F0040002082
:100B3000000006400024F44AB81E002010B5024907
:100B40000120FFF70BFC10BDFFFF0000F0B5C6460B
:100B500000B584B004006B4600915A6002AA1900E7
:100B600021C921C2002222606260A260029E5D68EB
:100B7000AD007719A81080229205904219D2002862
:100B80001CD080229205904216D2800004F09CFD79
:100B9000206043199846A360BE4203D02A0031006A
:100BA00009F0C4FB43466360200004B004BC9046D7
:100BB000F0BD034807F0DAFE07F098FE0020E7E7F3
:100BC00008D00010F0B58BB004000D00012806D04D
:100BD000002C02D10E4B9D4212D00BB0F0BD0C4B3D
:100BE0009942F5D169460B4B0A00C1CBC1C2C1CBBA
:100BF000C1C241CB41C208220748FFF7A7FFE7E780
:100C0000054B18680028E8D004F066FDE5E7C0460B
:100C1000FFFF00003CD00010381F0020006B704721
:100C2000406B7047806B7047F0B583B002AF84466D
:100C300016001D0001332A000832D208D20068468F
:100C4000821A954602AA100011700021A94204DA06
:100C50000C000131345D4454F8E76146097A60467E
:100C600040680024009407F0F3FBBD4601B0F0BDDE
:100C700070B584B0040016001D000F226A44117084
:100C8000017A01230093406807F0E2FB217A606853
:100C9000002300932B00320007F0E6FB280004B08D
:100CA00070BD0000F0B5DE4657464E464546E0B5FD
:100CB00087B08046002304930593083304AAF721E4
:100CC000FFF7D6FF04AB1C7824045B781B021C439F
:100CD00004AB9B781C4304ABDB781B0404AA127999
:100CE0001202134304AA5279134304AA92791202FE
:100CF00004A9C9790A439246DD11424691894A0006
:100D0000AA1A40460E25455F5543ED121B125B1A89
:100D10005B431B1342461021525E53439B13ED1855
:100D2000A80040198030001204F08EFB864904F0C0
:100D30002AFB43461863854B9946A94423119B46D9
:100D40002A00EB1782480121494212184B41160034
:100D50001F001000190004F0EFFA05000C004346D4
:100D60001C229A5ED31704F0E7FA009001914346E3
:100D70001A20185EC1170296039732003B0004F058
:100D8000DBFAC30B4F041F4346040099019A7618FF
:100D9000574143461821595E0022CB00B6185F41E7
:100DA000434616229A5ED3172800210004F0C4FAA5
:100DB0000B06040A1C430D1243461420185EC1178B
:100DC000029A039B04F0B8FA030D9C460B0361469C
:100DD0000B430203A4185D41002080210902001981
:100DE000694143465A8A002304F0A6FA4D10CC17F5
:100DF0002B00234356D100234246536343461B78BE
:100E0000002B48D05346990343462A20185E00051C
:100E1000091A43462C20185E4B465843081A802373
:100E2000DB019C466044C3132E22414688564A4645
:100E30005043801228228A5C49464A43D2128021BC
:100E400009028C46624442439212802189038C46F7
:100E5000624441462620085E504380229201944617
:100E6000604480134343D8134043C01124224146B9
:100E70008A5C50430011181A63D4C8235B0598425A
:100E800000DD1800001304F0DFFAEA21890504F000
:100E90007FFA4346986307B03CBC90469946A24609
:100EA000AB46F0BD80235B035A469B1A5910D80706
:100EB000801BB941274A002304F03EFA2A00230090
:100EC00003F034FB04000D0043462220185EC117D6
:100ED000EB04660B1E436F1332003B0004F02CFA48
:100EE00002000B003000390004F026FACB01460E58
:100EF0001E434F1643462020185EC11722002B00C8
:100F000004F01AFA4B03C20C1A43CB14A4197D4106
:100F1000A4185D412B06200A1843291243461E24BB
:100F20001C5FE617250F33012B432201801859411E
:100F300004F0B6FAEE21890504F02AFA4346586314
:100F40005CE7002099E7C0460000C84200D4FEFFDD
:100F5000000CFEFF350C0000F0B5D6464F46464665
:100F6000C0B504008A4691460F1A3F11002F2DDDAF
:100F70004B461D682168281C04F03AFA002819D154
:100F800004342168281C04F033FA002818D1261DE7
:100F90003168281C04F02CFA002813D1331D984620
:100FA0001C007168281C04F023FA00280CD10434BA
:100FB000013FDBE720001CBC90469946A246F0BDED
:100FC0002000F8E73000F6E74046F4E753461B1BE5
:100FD0009B10022B0FD0032B03D0012B15D05046B2
:100FE000E9E74B461968206804F002FA002801D0AE
:100FF0002000E0E704344B461968206804F0F8F953
:10100000002801D02000D6E704344B461968206838
:1010100004F0EEF90028E2D02000CCE730B583B030
:10102000040001914568002301AA29000068FFF728
:1010300093FFA84205D02368C01A8010C0B203B045
:1010400030BD0020FBE70000F0B5CE4600B586B00D
:1010500006000F00140001930CAB1B7899464D4914
:10106000406807F0CBF909203056032100F00AFA56
:10107000092030560022012100F01CFA0A203056C7
:10108000032100F0FFF90A2030560022012100F070
:1010900011FA0F2502AB9C46654401232A00D0219A
:1010A0003000FFF7E5FD2B78602B02D0582B00D0E5
:1010B0006DE0582B41D00F2502AB9C466544B6230A
:1010C0002B70B53B2A00E0213000FFF7ADFD642016
:1010D00001F046F84B462B7001232A00F221300024
:1010E000FFF7A2FD6401019B99000C4364B2274302
:1010F0002F7001232A00F4213000FFF795FD0D9990
:101100002548FFF78BFF400108231843287001236F
:101110002A00F5213000FFF787FD32000C32192339
:1011200088213000FFF7A4FD3478002C08D1012479
:10113000200006B004BC9146F0BD00233370BAE72E
:1011400003AD03232A00E1213000FFF791FD6A7807
:1011500012022B781343F384AA782823F25404ADA7
:10116000243B2A00E4213000FFF782FD2B781B018D
:1011700069780F220A401A437285AB781B01091166
:101180000B43B3850322AA562E23F254D0E7002442
:10119000CEE7C046801A0600381F002010B502496D
:1011A0000120FFF70FFD10BDFFFF0000F0B5CE4698
:1011B000474680B591469C46012787610226C66155
:1011C0000424046208254562102383622022C2623F
:1011D00020320263403242638763C6630764466419
:1011E0008464C464056544658565C36505664466B5
:1011F00001604B46436063468360079BC360089B66
:101200000361099B43610CBC90469946F0BD000008
:1012100000B585B00F236B4419704369012B0AD0C8
:1012200001780023009301330F226A44074807F036
:101230000FF905B000BD01780023009301330F22A0
:101240006A44034807F004F9F3E7C046701300202E
:1012500078130020F8B505000C009626B60000278C
:101260003000390000F050FF64B2696E2143C9B20A
:101270002800FFF7CDFF3000390000F045FF6B6E0E
:101280009C43E1B22800FFF7C3FF3000390000F0B3
:101290003BFFF8BD70B506000F230C009C4364B201
:1012A00052B21443036E5DB22C43E4B209010A4307
:1012B00052B21543EDB22100FFF7AAFF2100300022
:1012C000FFF7C8FF29003000FFF7A2FF2900300018
:1012D000FFF7C0FF70BD10B5017E0022FFF7DAFFF7
:1012E00010BD10B5002906D180321100C9B200220C
:1012F000FFF7D0FF10BD012906D0022907D003292E
:1013000008D080321100F1E7C0321100EEE79432CC
:101310001100EBE7D4321100E8E710B50122FFF726
:10132000B9FF10BD70B505000C002178002904D06C
:1013300001342800FFF7F1FFF7E770BD10B5040096
:1013400000220321FFF7A6FF002203212000FFF760
:10135000A1FF002203212000FFF79CFF00220221B1
:101360002000FFF797FF216AE36B1943C9B20022FF
:101370002000FFF78FFFE16AA36D1943C9B2002275
:101380002000FFF787FF616AA36C1943C9B20022EE
:101390002000FFF77FFF2000FFF79DFF10BD00003A
:1013A00010B504004369012B1FD01C491C4807F0ED
:1013B00025F80321E06800F065F80321206900F0BA
:1013C00061F800220121E06800F074F80022012198
:1013D000206900F06FF8134B1B78BFF35B8FDB07BE
:1013E00008D52000FFF7AAFF10BD0C490E4807F0F2
:1013F00005F8DEE70B4807F083F90028F1D0E36831
:10140000DB01226911030B43520413431A221343D5
:10141000064A5360034807F08FF9E2E7A08601000F
:1014200070130020181F0020781300205C12002089
:1014300030B585B00F226A4400251570074C012392
:1014400000936821200007F003F800950723044A61
:101450006821200007F008F805B030BD70130020A7
:10146000641200200002034B5B68DB03FBD4014BDA
:10147000186170470000205000020904084310431F
:101480007047000010B58300084A944663441C6806
:1014900040226240C02414408022520113431C6049
:1014A000C000034B9C466044416010BD04C0014035
:1014B0000040014080000B4B9C46604400290DD049
:1014C0000823002A0CD004221343026853400C2244
:1014D0001340802252011043036070470023F0E75D
:1014E0000022F1E704C0014010B501238340D0225F
:1014F0001206936293610521FFF7C4FF10BD00003F
:10150000EFF3108072B6034B1B68002BFBD0BFF3C8
:101510005F8F70472C0100D0BFF35F8F024B00221A
:101520001A6080F3108870472C0100D0F8B50500D0
:101530000C001600FFF7E4FFE308EF18ED5C07214D
:1015400021402B00CB40DB0707D401228A40D3B2D5
:101550002B433B70FFF7E0FFF8BD2100300001F0A6
:1015600071FAF0B583B00600019114001F00FFF777
:10157000C7FF0500BC4210D8E208B018B15C0722D2
:1015800022400B00D340DB0701D50134F2E70123F1
:101590009340DBB21943017001E00124644228004A
:1015A000FFF7BAFF002C02DB200003B0F0BD019B67
:1015B000002BF9D0089801F045FA000000231F2BFA
:1015C00008D8054A9A189200BFF35F8F0021116076
:1015D0000133F4E77047C04640000034054A1078F4
:1015E000431CDBB21370172B02D9130010221A70A0
:1015F0007047C0468812002000B583B00100044B3C
:1016000000931F2318220348FFF7ABFF03B000BD70
:1016100080D0001018230020034B1B6802201840C4
:10162000431E9841C0B2704700C0064070B5040028
:101630000D00062001F024FBC000290002F04CFF41
:101640000300C6097F20184001304008002E05D055
:101650000D4B9E4214D83500060000E0012565625E
:10166000A6622C34802080010443002323600620DE
:1016700001F006FB8000A901891902F02DFF70BD61
:101680000026024DEBE7C046FEFF0000FFFF000012
:10169000002909D00A22064B9C4660444342584127
:1016A0004000044BC252704780225200F3E7C0460C
:1016B0000080FCBFDC2A002070B505000C0006206D
:1016C00001F0DEFA002829D0164B9D4227D0802257
:1016D000D203154B1A60154B1A60154B9B6811000D
:1016E0009943FAD100212800FFF7D2FF21002800FA
:1016F000FFF79CFF2C002C34E96A60224A406E21DF
:10170000114080225201224311600A4B2B63802337
:101710009B01234310221A600323AB6470BD802217
:101720001204D6E70080034000E0004000F00040D3
:1017300000C000400103000040BF002000217047AE
:1017400070B505000C00080000F09AFD200000F0C4
:101750007DFE0849200000F0BDFDFFF73FFF064B6E
:101760009C466044800068602C75A400034BE550E3
:1017700070BDC046551A001040000034A82A002051
:1017800010B5002922D003681B7B99421ED8174B45
:101790009C466144090183689C4661440C68496821
:1017A000002A19D003681B7B9A4215D883680F481A
:1017B0008446624412019A1810685368020001209E
:1017C0008B4201D80ED00020C0B210BD084B094A90
:1017D0003921094801F018F9054B064A3921064814
:1017E00001F012F9A242EFD8EDE7C046FFFFFF0F6C
:1017F000E8D00010B8D30010B0D0001010B5002908
:101800001ED0037B99421BD84B005B18033B046836
:10181000A4466344002919D0002A1DD0914221D04A
:10182000002A25D0047BA24222D8046850008018E8
:10183000033820188170197800291FD11A7010BD43
:10184000104B114A6921114801F0DEF8104B114A82
:1018500070310E4801F0D8F80F4B0E4A71210B4839
:1018600001F0D2F80D4B0B4A7221084801F0CCF878
:10187000044B054A6921054801F0C6F841701A7009
:10188000DDE7C0461CD1001078D3001038D100101D
:1018900084D1001084D3001090D100109CD100108E
:1018A00070B506000D001400002914D0002A14D0D1
:1018B000806873689847002806D02200290030000D
:1018C000FFF79CFF280007E02A0021003000FFF707
:1018D00095FF200000E0100070BD0800FCE700004C
:1018E000F0B583B00500009201930AAB1C780BABF6
:1018F0001F78002C26D003685A7B944207D101231D
:10190000002B19D1002C3BD1200003B0F0BD002CDE
:101910000CD01A7B944209D81A6863001B19033B48
:10192000D3189B78002BEBD00123E9E73E4B3F4ACD
:1019300069213F4801F068F83E4B3F4A62213F4829
:1019400001F062F803689C7B002CDBD012D01A7B7C
:1019500094420FD862001219033A19688C46624407
:1019600051789973002900D1D97300239370537073
:101970001370C7E72C4B2D4A69212D4801F044F81C
:10198000002C3AD02B681B7B9C4236D82C4BE3189A
:101990001B01AA6894466344009A1A60019A5A602F
:1019A000089A9A60099ADA602E68002C2BD030D001
:1019B000337B9C422DD863001B19033B326894464D
:1019C000634400229A705A701A70717B22003000B2
:1019D000FFF766FF7073844200D095E7287D009A78
:1019E000019B00F0BFFC061E01D0002F17D00C9BFE
:1019F000002B00D188E71E7086E7124B124A39216E
:101A00000E4801F001F8114B114AA621084800F0D8
:101A1000FBFF054B054A6921054800F0F5FF2868E2
:101A2000210000F0EDFEE2E71CD1001078D3001099
:101A300038D10010B4D10010F0D30010B0D0001095
:101A4000FFFFFF0FE8D00010B8D30010ACD000109B
:101A500098D30010F0B5DE4657464E464546E0B5F1
:101A60008BB00990002308938200B34BD6583700FF
:101A700052E0B24BB24A3D21B24800F0C5FFB24B32
:101A8000B24A3921B24800F0BFFF002901D1002835
:101A900069D10021404600F0A9FEA04219D12A6870
:101AA0006B6806920793AB689846EB689A46434684
:101AB000002B14D0002C18D03B681B7B9C4214D800
:101AC000631EFA68D35C08931B0218433861002038
:101AD00015E0A04BA04A89219D4800F095FF9F4B3F
:101AE0009D4A8D219A4800F08FFF974B9C4A3E21DA
:101AF000974800F089FF00239A46984600207B68AB
:101B0000BFF35F8F00221A6086F310884346002BD4
:101B100032D1002800D107E100F0BEFB02000B1E0D
:101B2000A7DB00200021069007917868EFF310866C
:101B300072B601680029FCD0BFF35F8F3968884610
:101B40004C7B002CD7D09AD0097B8C4297D8854902
:101B500065182D01B9688C46654428686968801A43
:101B60009941002991DD2A686B68099800F0FAFB19
:101B700000239A469846C2E7089B1B0223439946D6
:101B800051461800C04705000E007A68EFF3108B2D
:101B900072B6136859424B41D9B2002BF9D1BFF349
:101BA0005F8F002E26DB002E52DD3B69002B53D0C9
:101BB0004B4572D100F070FB02000B1E73DB01007D
:101BC000180052197341984202D804D1914202D9A7
:101BD00001225242D317002B6BDB0021049101310B
:101BE0000391029451460191414600913800FFF75C
:101BF00077FE49E03B69002BD5D04B451CD1069AB6
:101C0000079B10001900521BB341994202D804D11E
:101C1000904202D901225242D317002B12DB00213D
:101C20000491013103910294514601914146009182
:101C30003800FFF755FE27E04B4B474A9C214448AC
:101C400000F0E2FE3D4B3E4A3D213E4800F0DCFE06
:101C5000002E01D1002DA8D13A68002C45D0537B2D
:101C60009C422CD1012100293FD1D37B002B42D1B2
:101C7000D473002C52D03B681B7B9C424ED8FA6830
:101C8000013C135D0133135500233B617A68BFF3B8
:101C90005F8F13608BF310883EE7334B2E4A9F21F2
:101CA0002B4800F0B1FE254B254A3D21254800F088
:101CB000ABFE224B224A3D21224800F0A5FE002C1B
:101CC0000DD0137B9C420AD863001B19033B10689C
:101CD000844663449B78002BC5D00121C3E7234B86
:101CE000234A6921234800F08FFE234B234AF72122
:101CF000204800F089FE002B0AD0117B8B4207D8C8
:101D00005900CB18033B11688C4663445C70AFE705
:101D1000164B174A6921174800F076FE0A4B104A05
:101D20003E210B4800F070FE0BB03CBC904699463B
:101D3000A246AB46F0BDC046A82A0020DCD1001068
:101D400060D30010F8D10010E8D00010B8D3001014
:101D5000B0D0001040D2001008D4001058D20010AB
:101D6000C4D30010FFFFFF0F64D200101CD100107D
:101D700078D3001038D10010A0D20010A8D30010E2
:101D800010B5084B5B68002B00D010BD054C23003C
:101D9000054A1021206800F049FC03212000FFF7CC
:101DA000CFFCF2E78C1200208117001010B5064B13
:101DB0005B68002B01D0044810BD044B044A592134
:101DC000044800F021FEC0468C120020C4D200104E
:101DD000D8D30010B0D00010F0B5DE4657464E46BE
:101DE0004546E0B58BB0804616001F00149B9A460E
:101DF000159B994616AB1B789B461F2302AA944657
:101E0000634400221A7032E0002809D0424612686A
:101E1000127B904204D8421E4146C9688A5C48E061
:101E2000434B444A3E21444800F0EEFD0798002B06
:101E300075D05B46002B72D04946D04704000D0098
:101E400003000B4300D171E0002946DB00F024FAC7
:101E500006000F1E55DB36196F41B94202D804D176
:101E6000B04202D901267642F717002F4FDB4346D6
:101E70005A68EFF3108472B6136859424B41D9B2D5
:101E80000791002BF8D1BFF35F8F1F3302AA94464E
:101E9000634404930023039302934B4601935346F8
:101EA000009332003B004046FFF71AFD031EABD102
:101EB000020041464968BFF35F8F00250D6084F33F
:101EC0001088002B29D01F2302A98C4663441B785D
:101ED000002BABD112021043A9E732003B00361BA6
:101EE000AF41BB4202D804D1B24202D901267642A8
:101EF000F717002FBBDA114B114A3D21114800F0B2
:101F000083FD0E4B0E4A3D210E4800F07DFD0B4B2C
:101F10000B4A3D210B4800F077FD012040420BB0F9
:101F20003CBC90469946A246AB46F0BD0798F6E702
:101F3000E8D00010C4D30010B0D00010DCD10010E5
:101F400060D30010F8D10010F8B504004268EFF338
:101F5000108572B6136858424341D8B2002BF9D1AC
:101F6000BFF35F8FCBB22268567BB3421BD10120F7
:101F7000002847D0206988422BD0090AC9B2002B1B
:101F80002DD02068007B834229D8581EE668305C3B
:101F900088422AD000206368BFF35F8F00221A6056
:101FA00085F31088F8BD002B0DD0167BB3420AD8FC
:101FB0005E00F618033E1768BC466644B678002EED
:101FC000D6D00120D4E7124B124A6921124800F002
:101FD0001BFD124B124AFB21124800F015FD124B5B
:101FE000124A3E210F4800F00FFD1900100000F0CA
:101FF00007FC0028CFD181210D4B094A490009482F
:1020000000F002FD23698B42C5D100232361C2E7A2
:102010001CD1001078D3001038D10010E8D2001085
:1020200024D40010B0D00010E8D00010C4D30010A9
:102030000CD30010F0B587B006000F00FEF713F9BF
:1020400000281FD106246442E517A4197D41BD4232
:1020500002D803D1B44201D900240025002D14DB9D
:102060000494059500F018F902000B1E13DBA41A66
:102070009D41002D17DC14D03000390000F018F914
:1020800007B0F0BD1A4800F0DDFC1A4B1A4A3D219A
:102090001A4800F0B9FC174B174A3D21174800F0C9
:1020A000B3FC002CE8D0FFF781FE002302930193DC
:1020B000134B0093049A059BFFF78EFE002806DA67
:1020C000DAE7002300E00023002BD5D120BF0499DC
:1020D000059A0C4B5B6A9A42F5D80A48806A884296
:1020E00003D29A42EDD00123EEE70123ECE7C0468C
:1020F00010D30010DCD1001060D30010F8D1001014
:102100003917001000400540F8B504000D0000F03C
:10211000C3F802000B1E10DB200029008018594173
:102120008B4202D804D1824202D901204042C11719
:10213000002908DBFFF77EFFF8BD064B064A3D216C
:10214000064800F061FC034B034A3D21034800F0C0
:102150005BFCC046DCD1001060D30010F8D1001049
:1021600010B5FA2292000023002103F0E5F8FFF7F2
:10217000CBFF10BD70B584B005000C00FFF716FE54
:10218000002302930193194B00932A002300FFF7C9
:1021900023FE061E12DC164B5B6A9C4209D8144AC9
:1021A000926AAA4208D29C4201D0012002E000209B
:1021B00000E0002004B070BD0120FBE720BFFFF766
:1021C000F5FD3100FFF7C0FE094B5B6A9C4209D860
:1021D000074A926AAA4207D29C4201D00120E9E74D
:1021E0000020E7E70020E5E70120E3E739170010CA
:1021F0000040054070B5EFF305833F2018401038CC
:10220000EFF3108472B6194B1B68002BFBD0BFF3A1
:102210005F8F012319008140154A5163154A1278D6
:102220001500C5402B4214D0114B5D6A8300124E3D
:102230009B599D4206D38300104D5B598A430D493B
:102240000A7007E00A4A031D9B0099589950002321
:1022500000E00023BFF35F8F044A0021116084F384
:102260001088002B00D0984770BDC046280100D0D0
:1022700000400540DA2A0020C02A0020CC2200209D
:1022800010B50100024A0348FFF750F910BDC046DF
:102290003CD40010D72A0020044B5B6A034A906AA2
:1022A0001900536A9942F9D17047C0460040054071
:1022B000074B5B6A8B4204D2054B5B6AFAE7044B1F
:1022C0005B6A8B4203D1024B9B6A8342F7D3704710
:1022D0000040054070B504000D00EFF3108672B6A3
:1022E0001B4B1B68002BFBD0BFF35F8F002D1CD056
:1022F000200000F02FFE174B83420BD01900200066
:1023000000F030FE0121200000F014FE0123A34064
:10231000114A1360A400114BE550BFF35F8F0C4BC3
:1023200000221A6086F3108870BDA2000B4B0021BA
:10233000D1500122A2400A490B7893430B70054902
:10234000200000F039FE0021200000F0F3FDE4E75A
:10235000280100D0F521001038600540CC22002073
:10236000DA2A0020F0B5DE4600B584B0040015007E
:1023700001921E000293FFF78FFF03958E4202D851
:102380004ED185424CD9EFF3108B72B6274B1B68A8
:10239000002BFBD0BFF35F8F254A17780125A5409E
:1023A000EBB23B431370234B5D63221D92000199F6
:1023B000D150A2002049029850501B6A2B4212D1E2
:1023C0001C4B1B6C2B4208D00020BFF35F8F174BB8
:1023D00000221A608BF3108823E0184B184AB321AF
:1023E000184800F011FBFFF757FF8E4214D802D1B6
:1023F000039B834210D80E4B1B78BB420ED00D4B73
:102400001D625D631F2004400123A3400E4A136038
:10241000074B1F701E38D8E70020D6E70120D4E70D
:10242000012004B004BC9346F0BDC046280100D092
:10243000DA2A002000400540C02A002060D40010A5
:10244000C8D4001084D4001080E200E010B5EFF38F
:10245000108472B60A4B1B68002BFBD0BFF35F8F52
:1024600001238340074A136207490A789A430A7096
:10247000BFF35F8F024B00221A6084F3108810BDF7
:10248000280100D000400540DA2A0020024B9C467B
:1024900061448900016070474000003410B50400B9
:1024A000FFF79CF801002000FFF7F0FFFF232371E6
:1024B000BFF35F8F10BD10B5FFF7E8FFBFF35F8F6D
:1024C00010BD10B504000120FFF796F801002000B0
:1024D000FFF7F1FF10BD000010B500291ED0037BEF
:1024E00099421BD84B005B18033B0468A446634425
:1024F000002919D0002A1DD0914221D0002A25D0D0
:10250000047BA24222D804685000801803382018A7
:102510008170197800291FD11A7010BD104B114A13
:102520006921114800F070FA104B114A70310E48C1
:1025300000F06AFA0F4B0E4A71210B4800F064FA62
:102540000D4B0B4A7221084800F05EFA044B054A15
:102550006921054800F058FA41701A70DDE7C0465D
:102560001CD1001050D6001038D1001084D10010BA
:102570005CD6001090D100109CD1001070B5060000
:102580000D001400002914D0002A14D0806873684C
:102590009847002806D0220029003000FFF79CFF52
:1025A000280007E02A0021003000FFF795FF2000F7
:1025B00000E0100070BD0800FCE7000010B500232B
:1025C000437301338373037BC3730123027B9A42FA
:1025D00014D9002B0CD0027B934209D85A00D21890
:1025E000033A01688C4662440133DBB25370EDE775
:1025F0000B4B0C4A69210C4800F006FA002A09D05E
:10260000924207D8016853009A18033A8A180023A7
:10261000537010BD024B034A6921034800F0F4F9DE
:102620001CD1001050D6001038D1001010B5017325
:1026300042608360FFF7C2FF10BD000070B5040068
:10264000081E00D170BD002934D0237B994231D8B7
:102650004B005B18033B2268944663445A78002A77
:10266000F0D02DD0237B9A422AD853009B18033BED
:1026700021688C4663445D7800215970002825D07C
:10268000237B984222D843001B18033B21688C46C9
:1026900063440021597001002000FFF76FFF06001E
:1026A00029002000FFF7CAFF020031002000FFF7D9
:1026B00065FFC7E7084B094A6921094800F0A4F9FA
:1026C000054B064A6921064800F09EF9024B034A71
:1026D0006921034800F098F91CD1001050D6001071
:1026E00038D1001070B505000C001600002928D064
:1026F0002DD0037B99422AD84B005B18033B02681C
:10270000944663445A78002A27D19A78002A2AD11D
:102710001978FFF793FF0300002E03D0EA7B002A0D
:1027200027D1EC73002B37D1002C49D02B7B9C4256
:1027300046D82B6861000C19033C1C1900236370F8
:1027400070BD224B224A3821224800F05DF9224B0D
:10275000224A6921224800F057F9224B1C4A3A21AB
:102760001C4800F051F9204B194A3B21194800F050
:102770004BF9002A0AD0297B8A4207D851008A18CF
:10278000033A29688C4662445470CAE7124B134AD4
:102790006921134800F038F9002B0BD02A7B9342B3
:1027A00008D843001B18033B2A6894466344002260
:1027B0009A70B9E7084B094A6921094800F024F9E1
:1027C000054B064A6921064800F01EF998D500100D
:1027D00070D60010A0D500101CD1001050D60010EB
:1027E00038D10010DCD5001004D6001070B50400FC
:1027F0000A00457B2900FFF775FF6073280070BD54
:1028000070B50400002966D0437B8B420ED00029AE
:1028100011D0037B99420ED84B005B18033B026832
:10282000D0188378002B0CD1002055E00121FFF750
:10283000DDFF012050E0294B294A6921294800F099
:10284000E3F8002B1FD0227B93421CD825685A0046
:10285000D318033BEA18EB5C8B421AD0002B1BD039
:10286000227B934218D85A00D318033B2268D2180F
:1028700053788B4216D0002BF0D11B4B1B4A67219B
:102880001B4800F0C1F8154B154A6921154800F0A6
:10289000BBF84378137007E0104B114A69211148C7
:1028A00000F0B2F843785370002383704370012224
:1028B0002000FFF717FF0200617B814205D0200056
:1028C000FFF75CFE6073012006E00A4B074A6D21AA
:1028D000074800F099F8002070BDC0461CD10010D8
:1028E00050D6001038D1001028D6001084D6001021
:1028F000A0D5001030D6001070B5234B234A1A60C3
:10290000234B244A1A60244B9A68224B9343FAD1F2
:10291000224C234B9C4202D208CC9847F9E700F0A6
:102920001DF91B4B1F4A1A601B4B9B68DB43DB01E5
:10293000FAD11D4B40229A675A671A67DA661B4C18
:1029400003E02000FFF7AAFD0834194B9C42F8D39E
:10295000184CA168184DC022280002F0AFFEA560F7
:10296000FDF781FC002800D000BEFEF727FE00F036
:1029700085FCFFF705FA114C01E008CC9847104B95
:102980009C42FAD370BDC04600E00040BFCDFFFFBF
:1029900000F00040FE7F3C0000C00040401D0020D1
:1029A000501D0020FFFFFF0100F00140381D0020F6
:1029B000401D002000ED00E000000020501D002020
:1029C000601D002000BEFDE703000A4A1268002ACD
:1029D00008D0084A1068C318074A9A4206D3054A25
:1029E00013607047034A05491160F2E70120404235
:1029F000F7E7C046B423002000000420A82D0020E3
:102A000010B5FFF7DFFF000010B582B00C00190011
:102A1000002A0CD0084B002A0BD00192009323000F
:102A20000200064802F08AFF0120FFF7CBFF044BAB
:102A3000F1E7034AF1E7C0469CD60010ACD600107F
:102A4000D0CF00100FB400B583B0084802F046FFA5
:102A5000049B002B07D005A90191180002F04CFF40
:102A6000034802F03BFF0120FFF7ACFFDCD600106B
:102A7000ECD60010F8B5D646474680B506000D00E6
:102A80001700089A934243D3190E1802089A00239C
:102A900001F068FD80467400A419A4002A4B9C46EE
:102AA00064446368834200D26060331FDBB29A469D
:102AB000012B33D9C0239B012343802212011A60CA
:102AC000B300224A9958002905D0506901F004FD4D
:102AD00001300138FDD17F0122685740E0221740C4
:102AE00080235B0123431F605246012A21D98023A2
:102AF0009B012343802212011A6043466360B600A3
:102B0000124B089AF25001200CBC90469A46F8BD30
:102B10000F4B104A2E211048FFF776FF012DC9D127
:102B2000C0239B01234303221A60A368DB07FCD563
:102B3000D1E72168694003220A401A60A268012394
:102B4000AB401342FAD0D2E7008000401C230020A3
:102B5000F0D6001048D7001004D7001030B583B06D
:102B60000C2000F093F8FEF757FD00280DD000234D
:102B7000092B05D89900334A334888500133F7E7C9
:102B8000304B324A5A6203B030BD314B00229A6753
:102B900000F0EAF82F4B01221A602D4B5B6C012BE1
:102BA000FBD12D4B03221A60294B9B6B012BFBD1D0
:102BB000C0239B01294A1360294A1360294B9A6854
:102BC000C0239B019343F9D1022400940633264A83
:102BD0000121264800F0DCF800940523244A012155
:102BE000244800F0D5F8244B009300220221042051
:102BF000FFF740FF214D00952B0000220121052009
:102C0000FFF738FF104C009423000022002107201A
:102C1000FFF730FF00942300002200210820FFF777
:102C200029FF0A4B00932300002200210920FFF70F
:102C300021FF00952B00002200210620FFF71AFF3C
:102C4000A1E7C0461C230020006CDC021BB700007B
:102C5000008000403CB0004030B0004000E0004048
:102C600000F0004000C00040002F68590080024082
:102C700000389C1C00C00240001BB700405973077D
:102C80008000014BC05870471C23002080239B000C
:102C90000343014AD362704700800540024B1A6823
:102CA000024B5A607047C046A02A002000800540B1
:102CB00010B50200144B8020C0051860134B144857
:102CC000186000291BD0134BE021C9041960002AA9
:102CD00000D132325001801A8000801800010E4B62
:102CE000186080235B04984202D30B4B0B4A1A6096
:102CF000FFF7D4FF074B8022D2051A6010BD024BAC
:102D0000E021C9041960E2E700B005400820014055
:102D1000FCFF010000A00540A02A0020FFFFFF00EB
:102D200010B5030010000C4A8024E4051460002B49
:102D30000DD001221343094A094CD461094C5C406F
:102D40001462516293620021FFF7B2FF10BD034B82
:102D50000022DA61F7E7C04600B005400080054078
:102D6000D3C007B02D3FF84F064BAA2212011A60BC
:102D70002F22DA60044B054A1A60024B5B68002B75
:102D8000FBDA7047004002400060024000B0FA00E9
:102D9000F8B5CE46474680B50400894690461D00EA
:102DA000089E01235B424360002383600C2001F0F6
:102DB00093FB07004B46236043011B1A9901C91A74
:102DC000C90009188901404601F086FB0200103A4B
:102DD00098235B009A421FD86B1E062B22D8731EC5
:102DE000062B1FD8B54223D343461A09BA4225D32E
:102DF000A060221DC0239B01134321221A60226878
:102E0000002AFCDA2D0436032E43E66008221A60FD
:102E10000CBC90469946F8BD0B4B0C4A1A210C4845
:102E2000FFF7F2FD0B4B094A1D210948FFF7ECFDA6
:102E3000094B064A23210648FFF7E6FD074B034AE4
:102E400027210348FFF7E0FD58D7001034D80010C1
:102E500074D70010B4D7001000D8001018D8001094
:102E6000074B9B68103080001950BFF35F8FBFF392
:102E70005F8F044B0021196082F310887047C046B1
:102E800000ED00E0240100D010B5091A043948080B
:102E9000090B05D14005400D044B184380B210BD0D
:102EA000034B044A8C210448FFF7AEFD00E0FFFF0E
:102EB00040D8001020DA001050D8001010B5091AC0
:102EC00004394C08090B08D14905490D064A11433C
:102ED0000180064B2343438010BD054B054A9421D6
:102EE0000548FFF791FDC04600F0FFFF00F8FFFF27
:102EF00040D800102CDA001050D800100123834075
:102F0000034A10681840431E9841C0B27047C0463B
:102F100000E100E0002904D0034B1860034B186067
:102F20007047034B1860FBE780E200E000E100E03F
:102F300080E100E010B5012383401800FFF7EAFFAD
:102F400010BD000001238340014A13607047C04652
:102F500000E200E0024B9B6810308000C0587047D0
:102F600000ED00E070B504000D00EFF3108672B6BE
:102F70000C4B1B68002BFBD0BFF35F8F2000FFF7CB
:102F8000E9FF094B984201D0A84205D1320029003F
:102F90002000FFF765FF70BD044B054A702105480E
:102FA000FFF732FD240100D0CD01001090D80010B1
:102FB00004DA001050D80010F0B5CE46474680B570
:102FC00083B006000D00EFF3108872B6574B1B68F4
:102FD000002BFBD0BFF35F8F554B9A683400103441
:102FE000A300D758534B9F4207D0AF4200D19BE07C
:102FF0000197514BFB1A2F2B09D94246390030005B
:10300000FFF72EFF03B00CBC90469946F0BD300090
:10301000FFF774FF814600213000FFF78BFFBFF3FD
:103020005F8FFDF720F9002801D0844219D10123D8
:10303000019C9C43230040495B1A5B41484959432A
:10304000090D49B20022A368AB4212D00622A25653
:10305000002A0DDB53009B189B002200364CE4181D
:10306000F1E72021354B364AFF313648FFF7CCFCDB
:103070002200AB4251D106256557002D39DB6B008C
:103080005B199A002C4B9B189A68A260DA79E2715E
:1030900006229A56A2719B795BB2002B10DABD20F2
:1030A0000002A0806B005B199B00234AD318264ABC
:1030B00011789971157049463000FFF73BFF9CE786
:1030C000201D6B005B199B001B4A9B181A1D9B88D7
:1030D000D90A1C2907D1590549150231490051184F
:1030E000FFF7D2FEDDE7194B194A9A211548FFF781
:1030F0008BFC00280CD1002A08D0FF239371154BBC
:103100009380114B1A78A2711970D4E7094FF8E730
:10311000201D1149FFF7D2FECDE7AA210F4B084A27
:1031200049000848FFF770FC024F66E7240100D011
:1031300000ED00E0CD010010B4120020A4D9001071
:1031400054DA001050D80010D82A00208CD9001072
:1031500044DA001000BDFFFFEE120020C8D90010B5
:10316000AAAA000010B5032304009C43064A944613
:10317000644422681840C000FC3383409A43130023
:1031800081400B43236010BD00E400E0F8B504006B
:10319000012606432D4BF31A2F2B28D8FDF763F891
:1031A00000282BD0EFF3108772B6294B1B68002B39
:1031B000FBD0BFF35F8F2300244D5B1B5B412E4D83
:1031C0005D432D0D6DB2234B9B6880001B58B342AD
:1031D0001BD00022032A32D853009B189B001B49A6
:1031E000CB189B795BB2AB421FD00132F2E7722160
:1031F000194B1A4AFF311A48FFF706FCBA21194B3E
:10320000164A49001648FFF7FFFB124B9B68164A07
:103210001A50164B1A78A2711D70BFF35F8F0C4BBA
:1032200000221A6087F31088F8BD0800530099182F
:1032300089004118FF268E710D4A8A80E9E78621B0
:103240000C4B064AFF310648FFF7DEFBB4120020A4
:10325000240100D000ED00E0D0D9001068DA0010A1
:1032600050D80010F8D90010CD010010D82A002045
:1032700000BDFFFF28D60010AAAA000010B5002448
:103280001F2C05D880212000FFF76CFF0134F7E7E1
:1032900010BD9A4200D288547047704710B500287C
:1032A00002D00B684968984710BD010000200A68E9
:1032B0001378303BDBB2092B08D883001B185B0066
:1032C000501C08601078C0183038F0E77047F0B52F
:1032D000DE4657464E464546E0B583B093461F004E
:1032E0000C9B9A460D9C0E9B99460F9B9B0703D007
:1032F000B8460F00060022E00192A34688464E46DB
:10330000B9460700B44207D2551C4B46414620201F
:10331000B84701342A00F5E73D004F465C46019B63
:103320009B46B1464646B84637002E0007E0013CB2
:10333000551C5346185D43463900B0472A00002CFF
:10334000F5D135003E0047460F9B9B0707D4100080
:1033500003B03CBC90469946A246AB46F0BDB04691
:103360004E46B9462F005D46531BB342EFD2541C64
:103370004B4641462020B8472200F5E7F0B5CE463F
:10338000474680B585B0944698460C9D0D9C0EAB83
:103390001B789946109A119B129EB7071BD4002BDD
:1033A00008D0F70706D54F46002F02D10C37374219
:1033B00000D0013B944208D21F2C06D830272F554D
:1033C0000134F7E730272F550134F70703D59C4226
:1033D00001D21F2CF6D9F70615D5770505D4002C98
:1033E00003D0944224D09C4222D00F9A102A2BD092
:1033F0000F9A102A30D00F9A022A35D01F2C02D8EB
:1034000030222A5501341F2C05D84A46002A31D0D3
:103410002D222A55013403960293019400954346C8
:103420006246FFF754FF05B00CBC90469946F0BDCC
:10343000621E012C06D00F9F102F01D01400D4E77C
:10344000023CD2E71400D0E7B206D1D41F2CCFD86B
:1034500078222A550134D1E7B206CCD51F2CCAD820
:1034600058222A550134C9E71F2CC7D860322A5583
:103470000134C3E7720703D52B222A550134CAE76A
:103480003207C8D520222A550134C4E7F0B5DE46FC
:1034900057464E464546E0B593B081468A46089267
:1034A00009931CAB10CB1B789B461E9D219B984615
:1034B000002C03D1102342469A4390468023DB0020
:1034C00046461E4042461A4212D0002C22D0002608
:1034D0000EE03033D9B2771C0AAB99552900200091
:1034E00000F0FAFFAC4216D31F2F14D83E000400A0
:1034F0002900200000F0F0FFCBB2092BE9D94246A9
:10350000920605D54121C918C9B20A39C9B2E2E704
:103510006121F8E7270043460693209B05931F9BF4
:10352000049303955B46029301970AAB0093099BB2
:10353000089A51464846FFF721FF13B03CBC90461D
:103540009946A246AB46F0BDF0B5DE4657464E461C
:103550004546E0B595B0089009910A920B931E9EDE
:103560001F9C20AB1B789B46229B9946239D269B44
:103570009A463300234303D1103352469A4392466E
:103580008023DB0057461F4052461A4219D03300B1
:1035900023432DD0002714E03033DAB27B1C984649
:1035A0000CABDA554A462B003000210000F0DAFF60
:1035B000A5421FD819D043461F2B1BD847460600EB
:1035C0000C004A462B003000210000F0CBFFD3B2A4
:1035D000092BE1D95246920605D54122D218D2B222
:1035E0000A3AD2B2DAE76122F8E7B145E3D901E05D
:1035F0000023984653460693259B0593249B0493EA
:103600004B4603935B460293434601930CAB0093F6
:103610000B9B0A9A09990898FFF7B0FE15B03CBCBD
:1036200090469946A246AB46F0BD0000F0B5DE4696
:1036300057464E464546E0B591B083468A460C92C1
:1036400098461A9C08941B9D099522002B00200087
:10365000290001F006FA002800D0E5E001225242DC
:10366000D34B2000290001F0F7F9002800D0DBE05F
:1036700001225242CF4B2000290001F0D7F9002847
:1036800000D0D1E000220023089D2800099E3100CF
:1036900001F0CCF9002800D0DDE0089809990690E7
:1036A00007918023DB001E9A1A400D921E9A1A423F
:1036B00001D106231C930698079904000D000A0007
:1036C0000600024300D1CDE0080D4005400DBA4C84
:1036D000A44660440A03120BB84B13431F0001F0C9
:1036E000D3F9B74AB74B01F057F9B74AB74B01F0D6
:1036F00041F904000D000022B54B3000390001F003
:1037000030F9B44AB44B01F047F902000B00200035
:10371000290001F02FF901F0CFF9814601F0B4F949
:1037200004000D00AD4AAE4B01F036F90022AD4B5E
:1037300001F020F901F0C0F90600AB4AAB4B2000C4
:10374000290001F029F904000D00300001F09CF976
:10375000A74AA84B01F020F902000B002000290025
:1037600001F0FFF804000D0002000B0001F014F955
:103770000A900B91A04BF31800261F0522002B0086
:103780002000290001F0F6F80E900F9122002B0086
:1037900000208021C90501F0E4F804000D0000229A
:1037A000964B0A980B9901F0EEF80022944B01F029
:1037B000E1F802000B000A980B9901F0E4F80022EE
:1037C000904B01F0D7F802000B000A980B9901F01A
:1037D000DAF802000B002000290001F0CBF802000B
:1037E0000B000E980F9901F0CEF80022734B01F0F8
:1037F000C1F832003B0001F0CFF806000F000400D2
:103800000D00069A079B01F027F900282CD0012310
:103810005B429C46E1440022794B3000390001F0C4
:10382000B2F804000D001FE01E9B04931D9B039340
:103830001C9B0293089A099B0092019343460C9AA1
:103840005146584600F0F8F811B03CBC90469946F5
:10385000A246AB46F0BD069580231B069C466644F7
:1038600007961EE7002399464B466333C62B1FD8A5
:1038700004261E9B1B0527D52B00234310D0624A2C
:10388000624B0698079901F0DFF8002800D183E029
:1038900000225F4B0698079901F0C8F800287BD0FA
:1038A0001C9B4B4506DD4A46981A431E1C9303E0B9
:1038B0000526DEE700231C938023DB001E9A1A43B3
:1038C0001E920026002399461D9B9E426ED29F1B8E
:1038D00002231E9A1A400A921E9A134202D0002E08
:1038E00000D000274B46002B07D022002B00069863
:1038F000079901F048F806900791002200230898E4
:10390000099901F093F8002800D085E0414B1E9AF8
:103910001340049303971C9B0293069B079C009300
:10392000019443460C9A5146584600F085F8002E03
:1039300000D189E71E9B9B067AD54525441C43464A
:10394000020051462800D8474B46DA179B185340CF
:1039500005220592013E0496002203920A32029249
:103960004A46D00F019000934346220051465846E4
:10397000FFF78CFD0A9B002B00D165E702005F4634
:103980000C9E1D9D931BAB4254D2541C4346514682
:103990002020B8472200F5E71C9B002B94D00D9BFC
:1039A000002B91D01C9B013B1C938DE700278FE7D8
:1039B000FFFFEF7FFFFFEFFF01FCFFFF0000F03F85
:1039C000FB799F501344D33FB3C8608B288AC63F0E
:1039D0000000F83F61436F63A787D23F71A3790965
:1039E0004F930A400000E03F1655B5BBB16B024053
:1039F000EF39FAFE422EE63FFF03000000002C40A4
:103A000000002440000018402D431CEBE2361A3F12
:103A100080842E41FFF7FFFF069C079D22002900AE
:103A200080200006844661440B00069207936DE7F0
:103A3000652583E7100007E7F0B5DE4657464E469A
:103A40004546E0B595B00690079193469946209F6C
:103A50001E9A1F9B1000190001F003F8002831D1B5
:103A600001225242BF4B1E981F9900F0DFFF002831
:103A700037D101225242BC4B1E981F9900F0ECFF37
:103A800000283DD10022B94B1E981F9900F0E4FF99
:103A9000002850D10022B64B1E981F9900F0C6FF97
:103AA000002848D1002200231E981F9900F0BEFF75
:103AB000002850D100239846229B5B0500D4B6E035
:103AC000002458E0229B0393219B0293032301933C
:103AD000A84B00934B465A4607990698FFF7F7FB09
:103AE0000EE1229B0393219B029304230193A24B9B
:103AF00000934B465A4607990698FFF7E8FBFFE00C
:103B00000423229A1A4022990B4210D09B4B002A80
:103B10000FD00422229903912199029101920093DE
:103B20004B465A4607990698FFF7D1FBE8E0944BBD
:103B3000EDE70322EEE7229B0493219B0393029778
:103B40001E9B1F9C009301944B465A46079906986A
:103B5000FFF76CFDD4E01E9A1F9B0020002100F0AF
:103B600000FF1E901F9101239846A5E70CAB302261
:103B70001A55013F01341F2C01D8092FF6D81E9881
:103B80001F9900F099FF050000F07EFF02000B0076
:103B90001E981F9900F0E5FEFA007A4B9B181A68F0
:103BA0005B680A920B9300F0F7FE0890099100F011
:103BB000A7FF060000F064FF02000B0008980999B7
:103BC00000F0CFFE0890099100226F4B00F044FFF7
:103BD00000282ED00136300000F052FF02000B000A
:103BE0000A980B9900F028FF002801D00135002623
:103BF000002F2CD1280000F047FF02000B001E9878
:103C00001F9900F0AEFE06000F0000225E4B00F090
:103C10000DFF002842D100225B4B3000390000F03C
:103C20001BFF00283AD1EB0738D5013536E00627CF
:103C300046E70022544B0898099900F0F7FE002847
:103C4000D6D1002E01D0F307D2D50136D0E7AA464F
:103C50001F2C11D8013F0A21300000F03DFC651CEB
:103C600030310CAB19550A21300000F035FC092E1B
:103C700026D906002C00EBE7554604E00CAA3021BB
:103C800011551F0001341F2C02D87B1E002FF5D1C7
:103C90001F2C03D80CAB2E221A5501341F2C14D81C
:103CA0000A21280000F0ECFB661C30310CAB1955E2
:103CB0000A21280000F0E4FB051E05D03400EDE7E2
:103CC0002B0055461C00DEE734000323229A1340E4
:103CD000012B1CD01F2C06D84346002B32D00CAB36
:103CE0002D221A550134229B0393219B02930194A8
:103CF0000CAB00934B465A4607990698FFF7E7FA34
:103D000015B03CBC90469946A246AB46F0BD219BFF
:103D1000002B13D04346002B02D10C3313420FD09B
:103D2000219B013B2193190003E00CAB30221A5573
:103D300001348C42CED21F2CF7D9CBE72199F8E77A
:103D40002199F6E7229B5B0704D50CAB2B221A5571
:103D50000134C8E7229B1B07C5D50CAB20221A559E
:103D60000134C0E7FFFFEFFFFFFFEF7F65CDCD41DF
:103D700065CDCDC190DA001094DA001088DA001019
:103D800084DA001080DC00100000E03FF0B5DE4671
:103D900057464E464546E0B593B082468B46904620
:103DA0001193002900D1ECE200275546119B1878A9
:103DB000002800D1E8E2252809D07C1C43463A00BF
:103DC0005946A847119B013311932700EEE70133B1
:103DD000119300241DE00B00303BDBB2092B37D9D7
:103DE0002A293AD000230A93119B1A782E2A44D00C
:103DF00000239A46119A1378683BD9B2122900D948
:103E000080E08B00CB49CB589F4601231C430132F5
:103E10001192119A11780B00203BD8B21028DAD8F1
:103E20008300C548C3589F4602231C4301321192A8
:103E3000EFE704231C4301321192EAE708231C43F5
:103E400001321192E5E710231C4301321192E0E7A1
:103E500011A8FFF72AFA0A90C6E71C9B1A1D1C92AC
:103E60001868002804DB0A90119B01331193BBE70B
:103E700002231C4343420A93F6E78022D2001443F4
:103E80005A1C11925A781300303BDBB2092B04D92B
:103E90002A2A07D000239A46ACE711A8FFF705FAB3
:103EA0008246A7E71C9B1A1D1C921868002804DB99
:103EB0008246119B013311939CE70020F8E7802391
:103EC0005B002343511C119152786C2A01D01C00D5
:103ED00018E0C0239B001C430131119112E08023A4
:103EE0002343511C11915278682A01D01C0009E02B
:103EF000C0231C430131119104E080235B001C436B
:103F000001321192119B18780300253BDAB2532A33
:103F100000D92CE29300894AD3589F4680239B0006
:103F20001C4301321192EDE780235B001C430132F8
:103F30001192E7E7782809D0582838D06F2838D070
:103F4000622838D010239C430A2600E01026582807
:103F500033D0692803D0642801D00C229443630530
:103F600001D50122944369282AD0642828D0A305CA
:103F700000D59FE0E30500D5B8E0630600D4CAE0B1
:103F80001C9A111D1C911168FF220A4005940A9B7E
:103F900004935346039302960023019300924346F1
:103FA0003A0059462800FFF771FA070027E010266B
:103FB000CDE70826CBE70226C9E720221443C8E74D
:103FC000A30520D4E30550D4630666D51C9A111DC1
:103FD0001C911168FF220A40D317D118594005944B
:103FE0000A9B0493534603930296D20F01920091C9
:103FF00043463A0059462800FFF748FA0700119B4C
:1040000001331193D2E61C9BDA1D07218A4311006C
:1040100008311C91116853689C46DB170C930D9373
:104020000C9A0D9B100048400E90624653400F932F
:104030000E980F990C9A0D9B801A99410E900F9132
:1040400008940A9B0793534606930496002305930E
:104050006346DA0F02920090019143463A005946B6
:104060002800FFF771FA0700C9E71C9A111D1C917F
:104070001268D317D118594005940A9B04935346EC
:1040800003930296D20F0192009143463A0059469B
:104090002800FFF7FBF90700B1E7230605D51C9AB6
:1040A000111D1C910023D25E96E71C9A111D1C91D4
:1040B000126891E71C9BDA1D07218A431100083121
:1040C0001C9108940A9B0793534606930496002379
:1040D00005930293136854680093019443463A0091
:1040E00059462800FFF730FA070088E71C9A111D8F
:1040F0001C9105940A9B0493534603930296002354
:1041000001931368009343463A0059462800FFF78D
:10411000BDF9070073E7230606D51C9A111D1C91F3
:1041200012681204120C31E71C9A111D1C911268BE
:104130002CE7C0469CDA0010E8DA00102CDB0010F7
:1041400046281AD01C9B0733072293431A000832D3
:104150001C9204940A9A0392524602925C681B686D
:104160000093019443463A0059462800FFF764FC47
:104170000700119B0133119318E620231C43E1E74C
:10418000672801D0472802D180231B011C43452802
:1041900001D0472801D120231C431C9B0733072251
:1041A00093431A0008321C9204940A9A03925246CE
:1041B00002925C681B680093019443463A0059469A
:1041C0002800FFF733FA0700119B01331193EDE547
:1041D00002231A002240924623421FD001241C9B36
:1041E0001A1D1C927A1C9146187843463A0059468B
:1041F000A8475346002B16D1119B013311934F460C
:10420000D4E5561C434659462020B84723003200C7
:104210005C1C9D42F5D83D001700E0E701233A0001
:104220002F000A9DF4E74A46A9460A9D06E0571C5E
:10423000434659462020C84734003A00661CA54230
:10424000F5D84D469146D7E71C9B1A1D1C921B685A
:1042500099465346002B00D1013B4E4601E0013602
:1042600013003278002A02D05A1E002BF7D14B4699
:10427000F21A10928023DB0026001E401C4203D05D
:10428000524501D95346109302231A0022400B9243
:10429000234205D03A0037004C46A946554620E057
:1042A0003A00109B5F46B3462E0006E0551C43467D
:1042B00039002020B04723002A005C1C0A9999424B
:1042C000F4D835005E46BB46109437004C46A946EC
:1042D000554606E01D000134561C43465946C84762
:1042E00032002078002804D0002FF4D06B1E002D5F
:1042F000F0D117004D460B9B002B03D1119B0133CE
:10430000119353E50A9F109B06E0561C43465946FD
:104310002020A847230032005C1C9F42F5D81700DC
:10432000ECE721231C431C9B1A1D1C921B68009365
:104330000594082304935346039310230293002308
:10434000019343463A0059462800FFF79FF80700BB
:10435000119B0133119329E57C1C43463A005946D1
:104360002520A847119B0133119327001EE57C1CD3
:1043700043463A005946A847119B01331193270041
:1043800014E50B4B9A460FE5AA4647450DD3434625
:104390005A1E434659460020D047380013B03CBC53
:1043A00090469946A246AB46F0BD3A00F1E7C046BA
:1043B0009B3200100EB410B585B0010007AC08CCDC
:1043C00003940122009452420348FFF7DFFC05B03A
:1043D00010BC08BC03B018479332001000B583B07E
:1043E000009313000A0001000248FFF7CFFC03B05E
:1043F00000BDC0469332001000B585B00290039115
:104400000121009313004A4202A90248FFF7BEFCB3
:1044100005B000BD9D32001001480421014B184732
:10442000001300204944001010B5010018231B8818
:1044300014221088984710BD10B5010018231B885E
:1044400016221088984710BDF0B5C64600B5070083
:104450000E0000250123984600E00135B5420AD23E
:10446000AC003C192068FFF7DFFF20600028F4D182
:1044700000239846F1E7404604BC9046F0BD00009A
:10448000144A936F9B0815D29066D166002905D017
:10449000FFE7FFE7FFE7516F106F704704B580211A
:1044A0000906C2175140002800D0C84308F09CFC00
:1044B000002104BD936F5B08FDD3F0B5946ED56EFB
:1044C000576F166FFFF7E0FF9466D566576716675C
:1044D000F0BD0000000000D0134A936F9B0813D278
:1044E00010665166002905D0FFE7FFE7FFE7516F2F
:1044F000106F704704B5002801D00020C04308F0B9
:1045000073FC002104BDC046936F5B08FDD3F0B57A
:10451000946ED56E576F166FFFF7E2FF9466D566FF
:1045200057671667F0BD0000000000D094464E4A61
:10453000926F9208624601D230E0C046F0B54A4E12
:10454000B56F6D08FCD3346E756E776F366F00F003
:1045500025F89446444A14665566576716676246BE
:10456000F0BDC0469446404A926F9208624601D21E
:1045700058E0C046F0B53C4EB56F6D08FCD3346EC4
:10458000756E776F366F00F04DF89446364A1466B4
:104590005566576716676246F0BDC046002B24DBA0
:1045A00011D000293EDA00B5C943404200D10131A3
:1045B00000F038F8C943404200D10131DB43524298
:1045C00000D1013300BD002AEBD1002801D1002920
:1045D00005D00020C90FC90701D1C043410800B56B
:1045E00008F0DAFB0022002300BD00B500290ADB39
:1045F000DB43524200D1013300F014F8C94340427A
:1046000000D1013100BDC943404200D10131DB433B
:10461000524200D1013300F005F8DB43524200D191
:10462000013300BD002923D1002B18D1002A0CD062
:10463000BC460D4F38667A6600210023FFE7FFE78E
:10464000FFE77A6F386F67467047002801D0074848
:10465000010000B508F0A0FB0022002300BD02000D
:104660000B00002000217047000000D0FFFFFFFF7B
:10467000002B00D0BDE0130C26D1002AE7D080B477
:10468000104F39667A66FFE7FFE730B4040C7B6FA2
:10469000396F1B0423433B66FFE7FFE7FFE7C04694
:1046A00084B27B6F3D6F1B0423433B66FFE7FFE74C
:1046B000C04600232C042D0C7A6F386F0019694115
:1046C000B0BC7047000000D0F0B594460025140E31
:1046D00001D112020835140F01D112010435940FD3
:1046E00001D192000235D40F01D152000135D40B13
:1046F0000134254F7C66254C3C660E0C93B2FFE7D7
:10470000FFE7FFE73C6F6643360C7703BE46734313
:10471000DF0B5B04C01AB941130C7343DB18C91AD1
:10472000CE086643360CB64493B273431F0F1B0189
:10473000C01AB941130C73431F0B1B05C01AB941B2
:10474000860D8F023E436643360C092D24DB520A48
:104750007243801A7703460A6643360C16235B1BA6
:10476000DE40DF40BF1964466643821B7046043555
:1047700006330100D940A840C01900D30131A2423C
:1047800006D20023F0BD0000000000D0FFFFFFFFB5
:10479000121B0130F3D3F1E709277F1BFE4064466B
:1047A000A2B27243801A00D20139220C7243130C58
:1047B0001204821A99410B00704604351337010028
:1047C000F940A840801900D30131002B02D1A24248
:1047D0000AD2F0BD013000D30131121BFAD2013BE5
:1047E000F8D1A24200D2F0BD013000D30131121B3A
:1047F000F7E7F0B51C0C00D080E00CB400251C0AD3
:1048000004D11B02160E3343120208351C0B04D1CF
:104810001B01160F3343120104359C0B04D19B007E
:10482000960F334392000235DC0B02D192185B41A4
:1048300001351C00971864410134464F7C66464C94
:104840003C660E0CFFE7FFE7FFE7C0463C6F6643A0
:10485000360C7703BE4697B27743C01B00D20139AE
:10486000C01B00D201399FB27743C91BC91B170C6B
:1048700077437E04FF0B801BB941CE086643360C9C
:104880000C2D33DBB644120B1F053A431B0B97B2BA
:104890007743C01B00D201399FB27743C91B170C65
:1048A00077433E043F0C801BB941860D8F023E4387
:1048B000664329277F1BFE400C3D7746AF40BF195A
:1048C00030BCA2B2ABB272437343801A9941220C3E
:1048D0007243130C1204801A994102000B00013735
:1048E000001BA941F9D2781E0021F0BD0C277F1BC7
:1048F000FE4077467F0BAF40FF19E0E700245D1CC8
:1049000007D0144F7D663966FFE7FFE7FFE7FFE753
:104910003C6F95B29EB265436643401BB141150C96
:104920001E0C6543664336042F0C3E432D04401B8A
:10493000B141994204D202000B0020000021F0BDD9
:1049400001D19042F7D3801A994101349942F2D3B0
:10495000F6E70000000000D0FFFFFFFF48404140A5
:10496000484018B4114B5B68FC46019308BD04DF56
:104970008F4C001018B40D4B1B68FC46019308BD0A
:1049800000DF994C001018B4084BDB68FC4601931B
:1049900008BD0CDF514F001018B4044B9B68FC4657
:1049A000019308BD08DFF54D00100000E02A00204B
:1049B000FFB550404240504059404B40594000E004
:1049C000FFB5154F4C00640D03D0BC4204D10C035D
:1049D00014D80020090D09055C00640D03D0BC4209
:1049E00004D11C030AD800221B0D1B0501264B40D5
:1049F00009D44B4003D58B4200D18242FFBD99427E
:104A0000FCD19042FFBD0B43DB1803431343F5D0A9
:104A1000C9434918FFBD0000FF07000000B5FFF7BC
:104A2000CFFF01D0002000BD012000BD00B5FFF781
:104A3000C7FF804100BDC04600B5FFF7C1FF01D9E7
:104A4000002000BD012000BD00B5FFF7B1FF01D976
:104A5000002000BD012000BD00B5FFF7A9FF804187
:104A600000BD012040054A00121804D85A0012184F
:104A700001D80020704701207047002070470000D7
:104A80000021002805D17047C1174840401AFAD0CC
:104A9000C90713B5064B1B6898470CBC441CA240C1
:104AA0001005120B0349091B09051943114310BDD9
:104AB000E02C00201F04000010B54C00620D802384
:104AC000D218DB00D21A5B057E2A10DD9E3A13DA7B
:104AD000CC170903490819435242D14064000134FC
:104AE0001532202A05DAD0400843604310BD00206B
:104AF00010BD0846604310BDC80FC018013810BD76
:104B000018B4044B5B6AFC46019308BD24DF7D5159
:104B100000100000E02A002018B4044BDB6DFC46B6
:104B2000019308BD5CDF855200100000E02A0020E0
:104B3000C94211D300B549004908002200F018F815
:104B4000002904D4002240428A41114600BD802140
:104B50000906002000BD000018B4044BDB6EFC46C3
:104B6000019308BD6CDF8B5100100000E02A00208B
:104B700018B4044B9B6FFC46019308BD78DFA75126
:104B800000100000E02A002018B4044BDB6FFC4644
:104B9000019308BD7CDF115200100000E02A0020C4
:104BA00070B513231C78012C07D0012C0EDC022CCD
:104BB00002DC1C4A1C4B9A6470BD00231F2BF4D8E6
:104BC00099001848184A88500133F7E71748FFF74B
:104BD00033FC05001648FFF72FFC023803789B00D2
:104BE0007F2B19DD802229000F4800F067FD022C81
:104BF000DDD1104B1A88B5231B029A4209D10E4B06
:104C00001A880E4B9A4204D10D4B1A880D4B9A42CA
:104C1000CDD00020FDF716FF0B4B0C4A30210C487D
:104C2000FDF7F2FE554C0010E02A0020534400002E
:104C30005346000054380000D838000049460000B0
:104C40009C38000059460000D0DC00107CDD0010CC
:104C500030DD001007B56046002800D100BE018895
:104C60000A0A0230DF2AFAD1C9B2820804D30288C4
:104C700040880004104300E00068024A505003904E
:104C800007BD0000E02A00200FB403BC0CBCF0B547
:104C90000124E407634000E0F0B50C0DCF0F661E61
:104CA0003605891B640503D3C943404200D3013153
:104CB000640D03D0661CF60A07D0E41B00207F00B9
:104CC000791C89078912803C24031D0DDF0F6E1E9D
:104CD00036059B1B6D0503D3DB43524200D30133E2
:104CE0006D0D03D06E1CF60A07D0ED1B00227F006D
:104CF0007B1C9B079B12803D2D032F1B661B58D4EA
:104D0000A446202E46DA20371400BC401D00BD40CA
:104D1000F24033412A4380185941CB0F05D0C94393
:104D2000C043002264425041514162464D0D28D19A
:104D30000D0D07D100281FD0241940414941013AE7
:104D40000D0DF9D0640006D3013000D30131002CE1
:104D500001D140084000013A0BD4941CE40A04D16C
:104D600012051144DB071944F0BDD907204B194344
:104D700000E0D9070020F0BD0029DDD1002CDBD1F7
:104D8000F0BD0132C6074008CD0728434908002E70
:104D9000E1D0D9E73C2E29DA203E40371400BC4050
:104DA00000D00124F24014431A00BB401C43D31727
:104DB000ACE7AC46202F08DA20360400B4400D00E2
:104DC000B540F84039412843A5E73C2F0CDA203F95
:104DD00040360400B44000D00124F84004430800E9
:104DE000B1400C43C117EAE710001900002494E712
:104DF0000000F07FF0B50C0D661E3605891BE60A33
:104E00006405640D02D0651CED0A04D00020012168
:104E10000905803C2403A4461C0D671E3F05DB1BCF
:104E2000E70A6405640D02D0651CED0A04D0002277
:104E300001231B05803C24037740644497B484B26B
:104E400096B27443070C7E43150C6F4380B26843DF
:104E5000361802D3012000043F183004350C001925
:104E60007D41844688B29AB250430C0C62431F0CB9
:104E70007C438EB27E43921902D301263604A419D4
:104E80001604170C3618674101BC81B29AB251431F
:104E9000040C62431B0C5C4380B25843121802D3CB
:104EA0000120000424181004130C401863412D182D
:104EB0005E410020474106BC88B293B258430C0CB7
:104EC0006343120C544389B251435B1802D301214E
:104ED0000904641819041A0C091862416D18564126
:104EE0000020474118BCF902720D1143F0026A0D0F
:104EF0001043ED020A0D03D16D1940414941013BB8
:104F0000124E9B1B7600B3420ED26D0007D30130C8
:104F1000002671416646354301D1400840001B051B
:104F2000C918E4072144F0BD0BDA013306D1013082
:104F300004D101314F0D01D04908F2E7E10700200B
:104F4000F0BD013631050020EBE70000FF03000053
:104F5000F0B51C0D671E3F05DB1BE70A6405640DF9
:104F600002D0661CF60A04D0002201231B05803CF7
:104F70002403D0252D060026F6432E661E096E66F4
:104F8000CE0FF619B44649004F0D02D07E1CF60A2A
:104F900003D000200021403F3F033E1BB600B44435
:104FA000013F7F05C91B49082E6F013676089C0218
:104FB000950D25437543ED137543AD1301356D1004
:104FC000F603761B0CB4CC02450D2C43A2B2B3B24F
:104FD0005A43270C7B43350C6F43A4B26C431B1917
:104FE00002D3012424043F191C041D0CA4187D4184
:104FF00024196D41009A91B2ACB26143170C7C4305
:105000002B0C5F4392B25A43A41802D3012212041C
:10501000BF182204230C52187B41019C6C431B19BE
:10502000520ED9010A434401A01A81B2B2B25143CF
:1050300003145A43360C734387B27743D617D219F9
:1050400000277E4136049B191704160C7F185E4119
:105050007316ED18F301002680337541A90F06D1B0
:105060006400690AE8055B0A184309D22FE00422AC
:10507000944480337541A90AA8059B0A184326D396
:10508000404149412404009A019B0D005543641B93
:105090004343E41A95B286B27543170C7E43030C62
:1050A0005F4392B25A43B61802D301221204BF18CA
:1050B0003204330C52197B4152429C41002C02D4E1
:1050C0000022013051414008CA071043490802B08C
:1050D0006246D7079210084BD218084B9A4203D267
:1050E00012058918C919F0BD0020002A01DC390019
:1050F000F0BD01331905F5E7FD030000FE070000D0
:10510000624618CA944600291ADAC01861415B4603
:105110003B415C46B4405246FA40224344464D4629
:1051200062416B41904699462B46B3403D41FC405D
:105130001C4352465B46A241AB4192469B46704798
:10514000C01AA1414B463B414C46B4404246FA404E
:10515000224354465D4662416B4192469B462B4634
:10516000B3403D41FC401C4342464B46A241AB414B
:10517000904699467047002000217047002200B5F4
:10518000203200F010F8080000BD002200B500F049
:105190000CF8CA179A4200D100BDD8430121C907B3
:1051A000414000BD00220B15E5D410B5944600F037
:1051B000A5F81414013400DA0021CB17134C204752
:1051C0006244343A0CD40C2A07DA0400914090402F
:1051D00052422032D440214310BDD843D94310BDA0
:1051E000203207D40C469440524220321141D04024
:1051F000204310BD0800C917203203D45242203288
:10520000104110BD1800190010BD0000C151001060
:105210004A00520D144BD21A13DDFF2A1EDAD205B2
:10522000CB0FDB071A43C300400F0903490A0843A9
:1052300010435B0001D301D0013070474308FBD21B
:10524000704702D0C80FC00770470A03121301321B
:10525000F8D1420F072AF5D1012200E0FF22C80F42
:1052600000028018C00570478003000000210A007A
:10527000002104E000210A00C11704E000220023FD
:1052800006E0C0460022CB1758405940C01A994149
:1052900030B5184CA21A002903D1010010D000200B
:1052A000203A4C1512D104D2013A001849414C0D54
:1052B000FAD3114CA24204D212058918DB07C9188F
:1052C00030BDD243520D00200021F5E703D4013A4E
:1052D00000184941FBD50B324405C00A4D0528434F
:1052E000C90A640003D0002460416141E1E7E0D3D2
:1052F0004408F8E732040000FE0700000A0DCC0F56
:10530000531E1B05C91A520503D3C943404200D39B
:105310000131520D03D0531CDB0A07D0121B0020B1
:105320006400611C89078912803A1203014BD21A6A
:1053300070470000FF03000051434343C9188C46E7
:10534000110C83B24B4310B4040C614392B280B28F
:10535000504362431C041B0C001910BC5941130438
:10536000120CC01851416144704700004840414050
:10537000484000239C46094B5B68184700239C4625
:10538000064B1B68184700239C46044BDB681847F4
:1053900000239C46014B9B6818470000E02B00202F
:1053A00007B548404140484001E0C04607B54200CB
:1053B000120E03D0FF2A03D1420218D8C00DC00537
:1053C0004A00120E03D0FF2A03D14A020FD8C90D9A
:1053D000C9050122414005D4414001D5814207BDA4
:1053E000884207BD0143491801D0C043001807BDDA
:1053F00000B5FFF7DBFF01D0002000BD012000BD9C
:1054000000B5FFF7D3FF804100BDC04600B5FFF7F0
:10541000CDFF01D9002000BD012000BD00B5FFF780
:10542000BFFF804100BD01231B064200D21804D8F3
:105430004A00D21801D80020704701207047491A4D
:10544000002807D108467047C10FC90700D5404260
:10545000002817D0F44603B40B4B1B68984706BCD2
:1054600081409E384042803107D20B0607D0490068
:10547000490AC0051043084360470130F8E7490A6C
:105480008902F5E770470000E02C002000239C46CD
:10549000014B5B6A18470000E02B0020054A1047CB
:1054A000C2179142FAD0044BDB6DFC4618475CDF13
:1054B0001356001049540010E02B0020034BDB6F03
:1054C000FC4618477CDF455600100000E02B00200A
:1054D00070B513231D782A48FEF7AEFF0400012D96
:1054E00011D0012D09DDA31E1B789B007F2B40DD11
:1054F00080222100234800F0E1F82348FEF794FFC2
:10550000224B186070BD542201001E4800F0D6F8EE
:105510001F4B1A881F4B9A421CD1A7239B011A8844
:105520001D4B9A4216D11D4B1A881D4B9A4211D120
:105530001C4B1A8894239B019A420BD11A4B1A8850
:105540001A4B9A4206D11A4B1A681A4B9A4201D149
:10555000152307E01848FDF775FA99001748094A1E
:10556000885001331F2BF8D9144A064B1A62DA61AE
:10557000B7E7134B134A42211348FDF745FAC046DB
:1055800053460000E02B00204C330000E02C0020AC
:10559000EE290000C40F0000C20D0000962B000091
:1055A000C0B50000182B0000CC2A000010B5000088
:1055B000FC2C000051ED8764D0CF0010CD550010B9
:1055C00090DD00100CDE0010C4DD001007B5604651
:1055D000002800D100BE01880A0A0230DF2AFAD171
:1055E000C9B2820804D3028840880004104300E056
:1055F0000068024A5050039007BD0000E02B0020D5
:10560000002230B5002906D5CD0705434808013AE8
:1056100010E0002230B505000D430FD0CD170C1659
:10562000AC4205D1C901440E2143C0010732F6E75F
:105630000500080052423D320149884730BD000054
:10564000EF290000C30FDB0741000A0E07D0FF2A35
:1056500008D00909054A89181943400770471900FD
:10566000002070470249C918FAE70000000000381E
:105670000000F07F10B5040004F07EFB002804D089
:105680000419034B9C4200D810BD0248FDF7DAF91B
:105690000000042020DE001010B504F077FB10BDE0
:1056A00001480421014B1847101300204944001001
:1056B000014B1B681847000010130020014B5B686A
:1056C000184700001013002010B5FFF7D3FF10BDDE
:1056D00010B5FFF7E1FF10BD10B5FFF7DDFF10BDFE
:1056E000F8B507000D001600437C002B02D0002403
:1056F00000200CE003681100280098472DE03B7C57
:1057000010E0022115483B689847601C0134B44200
:1057100014DA002CF3DD2B19013B1B780D3B5A42A8
:105720005341DBB22A5D0A2AF0D1002BEED1A04210
:10573000E7DA211A28183B689847E2E7B04203DA13
:10574000311A28183B689847002E06DDAD19013D37
:105750002B780D3B5A4253413B74F8BD98DE001044
:1057600070B505000368002B16D00C4B1C6805E0D3
:10577000290004C92000FFF7B3FFE468002C09D01A
:105780002368002BF9D0064B1B68002BF0D0A342F6
:10579000F3D1EDE700232B6070BDC046AC230020A1
:1057A000B023002070B505000C000B68802B05D0DD
:1057B00021684B1C23606418257170BD0800FFF739
:1057C000CFFFF5E710B582B0D0231B061C6801A9F6
:1057D000064807F019FB002806D1019BA34203D01D
:1057E000024807F049FB012002B010BD381D00201F
:1057F00010B5024807F0C8FA10BDC046381D002099
:10580000F0B5C64600B582B006000D001700FFF7E0
:10581000D9FF80466B1C02D0184B1C680DE030008D
:1058200004F01CFF0500F7E76B46D91D0A230B7037
:1058300001222000FFF754FFE468002C10D02368F9
:10584000002BF9D00E4B1B68002B01D0A342F3D1E3
:105850002A0031002000FFF743FF002FECD0E3E7E0
:105860004346002B06D1681E8541E8B202B004BC55
:105870009046F0BDFFF7BCFFF5E7C046AC23002023
:10588000B02300200C4B1A681300002B0BD083426E
:1058900002D01A00DB68F8E7002903D1DB68D36087
:1058A0000023C36070470029FCD0002A01D0D060DB
:1058B000F8E7014B1860F5E7AC23002010B5064B64
:1058C0001C6800E0E468002C04D06368002BF9D069
:1058D0009847F7E710BDC046AC23002070B505001F
:1058E00004F0BCFE0400012201002800FFF788FF3D
:1058F000FFF7E4FF200070BD70B5A2B004000E00F9
:10590000FFF760FF05008422002101A8FFF7D0FE09
:105910003300220001A90848FEF76EFD040001A82B
:10592000FFF71EFFFFF7CAFF002D02D1200022B0B3
:1059300070BDFFF75DFFF9E7A55700100FB400B584
:1059400083B004A901C90191FFF7D6FF03B008BCD9
:1059500004B0184710B500F085F800F0C9F910BD83
:10596000F0B583B000251AE06B4607330D241C7098
:10597000002403E01F78176001340133002C1CD190
:105980009769BF06FCD4F5E71E7816600134013331
:10599000002C03D19669B606FCD4F5E701358D429B
:1059A00010DA094B1A68465D084BD3185C42634114
:1059B0005B00074C1B5FB342D6D06B4607331E70AB
:1059C0000024E5E703B0F0BDD02A00200080FCBF32
:1059D000DC2A0020F0B583B0070000200DE09369B9
:1059E000DB06FCD413682B7001340135002CF6D093
:1059F0006B4607331B780370300088420CDA094B82
:105A00001A68936910252C001C401D4204D1461CC5
:105A100038186B46DD1DE9E7002801D003B0F0BD62
:105A20000338FBE7D02A002070B515001C000B4B93
:105A30001860FBF741FE002D06DA002C09DA01217F
:105A40000748FFF71FFF70BD02212800FBF71AFD72
:105A5000F3E702212000FBF715FDF0E7D02A002034
:105A60002013002010B5064B1B78064B1B78E12154
:105A70000123002249020448FFF7D6FF10BDC046AB
:105A800008F200100CF200100040034070470000C4
:105A9000014B00221A707047D92A00204B79FF2B46
:105AA0000CD18B79002B0BD1CB79012B0AD1082A91
:105AB0000AD98A78054B1A70092000E00020704747
:105AC0000020FCE70020FAE70020F8E7D92A0020B0
:105AD000012070470120704770B50A794B791B028D
