:020000041000EA
:1000000000B5324B212058609868022188439860DF
:10001000D860186158612E4B002199600221596106
:100020000121F02299502B49196001219960352056
:1000300000F044F80222904214D00621196600F024
:1000400034F8196E01211966002018661A6600F04E
:100050002CF8196E196E196E052000F02FF8012189
:100060000842F9D1002199601B49196000215960AB
:100070001A491B48016001219960EB211966A021F2
:10008000196600F012F800219960164914480160C1
:100090000121996001BC002800D000471248134993
:1000A000086003C880F30888084703B5996A0420EC
:1000B0000142FBD001200142F8D103BD02B5186610
:1000C0001866FFF7F2FF186E186E02BD00000240BE
:1000D000000000180000070000035F00212200005C
:1000E000F4000018222000A00001001008ED00E03C
:1000F00000000000000000000000000074B24E7A12
:1001000000200420F7010010C3010010C5010010F9
:10011000C1010010C1010010C1010010C101001097
:10012000C1010010C1010010C1010010C701001081
:10013000C1010010C1010010C9010010CB01001065
:10014000CD010010CD010010CD010010CD01001037
:10015000CD010010CD010010CD010010CD01001027
:10016000CD010010CD010010CD010010CD01001017
:10017000CD010010CD010010CD010010CD01001007
:10018000CD010010CD010010CD010010CD010010F7
:10019000CD010010CD010010CD010010CD010010E7
:1001A000CD010010CD010010CD010010CD010010D7
:1001B000CD010010CD010010CD010010CD010010C7
:1001C00000BE00BE00BE00BE00BE00BE00F04BF888
:1001D000103800BEF2EB887114B9041038B904105D
:1001E0003402001090A31AE700202149086006C8D5
:1001F00081F3088810471F48006800282FD10DA4FC
:100200000ECC002902D000F012F8F9E71A491B4A77
:10021000002000E001C19142FCD1194988471949E9
:1002200088471949884700BEFDE701C901C29A42C3
:10023000FBD3704738B90410C0000020441F0020D1
:10024000BCD704100000042000000420BCD7041018
:1002500000100420001004200000000070470B482C
:1002600004F078FC0047EFF30580C0B2704700004F
:1002700008ED00E0000000D0481F0020EC45002001
:100280005D2B0010150C0010812C0010575600003B
:1002900006005250ABB36053A01604100600525033
:1002A000861C0302B0160410060052505422A29D70
:1002B000C016041005005250DE65F468BCD7041067
:1002C000F8B5C0460448054B10B5834203D0044B33
:1002D000002B00D0984710BD441F0020441F002071
:1002E0000000000006480749091A8B10C90FC918F9
:1002F00010B5491003D0044B002B00D0984710BD17
:10030000441F0020441F00200000000010B5074CCF
:100310002378002B09D1FFF7D5FF054B002B02D026
:10032000044800E000BF0123237010BD50200020CE
:100330000000000038110410054B10B5002B03D04D
:100340000449054800E000BFFFF7CCFF10BDC046E0
:1003500000000000542000203811041010B50B4B91
:1003600082B001930523052203210948009300F080
:100370005BFE002807D1074C200005F0FBFDC820DC
:1003800001F0C4FFF8E702B010BDC0460000FA4318
:10039000203B002084110410F0B5444883B005F0E0
:1003A000E9FD434C4348216805F0ECFE424D4348CB
:1003B000296805F0E7FE266833F062FD076833F030
:1003C0005FFD002301A90360300037F0FBFB019BB8
:1003D000041C9E4263D033F053FD0368222B61D08E
:1003E00033F04EFD0368002B55D02E6833F048FDE6
:1003F000076833F045FD002369460360300037F09D
:10040000E1FB009B051C9E4249D033F039FD036897
:10041000222B47D033F034FD0368002B37D0284B14
:10042000284A1B6812689B1A1E2B20D92649201CBB
:1004300005F07CFB00281AD000220021FF2001F0EB
:100440003DFA01F02FFAFA20400001F05FFF3D2451
:1004500000220021002001F031FA013C01F022FAD3
:10046000002CF5D1642001F051FF03B0F0BD174915
:10047000281C05F05BFB0028DED11549201C05F087
:1004800047FB0028E3D0FF2200210020D7E733F00C
:10049000F7FC0760C3E733F0F3FC0760A5E70D48FE
:1004A0001AF020FB0B481AF04DFBC0469C110410BB
:1004B000D0200020B8110410E8200020CC11041036
:1004C000C8200020CC2000200000C84100007A4451
:1004D0000000A041D8110410F0B5C64600B58AB09E
:1004E0000200264901A804F0C3FA06AD01A804954C
:1004F00036F032FB0400012830D0002828D1002635
:1005000005942C192670049F33F0BAFC03689846B2
:1005100033F0B6FC0A2206606946380037F062FC08
:10052000009B04009F4226D033F0AAFC0368222BD4
:100530001ED033F0A5FC0368002B14D00498A84209
:1005400001D005F003FC20000AB004BC9046F0BDC9
:10055000020001A9280005F0E7FBD0E76B461A79F5
:1005600004AB1A72CBE733F08BFC43460360E5E73C
:1005700003481AF0E7FA02481AF0B4FA28120410F5
:10058000E011041070B594B001F072F97F23724C41
:1005900072482278E1781A402270627810AE1340D7
:1005A00063703F23A2781A40A27007220A40E270CB
:1005B0002279617913401F220A40A1792371627167
:1005C00005F0E0FDA17823786278654805F0DAFD52
:1005D000E378644A013B9B00985805F0CBFC6378B4
:1005E000A278614905A804F043FA21796379A279D8
:1005F0000BA800915D4904F03BFA05A805F0BAFC90
:100600000BA805F0B7FC5A4D280001F085F8002230
:100610002800002101F086F82800564901F09CF8D6
:10062000280005A901F098F8FA20400001F06EFEBC
:1006300000222800012101F075F828004E4901F040
:100640008BF828000BA901F087F8FA20C00001F010
:100650005DFE61786379A2790291A17808A8019181
:1006600021790091454904F003FA08A80E9636F066
:1006700073FA050001284ED000283DD100230F95C4
:1006800075192B700E9B3E4D2868B3424CD02A0042
:100690000832904236D02B600F9BAA686B60109B8B
:1006A000AB60002833D00E90109200230F9303709C
:1006B0000E98B04201D005F049FB286805F05AFCBD
:1006C000A078FFF709FF05006078FFF705FF290113
:1006D0002C4C491B89002C4D091822682B48296095
:1006E00005F050FD2A4B1A78002A03D02A682260B0
:1006F00000221A7014B070BD020008A9300005F085
:1007000013FBBBE72B600F9B6B60109BAB600E96DF
:1007100010AE3000C9E720226B4640219B186A4684
:100720001B7852181370A9E70F9A002A06D0012AE5
:1007300009D0310005F0F8FA0F9A286800236A60A2
:1007400083540E98B1E76B463F329B181B780370B9
:100750000F9A2868F2E7C0464C130020E8110410F5
:10076000FC11041054130020101204101C12041069
:100770008042002030120410381204103C12041081
:1007800000210020CC200020C8200020541204109A
:100790003C13002008B4F0B50D00110082B01C23FA
:1007A0006E460400C81D00AFC008FB18C000301A18
:1007B00004CB85463B60A8470500200008306E4604
:1007C00020607D600F2D10D8012D0BD1337823725E
:1007D00000236560BD464355200002B0F0BC08BC54
:1007E00001B01847002DF3D007E000222000391D8A
:1007F00025F00AFD7B682060A3602A00310005F027
:1008000093FA7D682068E3E7F0B52C4C8FB02000A8
:1008100000F0FCFC200000F065FE051C200000F04C
:1008200063FE200000F062FE2549281C05F031F926
:1008300005F0CAF90D00040002000B00214805F084
:10084000A1FC00940195204B3A22204908A8FFF70B
:10085000A1FF099B04AD1C00089E0295042B00D942
:100860000424002E23D0012B1DD002AF002B14D165
:10087000002303942C1923700AAB9E4202D030004F
:1008800005F064FA1248390025F000FD0298A842EC
:1008900001D005F05BFA0FB0F0BD22003100280056
:1008A00005F042FAE4E7337802AF3B72E0E702AFCB
:1008B000002BDDD007481AF0FDF8C046203B002091
:1008C000000040407C12041090120410994A00105D
:1008D000D020002094120410F0B557464546DE465D
:1008E0004E46E0B5A1B002AB994604AB4A469846E5
:1008F0000293002308AF1372039309933B72BA4B20
:1009000000219B46B94B10259A460AAAB84C08927A
:10091000FF22A3691D4225D1A3691D42FCD1236892
:1009200018003038C0B20928F3D81340303B8B424E
:10093000EFD01E001900584605F024FC5346102243
:10094000AC491AA80096FFF725FF38001B9A1A99A0
:1009500025F0D0FE1A981CAB984201D005F0F6F9AC
:100960003100D5E70899A44805F00CFC099B10ADAF
:100970001C0008990E95042B00D90424002900D1ED
:10098000BCE0012B00D1B0E0002B00D0A8E0002794
:100990000F942C1927700E9E33F072FA03689A4652
:1009A00033F06EFA0A2207601AA9300037F01AFAFB
:1009B0001A9B04009E4200D112E133F061FA0368F1
:1009C000222B00D109E133F05BFA0368002B00D140
:1009D0008FE02100894805F0D5FB894B9C4230DD32
:1009E000099B16AC1E0008991494032B00D903260A
:1009F000002900D1CAE0012B00D1C3E014AF002BC5
:100A000000D081E000231596A6193370149B02983C
:100A1000A34200D185E0404500D1C8E04A46029398
:100A2000159B92680393169B0493002800D1C3E0A2
:100A3000149016920023159303701498A0422ED19F
:100A40002FE0099B1CAC1E0008991A94042B00D9B6
:100A50000426002900D19DE0012B00D18CE0002B61
:100A60006ED100231B96A61933701A9B0298A342DD
:100A700000D172E0404500D190E04A4602931B9BB2
:100A8000926803931C9B0493002800D18BE01A907A
:100A90001C9200231B9303701A98A04201D005F00A
:100AA00055F94946574825F0F1FB0299564805F09B
:100AB00069FB0E98A84201D005F048F908980AABE6
:100AC000984201D005F042F90298404501D005F066
:100AD0003DF921B03CBC90469946A246AB46F0BDDC
:100AE0002200280005F020F951E70A780EAB1A72AF
:100AF0004DE733F0C5F9534603606AE7002B00D198
:100B000045E7424819F0D6FF3200200005F00CF905
:100B100000231596A6193370149B0298A34200D0A7
:100B200079E7159A002A06D0012A51D0210005F054
:100B3000FBF8159A0298002303928354149879E7DE
:100B40003200200005F0F0F800231B96A619337040
:100B50001A9B0298A34200D08CE71B9A002A06D069
:100B6000012A2DD0210005F0DFF81B9A02980023FE
:100B7000039283541A988CE70B786A4670215218B6
:100B800013706EE70B7814AF3B723BE7002BB8D1C4
:100B900014AF37E7002B00D163E7B2E702931B9B4A
:100BA00003931C9B04931A941CAC200071E70293DE
:100BB000159B0393169B0493149416AC200039E7FD
:100BC0006B466F329B181B7803701B9A0298CEE716
:100BD0003B7A0370159A0298ADE70D4819F0B2FF01
:100BE0000B4819F07FFFC046C0120410D012041049
:100BF00000400340994A0010D4120410E812041077
:100C0000B80B0000E8200020F81204109412041021
:100C1000E0110410F0B5DE4657464E464546E0B5B5
:100C200091B005F0BBFA192000F07EFE934B01262F
:100C30009A46186800F078FED023802251461B06A1
:100C400092045A62320009688D488A405A6205F05F
:100C500091F9FFF783FB8B4C200000F0C1FD8A491E
:100C60008A4807F097FC06210500102000F02CFEB2
:100C70000021012310228548009607F0FDFC802307
:100C80005B020A93EB1CEA011B031343804A052015
:100C900013400B937F4B0D937F4B0C9302F09AF90B
:100CA00004F055FF7D4904F0FAFE071C04F076FFBE
:100CB00086B20023002E0DD0300004F048FF011C46
:100CC000381C04F0E6FE8721C90504F0EBFE04F0B1
:100CD00065FFC3B236041B0233436C4E2A00002169
:100CE00030000A930AAB07F00BFD01223368642041
:100CF0001343336001F00AFBE121694D49022800EA
:100D000000F0F6FE0221002000F0DEFD02210120AD
:100D100000F0DAFDE1212800490200F05BFFC0226B
:100D20002B6B120213405F4A04AF13605E4B984670
:100D30005E4B9B465E4B994652E00499200000F0C2
:100D40000BFDFA20400001F0E1FA00220121200011
:100D500000F0E8FC0CAD574B0A951A682D210C9257
:100D60001B7902AA2B7105230B93002352181370D1
:100D7000514B0AA806CB25F0BDFC20000A9900F0D3
:100D8000EBFCFA20C00001F0C1FA0A98A84201D099
:100D900004F0DCFF049806AB984201D004F0D6FFC3
:100DA000524601231268D02580269340FA202D0652
:100DB000B6046E6140006B6101F0A8FA524601234F
:100DC0001268FA2093404000AE61AB6101F09EFAD8
:100DD000FFF782FD394805F0CDF8642001F096FA5E
:100DE000FFF7D0FBFFF710FDFFF7D6FA0222002134
:100DF000200000F097FC2000314900F0ADFC0022FB
:100E00000121200000F08EFC2E49200000F0A4FCFF
:100E10002D4801F07BFA200000F07EFC002200212A
:100E2000200000F07FFC06AB3B6043461B6802AA33
:100E3000069343469B88380093820623059300233C
:100E4000BB735B4606CB25F055FC204B1B68039318
:100E50004B46039A1B68D31A1D2B00D96DE71C4B18
:100E6000059A9B1A022B05D903223800194925F04F
:100E700041FC62E7184819F04DFEC04640130020BF
:100E8000141304108042002034130410000020507A
:100E9000FFFFFF9F00400020000006400024F44AAE
:100EA000004003403050034058110410D02000206F
:100EB000CC2000207C110410E82000200413041032
:100EC0003811041048110410B80B0000C82000208D
:100ED000FFFFFF3F781104106011041010B51A488D
:100EE00084B007F057FF0122184B00241A70184AEB
:100EF00027215A60174A18481A810D229A720C232A
:100F000001920093029404330B3A00F013FB134B4D
:100F10001A0008321A605C601C72114B1A00083209
:100F20001A605C601C720F4B1A0008321A600E4A7D
:100F30001C739A6004225A600C4B1A0008321A6023
:100F40005C601C7204B010BD90370020203B002074
:100F50004C140020760C000080420020D02000209D
:100F600000210020E8200020302E30301821002001
:100F7000F0B5C646436807689846DB1B00B50D1CF4
:100F80009A101E110F2B4DDD36013C00BE1914E0E6
:100F90006168281C04F0B4FD00281CD1A168281C3D
:100FA00004F0AEFD002818D1E168281C04F0A8FD6B
:100FB000002814D11034B44213D02168281C04F046
:100FC0009FFD0028E4D0A04514D0E01B8010C0B2E3
:100FD00004BC9046F0BD0434F5E70834F3E70C3464
:100FE000F1E743461A1B9210022A0CD0032A03D0C1
:100FF000012A0FD00020EBE72168281C04F080FDB7
:101000000028E0D104342168281C04F079FD002870
:10101000D9D104342168281C04F072FD0028D2D1F3
:101020000020D5E73C00DFE7F0B5DE464E464546FA
:101030005746E0B589B01E0012AB1B780400894604
:10104000406870499B46039207F0B2F909200321DA
:10105000205600F039FC092000220121205600F022
:101060004BFC0A200321205600F02EFC0A2000220F
:101070000121205600F040FCD02307AD2B70CF3B60
:101080002A00217A0093606807F0E6F902AB9C46DB
:101090000E2700236744009398463A000133217AD3
:1010A000606807F029FA3B78602B0DD00022924649
:1010B000582B07D0504609B03CBC90469946A246F2
:1010C000AB46F0BD43462370B623E0223B706B7005
:1010D0000023217A98462A7060682A000093023320
:1010E00007F0BAF9642001F011F95B463B70F22376
:1010F0002B705B466B7043462A00217A0093606830
:10110000023307F0A9F94B46B6001E43039B606803
:101110005A01F4232B7043461643F6B23E702A0060
:10112000217A6E700093023307F096F936481399CE
:10113000FFF71EFF082340011843F5232B70434699
:10114000C0B238702A006870217A00936068023358
:1011500007F082F9882301272B702A00217A873B28
:101160006068009707F078F9434622000093217ADF
:10117000193360680C3207F0BFF923789A46002BC8
:1011800002D101239A4695E7E1232A002B70217AA8
:10119000E03B6068009707F05FF9434606AE320017
:1011A000217A00936068033307F0A6F972783378E8
:1011B00012021343E3842823B278E25402AB9C4624
:1011C0000F22E42362441370217AE33B60680097A6
:1011D00007F042F943462A00217A009360680433FD
:1011E00007F08AF90F2269782B780A401B011A430D
:1011F000AB7809111B010B43A3852E236285EA7886
:10120000E25457E7801A060068310020F0B5DE4648
:1012100057464E464546E0B58DB006AB9C460F227C
:10122000F723624400251370012380460A950B952D
:10123000017A0093406807F00FF9434640460AAC34
:10124000197A009522000823406807F055F92378A1
:10125000E1880293627801270692A3789D4E079356
:10126000E37822791B041202134362790591414607
:1012700088891A431B0A1B1AD2114000121A0E2029
:10128000095E5B434A434146D21292461020095EF2
:101290001B134B439B139A445146880050448030A3
:1012A000001204F059FC8C4904F0F9FB52467F42CD
:1012B000D317B6185F414146320008633B00300047
:1012C000390004F0C9FB8B46414681461424085F6F
:1012D00032003B00C11704F0BFFB0D034146030D74
:1012E00004031620085E1D434A465B46C11704F0FE
:1012F000B3FB0A069446020A60460B120243121917
:101300006B41190080231000444600221B02801804
:1013100059410023628A04F09FFB4D102B00CC172B
:10132000002023437CD002990B0406990A0241460F
:101330001343079A1A4306921C20085E4A465B46EE
:10134000C11704F089FB0391414602901A20085E00
:1013500032003B00C11704F07FFBC60B4B04334344
:101360004204029E039FB6185F418023069A5B03E6
:1013700012119B1ADA1794460296039766465A088A
:10138000D8074346F107114318229B5E0022029EB4
:10139000039FDB0092197B41801A994100234F4A39
:1013A00004F05AFB2A00230003F058FCCB04460B40
:1013B0001E43434604002220185E4F130D003200E6
:1013C0003B00C11704F048FB32003B0004F044FB33
:1013D000CB01460E1E4343462020185E22002B0000
:1013E0004F16C11704F038FB36196F41C20C4C037D
:1013F0002243CB14B6185F413B06300A18434346DC
:101400001E241C5F3912E617250F33012B432201DE
:101410008018594104F0CAFBEE21890504F042FB13
:10142000434658631B78002B4AD0059B2C4C5ABA74
:1014300043462A20185E434692B292030005111AD1
:101440002C20185E544460438023081A2822414609
:10145000DB019C468A5C802162436044D21209020F
:10146000C313501841462E228A56802189038C4688
:1014700041466243921242432620085E9212624421
:1014800050438022920194464146242260448013B6
:101490004343D81340438A5CC01150430011181ACB
:1014A000C343DB171840C8235B0598420FDC0013C9
:1014B00004F052FBEA21890504F0F4FA43469863EC
:1014C0000DB03CBC90469946A246AB46F0BD180014
:1014D000EDE7C046000CFEFF0000C842350C0000DE
:1014E00000D4FEFF006B7047406B7047806B704705
:1014F00070B588B06D462A000C4B13CB13C213CBCA
:1015000013C203CB03C20023094C20202360636075
:10151000A36004F00FFC0600203620222900206082
:10152000A66004F001FC666008B070BD44130410AE
:1015300068310020F0B5CE468C4699461023836270
:10154000C3656346474603604B461100202280B5C1
:1015500004240825012702268360079BC262C3601A
:10156000089B20320361099B026340328761C66198
:1015700045628763C66307644664056585650566DD
:10158000046242638464C4644465446641604361A8
:101590000CBC90469946F0BD0B00016EF0B5C646F6
:1015A0000A4351B21F000F220F2500B51B019743BC
:1015B0000F4319434BB2984684B043697FB26D44E0
:1015C000CEB2040001782F70012B00D16FE0002310
:1015D0002A0000934E48013306F03EFF962000217A
:1015E000800000F04BFE636E21783B432B706369F3
:1015F000012B00D183E000232A00009344480133EB
:1016000006F02AFF96200021800000F037FE636E6E
:1016100021789F4363692F70012B68D000232A0033
:1016200000933B48013306F017FF9620002180000D
:1016300000F024FE636921782E70012B4FD0002327
:101640002A0000933248013306F006FF962000215D
:10165000800000F013FE4346626E217813432B7026
:101660006369012B33D000232A00009328480133FB
:1016700006F0F2FE96200021800000F0FFFD4346B8
:10168000626E217893432B706369012B17D000237E
:101690002A0000931E48013306F0DEFE962000214A
:1016A000800000F0EBFD04B004BC9046F0BD0023C8
:1016B0002A0000931748013306F0CEFE8EE7002380
:1016C0002A0000931348013306F0C6FEE6E7002324
:1016D0002A0000930F48013306F0BEFECAE700233C
:1016E0002A0000930B48013306F0B6FEAEE7002354
:1016F0002A0000930748013306F0AEFE95E7002369
:101700002A0000930348013306F0A6FE7AE7C0469C
:101710004C1400205414002010B50022017EFFF765
:101720003BFF10BD10B5002905D001290AD00229C0
:101730000ED0032909D0803211000022C9B2FFF770
:101740002BFF10BDC0321100F7E7D4321100F4E7CF
:1017500094321100F1E7C04670B50C00097805001D
:10176000002907D0012228000134FFF715FF217856
:101770000029F7D170BDC04610B504000022032136
:10178000FFF70AFF200000220321FFF705FF2000DA
:1017900000220321FFF700FF200000220221FFF7B3
:1017A000FBFEE36B216A200019430022C9B2FFF758
:1017B000F3FEA36DE16A200019430022C9B2FFF7CE
:1017C000EBFEA36C616A200019430022C9B2FFF747
:1017D000E3FE00222000217EFFF7DEFE10BDC046A2
:1017E000436970B51D490400012B1ED01C4806F04A
:1017F000DFFD0321E06800F067F80321206900F0B5
:1018000063F800220121E06800F076F8002201214F
:10181000206900F071F8134D2B78BFF35B8FDB0765
:1018200007D52000FFF7A8FF70BD0F4806F0C0FDE8
:10183000DFE7280006F0ACFF0028F2D02269E36859
:101840005104DB010B43120313431A221343074ACB
:101850002800536006F0B8FFE3E7C046A086010009
:101860004C140020D82100205414002044130020E0
:101870000F2230B50123002585B0084C6A4415704D
:1018800068210093200006F0E7FD0723682120006F
:10189000034A009506F030FE05B030BD4C14002020
:1018A0004C1300208021044A0002490253680B4275
:1018B000FCD110617047C04600002050090411435C
:1018C000000208437047C046094A830094464022FC
:1018D000634410B51C68C0006240C02414408022DC
:1018E000520113431C60034B9C466044416010BD91
:1018F00004C00140004001400A4B80009C46042384
:101900006044002901D00C230821002A00D10B00DB
:10191000026853400C221A4080235B011843026086
:101920007047C04604C001400123D0228340120604
:1019300093629361094A8300944640226344196884
:10194000C0004A40C0211140802252011343196057
:10195000034B9C46052360444360704704C001402C
:1019600000400140EFF3108072B6034A1368002B69
:10197000FCD0BFF35F8F70472C0100D0BFF35F8FA7
:101980000022024B1A6080F3108870472C0100D0AF
:10199000F8B5CE464746914680B5EFF3108772B64C
:1019A000124E3368002BFCD0BFF35F8FCB08C55CB1
:1019B0000724C218280001230C409446E0401A0076
:1019C0000240904603420DD1A34062462B43137060
:1019D000BFF35F8F4346336087F310880CBC90469B
:1019E0009946F8BD484601F067F9C0462C0100D081
:1019F000F8B54746CE46884680B5EFF3108C72B6F0
:101A0000214D2C68002CFCD0BFF35F8F9A422DD85B
:101A1000D408055D071907242E001440E640F1079D
:101A20001ED507218946063908E0D408055D071947
:101A30004C462E001440E640314211D00132934210
:101A4000F3D201204042BFF35F8F00220E4B1A6099
:101A50008CF31088002811DB0CBC90469946F8BD29
:101A60000123A3401D4310003D70ECE7BFF35F8FDF
:101A700000232B608CF31088012040424346002B4A
:101A8000EAD0089801F018F92C0100D00021044B8D
:101A9000044ABFF35F8F02C39342FAD17047C04636
:101AA000000100D0800100D0044A1078431CDBB252
:101AB000172B00D9102313707047C04670130020F5
:101AC00000B5054B83B00100009318221F23034883
:101AD000FFF78EFF03B000BD881304105C3B0020AD
:101AE000024B18688007C00F7047C04600C0064010
:101AF000F8B5040006200D0001F06CFA002845D06E
:101B00002B4B2C49E3185A4253418022D20394466E
:101B10005B421340284A63441360284A136018004C
:101B20008A689043FBD1224B8021E3185A425341EB
:101B3000234A5B0049000620995201F04BFA290024
:101B4000C00003F061F8C30921D14027012226001B
:101B500080256262A36200232C36AD0135432B60E1
:101B6000062001F037FA3900800003F04DF86023B9
:101B7000E26A53406E221A4080235B0133431A60AD
:101B8000104B236310232B600D3BA364F8BD0E4A5A
:101B9000934203D900230D4F0D4AD8E77F2210400E
:101BA000013040089F011A003F180300CFE7C046EC
:101BB0000080FCBF00C0004000E0004000F000409A
:101BC0002043002001030000FEFF0000C0FF3F0093
:101BD000FFFF000070B5040006200D0001F0FAF9C7
:101BE0002900C00003F010F8C30906D0104A934240
:101BF00015D900230F4D104A01E040250122802015
:101C00006262A362002380012C3404432360062017
:101C100001F0E0F92900800002F0F6FF70BD7F229C
:101C20001040013040089D011A002D180300E6E71E
:101C3000FEFF0000C0FF3F00FFFF000083680B486D
:101C400010B5844661446244090112019A1859187A
:101C500054684B6801209C4201D802D00020C0B2D9
:101C600010BD12680B689A42F9D8F7E7FFFFFF0F23
:101C700040BF002000217047F8B557464E46454604
:101C8000DE46E0B5434D81468A466A68EFF3108828
:101C900072B61368002BFCD0BFF35F8F2E68B47B45
:101CA000002C3ED0670033683F19033FDA195378A0
:101CB000B373002B00D1F373002393705370137030
:101CC000A968354A8C464946A2181201624411603F
:101CD000514651603149D36091603268D219937096
:101CE00053701370737B9B46002B35D02200190074
:101CF000B068736898473268002820D05B46584621
:101D00005B005B44D719033BB870D118D35C002B40
:101D100000D07B705B460C7073735C451DD0002651
:101D200026E06B68BFF35F8F1C6088F3108801208A
:101D300040423CBC90469946A246AB46F8BD5B4645
:101D40005B005B44033BD3189C70D119D25D002A21
:101D500000D05A705B460B7074734A465346287D18
:101D600000F056FC061EDAD02100286800F0B8FE0C
:101D7000EB686A681B19013B1B78BFF35F8F00217A
:101D8000116088F310880020002ED2D11802204361
:101D9000CFE7C04674130020FFFFFF0F711C001037
:101DA000F8B5574645464E46DE46E0B599460CAB7B
:101DB00019780DAB1B78050090469A4607680029F4
:101DC00012D1BE7B002E45D074003B68A419033CA1
:101DD0001B195A783100BA73002A00D1FA73002215
:101DE0009A705A701A7003E00E004C006418033C9D
:101DF0002C4B00229C46AB6861449C46434609013B
:101E000061440B604B464B600A9B8B600B9BCB6025
:101E10003B681B199A705A701A707B7B9B46002B8B
:101E20002CD032005946B8687B6898473A68002839
:101E300017D05B4658465B005B441419033BA07007
:101E4000D118D35C002B00D063705B460E707B739F
:101E5000B34514D030003CBC90469946A246AB46F0
:101E6000F8BD5B465B005B44033BD3189E701119C1
:101E7000125D002A00D05A705B460B707E7342469A
:101E80004B46287D00F0C4FB041E06D05346002BB1
:101E900003D13100286800F023FE0E9B002BD9D01F
:101EA0001C70D7E7FFFFFF0FF0B5DE464E465746E2
:101EB00045460023E0B58DB00A936B4B8200D358A2
:101EC0000B90994600239B464B46079300F040FB3E
:101ED000079C06000F006268EFF3108572B6136866
:101EE000002BFCD022000794BFF35F8F2468637B34
:101EF0009946002B67D092685C4B90464B441B017F
:101F0000984443461A685B6810001900801BB94169
:101F100000295FDD0B9800F07BFB0023002698462C
:101F200000279A46079C6368BFF35F8F5A461A6082
:101F300085F310885346002B08D10028C6D10DB078
:101F40003CBC90469946A246AB46F0BD0A9B414632
:101F500018024B461843D047089009916268EFF386
:101F6000108572B61368002BFCD00794BFF35F8F07
:101F70000899099A002A48DB114303D0079B1B6983
:101F8000002B5DD1079B1B68DA7B002A07D051002C
:101F90008A1819688C4649466244033A51704A4689
:101FA000DA734B46079A013BD168CA5C0132CA54C6
:101FB0005B46079A13615368BFF35F8F5A461A60F6
:101FC00085F3108882E700230026984600279A466A
:101FD0000020A7E7002901D100289BD10021200083
:101FE00000F0E0FC43461E685F689B68079A9A46CB
:101FF0004346DB689846D3684B44013B1B780A9301
:102000001B020343136100208CE72369002BB9D026
:1020100033003C005B1A94411A002300A74219D8F0
:102020009F421BD0594604910121039149460291D8
:1020300041460191514607980091FFF7B1FEB7E77D
:1020400000F086FA089A099B06000F0092197B415E
:102050009942E5D901225242D317E3E79642E1D9EA
:1020600001225242D317DDE7F0420020FFFFFF0FAD
:1020700010B5104C6368002B00D010BD23000E4A31
:102080001021206800F0ACFB032000F055FA03207B
:1020900000F030FB0320094900F074FAFFF704FD5B
:1020A000074B9C46032360442375064B8000606009
:1020B000DC60E2E7741300203D1C0010A91E001034
:1020C00040000034F04200200048704774130020A4
:1020D000F0B557464546DE464E46E0B585B001931D
:1020E00010AB1B7800270393002380469A4600928A
:1020F00043465A68EFF3108972B61368002BFCD080
:10210000BFF35F8F43461D68AC7B002C4FD0660049
:102110002B683619033E9B195A78AA73002A00D1FE
:10212000EA7342469F705F701F709268524B9446EC
:102130000099019AE3181B01634419605A600E9AD2
:102140009A600F9ADA602B689B199F705F701F70FE
:102150006B7B9B46002B46D022001900A8686B6859
:1021600098472A68002831D05B4658465B005B449C
:102170009619033BB070D118D35C002B00D073705C
:102180005B460C706B735C452ED04346DB681B19B5
:10219000013B187843465B68BFF35F8F1F6089F38C
:1021A00010885346002B2ED10002204307E05B68C5
:1021B000BFF35F8F1C6089F310880120404205B097
:1021C0003CBC90469946A246AB46F0BD5B465B00E0
:1021D0005B44033BD3189C709119925D002A00D098
:1021E0005A705B460B706C734346187D009A019BD6
:1021F00000F00EFA82460028C7D043462100186836
:1022000000F06EFCC1E7039B002B32D00E9B002038
:102210000F999847030004000D000B4329D00029B3
:102220000DDA0098019902000B00121BAB41994294
:1022300015D81AD000920193039B9A4658E700F0F4
:1022400087F902000B00A4185D41200029000090CE
:102250000191AB4203D8EFD100998A42ECD9012316
:102260005B42DC1700930194E6E700999142E1D9C3
:10227000F5E70020A3E7C046FFFFFF0FF8B5040015
:102280000D0000F065F902000B00A4185D41A942A1
:102290002DD82AD006267642F71736196F41AF425D
:1022A0002CD90026002700F053F932003B00121A07
:1022B0008B41002B07DC04D02900200000F052F9EC
:1022C000F8BD002AF8D030003900FFF7D5FC00280F
:1022D000F2DB38000C4A536A984204D8916A8E4265
:1022E000EAD99842E8D120BFF5E7A042D2D901242B
:1022F0006442E51707267642F717D4E7AF42D2D1FA
:10230000A642CED8CFE7C04600400540F8B504004D
:1023100000F01EF9FA2206000F0020000023002121
:10232000920003F099FB8019794104000D008F425F
:102330002DD82AD006267642F71736196F41AF42BC
:102340002CD90026002700F003F932003B00121AB6
:102350008B41002B07DC04D02900200000F002F99B
:10236000F8BD002AF8D030003900FFF785FC0028BE
:10237000F2DB38000C4A536A984204D8916A8E42C4
:10238000EAD99842E8D120BFF5E78642D2D90124A4
:102390006442E51707267642F717D4E7AF42D2D159
:1023A000A642CED8CFE7C04600400540F8B5CE469D
:1023B000474680B506000C00FFF75EFC00280CDCE9
:1023C0002D4B0020596A8C4203D89B6A0130B342DE
:1023D00045D30CBC90469946F8BD20BF274D6A688E
:1023E000EFF3108772B61368002BFCD0BFF35F8F3A
:1023F0002B68C1B29C465B7B8B4235D0FF230340E8
:102400005A00914662461268994490464A464244B0
:10241000033A9278002A1DD0EA68000A90464344A5
:10242000013B1B78C0B2834221D06B68BFF35F8F42
:1024300000221A6087F310880F4A0020536A9C42DA
:10244000C7D8926A0130B242C3D2E41A601E8441F6
:10245000E0B2BEE72B699842E7D12A61E5E7641A4A
:10246000601E8441E0B2B4E7FF230340D4E7604636
:1024700000F036FBD9E7C046004005407413002049
:10248000F0B5D6464F464646C0B5EFF305833F222A
:10249000134018001038EFF3108C72B6204D2A68E4
:1024A000002AFCD0BFF35F8F0122110081401D4C38
:1024B000884661631C4917000E788A463100C14086
:1024C0000F400A4215D019498200646A51588C4263
:1024D00019D3174BD25843469E4353461E70BFF341
:1024E0005F8F00232B608CF31088002A06D0904762
:1024F00004E0BFF35F8F2F608CF310881CBC904604
:102500009946A246F0BD0B4A9B00904643441A6888
:102510001A60BFF35F8F00232B608CF31088EDE708
:10252000280100D0004005401E4300200843002041
:10253000103B0020D03F054010B50100024A03487F
:10254000FFF726FA10BDC046B01304101B4300204D
:10255000034B596A0A00986A596A8A42FAD170474D
:1025600000400540064A536A9942FCD807D1044B03
:1025700002E05A6A914202D19A6A8242F9D37047C4
:102580000040054070B504000D00EFF3108672B6F0
:102590001A4A1368002BFCD0BFF35F8F002D1BD0AD
:1025A000200000F0C9FD164981420AD0200000F049
:1025B000CBFD0121200000F0A5FD0123A340114A1D
:1025C0001360114BA400E550BFF35F8F00220B4B4B
:1025D0001A6086F3108870BD0B4BA200D550012203
:1025E000A2400A4920000B7893430B70044900F085
:1025F000D5FD0021200000F085FDE5E7280100D091
:102600008124001038600540103B00201E4300204C
:10261000F0B54F46D6464646C0B50700304C616A15
:102620000D00A66A616AA942FAD18B4208D805D08A
:1026300001201CBC90469946A246F0BDB242F7D993
:10264000EFF3108972B6274801680029FCD0BFF368
:102650005F8F01252449BD408C460978204C0E002F
:102660002E438846F1B28A46614650460870391DAD
:102670001E48890065630A51B9000B50216A002089
:10268000294219D0616A0800A66A616A8142FAD1BA
:102690008B4219D801D1B24216D8C2451DD0104B79
:1026A0001F201D625D6301230740BB40104A1E3896
:1026B0001360634642461A70BFF35F8F0022094BD6
:1026C0001A6089F31088B4E70020BFF35F8F0022FF
:1026D000044B1A6089F31088ABE70120ECE7C04691
:1026E00000400540280100D01E4300200843002080
:1026F00080E200E010B5EFF3108472B60A490B686F
:10270000002BFCD0BFF35F8F01238340074A0848AA
:10271000136202789A430270BFF35F8F00230B604D
:1027200084F3108810BDC046280100D00040054049
:102730001E430020024B9C466144890001607047A3
:102740004000003410B50400FFF7AEF9010020008E
:10275000FFF7F0FFFF232371BFF35F8F10BDC0466B
:1027600010B504000120FFF7ABF901002000FFF7CE
:10277000E1FFBFF35F8F10BD70B505000E001400C0
:10278000002924D0002A24D080686B6898472968E3
:1027900000280ED063001B197200033B9219CB185E
:1027A000033A9E7088188A5C002A14D104703000A5
:1027B0000EE073009B196200033B1219CB18033A19
:1027C0009C7088188A5C002A00D05A70067020001D
:1027D00070BD0800FCE75A7004703000F8E7C0468E
:1027E00030B583600023CCB243730133047342607D
:1027F0008373C4730D000068012C06D9421C013399
:10280000DBB2137003329C42F9D1FF2129404B0007
:102810005918002340180338437030BDF8B5CE4630
:10282000474606000C0080B5002907D04D0003681C
:102830006D18033D5A195778002F04D120000CBCA5
:1028400090469946F8BD7900C91903398846434432
:102850005978894600215970517073683A002100F7
:10286000806898473368002814D042469A189470BC
:1028700059195B5D002B00D053700F70270049463B
:102880003000FFF7CBFF390002003000FFF774FF84
:102890000400D3E7424641465D19AF709A185B5C6D
:1028A000002B00D06B701470E9E7C046F0B55746B6
:1028B0004546DE464E46E0B50D006B0001685B19EB
:1028C000DF1E0400C85D83B00192CA1900284CD0F5
:1028D00043001B18033BCB185E78B446002E16D17C
:1028E000019E002E3ED0E67B002E04D073009B1983
:1028F000CB18033B5D70E57300282FD10023537084
:1029000003B03CBC90469946A246AB46F0BD72006F
:102910006244033A89184A78904600224A709146E8
:102920005A70010032002000FFF726FF434682461E
:10293000002B07D05B0021684344033BCB185A7837
:10294000002A16D1424651462000FFF715FF2168A4
:10295000019BCA19002BC6D10028CFD043001B18F9
:10296000033BCB1800219970C8E7019B002BBAD11B
:10297000C4E7500080180338091848788346484651
:102980004870587041462000FFF7F6FE59468046D1
:102990002000FFF743FF414602002000FFF7ECFE56
:1029A0008046CFE7F0B54E464546DE465746E0B591
:1029B000467B040075000068AD19033D83B00191AA
:1029C000415D421900294ED04B005B18033BC318F0
:1029D0005F78BC46002F18D1019D002D40D0E57BCB
:1029E000002D04D06B005B19C318033B5E70E673C7
:1029F000002931D1002330005370617303B03CBC17
:102A000090469946A246AB46F0BD7A006244033A2E
:102A10008018427893460022427091465A702000F6
:102A20003A00FFF7A9FE5B468046002B07D05B000B
:102A300021685B44033BCB185A78002A17D15A46C9
:102A400041462000FFF798FE019B010020684219D3
:102A5000002BC4D10029CDD04B005B18033BC31819
:102A600000209870C6E7019B002BB8D1C2E7500048
:102A700080180338091848788246484648705870CC
:102A800059462000FFF778FE53468346002B07D0B7
:102A90005B0021685344033BCB185A78002A06D1C7
:102AA000594652462000FFF767FE8346C7E75000AD
:102AB00080180338091848464F78487058705146B6
:102AC0002000FFF759FE390081462000FFF7A6FEDF
:102AD000494602002000FFF74FFE8246E0E7C0466D
:102AE00070B5040000292CD0437B8B422ED00568A2
:102AF00048004018033828188278002A21D0530053
:102B00009B18033BEA5CEE188A4202D11BE0002AC4
:102B100008D053009B18033BEB185A788A42F6D131
:102B200042785A7000230122837043702000FFF71F
:102B3000BDFE617B02002000FFF71EFE60730120D6
:102B400000E0002070BD43783370EBE701221900EC
:102B5000FFF7ACFE60730120F4E7C0462B4B2C4A14
:102B600070B51A602B4A2C4B2C491A6010008B68E8
:102B70009843FBD12A4C2B4B9C4209D2013B1D1B95
:102B8000AD080135AD002D1908CC9847AC42FBD1FA
:102B900000F0B0F8244A204B1A60204A9368DB0109
:102BA0008033FBD14022214B214C9A675A671A6728
:102BB000DA66204B9C420BD2013B1D1BED08013510
:102BC000ED002D1920000834FFF7BCFDAC42F9D10F
:102BD000194C1A4DA168C022280003F0A5F8A56081
:102BE000FEF754FF00F012FCFFF742FA144C154BAD
:102BF0009C4209D2013B1D1BAD080135AD002D19CA
:102C000008CC9847A542FBD170BDC04600E000400B
:102C1000BFCDFFFFFE7F3C0000F0004000C0004041
:102C2000101F0020201F0020FFFFFF0100F00140C7
:102C3000081F0020101F002000ED00E00000002011
:102C4000201F0020441F002000BEFDE7094A0300AA
:102C50001068002805D00849C3188B4207D81360B4
:102C6000704706480449C31810608B42F7D9012009
:102C70004042F5E7F83B002000000420EC4500202E
:102C800000BEFDE710B50C0082B01900002A09D083
:102C9000064B0192009302002300054801F01AFF41
:102CA00000BEFDE7034B1A00F3E7C046D41304103F
:102CB000E4130410F41204100FB400B5084883B0F4
:102CC00003F058F9049B002B07D005A918000191C7
:102CD00001F020FF034803F04DF900BEFDE7C046B8
:102CE00014140410E412041010B50148FFF7E4FFB7
:102CF0002414041030B50C2083B000F071F9FEF7F5
:102D0000EFFE00280ED09A4B9A4A1A605A609A60D9
:102D1000DA601A615A619A61DA611A62964A5A62F5
:102D200003B030BD954CA06700F0AEF90122944B82
:102D30001A60636C012BFCD10322924B1A608F4AFC
:102D4000936B012BFCD1C0228F4B92011A608F4BE9
:102D50008F491A6010008B689843031EFAD1022431
:102D600001218C4A8C480633009400F0A1F9052318
:102D70008A4A01218A48009400F09AF9894B5A68DE
:102D8000FF2A02D8802252005A608022784C7D4B64
:102D900021691201834D1A60002905D0606901F094
:102DA00033FF01300138FDD1E0217E4B02201A684B
:102DB0001140802252012A431160196848400321C2
:102DC0000140116004219A681142FCD080228021C8
:102DD00092012A4309011160802252005A60724B0D
:102DE0002361724B5968FF2900D85A6003226F484B
:102DF000634B01211A60020093681942FCD0E02560
:102E000013681D4080235B0103431D6012684A4024
:102E10000321114019600221644A93681942FCD0D1
:102E2000802380219B010343090119608021604BAD
:102E30004900516063615F4B5A68FF2A00D85960AE
:102E400080225D4BE16912015A4D1A60002905D0BC
:102E5000606901F0D9FE01300138FDD1E022554909
:102E60000B681A4080235B012B431A608023802269
:102E70009B012B4312011A6080223E4B52004A6094
:102E8000E3614E4B5968FF2900D85A6080224C4BB1
:102E9000216A1201494D1A60002905D0606901F0CC
:102EA000B3FE01300138FDD1E02244490B681A40DD
:102EB00080235B012B431A60802380229B012B43DC
:102EC00012011A60802380225B004B60294BD202E2
:102ED00023623C4B5968914200D25A6080223A4B9F
:102EE000616A1201374D1A60002905D0606901F04E
:102EF0008BFE01300138FDD1E02232490B681A40C7
:102F000080235B012B431A60802380229B012B438B
:102F100012011A608023DB024B60174B63622B4B5C
:102F20005A68FF2A02D8802252005A608022284B19
:102F3000A1691201254D1A60002905D0606901F0D0
:102F400063FE01300138FDD1E02220490B681A40B0
:102F500080235B012B431A60802380229B012B433B
:102F600012011A6080235B004B60114BA361D7E60E
:102F7000603B0020006CDC021BB7000000800040BA
:102F80003CB0004030B0004000E0004000F00040A5
:102F900000C00040002F68590080024000389C1C8F
:102FA00000C0024030800040001BB7003C80004061
:102FB000405973075480004054B000406080004086
:102FC00060B000406C8000406CB000404880004021
:102FD00048B00040014B8000C0587047603B002063
:102FE0008023024A9B000343D36270470080054060
:102FF00010B5140080221A4BD2051A6000282CD07C
:103000000123184A1843184BDA61184A42401A62E1
:10301000596298628022124BD2051A601449154AEF
:103020001160E022D2041A60002C12D080236201C9
:10303000121B9200121912015B049A4200D30E4A2D
:103040000E4B1A60084B5A6080220D4BD2051A6055
:1030500010BD0C4A094B1A60F4E7034BD861D9E75D
:1030600000B00540D3C007B0008005402D3FF84FA9
:10307000FCFF010008200140FFFFFF00E8420020A4
:1030800000A00540A0860100AA23064A1B01136088
:103090002F230549D360054B19605368002BFCDAD8
:1030A0007047C0460040024000B0FA000060024095
:1030B000F8B51E0001235B424360002304008360D7
:1030C00001600C20170001F09FFD4101091A8D01DC
:1030D000691AC90009188901380001F095FDC0215D
:1030E000231D890119432123A0600B602268002A57
:1030F000FCDA069B36041B031E430823E6600B60C4
:10310000F8BDC04601238340002904D0034A136060
:10311000034A13607047034A1360FBE780E200E054
:1031200000E100E080E100E001238340014A1360F8
:103130007047C04600E200E0024B10309B68800000
:10314000C058704700ED00E070B50D00EFF3108639
:1031500072B60F4A1368002BFCD0BFF35F8F0D4B84
:1031600010309B6884001B590B4A934203D09D4248
:1031700001D0FFF7B9FD074B9B681D51BFF35F8F6F
:10318000BFF35F8F0022024B1A6086F3108870BD78
:10319000240100D000ED00E0CD010010F0B5DE46C6
:1031A00057464E464546E0B50C0083B0EFF3108A13
:1031B00072B65B4A1368002BFCD0BFF35F8F1022FE
:1031C000914681444A46574B96009B689D59564B01
:1031D00098469D4205D0A54216D0544FEB1B2F2B8D
:1031E00014D9504B9B689D51BFF35F8FBFF35F8F26
:1031F00000224B4B1A608AF3108803B03CBC904607
:103200009946A246AB46F0BD1D00EAE70123834084
:103210009B465A46464B1B681A4000925A46454BFD
:103220001A60BFF35F8FFDF71EF80190002803D0EE
:10323000814501D0FFF758FD01232A009A4313006E
:10324000DB1B5B4142495943090D93689C4208D1FD
:103250005BE043001B189B00FB189868A04211D04C
:103260001A00062010560028F3DA009B002B05D028
:103270005A46314B1A602E4B1A60B2E75A462D4B14
:103280001A60AEE706201856002822DB420011180B
:1032900089007C188846A1689960E179D971062176
:1032A00061569971A1797F291FD8A488F91A6405FC
:1032B000241544440919E0240905490D2402214339
:1032C000998012181D4B9200BF181A781870BA71A5
:1032D000CBE7019800280BD1FF30907118489080FF
:1032E000164A107811709871BFE7BD210902E7E70F
:1032F000144A1549D21A083A5002400D01439980E8
:10330000124952080A43DA80AFE70620105613002C
:103310000028BBDA019A002AEAD14546E0E7C04618
:10332000240100D000ED00E0CD0100109C1300202E
:1033300000E100E080E100E080E200E01C430020CA
:1033400000BDFFFFD613002000F0FFFF00F8FFFFD5
:10335000AAAA0000F8B5012504000543FCF783FF85
:103360000200EFF3108672B621490B68002BFCD0E7
:10337000BFF35F8F1F492000401A4041224B434357
:103380001B0D1D48920087685BB2BF58AF421CD02E
:1033900006228A569A421CD012228A569A4222D07B
:1033A0001E228A569A4220D02A228A5603209A4206
:1033B00010D0124A11781370A171BFF35F8F0022F1
:1033C0000B4B1A6086F31088F8BD81680C48885052
:1033D000EFE700204200121892008918FF228A713C
:1033E000084A8A80E5E70120F4E70220F2E7C046B8
:1033F000240100D09C13002000ED00E01C430020BD
:10340000CD01001000BDFFFFAAAA0000F0B5002208
:103410000324FF27802620003D00094B11009C4615
:103420001040C0008540A14361440B680132AB43AA
:10343000350085402B430B60202AECD1F0BDC046FF
:1034400000E400E09A4200D2885470477047C046BA
:10345000F8B557464E46DE464546E0B51F000A9B86
:1034600005009B460D9B0E00914692469B0718D186
:103470000B9B0C9A934214D213000B9AB8469B1ADA
:103480004B444C460F0006001D0022004346013409
:1034900039002020B047AC42F7D1AA4635003E00A3
:1034A00047460B9B002B38D09A441C00D04653460D
:1034B0001A1B5B46013C185D31003B00A847002CFD
:1034C000F5D10D9B9B0721D543464A469C1A0C9B80
:1034D000A3421BD93A009A464F469146E2194B4601
:1034E000310020200134A8475445F7D343460C99B6
:1034F000DB1B0133B9460022994203D343464A1EDF
:103500004A44D21A434690460133984440463CBC54
:1035100090469946A246AB46F8BDD046D1E7C04694
:10352000F0B54F464646D646C0B584B098460EAB79
:103530001B78129F994694460D9C109B119EBA07CA
:1035400025D4002E69D19C4200D3C2E001223A402A
:1035500092461F2C00D9BBE00C9A551E302201E088
:10356000202C03D001342A55A342F9D85246002A10
:103570000DD0B4420BD21F2C62D80C9A551E3022AB
:1035800001E0202C5CD001342A55B442F9D1FA066E
:1035900035D57A055DD4002C57D10F9B102B00D167
:1035A0007CE00F9B022B00D18DE030230C9A01248C
:1035B00013704B46002B27D02D230C9A1355013442
:1035C0000C9B624600930397434602960194FFF7D3
:1035D0003FFF04B01CBC90469946A246F0BDBB0616
:1035E00063D4202CECD00C9B1A190134782313706F
:1035F000202CE5D030220C9B1B191A700134202C92
:10360000DED04B46002BD7D17B0735D43B07D7D52F
:1036100020230C9A13550134D2E7012215003D40B6
:10362000AA463A4220D04A46002A2AD10C323A42CF
:1036300027D19C429DD21F2C00D88DE7202E19D96E
:103640002024FA06BCD57A0503D4A3421BD0A64297
:1036500019D00F9B102BC2D0022BC9D1202CAFD078
:103660000C9B1B19013440E09C4200D38FE71F2CB8
:1036700000D871E720248AE72B230C9A13550134D4
:103680009EE7013ED5E7631E012C00D185E70F9A26
:10369000102A20D0022A25D01C00ABE7BB060DD48F
:1036A00078230C9A01241370A4E7202C00D187E71B
:1036B00058220C9B1B191A70013499E758230C9A55
:1036C0000124137096E70C9A60330124137091E77C
:1036D000202400265BE7023CBA06E9D40C9A1219B2
:1036E0001C0083E70C9A9246534462221A707FE7CB
:1036F00010B5002800D110BD02F02EFCFBE7C0463B
:103700000B0010B5002802D049681B68984710BD0F
:10371000F0B5DE46574645464E46E0B59BB09B4663
:10372000249B0A909846259B0B910C92404642465A
:1037300019009A4601F02DFD002800D0E8E0012292
:10374000404651467F4B524201F01EFD002800D0FA
:10375000DEE00122404651467B4B524201F0FEFC26
:10376000002800D0D4E0002200234046514601F05A
:10377000F5FC002800D0CAE15346C14609938023D6
:10378000289ADB001A400E92289A1A4201D1062389
:1037900026934C46099B234300D0D9E0289B002662
:1037A00000271B0500D4AEE100230D93269B1900D2
:1037B0000D9B994200DCB0E1C81A431E269380237A
:1037C000289ADB001A430023002528920D93279B9B
:1037D0000024AB4200D95C1B0223289A1A400E92A7
:1037E000289A134203D06B426B415B421C400D9BF5
:1037F000002B07D04846099932003B0001F05BFCE2
:1038000081460991002200234046514601F0A6FC62
:10381000002805D08020000684460999614409915A
:10382000289A4A4B0A9E13404A460493269B0B99BA
:103830000293099B03940092019330005B460C9A1B
:10384000884600F0A1F90400002D72D0289B2200C8
:1038500098061F23C017984341465B466530B04722
:103860000D9B671CDA179C18DB0F98466B1E994658
:103870000025544001E0202D13D00AAA94461F23AE
:10388000200063440A2101355E1901F0BDF9303191
:10389000317020000A2101F0B7F926000400092E3A
:1038A000E9D8052306934B460593002304930A3376
:1038B000039343463A000A9E0B9F029312AB009378
:1038C00039005B4630000195FFF72AFE0E9B04008D
:1038D000002B2ED00C9B279AC51AAA4229D93C004E
:1038E000814698461700434621005A1920205B461E
:1038F0000135B047AF42F6D84C460C992798631A69
:1039000001330022984200D30AE10134141910E077
:10391000289B42460493279B0B990393269B0A9866
:1039200002935346009201935B460C9A00F02CF9E7
:10393000040020001BB03CBC90469946A246AB4612
:10394000F0BDC046FFFFEF7FFFFFEFFFFFF7FFFF78
:10395000764B099D9C466800400D604401F02CFCAC
:10396000734A744B01F0B0FB734A744B01F09AFB3D
:103970002B03734A1B0B1A4306000F00714B1100F7
:1039800048460022099501F084FB6F4A6F4B01F015
:103990009BFB02000B003000390001F083FB01F0BB
:1039A00023FC0D9001F008FC694A6A4B04000D00ED
:1039B00001F08AFB0022684B01F074FB01F014FC5B
:1039C000664A0600664B2000290001F07DFB0400DA
:1039D00030000D000F9601F0EFFB624A624B01F0E0
:1039E00073FB02000B002000290001F052FB0200D3
:1039F0000B0006000F0001F067FB320004000D0011
:103A00003B003000390001F04DFB00221090119175
:103A1000564B2000290001F04EFB0022544B01F0D0
:103A200041FB02000B002000290001F044FB0022B2
:103A3000504B01F037FB02000B002000290001F081
:103A40003AFB0D00802132003B000400C905002034
:103A500001F01FFB02000B002000290001F022FBF7
:103A600002000B001098119901F025FB0022344B45
:103A700001F018FB404A0F9B9446634400221B054B
:103A800001F022FB06000F0002000B0048460999D6
:103A900001F064FB00280AD00D9B3000013B390087
:103AA0000D930022324B01F006FB06000F00C625E5
:103AB0000D99330063318D42AD4128996D42043533
:103AC000090500D483E63B4300D16FE6099C4846D4
:103AD00021002A4A2A4B01F04FFB002808D000227F
:103AE00048462100274B01F039FB002800D05DE655
:103AF000269B002B00D16AE60E9B5A1E9341269A04
:103B0000D31A269363E6002304250D935FE68023F2
:103B10001B065344C146099331E6002326934EE623
:103B20000A008446013A6244121BEEE601FCFFFFE4
:103B3000FB799F501344D33FB3C8608B288AC63F9C
:103B40000000F03F0000F83F61436F63A787D23F5A
:103B500071A379094F930A400000E03F1655B5BBA9
:103B6000B16B0240EF39FAFE422EE63F00002C40D6
:103B70000000244000001840FF0300002D431CEB10
:103B8000E2361A3F80842E41F0B54E46DE46574657
:103B90004546E0B597B09946209E219F229B8346DB
:103BA000984607910C923B0032003000390001F03A
:103BB000F0FA002800D0C1E1012230003900CA4BE0
:103BC000524201F0CBFA002800D0E0E001223000A0
:103BD0003900C64B524201F0D7FA002800D0B6E0B7
:103BE000002230003900C24B01F0CEFA002800D08C
:103BF00098E0002230003900BE4B01F0AFFA0028F7
:103C000000D08FE0002200233000390001F0A6FA36
:103C1000002800D0B0E000230D93249B5B0501D465
:103C20000623984608AB9C461722002430234146C1
:103C3000624404E0013413550139202C01D00929D4
:103C4000F8D888463000390001F0CEFA4346DA0051
:103C5000A94B05009B181A685B680892099301F04C
:103C6000ABFA02000B003000390001F012FA089A9A
:103C7000099B01F029FA0A900B9101F0D9FA8246CA
:103C800001F096FA02000B000A980B9901F001FA74
:103C900000229A4B0A900B9101F076FA002800D18D
:103CA000C0E001239C46E244504601F081FA020044
:103CB0000B000898099901F057FA002802D0002358
:103CC0009A4601354346002B69D008AB17269C461F
:103CD00008956644554614E001235B4243440A219B
:103CE00028009A4600F090FF0134303137193970BE
:103CF00028000A2100F088FF092D00D8D5E0D04621
:103D00000500202CE8D10323249A1340012B00D175
:103D100000E10EAB9846249B01940393239B0293EE
:103D200043461EE0249B58460493239B009601972C
:103D3000039343460C9A029307994B46FFF7E8FC1E
:103D400017B03CBC90469946A246AB46F0BD249BBA
:103D50005B070ED403226A4B2499019203912399A5
:103D60000291009358464B460C9A0799FFF770FB57
:103D7000E6E70422634BEFE73B003200002000211E
:103D800001F087F9012306000F000D9345E7249BFE
:103D90000393239B0293042301935B4BE1E72800E9
:103DA00001F00AFA02000B003000390001F071F94D
:103DB000524B002206000F0001F0D0F90EAB9846DE
:103DC00000280AD10022300039004C4B01F0DCF908
:103DD000002802D1EB0700D50135202C32D008AAEB
:103DE00094461723280063440A2101341E1900F069
:103DF000DFFE3031280031700A2100F0D9FE051EA7
:103E0000EBD10323249A1340012B00D191E01F2C06
:103E100000D980E70D9B002B3BD02D234246135544
:103E2000013478E700220A980B99344B01F096F997
:103E3000002800D046E75346002B67D101239C465B
:103E4000E2443FE70323249A1340012B00D062E7AA
:103E5000239B002B00D15EE70D9B002B03D1249AFE
:103E60000C33134202D0239B013B2393239B9C42A0
:103E7000CDD208AB9C461722302362441F2C06D8B3
:103E80002399013413558C42C1D0202CF8D1202421
:103E900041E7249B5B0721D4249B1B0700D43AE70E
:103EA000202342461355013435E75746089D202C00
:103EB00037D0220030214046002F08D00132B154C3
:103EC000202A43D0D3431B191B18002BF6D10EAB6D
:103ED00098462E234146541C8B547EE72B234246A2
:103EE0001355013417E7C046FFFFEFFFFFFFEF7FD9
:103EF00065CDCD4165CDCDC1281604100000E03F51
:103F0000301404103414041040140410DB0700D4DF
:103F1000D8E693E7239B002B00D1FAE60EAB984638
:103F20009AE70323249A1340012B00D0F1E60EAB4D
:103F30009846239B002B00D169E78DE7249B0393D0
:103F4000239B029303230193064B0AE70323249A3E
:103F500020241340012B00D0DBE6239B2024002BE0
:103F6000DCD1D6E63C140410F0B5DE464E4657468A
:103F70004546E0B59FB01C00289B93460993CF4A65
:103F8000CF4B894608901A60002900D116E2002321
:103F900020789A46002800D118E226001D004C46E1
:103FA0000AE02A006F1C5B46089D2100A8473D00DF
:103FB0000136307800287AD02528F2D110239A468D
:103FC000083B9946043B9846023B00219C46721CE4
:103FD000107816000300203BDBB2102B03D8B94F3A
:103FE0009B00FB589F460300303B092B3CD9002324
:103FF0000A932A2800D171E0002398462E2847D042
:104000000300683BDBB2122B1FD8AF4A9B00D3588A
:104010009F46012301321943DAE76346013219430F
:10402000D6E7434601321943D2E7534601321943DA
:10403000CEE74B4601321943CAE770786C2800D1AD
:10404000BFE280235B00194301360300253BDBB24E
:10405000532BA6D89D4A9B00D3589F4680235B00D4
:10406000707819430136F0E700270300B800C01943
:1040700001364000C018337830381A00303A070053
:10408000092AF3D90A901800002398462E28B7D1A0
:1040900080237078DB0019430300303B721C092B2E
:1040A00000D895E12A2800D1A6E11600A8E7A1468C
:1040B000AA462C00D34503D801235B425B449A46B1
:1040C0005B46524649460020089DA84720001FB085
:1040D0003CBC90469946A246AB46F0BD099B40CBFE
:1040E0000A96002E03DB50780993561C84E7283883
:1040F000014370420A9009935078561C7CE7782857
:1041000000D1D4E1582800D168E26F2800D152E3F1
:10411000622800D1D8E110230A009A430B92692843
:1041200001D000F0A2FC0A230C934B0500D4D5E18A
:1041300001230B9A9A430B92692800D1CEE164289F
:1041400000D1CBE10B9A802311009B0019408A46D5
:104150001A4200D032E3802311005B0019408946E7
:104160001A4201D000F002FC13005B0600D510E3F8
:104170000B9B1B0601D400F06EFC099B04CB1204C0
:10418000120C924609935346002B00D064E30B9A1D
:104190001033110099430B91520500D45CE30023C6
:1041A00099460B9B06930A9B0593434604930C9BED
:1041B00003930023DEE27078682800D107E28023B1
:1041C0000136194341E780239B007078194301367B
:1041D0003BE7462800D174E10722099B049107338D
:1041E00093430A9A19000392424602920CC9089816
:1041F0000092019309912A005B462100FFF7C4FC5D
:1042000001360500D5E6099B1A0008CA9146002B25
:1042100000D105E1212211438A460EA884461F21C0
:104220006144099500220F27A4460D0002E0202AD0
:104230000CD00B003C001C4020003730092C00D86B
:1042400007380132A85419090F2BF0D86446099D8C
:10425000F0E08B0700D4D1E1099B2A0099466B1C42
:1042600098464B4601CB21009946089F5B46C0B259
:10427000B8470A9B9C466544012B00D890E2B246A1
:104280005E464746A846089D3A00330001372100A4
:104290002020A8474745F7D1B3464B4656463D0038
:1042A0000993013685E62A006F1C5B46089D2100B4
:1042B0002520A84701363D007BE6C046693F001037
:1042C0007C420020481404108C140410D8140410EC
:1042D000099B04CB994643460992002B00D097E0F6
:1042E00013789C46002B00D1B3E302235B425A1C97
:1042F000099B924618000A9F0B92504402E08342A9
:1043000000D169E15A780133002AF8D1099A0A9755
:104310009B1A0B9380230A00DB001A400C9219426F
:1043200004D00B9B434501D943460B9302231A004B
:104330000A400D920B4200D184E16046002823D050
:104340000C9B002B00D124E1A844C246099B574690
:104350005B1B9846089BB2462A0026005C469B469B
:1043600009E023003100551CD8474346585D00281A
:1043700000D13FE12A009742F3D1A3463D0034002B
:1043800056460D9B002B69D00B9B0A99A846994273
:1043900064D98C466544ED1A089B47469A46B04658
:1043A00026005C463A002300013731002020D04728
:1043B000AF42F7D1A346340046464FE0D24B2078B7
:1043C000089300239A46002800D0E6E5002471E611
:1043D000434606000A9F9800C01801324000801929
:1043E0001678030030003038303B0928F3D930000C
:1043F000984616000A9703E6099B023604CB9046BE
:10440000D2434046D2171040804609933078F7E5F2
:1044100013789C46002B00D11AE34346013B66E724
:1044200010220800904311321043824600224905B1
:1044300000D4F2E6534606930823059343460493BB
:10444000102303930023029316AB019200932A00DA
:104450005B4621000898FFF763F805004B460136DC
:104460000993A6E5202302009A43472A04D180231A
:104470001B01194302239843452801D120231943E6
:104480000722099B0491073393430A9A1900039268
:10449000424602920CC908980092019309912A00A1
:1044A0005B462100FFF734F90136050081E5102352
:1044B0000C930C230A009A430B924B0500D43BE665
:1044C00036E62023194387E602230C930B910B99C0
:1044D0006428EED10B9B5B0500D529E60B9A80235F
:1044E00011009B0019408A461A4200D0CEE080237A
:1044F00011005B00194089461A4200D0DBE113002D
:104500005B0600D51DE10B9B09991B0600D499E2BF
:1045100008C91BB2D8171A18424092B209919246A4
:10452000DA0F1292002B09D1802310220B99DB00A5
:104530000B4091430B91002B00D012E10B9A6123A9
:10454000920600D541230EA91F228C46DBB262449D
:104550000A3B57461395A2464D460C9CB1460D9317
:1045600016000AE03033DBB201357355A74200D2A2
:104570001CE1202D00D119E107002100380000F0D6
:1045800043FBCBB20929EDD90D9A94466344DBB2C3
:10459000EAE7099B5F465B1B98460A9BB3469A462F
:1045A0002600089C2A003B003100A0474346013505
:1045B000585D0028F6D1534634000A935E46BB4648
:1045C000DFE6C0239B00B078194302363DE5C023E7
:1045D000B0781943023638E50A979BE60C230A00A7
:1045E0009A4314331A4310230B920C934B0500D4B7
:1045F000A8E59DE5A34634005646C2E60A9A012A7C
:1046000000D82EE26B1E9F18089BB04699462600E4
:104610005C462A002300013531002020C847BD42F6
:10462000F7D1A34634004646099B3A0001CB21004E
:1046300098467D1C5B46089FC0B2B847434601368A
:104640000993B6E40B9A0A98531C904200D80AE2E8
:1046500043199B1A1F00089BB24626005C469B46E6
:104660002A002300013531002020D847BD42F7D170
:104670000A9BA34601330B93099B34001B785646D3
:104680009C466046002800D05AE6E7E60722099BD0
:1046900007339343013294469C4462465F68099213
:1046A0001A68FB1710931193109811990300534047
:1046B0000E930B007B400F9394460E9A0F9B121A99
:1046C0008B410E920F93FB0F6246129300233A43E5
:1046D0009A463DD00B9A6123920600D541230022D1
:1046E000DBB20EA90A3B8C4691460D9343461F321E
:1046F0006244139515964D460E9E0F9FA146904617
:104700000C9C14930FE0C0464D3400103032D2B2EE
:10471000434601355A55BA4500D17CE1202D00D1E0
:104720007CE106000F00220000233000390000F079
:10473000B1FAD2B2092AE9D90D9B9C466244D2B2A1
:10474000E6E7FF23099904C913401A000991E6E638
:104750000B9A1033110099430B915205BAD50023DF
:1047600099460B9B06930A9B0593434604930C9B27
:104770000393129B02934B46019316AB2A000093BE
:1047800021005B460898FEF7CBFE01360500FFF7D7
:1047900010FCFF22099B02CB11408A460993F2E4E8
:1047A0004B46454609930136FFF703FC4E465446F7
:1047B000A946139DD5E708230C9387E60722099B9A
:1047C00007339343013294469C44624609921A6827
:1047D0005B6810009A4613005246134307D10B9AA8
:1047E0001033110099430B91520500D5D7E40B9A71
:1047F0006123920600D541230022DBB20EA90A3BB9
:104800008C4691460D9343461F326244574612959B
:10481000A2464D460400B14690460C9E13930DE00F
:104820003032D2B2434601355A550023BB4200D143
:10483000FDE0202D00D1FDE004000F003200002338
:104840002000390000F026FAD2B2092AE8D90D9BDF
:104850009C466244D2B2E5E70B9A6123920600D5EA
:104860004123DBB20EA90A3B1F228C460D93230085
:1048700062445446129517004D469A46B1460C9E26
:1048800008E03033DBB201357B55B4420ED3202D26
:104890000CD004003100200000F0B6F9CBB2092999
:1048A000EFD90D9A94466344DBB2ECE74E4654468A
:1048B000A946129D75E4099B1A0008CAD9171392DC
:1048C0005A184A409146DA0F1292002B08D18023E1
:1048D00010220B99DB000B4091430B91002B2BD145
:1048E0000B9A6123920600D541230EAA1F279446F6
:1048F000DBB20A3B0D95674455460993A2464C46E8
:10490000B1460C9E08E03033DBB201357B55B44232
:104910000ED3202D0CD004003100200000F074F9DB
:10492000CBB20929EFD9099A94466344DBB2ECE78C
:104930004E465446AA460D9D0B9B2A0006930A9BA1
:1049400021000593434604930C9B08980393129B04
:10495000013602935346019316AB00935B46FEF774
:10496000DFFD139B05000993FFF723FB099B04CB95
:1049700091461293002A08D1802310220B99DB0064
:104980000B4091430B91002B2BD10B9A6123920684
:1049900000D541230EAA1F279446DBB20A3B0D9592
:1049A000674455460993A2464C46B1460C9E08E022
:1049B0003033DBB201357B55B4420ED3202D0CD001
:1049C00004003100200000F01FF9CBB20929EFD913
:1049D000099A94466344DBB2ECE74E465446AA4635
:1049E0000D9D0B9B2A0006930A9B210005934346CD
:1049F00004930C9B0898039300230293534601935E
:104A000016AB00935B46FEF78BFD129B05000993E6
:104A10000136FFF7CEFAB44200D87FE6149B4C462D
:104A20000E960F97A9469846159E139D99E6A642A5
:104A300000D8FEE6139B4E469846A9465446129D62
:104A4000FFF7AFFB08C9D8171A184240099166E56D
:104A500000230B935EE4099B04CB92460993FFF776
:104A600092FB2F00E0E50B930BE6063B0C932EE543
:104A70000EB4012210B585B007AC08CC010000943B
:104A8000524204480394FFF76FFA05B010BC08BC0B
:104A900003B018474534001000B583B000931300ED
:104AA0000A0001000248FFF75FFA03B000BDC046EC
:104AB0004534001000B585B00391012102900093A8
:104AC000034813004A4202A9FFF74EFA05B000BDA1
:104AD000013700100FB410B50C4984B006AA08CAFB
:104AE0000C680392002C0BD000920122084852421D
:104AF00002A9A047012004B010BC08BC04B01847AC
:104B0000180001F037FA0020F5E7C0467C4200208B
:104B1000F136001010B5094A0300146884B0002C67
:104B200008D0012200910648524203A9A047012063
:104B300004B010BD01F01EFA0020F9E77C4200200D
:104B4000F136001001480421014B1847F0130020F2
:104B5000754B0010142310B50100188804331B880E
:104B6000984710BD162310B50100188802331B8822
:104B7000984710BDF0B5C64600B5002916D01423DD
:104B800004000125984618278900461843462168E5
:104B900018883B88984701C4431E9841404205400D
:104BA000A642F3D1280004BC9046F0BD0125F9E7E8
:104BB000144A936F9B0815D29066D166002905D0E0
:104BC000FFE7FFE7FFE7516F106F704704B58021E3
:104BD0000906C2175140002800D0C8433CF04CFAE7
:104BE000002104BD936F5B08FDD3F0B5946ED56EC4
:104BF000576F166FFFF7E0FF9466D5665767166725
:104C0000F0BD0000000000D0134A936F9B0813D240
:104C100010665166002905D0FFE7FFE7FFE7516FF7
:104C2000106F704704B5002801D00020C0433CF04D
:104C300023FA002104BDC046936F5B08FDD3F0B595
:104C4000946ED56E576F166FFFF7E2FF9466D566C8
:104C500057671667F0BD0000000000D094464E4A2A
:104C6000926F9208624601D230E0C046F0B54A4EDB
:104C7000B56F6D08FCD3346E756E776F366F00F0CC
:104C800025F89446444A1466556657671667624687
:104C9000F0BDC0469446404A926F9208624601D2E7
:104CA00058E0C046F0B53C4EB56F6D08FCD3346E8D
:104CB000756E776F366F00F04DF89446364A14667D
:104CC0005566576716676246F0BDC046002B24DB69
:104CD00011D000293EDA00B5C943404200D101316C
:104CE00000F038F8C943404200D10131DB43524261
:104CF00000D1013300BD002AEBD1002801D10029E9
:104D000005D00020C90FC90701D1C043410800B533
:104D10003CF07AF90022002300BD00B500290ADB2F
:104D2000DB43524200D1013300F014F8C943404242
:104D300000D1013100BDC943404200D10131DB4304
:104D4000524200D1013300F005F8DB43524200D15A
:104D5000013300BD002923D1002B18D1002A0CD02B
:104D6000BC460D4F38667A6600210023FFE7FFE757
:104D7000FFE77A6F386F67467047002801D0074811
:104D8000010000B53CF040F90022002300BD020004
:104D90000B00002000217047000000D0FFFFFFFF44
:104DA000002B00D0BDE0130C26D1002AE7D080B440
:104DB000104F39667A66FFE7FFE730B4040C7B6F6B
:104DC000396F1B0423433B66FFE7FFE7FFE7C0465D
:104DD00084B27B6F3D6F1B0423433B66FFE7FFE715
:104DE000C04600232C042D0C7A6F386F00196941DE
:104DF000B0BC7047000000D0F0B594460025140EFA
:104E000001D112020835140F01D112010435940F9B
:104E100001D192000235D40F01D152000135D40BDB
:104E20000134254F7C66254C3C660E0C93B2FFE79F
:104E3000FFE7FFE73C6F6643360C7703BE467343DC
:104E4000DF0B5B04C01AB941130C7343DB18C91A9A
:104E5000CE086643360CB64493B273431F0F1B0152
:104E6000C01AB941130C73431F0B1B05C01AB9417B
:104E7000860D8F023E436643360C092D24DB520A11
:104E80007243801A7703460A6643360C16235B1B6F
:104E9000DE40DF40BF1964466643821B704604351E
:104EA00006330100D940A840C01900D30131A24205
:104EB00006D20023F0BD0000000000D0FFFFFFFF7E
:104EC000121B0130F3D3F1E709277F1BFE40644634
:104ED000A2B27243801A00D20139220C7243130C21
:104EE0001204821A99410B007046043513370100F1
:104EF000F940A840801900D30131002B02D1A24211
:104F00000AD2F0BD013000D30131121BFAD2013BAD
:104F1000F8D1A24200D2F0BD013000D30131121B02
:104F2000F7E7F0B51C0C00D080E00CB400251C0A9B
:104F300004D11B02160E3343120208351C0B04D198
:104F40001B01160F3343120104359C0B04D19B0047
:104F5000960F334392000235DC0B02D192185B416D
:104F600001351C00971864410134464F7C66464C5D
:104F70003C660E0CFFE7FFE7FFE7C0463C6F664369
:104F8000360C7703BE4697B27743C01B00D2013977
:104F9000C01B00D201399FB27743C91BC91B170C34
:104FA00077437E04FF0B801BB941CE086643360C65
:104FB0000C2D33DBB644120B1F053A431B0B97B283
:104FC0007743C01B00D201399FB27743C91B170C2E
:104FD00077433E043F0C801BB941860D8F023E4350
:104FE000664329277F1BFE400C3D7746AF40BF1923
:104FF00030BCA2B2ABB272437343801A9941220C07
:105000007243130C1204801A994102000B000137FD
:10501000001BA941F9D2781E0021F0BD0C277F1B8F
:10502000FE4077467F0BAF40FF19E0E700245D1C90
:1050300007D0144F7D663966FFE7FFE7FFE7FFE71C
:105040003C6F95B29EB265436643401BB141150C5F
:105050001E0C6543664336042F0C3E432D04401B53
:10506000B141994204D202000B0020000021F0BDA2
:1050700001D19042F7D3801A994101349942F2D379
:10508000F6E70000000000D0FFFFFFFF484041406E
:10509000484018B4114B5B68FC46019308BD04DF1F
:1050A000AF53001018B40D4B1B68FC46019308BDAC
:1050B00000DFB953001018B4084BDB68FC460193BD
:1050C00008BD0CDF7156001018B4044B9B68FC46F9
:1050D000019308BD08DF155500100000244300208F
:1050E000FFB550404240504059404B40594000E0CD
:1050F000FFB5154F4C00640D03D0BC4204D10C0326
:1051000014D80020090D09055C00640D03D0BC42D1
:1051100004D11C030AD800221B0D1B0501264B409D
:1051200009D44B4003D58B4200D18242FFBD994246
:10513000FCD19042FFBD0B43DB1803431343F5D072
:10514000C9434918FFBD0000FF07000000B5FFF785
:10515000CFFF01D0002000BD012000BD00B5FFF74A
:10516000C7FF804100BDC04600B5FFF7C1FF01D9B0
:10517000002000BD012000BD00B5FFF7B1FF01D93F
:10518000002000BD012000BD00B5FFF7A9FF804150
:1051900000BD012040054A00121804D85A00121818
:1051A00001D80020704701207047002070470000A0
:1051B0000021002805D17047C1174840401AFAD095
:1051C000C90713B5064B1B6898470CBC441CA2408A
:1051D0001005120B0349091B09051943114310BDA2
:1051E000244500201F04000010B54C00620D8023F0
:1051F000D218DB00D21A5B057E2A10DD9E3A13DA44
:10520000CC170903490819435242D14064000134C4
:105210001532202A05DAD0400843604310BD002033
:1052200010BD0846604310BDC80FC018013810BD3E
:1052300018B4044B5B6AFC46019308BD24DF9D58FB
:10524000001000002443002018B4044BDB6DFC4622
:10525000019308BD5CDFA559001000002443002025
:10526000C94211D300B549004908002200F018F8DE
:10527000002904D4002240428A41114600BD802109
:105280000906002000BD000018B4044BDB6EFC468C
:10529000019308BD6CDFAB580010000024430020D0
:1052A00018B4044B9B6FFC46019308BD78DFC758C8
:1052B000001000002443002018B4044BDB6FFC46B0
:1052C000019308BD7CDF3159001000002443002009
:1052D000132370B51D78012D10D00BDD2448FFF786
:1052E00041FC244C01008022200000F01DFD022D15
:1052F00001D070BD1F4C204AA264FAE72E001D4C5D
:105300001D4AA3085B421E401D422FD0330022607D
:105310002020B1006118801B0A604A608A60CA6060
:105320000A614A618A61CA610A624A628A62CA6221
:105330000A634A638A63CA630A644A648A64CA6401
:105340000A654A658A65CA650A664A668A66CA66E1
:105350000A674A674008102803D18A67CA67A264AF
:10536000C7E71E339B00E250A264C2E70023CFE7E9
:1053700053440000244300207D53001007B56046CD
:1053800001880A0A0230DF2AFAD1C9B2820804D39E
:10539000028840880004104300E00068014A505031
:1053A000039007BD244300200FB403BC0CBCF0B530
:1053B0000124E407634000E0F0B50C0DCF0F661E3A
:1053C0003605891B640503D3C943404200D301312C
:1053D000640D03D0661CF60A07D0E41B00207F0092
:1053E000791C89078912803C24031D0DDF0F6E1E76
:1053F00036059B1B6D0503D3DB43524200D30133BB
:105400006D0D03D06E1CF60A07D0ED1B00227F0045
:105410007B1C9B079B12803D2D032F1B661B58D4C2
:10542000A446202E46DA20371400BC401D00BD40A3
:10543000F24033412A4380185941CB0F05D0C9436C
:10544000C043002264425041514162464D0D28D173
:105450000D0D07D100281FD0241940414941013AC0
:105460000D0DF9D0640006D3013000D30131002CBA
:1054700001D140084000013A0BD4941CE40A04D145
:1054800012051144DB071944F0BDD907204B19431D
:1054900000E0D9070020F0BD0029DDD1002CDBD1D0
:1054A000F0BD0132C6074008CD0728434908002E49
:1054B000E1D0D9E73C2E29DA203E40371400BC4029
:1054C00000D00124F24014431A00BB401C43D31700
:1054D000ACE7AC46202F08DA20360400B4400D00BB
:1054E000B540F84039412843A5E73C2F0CDA203F6E
:1054F00040360400B44000D00124F84004430800C2
:10550000B1400C43C117EAE710001900002494E7EA
:105510000000F07FF0B50C0D661E3605891BE60A0B
:105520006405640D02D0651CED0A04D00020012141
:105530000905803C2403A4461C0D671E3F05DB1BA8
:10554000E70A6405640D02D0651CED0A04D0002250
:1055500001231B05803C24037740644497B484B244
:1055600096B27443070C7E43150C6F4380B26843B8
:10557000361802D3012000043F183004350C0019FE
:105580007D41844688B29AB250430C0C62431F0C92
:105590007C438EB27E43921902D301263604A419AD
:1055A0001604170C3618674101BC81B29AB25143F8
:1055B000040C62431B0C5C4380B25843121802D3A4
:1055C0000120000424181004130C401863412D1806
:1055D0005E410020474106BC88B293B258430C0C90
:1055E0006343120C544389B251435B1802D3012127
:1055F0000904641819041A0C091862416D185641FF
:105600000020474118BCF902720D1143F0026A0DE7
:105610001043ED020A0D03D16D1940414941013B90
:10562000124E9B1B7600B3420ED26D0007D30130A1
:10563000002671416646354301D1400840001B05F4
:10564000C918E4072144F0BD0BDA013306D101305B
:1056500004D101314F0D01D04908F2E7E1070020E4
:10566000F0BD013631050020EBE70000FF0300002C
:10567000F0B51C0D671E3F05DB1BE70A6405640DD2
:1056800002D0661CF60A04D0002201231B05803CD0
:105690002403D0252D060026F6432E661E096E66CD
:1056A000CE0FF619B44649004F0D02D07E1CF60A03
:1056B00003D000200021403F3F033E1BB600B4440E
:1056C000013F7F05C91B49082E6F013676089C02F1
:1056D000950D25437543ED137543AD1301356D10DD
:1056E000F603761B0CB4CC02450D2C43A2B2B3B228
:1056F0005A43270C7B43350C6F43A4B26C431B19F0
:1057000002D3012424043F191C041D0CA4187D415C
:1057100024196D41009A91B2ACB26143170C7C43DD
:105720002B0C5F4392B25A43A41802D301221204F5
:10573000BF182204230C52187B41019C6C431B1997
:10574000520ED9010A434401A01A81B2B2B25143A8
:1057500003145A43360C734387B27743D617D219D2
:1057600000277E4136049B191704160C7F185E41F2
:105770007316ED18F301002680337541A90F06D189
:105780006400690AE8055B0A184309D22FE0042285
:10579000944480337541A90AA8059B0A184326D36F
:1057A000404149412404009A019B0D005543641B6C
:1057B0004343E41A95B286B27543170C7E43030C3B
:1057C0005F4392B25A43B61802D301221204BF18A3
:1057D0003204330C52197B4152429C41002C02D4BA
:1057E0000022013051414008CA071043490802B065
:1057F0006246D7079210084BD218084B9A4203D240
:1058000012058918C919F0BD0020002A01DC3900F1
:10581000F0BD01331905F5E7FD030000FE070000A8
:10582000624618CA944600291ADAC01861415B46DC
:105830003B415C46B4405246FA40224344464D4602
:1058400062416B41904699462B46B3403D41FC4036
:105850001C4352465B46A241AB4192469B46704771
:10586000C01AA1414B463B414C46B4404246FA4027
:10587000224354465D4662416B4192469B462B460D
:10588000B3403D41FC401C4342464B46A241AB4124
:10589000904699467047002000217047002200B5CD
:1058A000203200F010F8080000BD002200B500F022
:1058B0000CF8CA179A4200D100BDD8430121C9078C
:1058C000414000BD00220B15E5D410B5944600F010
:1058D000A5F81414013400DA0021CB17134C20472B
:1058E0006244343A0CD40C2A07DA04009140904008
:1058F00052422032D440214310BDD843D94310BD79
:10590000203207D40C469440524220321141D040FC
:10591000204310BD0800C917203203D45242203260
:10592000104110BD1800190010BD0000E158001012
:105930004A00520D144BD21A13DDFF2A1EDAD2058B
:10594000CB0FDB071A43C300400F0903490A084382
:1059500010435B0001D301D0013070474308FBD2F4
:10596000704702D0C80FC00770470A0312130132F4
:10597000F8D1420F072AF5D1012200E0FF22C80F1B
:1059800000028018C00570478003000000210A0053
:10599000002104E000210A00C11704E000220023D6
:1059A00006E0C0460022CB1758405940C01A994122
:1059B00030B5184CA21A002903D1010010D00020E4
:1059C000203A4C1512D104D2013A001849414C0D2D
:1059D000FAD3114CA24204D212058918DB07C91868
:1059E00030BDD243520D00200021F5E703D4013A27
:1059F00000184941FBD50B324405C00A4D05284328
:105A0000C90A640003D0002460416141E1E7E0D3AA
:105A10004408F8E732040000FE0700000A0DCC0F2E
:105A2000531E1B05C91A520503D3C943404200D374
:105A30000131520D03D0531CDB0A07D0121B00208A
:105A40006400611C89078912803A1203014BD21A43
:105A500070470000FF03000051434343C9188C46C0
:105A6000110C83B24B4310B4040C614392B280B268
:105A7000504362431C041B0C001910BC5941130411
:105A8000120CC01851416144704700004840414029
:105A90004840064B5B681847044B1B681847034B8C
:105AA000DB681847014B9B6818470000244400201E
:105AB00007B548404140484001E0C04607B54200B4
:105AC000120E03D0FF2A03D1420218D8C00DC00520
:105AD0004A00120E03D0FF2A03D14A020FD8C90D83
